S01600002E2E2F464548526F626F74436F64652E733139FF
S32D0000C00000000020350C0100910F0100910F0100910F0100910F0100910F01000000000000000000000000008B
S32D0000C02800000000910F0100910F010000000000910F0100910F0100910F0100910F0100910F0100910F0100E2
S32D0000C050910F0100910F0100910F0100910F0100910F0100910F0100910F0100910F0100910F0100910F010078
S32D0000C078910F0100910F0100910F0100910F0100910F0100910F0100910F0100910F0100910F0100910F010050
S32D0000C0A0910F0100910F0100910F0100910F0100910F0100910F0100910F0100910F0100910F0100910F010028
S32D0000C0C8910F0100910F0100910F0100910F0100910F0100910F0100910F0100910F0100910F0100910F010000
S32D0000C0F0910F0100994B0100910F0100910F0100910F0100910F0100910F0100910F0100910F0100910F010094
S32D0000C118910F0100910F0100910F0100910F0100910F0100910F0100910F0100910F0100910F0100910F0100AF
S32D0000C140910F0100910F0100910F0100910F0100551E0100910F0100910F0100910F0100910F0100910F0100B4
S32D0000C168910F0100910F0100910F0100910F0100910F0100910F0100910F0100910F0100910F0100910F01005F
S32D0000C190910F0100910F0100910F0100910F0100910F0100910F0100E10F0100910F0100910F0100910F0100E7
S32D0000C1B8910F0100910F0100910F0100910F0100910F0100910F0100910F0100910F0100910F0100910F01000F
S32D0000C41081F0004102E000BF83F0004330B54FEA41044FEA430594EA050F08BF90EA020F1FBF54EA000C55EAC6
S32D0000C438020C7FEA645C7FEA655C00F0E2804FEA5454D4EB5555B8BF6D420CDD2C4480EA020281EA030382EA0F
S32D0000C460000083EA010180EA020281EA0303362D88BF30BD11F0004F4FEA01314FF4801C4CEA113102D0404263
S32D0000C48861EB410113F0004F4FEA03334CEA133302D0524263EB430394EA050F00F0A780A4F10104D5F1200E8A
S32D0000C4B00DDB02FA0EFC22FA05F2801841F1000103FA0EF2801843FA05F359410EE0A5F120050EF1200E012A2D
S32D0000C4D803FA0EFC28BF4CF0020C43FA05F3C01851EBE37101F0004507D54FF0000EDCF1000C7EEB00006EEB67
S32D0000C5000101B1F5801F1BD3B1F5001F0CD349085FEA30004FEA3C0C04F101044FEA445212F5800F80F09A8000
S32D0000C528BCF1004F08BF5FEA500C50F1000041EB045141EA050130BD5FEA4C0C404141EB010111F4801FA4F114
S32D0000C5500104E9D191F0000F04BF01460020B1FA81F308BF2033A3F10B03B3F120020CDA0C3208DD02F1140C87
S32D0000C578C2F10C0201FA0CF021FA02F10CE002F11402D8BFC2F1200C01FA02F120FA0CFCDCBF41EA0C019040B1
S32D0000C5A0E41AA2BF01EB0451294330BD6FEA04041F3C1CDA0C340EDC04F11404C4F1200220FA04F001FA02F3B6
S32D0000C5C840EA030021FA04F345EA030130BDC4F10C04C4F1200220FA02F001FA04F340EA0300294630BD21FAA8
S32D0000C5F004F0294630BD94F0000F83F4801306BF81F480110134013D4EE77FEA645C18BF7FEA655C29D094EA1C
S32D0000C618050F08BF90EA020F05D054EA000C04BF1946104630BD91EA030F1EBF0021002030BD5FEA545C05D1A3
S32D0000C6404000494128BF41F0004130BD14F580043CBF01F5801130BD01F0004545F0FE4141F470014FF0000031
S32D0000C66830BD7FEA645C1ABF194610467FEA655C1CBF0B46024650EA013406BF52EA033591EA030F41F40021D7
S32D0000C69030BD00BF90F0000F04BF0021704730B54FF4806404F132044FF000054FF0000150E700BF90F0000F66
S32D0000C6B804BF0021704730B54FF4806404F1320410F0004548BF40424FF000013EE700BF42004FEAE2014FEAF9
S32D0000C6E031014FEA02701FBF12F07F4393F07F4F81F06051704792F0000F14BF93F07F4F704730B54FF460741B
S32D0000C70801F0004521F0004120E700BF50EA010208BF704730B54FF000050AE050EA010208BF704730B511F046
S32D0000C730004502D5404261EB41014FF4806404F132045FEA915C3FF4DCAE4FF003025FEADC0C18BF03325FEAA0
S32D0000C758DC0C18BF033202EBDC02C2F1200300FA03FC20FA02F001FA03FE40EA0E0021FA02F11444C1E600BF19
S32D0000C78070B54FF0FF0C4CF4E06C1CEA11541DBF1CEA135594EA0C0F95EA0C0F00F0DEF82C4481EA030621EAF3
S32D0000C7A84C5123EA4C5350EA013518BF52EA033541F4801143F4801338D0A0FB02CE4FF00005E1FB02E506F05F
S32D0000C7D00042E0FB03E54FF00006E1FB03569CF0000F18BF4EF0010EA4F1FF04B6F5007F64F5407404D25FEA0F
S32D0000C7F84E0E6D4146EB060642EAC62141EA55514FEAC52040EA5E504FEACE2EB4F1FD0C88BFBCF5E06F1ED8D2
S32D0000C820BEF1004F08BF5FEA500E50F1000041EB045170BD06F0004646EA010140EA020081EA0301B4EB5C0487
S32D0000C848C2BFD4EB0C0541EA045170BD41F480114FF0000E013C00F3AB8014F1360FDEBF002001F0004170BDF0
S32D0000C870C4F10004203C35DA0C341BDC04F11404C4F1200500FA05F320FA04F001FA05F240EA020001F0004207
S32D0000C89821F0004110EBD37021FA04F642EB06015EEA430E08BF20EAD37070BDC4F10C04C4F1200500FA04F32F
S32D0000C8C020FA05F001FA04F240EA020001F0004110EBD37041F100015EEA430E08BF20EAD37070BDC4F12005C7
S32D0000C8E800FA05F24EEA020E20FA04F301FA05F243EA020321FA04F001F0004121FA04F220EA020000EBD37028
S32D0000C9105EEA430E08BF20EAD37070BD94F0000F0FD101F00046400041EB010111F4801F08BF013CF7D041EA6D
S32D0000C938060195F0000F18BF704703F00046520043EB030313F4801F08BF013DF7D043EA0603704794EA0C0FF1
S32D0000C9600CEA135518BF95EA0C0F0CD050EA410618BF52EA4306D1D181EA030101F000414FF0000070BD50EA38
S32D0000C988410606BF1046194652EA430619D094EA0C0F02D150EA013613D195EA0C0F05D152EA03361CBF10467B
S32D0000C9B019460AD181EA030101F0004141F0FE4141F470014FF0000070BD41F0FE4141F4780170BD70B54FF04D
S32D0000C9D8FF0C4CF4E06C1CEA11541DBF1CEA135594EA0C0F95EA0C0F00F0A7F8A4EB050481EA030E52EA03359B
S32D0000CA004FEA013100F088804FEA03334FF0805545EA131343EA12634FEA022245EA111545EA10654FEA002676
S32D0000CA280EF000419D4208BF964244F1FD0404F5407402D25B084FEA3202B61A65EB03055B084FEA32024FF461
S32D0000CA5080104FF4002CB6EB020E75EB030E22BFB61A754640EA0C005B084FEA3202B6EB020E75EB030E22BF22
S32D0000CA78B61A754640EA5C005B084FEA3202B6EB020E75EB030E22BFB61A754640EA9C005B084FEA3202B6EBEA
S32D0000CAA0020E75EB030E22BFB61A754640EADC0055EA060E18D04FEA051545EA16754FEA06164FEAC30343EAAC
S32D0000CAC852734FEAC2025FEA1C1CC0D111F4801F0BD141EA00014FF000004FF0004CB6E711F4801F04BF0143AE
S32D0000CAF00020B4F1FD0C88BFBCF5E06F3FF6AFAEB5EB030C04BFB6EB020C5FEA500C50F1000041EB045170BDBC
S32D0000CB180EF0004E4EEA113114EB5C04C2BFD4EB0C0541EA045170BD41F480114FF0000E013C90E645EA060EC3
S32D0000CB408DE60CEA135594EA0C0F08BF95EA0C0F3FF43BAF94EA0C0F0AD150EA01347FF434AF95EA0C0F7FF499
S32D0000CB6825AF104619462CE795EA0C0F06D152EA03353FF4FDAE1046194622E750EA410618BF52EA43067FF432
S32D0000CB90C5AE50EA41047FF40DAF52EA43057FF4EBAE12E74FF0FF3C06E000BF4FF0010C02E000BF4FF0010C75
S32D0000CBB84DF804CD4FEA410C7FEA6C5C4FEA430C18BF7FEA6C5C1BD001B050EA410C0CBF52EA430C91EA030FEC
S32D0000CBE002BF90EA020F0020704710F1000F91EA030F58BF994208BF90422CBFD8176FEAE37040F0010070476E
S32D0000CC084FEA410C7FEA6C5C02D150EA013C07D14FEA430C7FEA6C5CD6D152EA033CD3D05DF8040B704700BFCD
S32D0000CC308446104662468C461946634600E000BF01B5FFF7B7FF002848BF10F1000F01BD4DF808EDFFF7F4FF13
S32D0000CC580CBF012000205DF808FB00BF4DF808EDFFF7EAFF34BF012000205DF808FB00BF4DF808EDFFF7E0FF18
S32D0000CC8094BF012000205DF808FB00BF4DF808EDFFF7CEFF94BF012000205DF808FB00BF4DF808EDFFF7C4FF40
S32D0000CCA834BF012000205DF808FB00BF4FEA410212F5001215D211D56FF47873B3EB625212D94FEAC12343F0D6
S32D0000CCD0004343EA505311F0004F23FA02F018BF404270474FF00000704750EA013005D111F0004008BF6FF016
S32D0000CCF8004070474FF00000704700BF4A0011D212F5001211D20DD56FF47873B3EB62520ED44FEAC12343F085
S32D0000CD20004343EA505323FA02F070474FF00000704750EA013002D14FF0FF3070474FF0000070474FEA410241
S32D0000CD48B2F1E04324BFB3F5001CDCF1FE5C0DD901F0004C4FEAC0024CEA5070B2F1004F40EB830008BF20F09E
S32D0000CD700100704711F0804F21D113F13872BCBF01F00040704741F480114FEA5252C2F11802C2F1200C10FAB1
S32D0000CD980CF320FA02F018BF40F001004FEAC1234FEAD32303FA0CFC40EA0C0023FA02F34FEA4303CCE77FEA26
S32D0000CDC0625307D150EA01331EBF4FF0FE4040F44000704701F0004040F0FE4040F40000704700BF80F00040CC
S32D0000CDE802E000BF81F0004142001FBF5FEA410392EA030F7FEA226C7FEA236C6AD04FEA1262D2EB1363C1BF06
S32D0000CE10D218414048404140B8BF5B42192B88BF704710F0004F40F4000020F07F4018BF404211F0004F41F4FA
S32D0000CE38000121F07F4118BF494292EA030F3FD0A2F1010241FA03FC10EB0C00C3F1200301FA03F100F000432B
S32D0000CE6002D5494260EB4000B0F5000F13D3B0F1807F06D340084FEA310102F10102FE2A51D2B1F1004F40EB94
S32D0000CE88C25008BF20F0010040EA03007047490040EB000010F4000FA2F10102EDD1B0FA80FCACF1080CB2EB5F
S32D0000CEB00C0200FA0CF0AABF00EBC25052421843BCBFD0401843704792F0000F81F4000106BF80F400000132EB
S32D0000CED8013BB5E74FEA41037FEA226C18BF7FEA236C21D092EA030F04D092F0000F08BF0846704790EA010FD7
S32D0000CF001CBF0020704712F07F4F04D1400028BF40F00040704712F100723CBF00F50000704700F0004343F0DC
S32D0000CF28FE4040F4000070477FEA226216BF08467FEA23630146420206BF5FEA412390EA010F40F480007047C1
S32D0000CF504FF0000304E000BF10F0004348BF40425FEA000C08BF704743F0964301464FF000001CE050EA010264
S32D0000CF7808BF70474FF000030AE000BF50EA010208BF704711F0004302D5404261EB41015FEA010C02BF84465B
S32D0000CFA00146002043F0B64308BFA3F18053A3F50003BCFA8CF2083AA3EBC25310DB01FA02FC634400FA02FC6B
S32D0000CFC8C2F12002BCF1004F20FA02F243EB020008BF20F00100704702F1200201FA02FCC2F1200250EA4C0034
S32D0000CFF021FA02F243EB020008BF20EADC7070474FF0FF0C1CEAD0521EBF1CEAD15392EA0C0F93EA0C0F6FD019
S32D0000D0181A4480EA010C400218BF5FEA41211ED04FF0006343EA501043EA5111A0FB01310CF00040B1F5000FE7
S32D0000D0403EBF490041EAD3715B0040EA010062F17F02FD2A1DD8B3F1004F40EBC25008BF20F00100704790F058
S32D0000D068000F0CF0004C08BF49024CEA502040EA51207F3AC2BFD2F1FF0340EAC250704740F400004FF0000388
S32D0000D090013A5DDC12F1190FDCBF00F000407047C2F10002410021FA02F1C2F1200200FA02FC5FEA310040F1D5
S32D0000D0B8000053EA4C0308BF20EADC70704792F0000F00F0004C02BF400010F4000F013AF9D040EA0C0093F04C
S32D0000D0E0000F01F0004C02BF490011F4000F013BF9D041EA0C018FE70CEAD15392EA0C0F18BF93EA0C0F0AD00B
S32D0000D10830F0004C18BF31F0004CD8D180EA010000F00040704790F0000F17BF90F0004F084691F0000F91F0BB
S32D0000D130004F14D092EA0C0F01D142020FD193EA0C0F03D14B0218BF084608D180EA010000F0004040F0FE4051
S32D0000D15840F40000704740F0FE4040F4400070474FF0FF0C1CEAD0521EBF1CEAD15392EA0C0F93EA0C0F69D044
S32D0000D180A2EB030280EA010C49024FEA402037D04FF0805343EA111143EA10130CF000408B4238BF5B0042F14E
S32D0000D1A87D024FF4000C8B4224BF5B1A40EA0C00B3EB510F24BFA3EB510340EA5C00B3EB910F24BFA3EB9103A4
S32D0000D1D040EA9C00B3EBD10F24BFA3EBD10340EADC001B0118BF5FEA1C1CE0D1FD2A3FF650AF8B4240EBC25018
S32D0000D1F808BF20F0010070470CF0004C4CEA50207F32C2BFD2F1FF0340EAC250704740F400004FF00003013AF1
S32D0000D22037E792F0000F00F0004C02BF400010F4000F013AF9D040EA0C0093F0000F01F0004C02BF490011F4C9
S32D0000D248000F013BF9D041EA0C0195E70CEAD15392EA0C0F08D142027FF47DAF93EA0C0F7FF470AF084676E7AE
S32D0000D27093EA0C0F04D14B023FF44CAF08466EE730F0004C18BF31F0004CCAD130F000427FF45CAF31F0004376
S32D0000D2987FF43CAF5FE700BF4FF0FF3C06E000BF4FF0010C02E000BF4FF0010C4DF804CD4FEA40024FEA41039F
S32D0000D2C07FEA226C18BF7FEA236C11D001B052EA530C18BF90EA010F58BFB2EB030088BFC81738BF6FEAE1706E
S32D0000D2E818BF40F0010070477FEA226C02D15FEA402C05D17FEA236CE4D15FEA412CE1D05DF8040B704700BF16
S32D0000D310844608466146FFE70FB5FFF7C9FF002848BF10F1000F0FBD4DF808EDFFF7F4FF0CBF012000205DF839
S32D0000D33808FB00BF4DF808EDFFF7EAFF34BF012000205DF808FB00BF4DF808EDFFF7E0FF94BF012000205DF8A9
S32D0000D36008FB00BF4DF808EDFFF7D2FF94BF012000205DF808FB00BF4DF808EDFFF7C8FF34BF012000205DF8B1
S32D0000D38808FB00BF4FEA4002B2F1FE4F0FD34FF09E03B3EB12620DD94FEA002343F0004310F0004F23FA02F060
S32D0000D3B018BF404270474FF00000704712F1610F01D1420205D110F0004008BF6FF0004070474FF00000704797
S32D0000D3D8036803B11B181846704700BF03685A004CBF43F0004323F00043C018704700BF2DE9F84F0446914699
S32D0000D40041B301F1FF3BDA46002707EB0A0101EBD1756D1004EBC5063046FFF7E3FF8046681CAB4504EBC000FA
S32D0000D4280DD0FFF7DBFF0138C84504D9BD4209D005F1FF3AE5E7484505D26F1CE1E74FF0FF30F1E7002630469A
S32D0000D450BDE8F88F0E463046BDE8F88F30B52B4B83B004468D1E002B49D0284601A9AFF300800346002822D028
S32D0000D4782A4618460199FFF7BBFF054600281DD0FFF7ACFF6B68A064012B10D0281D002B22DBFFF7A3FF002164
S32D0000D4A0E06421650368002B0FDBFFF79BFF2061002003B030BD002323610520F9E720610920F6E72061092066
S32D0000D4C8F3E7C3F3036058B101280CD002280ED0002020610920E8E70122E0642265DDE7094B2361E1E7094AEF
S32D0000D4F000202261DDE7084900202161D9E7074B0749C81AC2100192B6E700BF0000000029DA000025DA0000AD
S32D0000D51821DA00005C8D01004C8F0100036810B50446D80706D4990704F1480009D500F00DFD23685A0709D572
S32D0000D54018070ED5D90613D510BD00F0FBFC23685A07F5D404F1D00000F004FD23681807F0D404F5D87000F036
S32D0000D56805FD2368D906EBD404F50C70BDE8104000F040BD2DE9F0470F1D054691460FCFADF5916D02AC261D09
S32D0000D5900FC60FCF0FC60FCF0FC697E80F00D5F80C80D5F818A0002786E80F00216C27602846FFF753FF06460C
S32D0000D5B8B94514BF4FF00A094FF00909FEB1A16B49F01009616401208DE8100449462A462B46C04700282BD1BA
S32D0000D5E0002E2AD1204692A94FF4107208F074FA082F28D1216C2846FFF730FF06464FF00909002EDFD1206CD1
S32D0000D60821464FF41072686192A808F061FA2F69294692AA4846B847A09B0746636401208DE8100449462A46AA
S32D0000D6302B46C0470028D3D00926304622B00DF5806DBDE8F087072FF6D1201D00F06EFC38B504460D46296C54
S32D0000D6582046FFF7FFFE50B92A6C23696261012021462A4698470828F1D0072801D00AF07FFB281D00F056FC9A
S32D0000D68011B933B10220704704298CBF0220012070470F2A01D90220704700EB820118464A68009B1A6070474D
S32D0000D6A810B50A4684B000210B4603AC0094FFF7E3FF039804B010BD11B933B10220704704298CBF0220012020
S32D0000D6D070470F2A01D902207047009900EB8202096818465160704710B584B004AB0C4643F8042D0021009330
S32D0000D6F822460B46FFF7E0FF04B010BD2DE9F04FCD6C8BB00C4655F8041B174600F008021E46039200F0030823
S32D0000D7200795002B40F0CF8009020691216D8DF821300323B8F1020F8DF8203008BFA56B11F0010340F0D3807B
S32D0000D748019304F158030293D5F80090B9F1000F00F0CB80022E00F0AE80B5F80090B5F802A00435A26C0F2198
S32D0000D7702AF0010B38469344FFF796FF834518D829F0010CE3440AF0010A09F00103584543EA4A092CBF002056
S32D0000D7980120B9F1010F12D032D2B8F1000F02D0002840F01D810435CEE70AF0010A09F0010343EA4A09002092
S32D0000D7C0B9F1010FECD1B8F1000F40F0B680C8B16B68D5F800909A1C19D0029A013309920DD0281DFFF7F8FDE6
S32D0000D7E84FEAD972014609AB204609F02BFB002800F0F280099A002A40F0BA800835A3E7B9F1020F03D00920D0
S32D0000D8100BB0BDE8F08F2B6823F000420092B8F1000F71D1002843D00398002840F0A1800098002800F0A08078
S32D0000D838009BDDF80C90DB0705F1040A40F1B480CDF810800596A846029E12E000998D4200F0D9800996FFF7B5
S32D0000D860BBFD5A46014609AB204609F0EFFAA946B0B90AF1040A05F1010950460996FFF7ABFD09AB01460022AE
S32D0000D888204609F0DFFA0AF1040A834609F101055046BBF1000FD9D04546059EDDF81080009A4A4564D02B68EB
S32D0000D8B0002B7BDB0099481C05EB800548E7D5F804A0083552E70B04C1F30740216D06930222B8F1020F05EB42
S32D0000D8D8800508BFA56B8DF8210011F001038DF820203FF42DAF00200190384606A900F019FC002887D1019A49
S32D0000D900002A43D1082083E70D213846D4F82090FFF7CAFE8145CAD1A26A9542C7D10098291D00220423A0623E
S32D0000D928E26223636163286800286EDB01220192BCE70D213846D4F82090FFF7B1FE81457FF45CAFA16A8D42FE
S32D0000D9507FF458AF2846FFF745FD0F2102463846FFF7C2FE384600212246FFF7BDFE07204EE7009900299BD19B
S32D0000D97838460D21FFF794FE099B20626362A562062041E70F213846FFF78AFE0E2102463846FFF7A5FE3846D5
S32D0000D9A00F211E4AFFF7A0FE072031E7043581E7029950460991FFF70FFD039A014609AB204609F043FA002824
S32D0000D9C87FF46EAFCDF8108005960AF1040A4FF00109A846029E4CE7CDF824800835B3E62846FFF7FBFC0435CB
S32D0000D9F00646A563204609F09FFA00283FF407AF38460F213246FFF76FFE072000E74546B2E7009B591C05EBF1
S32D0000DA1881009CE7A170010002236FE601236DE600236BE62DE9F0470446E8B004290CD8DFE801F0380391930E
S32D0000DA400F00150C012B96B200F07881052B00F0C780022068B0BDE8F087002BF9D1102AF7D82368D90600F115
S32D0000DA68738164A8019200F0CFFA019AA36BD00744BF53F8040B6490910744BF53F8041B6591500744BF53F8D3
S32D0000DA90041B6691110748BF53F8042B64A8A36348BF679200F0AAFA0020D3E7002BD0D1A36BD00791B244BF42
S32D0000DAB853F8042B62608A0744BF53F8042BA260480744BF53F8042BE2600A0744BF53F8042B2261C80644BF04
S32D0000DAE053F8042B62618A0644BF53F8042BA261480644BF53F8042BE2610A0644BF53F8042B2262C80544BFDC
S32D0000DB0853F8042B62628A0544BF53F8042BA262480544BF53F8042BE2620A0544BF53F8042B2263C80444BFB3
S32D0000DB3053F8042B626311F400501CBF53F8042BA2634A0444BF53F8042BE2630A0444BF53F8042B2264002890
S32D0000DB5840D1A3637AE7012078E7032B7FF475AF160C95B2AA19102A3FF66FAF2368180700F10B8144A800F026
S32D0000DB801BFAA76B4FEA450E3B460DB344A90EF1FF3C01EBC60653F8040B62460CF0010146F8040B92B129B13A
S32D0000DBA853F8041B013A46F8041B0BD01846314650F8045B41F8045B5D68031D75600E1D023AF3D107EB8E03F6
S32D0000DBD044A8A36300F0CEF900203BE7002039E777192022BA42FFF434AF012B00F0A9800F2D40F2A9803746FF
S32D0000DBF8F6B1052B7FF429AF0F2D11D82268D0070ED522F00101052B2160204600F0DA8022F0030240F8482B3D
S32D0000DC20019300F093F9019B1FB12268510700F1B880012B00F0BF800F2D75D9002F40F0A080D4F83890002E29
S32D0000DC48C8462EDD49460DF1080A4FEA46080AEBC50251F8046B08F1FF3000F0010A42F8046BA8F1020CD0B107
S32D0000DC70BAF1000F08D051F8040B0CF1FF3CBCF1FF3F42F8040B0ED00E46104656F804AB40F804AB4968ACF176
S32D0000DC98020C5160311D021DBCF1FF3FF0D109EB8808A7B3102D2CBF2E4610260DF5D079414609EBC60CACF59D
S32D0000DCC0C8724FEA470951F8046B09F1FF3000F0010A42F8046BA9F1020CD0B1BAF1000F08D051F8040B0CF1DE
S32D0000DCE8FF3CBCF1FF3F42F8040B0ED00E46104656F804AB40F804AB4968ACF1020C5160311D021DBCF1FF3FCE
S32D0000DD10F0D108EB8908012B2BD00F2DC4F8388008D9FFB9384695E602A8019300F016F9019B83E702A800F05A
S32D0000DD380DF9F2E77719102250E70F2D3FF685AE102F10D9103F54E723F01003236004F50C70019200F058F99D
S32D0000DD60019A82E624A800F0FDF8002072E6002746E708F1040302A8A36300F0E3F8002068E624A80193C5F116
S32D0000DD88100600F0EFF8019B57E723F0080704F5D870276000F00CF9ECE6204622F0040140F8D01B019300F0D1
S32D0000DDB0DDF8019B3DE702A8019300F0C7F8019B002F3FF43EAFC5F110063AE741F0020140F8481B019300F098
S32D0000DDD8C1F8019B24E700BF406C7047F0B50D460F1DC96B296404460FCFADF5117D01AE0FC60FCF0FC60FCF49
S32D0000DE000FC697E80F0086E80F004FF0FF33009310992046FFF722FB58B9266921466A46B04708280646F3D001
S32D0000DE286846FFF77BFB062E03D009200DF5117DF0BD20462946FFF707FC00BF10B4DC6BC16082611946002228
S32D0000DE501C6410BCFFF792BB38B54269C3680A6404460D4623B10122FFF788FB09F084FF0369214602202A46F6
S32D0000DE789847072803D0082804D009F079FF281D00F050F820462946FFF7DEFBC36823B1CA6B0A640022FFF74B
S32D0000DEA06DBB9FE7704700BF08B5836801460BB10120984708BD00BFF0B5D46B171D146405460C460FCFADF554
S32D0000DEC8277D01AE0FC60FCF0FC60FCF0FC697E80F0086E80F004FF0FF330093109990A8FFF7B8FA034690AA83
S32D0000DEF068460C21BBB9FFF7F7FB21466846A847064690A908206A466EB9949B98470528064601D00928E5D106
S32D0000DF186846FFF703FB30460DF5277DF0BD0926F6E700BF00F1340191E838009C46A6464CF8045D90E8FF0FD5
S32D0000DF40E54600BD90EC210B704700BF80EC210B704700BF90EC200B704700BF80EC200B704700BFD0EC200B8E
S32D0000DF68704700BFC0EC200B704700BFF0EC0201F0EC0211F0EC0221F0EC0231F0EC0241F0EC0251F0EC02615F
S32D0000DF90F0EC0271F0EC0281F0EC0291F0EC02A1F0EC02B1F0EC02C1F0EC02D1F0EC02E1F0EC02F1704700BFE6
S32D0000DFB8E0EC0201E0EC0211E0EC0221E0EC0231E0EC0241E0EC0251E0EC0261E0EC0271E0EC0281E0EC029155
S32D0000DFE0E0EC02A1E0EC02B1E0EC02C1E0EC02D1E0EC02E1E0EC02F1704700BFB0FC0181B0FC0191B0FC01A159
S32D0000E008B0FC01B1704700BFA0FC0181A0FC0191A0FC01A1A0FC01B1704700BFEC4600B52DE900502DE9FF1F47
S32D0000E0304FF000032DE90C0001A9FFF7D3FEDDF840E012B0704700BFEC4600B52DE900502DE9FF1F4FF00003FD
S32D0000E0582DE90C0001A9FFF7FBFEDDF840E012B0704700BFEC4600B52DE900502DE9FF1F4FF000032DE90C00CD
S32D0000E08001A9FFF707FFDDF840E012B0704700BFEC4600B52DE900502DE9FF1F4FF000032DE90C0001ABFFF718
S32D0000E0A8CDFEDDF840E012B0704700BFEC4600B52DE900502DE9FF1F4FF000032DE90C0001AAFFF7F5FEDDF804
S32D0000E0D040E012B0704700BF027A03461AB9427A42B9B02070470068013A01021A72000E196070474168501E6D
S32D0000E0F8587251F8040B0322596001021A72000E1960704710B5002184B00C220DEB02040B460094FFF7B0FA62
S32D0000E120039804B010BD00BFF0E700BF2DE9F043064685B00D464FF000094FF47F672846FFF7CAFFB028044683
S32D0000E14800F0B08010F0800120D000F0F003802B74D0902B37D0A02B45D0B02B56D0C02B00F0858000F0F800DB
S32D0000E170D0280BD104F00702511C41F40022304601210523FFF752FC0028D8D0092005B0BDE8F0834FEA800267
S32D0000E19803A85FFA82F800900D220B463046FFF76BFA039B600608F104084CBFC8EB0303434403AC03930094CD
S32D0000E1C0002130460D220B46FFF77AFAB7E700F00F020D2ADAD00F2AD8D0002103AC009430460B4603ACFFF77F
S32D0000E1E84BFA0094E8E7C24302F0070C47FA0CF0210700F47F6248BF42F48042002130460B46FFF70FFC00280D
S32D0000E210BCD194E7B1285DD0B2286ED0B32800F0958000F0FC02B42A46D000F00702531C43F40022012130469F
S32D0000E2380B46FFF7F7FB0028A4D17CE72846FFF747FF210240EA0104B4F5004F9AD0230500211A0C30460B46EB
S32D0000E2602401FFF7E3FB002890D114F4004F18BF4FF0010963E7C62873D0C72800F0848000F0F802C02A00F075
S32D0000E2889280C82800F0A680C9287FF47BAF2846FFF71EFF00F00F0300F0F0015A1C42EA013268E7B9F1000F81
S32D0000E2B000F0838000206AE700F00301481C022140F480220B463046FFF7B0FB00287FF45DAF34E72846FFF7FD
S32D0000E2D8FFFE024600283FF455AF10F0F0017FF451AF30460B46FFF79DFB00287FF44AAF21E700210D220B467E
S32D0000E30003AC30460094FFF7BBF92846FFF7E4FE022402060DD5039B00F07F0000FA04FE03EB0E01284603912E
S32D0000E328FFF7D6FE07340306F1D4039B00F07F0103AA03F5017C01FA04F400920CEB0402039239E72846FFF729
S32D0000E350C3FE00F00F03591C00F0F00041EA003268E72846FFF7B8FE00F00F03591C00F0F00041EA00320321E9
S32D0000E37830460B46FFF756FB00287FF403AFDAE62846FFF7A5FE024600283FF4FBAE10F0F0037FF4F7AE304688
S32D0000E3A00421FFF743FB00287FF4F0AEC7E600F00F01481C40F42022DDE703AC49460E224B4630460094FFF773
S32D0000E3C85BF9304649460F224B460094FFF774F94846D8E62846FFF77BFE00F0F00200F00F001032431C43EA3D
S32D0000E3F00232C4E610B5C26C84B0032054688DF80C00D37924020832084601A9019402928DF80D30FFF78AFE7D
S32D0000E41804B010BD08B5FFF783FE806C08BD00BF08B5FFF77DFEC16CC87901EB800303F1080008BD08B509F02F
S32D0000E4409BFC00BF08B509F097FC00BF80B582B000AF43F21070C1F6FF704FF0050104F02BFE43F21070C1F691
S32D0000E468FF704FF0060104F081FE43F2C860C1F6FF7006F08BFC43F2C860C1F6FF7007F03FF943F21070C1F640
S32D0000E490FF7004F03BFE43F21070C1F6FF7047F63871C0F2010104F09BFF00BF43F24C60C1F6FF7003F070FF97
S32D0000E4B8034683F00103DBB2002B1AD043F24C60C1F6FF7003F084FF034683F00103DBB2002B0ED043F24C6020
S32D0000E4E0C1F6FF7003F09CFF034683F00103DBB2002B02D04FF0010301E04FF00003002BD4D143F24C60C1F642
S32D0000E508FF7003F065FF0346002B0DD000BF43F24C60C1F6FF7003F06FFF034683F00103DBB2002BF3D12AE061
S32D0000E53043F24C60C1F6FF7003F02EFF0346002B11D000BF43F24C60C1F6FF7003F036FF034683F00103DBB206
S32D0000E558002BF3D14FF0010001F0EAFA56E000BF43F24C60C1F6FF7003F06AFF034683F00103DBB2002BF3D1FD
S32D0000E58001F0E4FC46E001F08BFA43F21070C1F6FF7004F0BBFD43F25C60C1F6FF701E4904F08AF801F0ECF9AF
S32D0000E5A802F08AF802F0FAF803467B60786802F01DFA02F085FA02F0F5FA43F21070C1F6FF7047F6B071C0F2A3
S32D0000E5D0010104F005FF00BF43F24C60C1F6FF7003F0FAFE034683F00103DBB2002BF3D100BF43F24C60C1F6DF
S32D0000E5F8FF7003F001FF034683F00103DBB2002BF3D14FF4FA7003F01FF83AE739E700BF0000F041000000006F
S32D0000E620F0B585B000AFF860B960FA71BB71BB79002B00F0CE8043F29060C1F6FF7003F017FE43F2AC60C1F653
S32D0000E648FF7003F011FE43F21070C1F6FF7047F6D471C0F2010104F0BFFE00BF43F24C60C1F6FF7003F0B4FE06
S32D0000E670034683F00103DBB2002BF3D100BF43F24C60C1F6FF7003F0BBFE034683F00103DBB2002BF3D1F86832
S32D0000E698FEF71EF802460B461046194674A3D3E90023FEF769F802460B4610461946FEF7FDFA034643F2546043
S32D0000E6C0C1F6FF70194602F0EBFCF868FEF75EFE034643F25860C1F6FF70194602F0E0FC00BF43F24C60C1F63D
S32D0000E6E8FF7003F075FE034683F00103DBB2002BF3D100BF43F24C60C1F6FF7003F07CFE034683F00103DBB273
S32D0000E710002BF3D143F25460C1F6FF7002F0A2FC43F25860C1F6FF7002F09CFC43F21070C1F6FF7004F0EAFCFB
S32D0000E73843F21070C1F6FF7048F20001C0F2010104F068FD43F29060C1F6FF7003F080FD03461846FDF7AAFF91
S32D0000E76002460B46104619464FF000024FF0804303F59013FEF704F802460B4643F21070C1F6FF7004F068FEA0
S32D0000E78843F21070C1F6FF7048F21C01C0F2010104F022FE00BF43F24C60C1F6FF7003F017FE034683F00103DB
S32D0000E7B0DBB2002BF3D100BF43F24C60C1F6FF7003F00AFE034683F00103DBB2002BF3D10CE1F868FDF780FF02
S32D0000E7D802460B461046194625A3D3E90023FDF7CBFF02460B4610461946FEF75FFA034643F25460C1F6FF706C
S32D0000E800194602F04DFCF868FEF7C0FD034643F25860C1F6FF70194602F042FC43F29060C1F6FF7003F024FDF4
S32D0000E82843F2AC60C1F6FF7003F01EFD9CE043F29060C1F6FF7003F00BFD014646F26763C6F2666383FB01231F
S32D0000E8504FEAA3024FEAE173D21A13464FEA83039B184FEA4303CA1A002A09D1FB79002B06D04FF0010305E074
S32D0000E8789A9999999999F13F4FF00003002B39D043F29060C1F6FF7003F0E2FC0346002B0CBF00230123DBB206
S32D0000E8A0002B2BD043F29060C1F6FF7003F0D4FC03461846FEF750FB03461846F968FEF79FFB03461C4643F2B8
S32D0000E8C89060C1F6FF7003F0C3FC03461846FEF73FFB034620461946FEF742FC03461846FEF750FD034643F2DC
S32D0000E8F05460C1F6FF70194602F0D2FB43F21070C1F6FF7004F002FC43F21070C1F6FF7048F24001C0F201012B
S32D0000E91804F080FC43F29060C1F6FF7003F098FC034643F21070C1F6FF70194604F068FD43F21070C1F6FF70D8
S32D0000E94048F26401C0F2010104F068FC43F29060C1F6FF7003F080FC034643F21070C1F6FF70194604F050FD80
S32D0000E9684FF0320002F070FE43F29060C1F6FF7003F06EFC03461846FDF798FE04460D46B868FDF7A5FE02463B
S32D0000E9900B46104619464FF000024FF0804303F59013FDF7EDFE02460B464FF001010E4620462946FEF756F94F
S32D0000E9B80346002B02D14FF000031E46F3B2002B7FF435AF43F25460C1F6FF704FF0000102F062FB43F2586092
S32D0000E9E0C1F6FF704FF0000102F05AFB07F11407BD46F0BDAFF30080F0B587B000AFF860B9601346FB719A4BD1
S32D0000EA087B61F868FDF764FE02460B461046194693A3D3E90023FDF7AFFE02460B4610461946FEF743F9034682
S32D0000EA3043F25460C1F6FF70194602F031FBF868FEF7A4FC034643F25860C1F6FF70194602F026FB43F2906044
S32D0000EA58C1F6FF7003F008FC43F2AC60C1F6FF7003F002FCB7E043F29060C1F6FF7003F0EFFB014646F2676313
S32D0000EA80C6F2666383FB01234FEAA3024FEAE173D21A13464FEA83039B184FEA4303CA1A002A05D1FB79002B21
S32D0000EAA802D04FF0010301E04FF00003002B39D043F29060C1F6FF7003F0CAFB0346002B0CBF00230123DBB2BE
S32D0000EAD0002B2BD043F29060C1F6FF7003F0BCFB03461846FEF738FA03461846F968FEF787FA03461C4643F2D1
S32D0000EAF89060C1F6FF7003F0ABFB03461846FEF727FA034620461946FEF72AFB03461846FEF738FC034643F20E
S32D0000EB205460C1F6FF70194602F0BAFA43F21070C1F6FF7004F0EAFA43F21070C1F6FF7048F24001C0F201012B
S32D0000EB4804F068FB43F29060C1F6FF7003F080FB034643F21070C1F6FF70194604F050FC43F21070C1F6FF70F1
S32D0000EB7048F26401C0F2010104F050FB43F29060C1F6FF7003F068FB034643F21070C1F6FF70194604F038FC99
S32D0000EB9843F25060C1F6FF7002F076FF03464FF00102144618467969FEF7C4FB0346002B02D14FF000031C4619
S32D0000EBC0E3B2002B07D043F25060C1F6FF7002F05FFF03467B614FF0320002F039FD43F29060C1F6FF7003F039
S32D0000EBE837FB03461846FDF761FD04460D46B868FDF76EFD02460B46104619464FF000024FF0804303F590138C
S32D0000EC10FDF7B6FD02460B464FF001010E4620462946FEF71FF80346002B02D14FF000031E46F3B2002B7FF4F0
S32D0000EC381AAF43F25460C1F6FF704FF0000102F02BFA43F25860C1F6FF704FF0000102F023FA7B69184607F1E3
S32D0000EC601C07BD46F0BD00BF9A9999999999F13F33335340AFF30080F0B585B000AFF860B9607A6043F2906019
S32D0000EC88C1F6FF7003F0F0FA43F2AC60C1F6FF7003F0EAFAF868FDF71BFD02460B461046194643A3D3E900239E
S32D0000ECB0FDF766FD02460B4610461946FDF7FAFF034643F25460C1F6FF70194602F0E8F9F868FEF75BFB034626
S32D0000ECD843F25860C1F6FF70194602F0DDF9BB68002B08D143F28060C1F6FF7002F018FE0346002B17D1BB68EB
S32D0000ED00012B08D143F28460C1F6FF7002F00CFE0346002B0BD1BB68022B38D143F28860C1F6FF7002F000FEC9
S32D0000ED280346002B2FD043F29060C1F6FF7003F08FFA03461846FDF7B9FC04460D467868FDF7C6FC02460B4667
S32D0000ED50104619464FF000024FF0804303F59013FDF70EFD02460B464FF001010E4620462946FDF777FF03464D
S32D0000ED78002B02D14FF000031E46F3B2002B02D04FF0010301E04FF00003002BA7D143F25460C1F6FF7002F01D
S32D0000EDA061F943F25860C1F6FF7002F05BF907F11407BD46F0BD00BF9A9999999999F13F90B585B000AFF860C8
S32D0000EDC8B960FA71BB7145E0F868FEF7DBFA034643F25460C1F6FF70194602F05DF9F868FEF7D0FA034643F282
S32D0000EDF05860C1F6FF70194602F052F943F21070C1F6FF7048F28801C0F2010104F006FA43F2C860C1F6FF70B2
S32D0000EE1806F01AFD034643F21070C1F6FF70194604F002FB43F21070C1F6FF7048F29001C0F2010104F0EEF916
S32D0000EE4043F2C860C1F6FF7006F012FD034643F21070C1F6FF70194604F0EAFAFB79002B36D0BB79002B16D0D7
S32D0000EE6843F2C860C1F6FF7006F0FEFC03464FF0010214461846B968FEF75CFA0346002B02D14FF000031C466F
S32D0000EE90E3B2002B59D1BB7983F00103DBB2002B16D043F2C860C1F6FF7006F0E1FC03464FF001021446184688
S32D0000EEB8B968FEF75DFA0346002B02D14FF000031C46E3B2002B3CD1FB7983F00103DBB2002B39D0BB79002BFC
S32D0000EEE016D043F2C860C1F6FF7006F0B1FC03464FF0010214461846B968FEF71FFA0346002B02D14FF00003FD
S32D0000EF081C46E3B2002B1CD1BB7983F00103DBB2002B19D043F2C860C1F6FF7006F094FC03464FF00102144692
S32D0000EF301846B968FEF720FA0346002B02D14FF000031C46E3B2002B02D04FF0010301E04FF00003002B7FF4A4
S32D0000EF583BAF43F25460C1F6FF7002F07FF843F25860C1F6FF7002F079F807F11407BD4690BD00BF0000000091
S32D0000EF80F0B585B000AFB9607A600246FA73BB73FB7B83F00103DBB2002B28D0B868FEF7F5F9034643F258602E
S32D0000EFA8C1F6FF70194602F077F8BB6883F000431846FDF78DFB02460B461046194668A3D3E90023FDF7D8FBA3
S32D0000EFD002460B4610461946FDF76CFE034643F25460C1F6FF70194602F05AF827E0BB6883F000431846FEF739
S32D0000EFF8C9F9034643F25860C1F6FF70194602F04BF8B868FDF764FB02460B461046194653A3D3E90023FDF7AF
S32D0000F020AFFB02460B4610461946FDF743FE034643F25460C1F6FF70194602F031F843F29060C1F6FF7003F085
S32D0000F04813F943F2AC60C1F6FF7003F00DF939E043F21070C1F6FF7004F054F843F21070C1F6FF7048F24001A4
S32D0000F070C0F2010104F0D2F843F29060C1F6FF7003F0EAF8034643F21070C1F6FF70194604F0BAF943F2107001
S32D0000F098C1F6FF7048F26401C0F2010104F0BAF843F29060C1F6FF7003F0D2F8034643F21070C1F6FF701946A0
S32D0000F0C004F0A2F94FF0320002F0C2FA43F29060C1F6FF7003F0C0F803461846FDF7EAFA04460D467868FDF78E
S32D0000F0E837FF0246FB7B002B05D040F21043C1F6FF731B6804E040F20C43C1F6FF731B6810461946FDF778FFA4
S32D0000F11003461846FDF7E0FA02460B464FF001010E4620462946FDF79DFD0346002B02D14FF000031E46F3B239
S32D0000F138002B8DD143F25460C1F6FF704FF0000101F0AAFF43F25860C1F6FF704FF0000101F0A2FF07F114073F
S32D0000F160BD46F0BDAFF300809A9999999999F13FB0B586B000AFF860B9607A60FB70F868FDF7EAFE054643F22C
S32D0000F188C860C1F6FF7006F07FFB03464FF00102144628461946FEF7CDF80346002B02D14FF000031C46E3B2AF
S32D0000F1B0002B14D0FB6803F1B4031846FDF7CCFE044643F2C860C1F6FF7006F061FB034620461946FDF70AFECF
S32D0000F1D803467B6110E0F868FDF7BAFE044643F2C860C1F6FF7006F04FFB034620461946FDF7F8FD03467B61BF
S32D0000F200F868FDF7A9FE054643F2C860C1F6FF7006F03EFB03464FF00102144628461946FEF7AAF80346002B2B
S32D0000F22802D14FF000031C46E3B2002B17D043F2C860C1F6FF7006F027FB034618463949FDF7D2FD03461C4668
S32D0000F250F868FDF781FE034620461946FDF7C6FD03463B6110E043F2C860C1F6FF7006F00FFB0446F868FDF702
S32D0000F2786FFE034620461946FDF7B4FD03463B617B68012B33D0022B3CD0002B45D14FF001031C4678693969AF
S32D0000F2A0FEF74CF80346002B02D14FF000031C46E3B2002B0FD078691D49FDF755FF03461846FEF763F80246AF
S32D0000F2C8FB784FF00000B968FFF756FE25E038691549FDF745FF03461846FEF753F80246FB784FF00100B968BC
S32D0000F2F0FFF746FE15E07869FEF748F80246FB784FF00000B968FFF73BFE0AE03869FEF73DF80246FB784FF0B2
S32D0000F3180100B968FFF730FE00BF07F11807BD46B0BD00BF0000344300008040F0B587B000AFF860B9601346F0
S32D0000F340FB714FF004037B6143F29060C1F6FF7002F08EFF43F2AC60C1F6FF7002F088FFB6E1FB79002B1BD046
S32D0000F36843F27860C1F6FF7002F08EFB024640F20443C1F6FF731B684FF001010C4610461946FDF7D7FF034601
S32D0000F390002B02D14FF000031C46E3B2002B21D1FB7983F00103DBB2002B1ED043F27860C1F6FF7002F06CFBDE
S32D0000F3B8024643F24463C1F6FF731B684FF001010C4610461946FDF7D3FF0346002B02D14FF000031C46E3B2C9
S32D0000F3E0002B02D04FF0010301E04FF00003002B12D04FF0010000F0ADF97B69002B03D14FF001037B61D6E001
S32D0000F4087B69022B40F0D3804FF003037B61CEE0FB79002B1BD043F27460C1F6FF7002F033FB024640F20043DD
S32D0000F430C1F6FF731B684FF001010C4610461946FDF77CFF0346002B02D14FF000031C46E3B2002B21D1FB793A
S32D0000F45883F00103DBB2002B1ED043F27460C1F6FF7002F011FB024643F24063C1F6FF731B684FF001010C46DD
S32D0000F48010461946FDF778FF0346002B02D14FF000031C46E3B2002B02D04FF0010301E04FF00003002B07D059
S32D0000F4A84FF0010000F080F94FF002037B617EE0FB79002B1BD043F27C60C1F6FF7002F0E3FA024640F20843BA
S32D0000F4D0C1F6FF731B684FF001010C4610461946FDF72CFF0346002B02D14FF000031C46E3B2002B21D1FB79EA
S32D0000F4F883F00103DBB2002B1ED043F27C60C1F6FF7002F0C1FA024643F24863C1F6FF731B684FF001010C467E
S32D0000F52010461946FDF728FF0346002B02D14FF000031C46E3B2002B02D04FF0010301E04FF00003002B07D008
S32D0000F5484FF0000000F030F94FF000037B612EE07B69042B2BD801A252F823F093F5000083F5000079F500008D
S32D0000F5709DF50000ADF500004FF0010000F018F919E04FF000037B614FF0000000F010F911E04FF0000000F089
S32D0000F5980BF90CE04FF002037B614FF0010000F003F904E04FF0010000F0D0F800BF43F21070C1F6FF7003F0A0
S32D0000F5C0A5FD7B69032B37D801A252F823F000BF0DF60000F7F50000E1F5000023F6000043F21070C1F6FF70E2
S32D0000F5E848F29801C0F2010103F0F6FE20E043F21070C1F6FF7048F2AC01C0F2010103F0EBFE15E043F210708B
S32D0000F610C1F6FF7048F2C401C0F2010103F0E0FE0AE043F21070C1F6FF7048F2D801C0F2010103F0D5FE00BF11
S32D0000F63843F21070C1F6FF7048F2F001C0F2010103F0E8FD43F27460C1F6FF7002F01CFA034643F21070C1F626
S32D0000F660FF70194603F0E4FE43F21070C1F6FF7048F20411C0F2010103F0D0FD43F27860C1F6FF7002F004FA18
S32D0000F688034643F21070C1F6FF70194603F0CCFE43F21070C1F6FF7048F21811C0F2010103F0B8FD43F27C6069
S32D0000F6B0C1F6FF7002F0ECF9034643F21070C1F6FF70194603F0B4FE4FF0190001F0C0FF43F29060C1F6FF70B4
S32D0000F6D802F0BEFD03461846FCF7E8FF04460D46B868FCF7F5FF02460B46104619464FF000024FF0804303F5A9
S32D0000F7009013FDF73DF802460B464FF001010E4620462946FDF7A6FA0346002B02D14FF000031E46F3B2002BBB
S32D0000F7287FF41BAE43F25460C1F6FF704FF0000101F0B2FC43F25860C1F6FF704FF0000101F0AAFC07F11C0784
S32D0000F750BD46F0BD80B582B000AF0346FB71FB79002B10D043F25460C1F6FF704FF06E0101F096FC43F2586064
S32D0000F778C1F6FF704FF0640101F08EFC0FE043F25460C1F6FF706FF06D0101F085FC43F25860C1F6FF706FF06F
S32D0000F7A0630101F07DFC07F10807BD4680BD00BF80B582B000AF0346FB71FB79002B10D043F25860C1F6FF700A
S32D0000F7C84FF05A0101F068FC43F25460C1F6FF704FF02D0101F060FC0FE043F25460C1F6FF704FF0630101F0C9
S32D0000F7F057FC43F25860C1F6FF704FF0310101F04FFC07F10807BD4680BD00BF80B582B000AF786039607B6868
S32D0000F818012B40F0A2803A684FF6FF739A4240F09C8043F24C60C1F6FF704FF0030102F029FD43F25060C1F6C5
S32D0000F840FF704FF0080102F013F943F25460C1F6FF704FF0000101F0F1FB43F25860C1F6FF704FF0010101F074
S32D0000F868E9FB43F25C60C1F6FF704FF0000102F001FF43F26860C1F6FF704FF0040102F0F9FE43F27460C1F635
S32D0000F890FF704FF0040102F0EBF843F27860C1F6FF704FF00C0102F0E3F843F27C60C1F6FF704FF0140102F0F9
S32D0000F8B8DBF843F28060C1F6FF704FF0100101F0FFFE43F28460C1F6FF704FF00F0101F0F7FE43F28860C1F68E
S32D0000F8E0FF704FF0070101F0EFFE43F28C60C1F6FF704FF0170101F0E7FE43F29060C1F6FF704FF0000102F075
S32D0000F90801FB42F2A103C0F2010343F29060C1F6FF70194643F29C72C1F6FF7207F06AF943F2AC60C1F6FF7071
S32D0000F9304FF0010102F0EAFA42F2A103C0F2010343F2AC60C1F6FF70194643F29C72C1F6FF7207F053F943F25B
S32D0000F958C860C1F6FF7005F0D5F907F10807BD4680BD00BF80B500AF4FF001004FF6FF71FFF748FF80BD00BF58
S32D0000F98090B583B000AF43F25C60C1F6FF703B4902F092FE3A483B494FF000024FF00003FEF73EFE4FF000001C
S32D0000F9A837494FF001024FF00003FFF7DDFB324834494FF000024FF00003FEF72DFE4FF05A002F494FF0010272
S32D0000F9D04FF00003FFF7CCFB2DE043F2C860C1F6FF7005F0E5FE03467B6025484FF00001274AFFF741F92748C1
S32D0000F9F827494FF000024FF00003FEF70DFE43F2C860C1F6FF7005F0CFFE02467B689A4214BF00230123DBB2FB
S32D0000FA20002B08D04FF05A0017494FF000024FF00003FFF79DFB43F2C860C1F6FF7005F0B7FE044643F2C860D7
S32D0000FA48C1F6FF7005F09EFE03469C42ACBF00230123DBB2002BBCD14FF0000008494FF002024FF00003FFF7B0
S32D0000FA707FFB07F10C07BD4690BD00BF000034420000C8420000C0400000B4420000D0400000E0400000C8C2A4
S32D0000FA980000803F0000000098B500AF21E043F21070C1F6FF7003F02DFB43F21070C1F6FF7048F22C11C0F28A
S32D0000FAC0010103F0ABFB43F25060C1F6FF7001F0DFFF034643F21070C1F6FF70194603F0A7FC4FF0C80001F092
S32D0000FAE8B3FD43F25060C1F6FF7001F0CDFF03461846FCF7EDFD02460B464FF001010C461046194608A3D3E9AC
S32D0000FB100023FDF7C5F80346002B02D14FF000031C46E3B2002BBED198BD00BFAFF30080CDCCCCCCCCCCFC3F7F
S32D0000FB3880B588B000AF0346FB7143F21070C1F6FF7048F25C11C0F2010103F045FC00BF43F24C60C1F6FF709E
S32D0000FB6002F03AFC034683F00103DBB2002BF3D100BF43F24C60C1F6FF7002F041FC034683F00103DBB2002BA6
S32D0000FB88F3D143F27460C1F6FF7001F07DFF0346FB6143F27C60C1F6FF7001F075FF0346BB6143F27860C1F685
S32D0000FBB0FF7001F06DFF03467B6143F21070C1F6FF7048F27411C0F2010103F009FC00BF43F24C60C1F6FF702A
S32D0000FBD802F0DEFB034683F00103DBB2002BF3D100BF43F24C60C1F6FF7002F0E3FB034683F00103DBB2002BEA
S32D0000FC00F3D143F27460C1F6FF7001F041FF03463B6143F21070C1F6FF7048F28811C0F2010103F0DDFB00BFE1
S32D0000FC2843F24C60C1F6FF7002F0F6FB034683F00103DBB2002BF3D100BF43F24C60C1F6FF7002F0FDFB03468F
S32D0000FC5083F00103DBB2002BF3D143F27C60C1F6FF7001F015FF0346FB6043F21070C1F6FF7048F2A011C0F23B
S32D0000FC78010103F0B1FB00BF43F24C60C1F6FF7002F0A6FB034683F00103DBB2002BF3D100BF43F24C60C1F6D1
S32D0000FCA0FF7002F0ADFB034683F00103DBB2002BF3D143F27860C1F6FF7001F0E9FE0346BB6043F21070C1F616
S32D0000FCC8FF7003F01FFAFB79002B00F08780F8693969FDF789F8034618469949FDF740FA03461A4640F20043B0
S32D0000FCF0C1F6FF731A60B869F968FDF779F8034618469149FDF730FA03461A4640F20843C1F6FF731A60786913
S32D0000FD18B968FDF769F8034618468949FDF720FA03461A4640F20443C1F6FF731A6043F21070C1F6FF7048F2E6
S32D0000FD40B811C0F2010103F04BFB43F21070C1F6FF7048F2C411C0F2010103F041FB43F21070C1F6FF7048F2FD
S32D0000FD68D011C0F2010103F055FA40F20043C1F6FF731B6843F21070C1F6FF70194603F053FB43F21070C1F68E
S32D0000FD90FF7048F2F411C0F2010103F03FFA40F20843C1F6FF731B6843F21070C1F6FF70194603F03DFB43F2F4
S32D0000FDB81070C1F6FF7048F21821C0F2010103F029FA40F20443C1F6FF731B6843F21070C1F6FF70194603F0E8
S32D0000FDE027FB85E0F8693969FDF702F8034618465549FDF7B9F903461A4643F24063C1F6FF731A60B869F968EC
S32D0000FE08FCF7F2FF034618464D49FDF7A9F903461A4643F24863C1F6FF731A607869B968FCF7E2FF034618466C
S32D0000FE304549FDF799F903461A4643F24463C1F6FF731A6043F21070C1F6FF7048F24021C0F2010103F0C4FA8D
S32D0000FE5843F21070C1F6FF7048F2C411C0F2010103F0BAFA43F21070C1F6FF7048F2D011C0F2010103F0CEF9D3
S32D0000FE8043F24063C1F6FF731B6843F21070C1F6FF70194603F0CCFA43F21070C1F6FF7048F2F411C0F201010F
S32D0000FEA803F0B8F943F24863C1F6FF731B6843F21070C1F6FF70194603F0B6FA43F21070C1F6FF7048F24C219D
S32D0000FED0C0F2010103F0A2F943F24463C1F6FF731B6843F21070C1F6FF70194603F0A0FA43F21070C1F6FF7098
S32D0000FEF848F27021C0F2010103F06EFA00BF43F24C60C1F6FF7002F063FA034683F00103DBB2002BF3D100BFF2
S32D0000FF2043F24C60C1F6FF7002F06AFA034683F00103DBB2002BF3D14FF4FA7001F088FB07F12007BD4680BD9A
S32D0000FF480000004080B500AF43F21070C1F6FF7048F2E421C0F2010103F03EFA00BF43F24C60C1F6FF7002F0B6
S32D0000FF7013FA034683F00103DBB2002B1AD043F24C60C1F6FF7002F04BFA034683F00103DBB2002B0ED043F22B
S32D0000FF984C60C1F6FF7002F01BFA034683F00103DBB2002B02D04FF0010301E04FF00003002BD4D143F24C6001
S32D0000FFC0C1F6FF7002F0E8F90346002B00F01B8100BF43F24C60C1F6FF7002F0EFF9034683F00103DBB2002B02
S32D0000FFE8F3D143F21070C1F6FF7003F08BF843F21070C1F6FF7048F26831C0F2010103F0EBF943F21070C1F631
S32D00010010FF7048F29031C0F2010103F0E1F900BF43F24C60C1F6FF7002F0D6F9034683F00103DBB2002BF3D113
S32D0001003800BF43F24C60C1F6FF7002F0DDF9034683F00103DBB2002BF3D143F25460C1F6FF706FF0590101F016
S32D000100601FF843F25860C1F6FF704FF05A0101F017F843F29060C1F6FF7002F0F9F843F2AC60C1F6FF7002F026
S32D00010088F3F843F28C60C1F6FF7001F049FC0346002BF6D143F21070C1F6FF7003F032F843F25460C1F6FF709F
S32D000100B000F0D8FF43F25860C1F6FF7000F0D2FF43F21070C1F6FF7048F2B431C0F2010103F0A4F843F2906024
S32D000100D8C1F6FF7002F0BCF8034643F21070C1F6FF70194603F08CF943F21070C1F6FF7048F2D031C0F2010168
S32D0001010003F08CF843F2AC60C1F6FF7002F0A4F8034643F21070C1F6FF70194603F074F943F21070C1F6FF70A6
S32D0001012848F2F031C0F2010103F074F843F29060C1F6FF7002F08CF803461846FCF7B6FA02460B4610461946E1
S32D000101504FF000024FF08243A3F5D303FCF73AFC02460B4643F21070C1F6FF7003F074F943F21070C1F6FF70F5
S32D0001017848F21041C0F2010103F04CF843F2AC60C1F6FF7002F064F803461846FCF78EFA02460B4610461946BD
S32D000101A04FF000024FF08243A3F5D303FCF712FC02460B4643F21070C1F6FF7003F04CF943F29060C1F6FF7085
S32D000101C802F046F803461846FCF770FA02460B46104619464FF000024FF08243A3F5D303FCF7F4FB02460B4658
S32D000101F010461946FCF7A6FD024640F20C43C1F6FF731A601CE243F24C60C1F6FF7002F007F90346002B00F0CE
S32D000102181B8100BF43F24C60C1F6FF7002F010F9034683F00103DBB2002BF3D143F21070C1F6FF7002F066FFEC
S32D0001024043F21070C1F6FF7048F26831C0F2010103F0C6F843F21070C1F6FF7048F29031C0F2010103F0BCF84B
S32D0001026800BF43F24C60C1F6FF7002F0B1F8034683F00103DBB2002BF3D100BF43F24C60C1F6FF7002F0B8F862
S32D00010290034683F00103DBB2002BF3D143F25460C1F6FF704FF05A0100F0FAFE43F25860C1F6FF706FF05901A6
S32D000102B800F0F2FE43F29060C1F6FF7001F0D4FF43F2AC60C1F6FF7001F0CEFF43F28C60C1F6FF7001F024FBAC
S32D000102E00346002BF6D143F21070C1F6FF7002F00DFF43F25460C1F6FF7000F0B3FE43F25860C1F6FF7000F028
S32D00010308ADFE43F21070C1F6FF7048F2B431C0F2010102F07FFF43F29060C1F6FF7001F097FF034643F210702D
S32D00010330C1F6FF70194603F067F843F21070C1F6FF7048F2D031C0F2010102F067FF43F2AC60C1F6FF7001F04D
S32D000103587FFF034643F21070C1F6FF70194603F04FF843F21070C1F6FF7048F2F031C0F2010102F04FFF43F2DC
S32D000103809060C1F6FF7001F067FF03461846FCF791F902460B46104619464FF000024FF08243A3F5D303FCF7C9
S32D000103A815FB02460B4643F21070C1F6FF7003F04FF843F21070C1F6FF7048F21041C0F2010102F027FF43F201
S32D000103D0AC60C1F6FF7001F03FFF03461846FCF769F902460B46104619464FF000024FF08243A3F5D303FCF7AD
S32D000103F8EDFA02460B4643F21070C1F6FF7003F027F843F29060C1F6FF7001F021FF03461846FCF74BF90246E7
S32D000104200B46104619464FF000024FF08243A3F5D303FCF7CFFA02460B4610461946FCF781FC024640F21043AD
S32D00010448C1F6FF731A60F7E000BF43F24C60C1F6FF7001F0D1FF034683F00103DBB2002BF3D143F21070C1F6DC
S32D00010470FF7002F04BFE43F21070C1F6FF7048F23441C0F2010102F0ABFF43F21070C1F6FF7048F29031C0F251
S32D00010498010102F0A1FF00BF43F24C60C1F6FF7001F096FF034683F00103DBB2002BF3D100BF43F24C60C1F6C2
S32D000104C0FF7001F09DFF034683F00103DBB2002BF3D143F25460C1F6FF704FF05A0100F0DFFD43F25860C1F6BC
S32D000104E8FF704FF05A0100F0D7FD43F29060C1F6FF7001F0B9FE43F2AC60C1F6FF7001F0B3FE43F28C60C1F644
S32D00010510FF7001F009FA0346002BF6D143F21070C1F6FF7002F0F2FD43F25460C1F6FF7000F098FD43F25860E1
S32D00010538C1F6FF7000F092FD43F21070C1F6FF7048F2B431C0F2010102F064FE43F29060C1F6FF7001F07CFE37
S32D00010560034643F21070C1F6FF70194602F04CFF43F21070C1F6FF7048F2D031C0F2010102F04CFE43F2AC6065
S32D00010588C1F6FF7001F064FE034643F21070C1F6FF70194602F034FF43F21070C1F6FF7048F25441C0F20101C5
S32D000105B002F034FE43F29060C1F6FF7001F04CFE03461846FCF776F802460B46104619464FF000024FF08043D9
S32D000105D803F58403FCF7FAF902460B4643F21070C1F6FF7002F034FF43F21070C1F6FF7048F21041C0F20101DC
S32D0001060002F00CFE43F2AC60C1F6FF7001F024FE03461846FCF74EF802460B46104619464FF000024FF08043E4
S32D0001062803F58403FCF7D2F902460B4643F21070C1F6FF7002F00CFF43F21070C1F6FF7048F27441C0F2010177
S32D0001065002F0C6FE00BF43F24C60C1F6FF7001F0BBFE034683F00103DBB2002BF3D100BF43F24C60C1F6FF7053
S32D0001067801F0C2FE034683F00103DBB2002BF3D180BD00BF80B500AF43F26860C1F6FF70074902F00DF84FF4D9
S32D000106A0FA6000F0D5FF43F26860C1F6FF70034902F002F880BD00BF0000F0410000C84280B500AF43F25C60A6
S32D000106C8C1F6FF702D4901F0F3FF2D484FF001012A4AFEF7CDFA2A482A494FF000024FF00003FDF799FF4FF06B
S32D000106F05A0027494FF002024FF00003FEF738FD244825494FF000024FF00003FDF788FF4FF000001E494FF0A5
S32D0001071801024FF00003FEF727FD1C484FF000011C4AFEF7A5FA4FF0870017494FF002024FF00003FEF718FD01
S32D0001074043F25C60C1F6FF70154901F0B5FF4FF02D000F494FF001024FF00003FEF708FD43F25C60C1F6FF7017
S32D00010768064901F0A5FF4FF05A0007494FF002024FF00003FEF7F8FC80BD00BF0000F0410000C8C20000A04090
S32D000107900000B4420000C8420000A041000020410000964280B582B000AF21E043F21070C1F6FF7002F0AAFC96
S32D000107B843F21070C1F6FF7048F2B441C0F2010102F028FD43F2C860C1F6FF7005F03CF8034643F21070C1F6DC
S32D000107E0FF70194602F024FE4FF0320000F030FF43F24C60C1F6FF7001F0EEFD034683F00103DBB2002BD1D17B
S32D0001080800BF43F24C60C1F6FF7001F0F5FD034683F00103DBB2002BF3D1684868494FF000024FF00103FEF702
S32D00010830C7FA4FF0000065494FF001024FF00003FEF796FC4FF0FA0000F002FF4FF000005E494FF000024FF050
S32D000108580003FEF789FC5C484FF001015B4AFEF707FA43F25C60C1F6FF70594901F020FF524858494FF000022F
S32D000108804FF00003FDF7CCFE4E4855494FF00102FEF750FD4FF000004C494FF000024FF00003FEF765FC4FF0A5
S32D000108A8000048494FF000024FF00003FEF75CFC43F25C60C1F6FF70484901F0F9FE42484FF00101464AFEF7E0
S32D000108D0D3F94FF4FA7000F0BBFE3A4843494FF000024FF00003FDF79BFE39484FF001013D4AFEF7C1F94FF082
S32D000108F85A0034494FF001024FF00103FEF734FC2E4834494FF000024FF00003FDF784FE4FF000002B494FF072
S32D0001092002024FF00103FEF723FC294829494FF00002FEF761F803461846FCF727FD03467B6023484FF001014D
S32D00010948274AFEF795F94FF05A001E494FF002024FF00103FEF708FC1B484FF00101224AFEF786F915481F49C4
S32D000109704FF000024FF00003FDF752FE4FF0000012494FF001024FF00103FEF7F1FB10484FF00101164AFEF7A3
S32D000109986FF943F25C60C1F6FF700D4901F088FE06480F494FF000024FF00003FDF734FE7B68184607F108074D
S32D000109C0BD4680BD0000C8420000803F0000B4420000C8C2000020420000FA420000E0400000604100002041BF
S32D000109E80000F041000000400000A04180B582B000AF786029484FF00101294AFEF738F943F25C60C1F6FF703E
S32D00010A10254901F051FE4FF05A0024494FF002024FF00003FEF7A4FB1E484FF00101204AFEF722F97B68022BB9
S32D00010A3808D11E481E494FF000024FF00003FDF7EBFD07E019481B494FF000024FF00003FDF7E2FDFFF716FE7E
S32D00010A6010484FF00101164AFEF706F9114815494FF000024FF00003FDF7D2FD4FF000000A494FF001024FF06A
S32D00010A880003FEF771FB05484FF001010A4AFEF7EFF807F10807BD4680BD00BF0000C8C20000F0410000B44266
S32D00010AB00000A0410000C8420000E0400000B841000020420000504180B500AF2D482E494FF001024FF00103CB
S32D00010AD8FEF772F94FF05A002A494FF002024FF00003FEF741FB284828494FF000024FF00003FDF791FD4FF0A8
S32D00010B00000022494FF001024FF00003FEF730FB1F484FF001011F4AFEF7AEF81E481F494FF000024FF00003BA
S32D00010B28FDF77AFD4FF05A0016494FF002024FF00003FEF719FB4FF0FA0000F085FD4FF05A0010494FF00002CF
S32D00010B504FF00003FEF70CFB43F25C60C1F6FF700F4901F0A9FD0C480E494FF00002FEF7E1FB43F25C60C1F6CD
S32D00010B78FF700B4901F09CFD80BD00BF0000FE42000018420000B4420000C8C2000020410000C8420000A040A0
S32D00010BA00000FA42000090410000F04180B500AF4FF000000E494FF01E024FF00003FEF7DFF90C484FF002016A
S32D00010BC80B4AFEF755F84FF05A0007494FF002024FF00003FEF7C8FA04484FF00101054AFEF746F880BD00BF37
S32D00010BF00000B4420000C8C20000F04100007A4480B500AF44F2F022C1F6FF7243F24063C1F6FF73D31A1946C6
S32D00010C1843F24063C1F6FF731A460B4610464FF000011A4604F05DFF80BD00BF05F0E8FF00F0B0F9FFF7E0FF6F
S32D00010C4005F098FF05F034FF05F0EEFF00F00CF84FF0000043F2D061C1F6FF71FDF7F6FB0346184604F01CFF94
S32D00010C6880B500AF4FF4E043C4F204034FF4E042C4F2040202F5805202F13802126842F4785203F5805303F106
S32D00010C9038031A6000F02EF900F094F843F2DC63C1F6FF734FF058021A6043F2DC63C1F6FF731B684FF47A72EE
S32D00010CB802FB03F243F2D863C1F6FF731A6043F2D863C1F6FF731B681A464FF4E043C4F2040303F5825303F1A8
S32D00010CE004031B6803F070634FEA136303F10103B2FBF3F31A4643F2E063C1F6FF731A604FF4E043C4F20403BD
S32D00010D084FF4E042C4F2040202F5805202F13C02126842F0225203F5805303F13C031A604FF4E043C4F20403E6
S32D00010D304FF4E042C4F2040202F5805202F13002126842F0006203F5805303F130031A604FF45043C4F2030379
S32D00010D584FF480721A614FF0640000F009FB4FF45043C4F203034FF45042C4F20302526922F010025A614FF426
S32D00010D805043C4F203034FF000021A604FF45043C4F203034FF010025A6100F0CBFF01F073F843F2D460C1F666
S32D00010DA8FF7000F069FB43F21070C1F6FF7002F067F841F2883000F047FC80BD80B400AF4FF48043C4F206032A
S32D00010DD04FF000025A704FF48043C4F206034FF098021A704FF48043C4F206039B79DBB203F01003002B0CBF5F
S32D00010DF800230123DBB2002BF0D14FF48043C4F206039B79DBB203F00C034FEA9303022B0CBF00230123DBB209
S32D00010E20002BEED14FF48043C4F206034FF018021A714FF48043C4F206034FF000025A714FF4E043C4F204031C
S32D00010E4803F5825303F104034FF00002C0F213121A604FF48043C4F206034FF054025A7100BF4FF48043C4F281
S32D00010E7006039B79DBB203F02003002B14BF00230123DBB2002BF0D100BF4FF48043C4F206039B79DBB203F0BD
S32D00010E984003002B14BF00230123DBB2002BF0D14FF48043C4F206034FF48042C4F206021278D2B202F03F0261
S32D00010EC0D2B21A704FF48043C4F206039B79DBB203F00C034FEA9303032B0CBF00230123DBB2002BEED14FF0C8
S32D00010EE800031846BD4680BC704700BF80B400AF4FF44043C4F204034FF480725A634FF2C003C4F20F034FF260
S32D00010F10C002C4F20F02526942F400525A614FF2C003C4F20F034FF2C002C4F20F02126842F400521A604FF4D6
S32D00010F384043C4F2040340F20312C0F20A021A634FF46143CEF200034FF46142CEF20002D2F8882142F08062EF
S32D00010F60C3F888214FF46143CEF200034FF46142CEF20002926842F080629A60BD4680BC704700BF80B483B088
S32D00010F8800AF7860FEE700BF80B400AF00BEBD4680BC704780B400AF4FF0E0224CF20003C0F20003C2F8083D5F
S32D00010FB04FF40053C4F205034CF22052DA814FF40053C4F205034DF62812DA814FF40053C4F205034FF0D20220
S32D00010FD81A80BD4680BC704780B400AF4FF44043C4F20403D3F8A03003F48053002B0CBF00230123DBB2002B9A
S32D0001100019D04FF44043C4F204034FF44042C4F20402D2F8A02022F48052C3F8A0204FF2C003C4F20F034FF2DA
S32D00011028C002C4F20F02126822F400521A60BD4680BC704780B483B000AF78600B46FB707B68FA781A707B6852
S32D000110504FF000025A707B68184607F10C07BD4680BC704780B582B000AF78607B685B78002B10D07B684FF053
S32D0001107800025A707B681B7843F2D460C1F6FF7019464FF000024FF01E0300F03FFA07F10807BD4680BD00BF49
S32D000110A080B584B000AF786039603B687F2B03DD4FF07F03FB7309E03B6813F1800F03DA4FF08003FB7301E02F
S32D000110C83B68FB737B685B78FA7B9A420FD07B68FA7B5A707B681A78FB7B43F2D460C1F6FF7011461A464FF070
S32D000110F01E0300F00FFA07F11007BD4680BD00BF90B486B000AFF860B9607A60FA684FF42043C4F206039A4292
S32D0001111814D14FF4E043C4F204034FF4E042C4F2040202F5805202F13402126842F4806203F5805303F1340305
S32D000111401A6083E0FA684FF43043C4F206039A4214D14FF4E043C4F204034FF4E042C4F2040202F5805202F10B
S32D000111683402126842F4006203F5805303F134031A6067E0FA684FF44043C4F206039A4214D14FF4E043C4F295
S32D0001119004034FF4E042C4F2040202F5805202F13402126842F4805203F5805303F134031A604BE0FA684FF454
S32D000111B85043C4F206039A4214D14FF4E043C4F204034FF4E042C4F2040202F5805202F13402126842F40052BD
S32D000111E003F5805303F134031A602FE0FA684FF42043C4F20E039A4214D14FF4E043C4F204034FF4E042C4F293
S32D00011208040202F5805202F12802126842F4806203F5805303F128031A6013E04FF4E043C4F204034FF4E0425A
S32D00011230C4F2040202F5805202F12802126842F4006203F5805303F128031A60FB68DB78DBB223F00C03DAB286
S32D00011258FB68DA70FB684FF000029A70BB684FF47A7202FB03F27B684FEA031392FBF3F39CB2FB681B78DBB252
S32D0001128023F01F03FB75234603F4F8534FEA2323DBB203F01F03DAB2FB7D1343DAB2FB681A70E2B2FB685A703A
S32D000112A8BB684FF4FA4202FB03F27B684FEA031392FBF3F39AB2234619464FEAC121CB1A4FEA43139BB2D31803
S32D000112D09CB2FB689B7ADBB223F01F03FB75E3B203F01F03DAB2FB7D1343DAB2FB689A72FB68DB78DBB243F082
S32D000112F80C03DAB2FB68DA7007F11807BD4690BC704700BF80B483B000AF786000BF7B681B79DBB203F02003DC
S32D00011320002B14BF00230123DBB2002BF3D17B68DB79DBB2184607F10C07BD4680BC704780B483B000AF7860CC
S32D000113480B46FB7000BF7B681B79DBB2DBB26FEA0303DBB24FEAD313DBB2002BF3D17B68FA78DA7107F10C0738
S32D00011370BD4680BC704700BF80B483B000AF78604FF4E043C4F204034FF4E042C4F2040202F5805202F1380271
S32D00011398126842F0010203F5805303F138031A604FF00003C4F204037A689A604FF00003C4F204034FF00502E3
S32D000113C05A604FF00003C4F204034FF00002C4F20402126842F001021A6000BF4FF00003C4F204031B6803F0EB
S32D000113E88003002B14BF00230123DBB2002BF1D14FF00003C4F204034FF00002C4F20402126822F001021A608F
S32D0001141007F10C07BD4680BC704700BF80B582B000AF786039607B68012B0AD13A684FF6FF739A4205D143F23C
S32D00011438D460C1F6FF7000F00FF807F10807BD4680BD00BF80B500AF4FF001004FF6FF71FFF7E0FF80BD00BF84
S32D0001146080B483B000AF78607B684FF000021A707B68184607F10C07BD4680BC704700BF80B582B000AF7860D2
S32D000114887B681B7883F00103DBB2002B36D04FF4E043C4F2040303F5805303F128034FF400621A604FF4504388
S32D000114B0C4F204034FF440721A624FF45043C4F204034FF440725A6243F2D863C1F6FF731B684FEAD372D31816
S32D000114D84FEA63034FF43040C4F20E0019464FF46142FFF709FE4FF0640000F0ADF87B684FF001021A704FF067
S32D00011500010301E04FF00003184607F10807BD4680BD00BF80B582B000AF7860F970BA707B704FF43040C4F25C
S32D000115280E004FF07F01FFF707FF4FF43040C4F20E004FF00801FFF7FFFEFB784FF43040C4F20E001946FFF7DA
S32D00011550F7FEBB784FF43040C4F20E001946FFF7EFFE7B784FF43040C4F20E001946FFF7E7FE4FF43040C4F27E
S32D000115780E004FF0FF01FFF7DFFE07F10807BD4680BD00BF80B487B000AFF860B9607A60FA6844F6D353C1F244
S32D000115A06203A3FB02134FEA9312BB68D3187B61FA6844F6D353C1F26203A3FB02134FEA93134FF47A7101FBA6
S32D000115C803F3D31AFB60FB684FEAC33244F6D353C1F26203A3FB02134FEA93127B68D3183B613B694FEAD333CF
S32D000115F07A69D3187B613B694FEA43434FEA53433B614FF45043C4F203031B681A467B699A4211D34FF4504365
S32D00011618C4F203031B681A467B699A420BD14FF45043C4F203035B681A463B699A4202D24FF0010301E04FF0FC
S32D000116400003002BDDD107F11C07BD4680BC704780B584B000AF78604FF45043C4F203031B68FB604FF4504358
S32D00011668C4F203035B68BB607B681846F968BA68FFF788FF07F11007BD4680BD80B483B000AF4FF45043C4F287
S32D0001169003031B684FF47A7202FB03F37B604FF45043C4F203035B684FF47A7202FB03F34FEAD3337A68D31822
S32D000116B87B607B68184607F10C07BD4680BC704780B582B000AF78600B46FB70FB787868194600F013F87B68AC
S32D000116E0184607F10807BD4680BD00BF80B483B000AF78607B68184607F10C07BD4680BC704700BF80B483B021
S32D0001170800AF78600B46FB707B68FA781A707B681B781A4648F26063C0F201039B5C042B00F2F98001A252F889
S32D0001173023F000BF49170100A71701000518010063180100C11801004FF41043C4F204037A681278114648F2D4
S32D00011758A462C0F2010252F8212040F2031143F822104FF47043C4F20F034FF47042C4F20F02526911467A68FB
S32D000117801278104648F2A462C0F2010252F8202002F01F024FF0010000FA02F26FEA02020A405A61BBE04FF45A
S32D000117A82043C4F204037A681278114648F2A462C0F2010252F8212040F2031143F822104FF24003C4F20F03B0
S32D000117D04FF24002C4F20F02526911467A681278104648F2A462C0F2010252F8202002F01F024FF0010000FA00
S32D000117F802F26FEA02020A405A618CE04FF43043C4F204037A681278114648F2A462C0F2010252F8212040F218
S32D00011820031143F822104FF28003C4F20F034FF28002C4F20F02526911467A681278104648F2A462C0F2010239
S32D0001184852F8202002F01F024FF0010000FA02F26FEA02020A405A615DE04FF44043C4F204037A6812781146C1
S32D0001187048F2A462C0F2010252F8212040F2031143F822104FF2C003C4F20F034FF2C002C4F20F02526911466E
S32D000118987A681278104648F2A462C0F2010252F8202002F01F024FF0010000FA02F26FEA02020A405A612EE02F
S32D000118C04FF45043C4F204037A681278114648F2A462C0F2010252F8212040F2031143F822104FF47143C4F2C3
S32D000118E80F034FF47142C4F20F02526911467A681278104648F2A462C0F2010252F8202002F01F024FF001005C
S32D0001191000FA02F26FEA02020A405A6100BF07F10C07BD4680BC704780B485B000AF78604FF00003FB607B6828
S32D000119381B781A4648F26063C0F201039B5C042B00F2868001A252F823F000BF6919010099190100C9190100E4
S32D00011960F9190100291A01004FF47043C4F20F031B691A467B681B78194648F2A463C0F2010353F8213003F004
S32D000119881F034FF0010101FA03F31340FB605FE04FF24003C4F20F031B691A467B681B78194648F2A463C0F2F7
S32D000119B0010353F8213003F01F034FF0010101FA03F31340FB6047E04FF28003C4F20F031B691A467B681B7866
S32D000119D8194648F2A463C0F2010353F8213003F01F034FF0010101FA03F31340FB602FE04FF2C003C4F20F031E
S32D00011A001B691A467B681B78194648F2A463C0F2010353F8213003F01F034FF0010101FA03F31340FB6017E07F
S32D00011A284FF47143C4F20F031B691A467B681B78194648F2A463C0F2010353F8213003F01F034FF0010101FA33
S32D00011A5003F31340FB6000BFFB68002B0CBF00230123DBB2184607F11407BD4680BC704780B483B000AF786082
S32D00011A780B46FB707B68FA781A707B68184607F10C07BD4680BC704780B586B000AF78607B681B781A4648F260
S32D00011AA02473C0F2010353F822303B617B681B781A4648F28063C0F201039B5CFB733B69DBB203F01F03DAB2B1
S32D00011AC843F2E463C1F6FF731A723B69DBB203F01F03DAB243F2E463C1F6FF735A724FF46143CEF200034FF48E
S32D00011AF06142CEF20002D2F8882042F01002C3F88820FB7B002B1ED14FF43040C4F2030043F2E461C1F6FF71AC
S32D00011B1800F04CFD4FF43043C4F203031B6803F08003002B14BF00230123DBB2002BF1D14FF43043C4F20303C9
S32D00011B401B697B611DE04FF43040C4F20B0043F2E461C1F6FF7100F02DFD4FF43043C4F20B031B6803F0800377
S32D00011B68002B14BF00230123DBB2002BF1D14FF43043C4F20B031B697B614FF46143CEF200034FF46142CEF265
S32D00011B900002D2F8882142F01002C3F888214FF46143CEF200034FF46142CEF20002926842F010029A604FF43C
S32D00011BB86143CEF200034FF46142CEF20002D2F8882142F08062C3F888214FF46143CEF200034FF46142CEF2B4
S32D00011BE00002926842F080629A607B694FEA03434FEA13431846FAF74DFD02460B46104619460FA3D3E9002362
S32D00011C08FAF7BAFD02460B46104619460CA3D3E90023FAF7DBFE02460B4610461946FBF78DF80346BB60BB6813
S32D00011C30184607F11807BD4680BD00BFAFF30080A4703D0AD7A30A4000000000E0FFEF4080B586B000AF7860D0
S32D00011C587B681B781A4648F22473C0F2010353F822303B617B681B781A4648F28063C0F201039B5CFB733B6915
S32D00011C80DBB203F01F03DAB243F2F463C1F6FF731A723B69DBB203F01F03DAB243F2F463C1F6FF735A72FB7BFD
S32D00011CA8002B1ED14FF43040C4F2030043F2F461C1F6FF7100F07AFC4FF43043C4F203031B6803F08003002BDA
S32D00011CD014BF00230123DBB2002BF1D14FF43043C4F203031B697B611DE04FF43040C4F20B0043F2F461C1F6CD
S32D00011CF8FF7100F05BFC4FF43043C4F20B031B6803F08003002B14BF00230123DBB2002BF1D14FF43043C4F268
S32D00011D200B031B697B617B69184607F11807BD4680BD00BF98B500AF43F2E463C1F6FF734FF05C021A7043F2D1
S32D00011D48E463C1F6FF734FF010025A7043F2E463C1F6FF7341F234225A8043F2E463C1F6FF7345F278629A8009
S32D00011D7043F2E463C1F6FF734FF010029A7143F2E463C1F6FF734FF00702DA7143F2E463C1F6FF734FF4C02241
S32D00011D98DA6043F2E463C1F6FF734FF01F021A7243F2E463C1F6FF734FF01F025A724FF43040C4F2030043F2DF
S32D00011DC0E461C1F6FF7100F0F5FB4FF43040C4F20B0043F2E461C1F6FF7100F0EBFB4FF43040C4F20B0000F059
S32D00011DE83FFB4FF43040C4F2030000F039FB4FF43040C4F20B0043F2E461C1F6FF7100F0D5FB4FF43040C4F2C4
S32D00011E10030043F2E461C1F6FF7100F0CBFB43F2F462C1F6FF7243F2E463C1F6FF7314460FCB84E80F0043F20D
S32D00011E38F463C1F6FF734FF05C021A7043F2F463C1F6FF734FF00402DA7198BD80B500AF43F20873C1F6FF737D
S32D00011E601B6803F1010243F20873C1F6FF731A6000F072F94FF4E043C4F203034FF00102C3F80C2180BD00BFE3
S32D00011E8880B500AF4FF4E043C4F203034FF001021A6048F2A060C0F2010000F023F84FF4E043C4F203034FF010
S32D00011EB00302C3F808214FF46143CEF200034FF46142CEF20002D2F8882142F01002C3F888214FF46143CEF206
S32D00011ED800034FF46142CEF20002926842F010029A6080BD80B483B000AF78604FF4E043C4F203037A68C3F80E
S32D00011F00002107F10C07BD4680BC704780B584B000AF78600B46FB707A68FB7810461946FFF7A6FD43F2047395
S32D00011F28C1F6FF731B68002B32D17B684FF000021A617B684FF000025A614FF0140004F07BFE02467B689A614C
S32D00011F507B689B697A689A607B689B694FF001025A607B689B69FA781A707B689B694FF00002DA607B689B6990
S32D00011F784FF000021A617B689B694FF000025A707B689A6943F20473C1F6FF731A6071E043F20473C1F6FF7331
S32D00011FA01B68FB6002E0FB68DB68FB60FB681B78FA789A4206D0FB68DB68002B02D04FF0010301E04FF000032E
S32D00011FC8002BECD1FB681B78FA789A4224D17B68FA689A617B689B699B68BB6002E0BB681B69BB60BB681B6939
S32D00011FF0002B0CBF00230123DBB2002BF3D1BB687A681A617B68BA685A617B684FF000021A617B689B695A6881
S32D0001201802F101025A602DE07B684FF000021A617B684FF000025A614FF0140004F004FE02467B689A617B680C
S32D000120409B697A689A607B689B694FF001025A607B689B69FA781A707B689B694FF00002DA607B689B694FF043
S32D0001206800025A707B689B69FA681A617B689A69FB68DA60786800F0F7F87B684FF48C429A607B684FF45242CF
S32D00012090DA607B68184607F11007BD4680BD00BF80B586B000AF78607B685B697B617B681B693B617B69002B11
S32D000120B831D13B69002B2ED17B689B691B69FB607B689B69DB68BB60FB68002B0AD1BB68002B07D143F20473E3
S32D000120E0C1F6FF734FF000021A6012E0FB68002B03D0FB68BA68DA6005E043F20473C1F6FF73BA681A60BB6862
S32D00012108002B02D0BB68FA681A617B689B69184604F0B8FD16E07B69002B03D07B693A691A6103E07B689B6919
S32D000121303A699A603B69002B02D03B697A695A617B689B695A6802F1FF325A607B68184607F11807BD4680BDE1
S32D0001215880B584B000AF43F20473C1F6FF731B68FB6029E0FB685B78FB71FB689B68184600F02EF80346BB7193
S32D00012180BB79002B19D0FB685B68012B15DDFB689B681B69BB6008E0BB685B6803F10102BB685A60BB681B6956
S32D000121A8BB60BB68002B0CBF00230123DBB2002BEED1FB68DB68FB60FB68002B0CBF00230123DBB2002BCDD11F
S32D000121D007F11007BD4680BD80B584B000AF78607868FFF735FD0346FB607B689B695B78FB72FB7A002B12D14B
S32D000121F87B68DA68FB689A420DDA7B689B694FF001025A707B685B6803F101027B685A604FF0010317E0FB7A91
S32D00012220012B12D17B689A68FB689A420DDD7B689B694FF000025A707B685B6803F101027B685A604FF0010303
S32D0001224801E04FF00003184607F11007BD4680BD80B483B000AF78607B685B68184607F10C07BD4680BC7047A4
S32D0001227080B483B000AF78607B684FF000025A6007F10C07BD4680BC704700BF80B582B000AF78600B46FB7009
S32D000122987B681846FFF726FA7B6803F101031846FFF720FA7B6803F102031846FFF71AFAFB78032B66D801A2B1
S32D000122C052F823F0D522010003230100312301005F2301007B6818464FF00001FFF712FA7B6803F101031846DF
S32D000122E84FF00101FFF70AFA7B6803F1020318464FF00201FFF702FA44E07B6818464FF00801FFF7FBF97B68A4
S32D0001231003F1010318464FF00901FFF7F3F97B6803F1020318464FF00A01FFF7EBF92DE07B6818464FF0100121
S32D00012338FFF7E4F97B6803F1010318464FF01101FFF7DCF97B6803F1020318464FF01201FFF7D4F916E07B6826
S32D0001236018464FF01801FFF7CDF97B6803F1010318464FF01901FFF7C5F97B6803F1020318464FF01A01FFF70C
S32D00012388BDF900BF7B68184607F10807BD4680BD80B582B000AF78607B681846FFF7C0FA034683F00103DBB2FD
S32D000123B0184607F10807BD4680BD00BF80B582B000AF78607B681846FFF7AEFA0346184607F10807BD4680BDDF
S32D000123D880B582B000AF78607B6803F101031846FFF79EFA034683F00103DBB2184607F10807BD4680BD00BF70
S32D0001240080B582B000AF78607B6803F101031846FFF78AFA0346184607F10807BD4680BD80B582B000AF786030
S32D000124287B6803F102031846FFF77AFA034683F00103DBB2184607F10807BD4680BD00BF80B582B000AF786042
S32D000124507B6803F102031846FFF766FA0346184607F10807BD4680BD80B485B000AF78607B681B6A23F0400232
S32D000124787B681A627B685B6A23F00B027B685A627B685B6A43F007027B685A627B685B6A43F080027B685A62F0
S32D000124A07B681B6803F08003002B14BF00230123DBB2002BF4D17B685B6A03F04003002B0CBF00230123DBB2C7
S32D000124C8002B02D04FF0010369E04FF00003FB817B68DB6CFB817B689B6C9AB2FB89D318FB817B685B6C9AB2E1
S32D000124F0FB89D318FB817B681B6C9AB2FB89D318FB817B68DB6B9AB2FB89D318FB817B689B6B9AB2FB89D3182D
S32D00012518FB81FB894FEA5303FB81FB896FEA43436FEA5343FB81FA897B68DA624FF00003FB817B68DB6EFB81B3
S32D000125407B689B6E9AB2FB89D318FB817B685B6E9AB2FB89D318FB817B681B6E9AB2FB89D318FB817B68DB6D98
S32D000125689AB2FB89D318FB817B689B6D9AB2FB89D318FB81FB894FEA5303FB81FB896FEA43436FEA5343FB818E
S32D00012590FA897B681A637B685B6A23F080027B685A624FF00003184607F11407BD4680BC704700BF80B483B08E
S32D000125B800AF786039603B681B781A467B689A603B685B781A467B68DA603B685B881A467B689A613B689B88E4
S32D000125E01A467B68DA613B689B791A467B681A623B68DB791A467B685A623B68DA687B681A653B681B7A1A4603
S32D000126087B681A603B685B7A1A467B685A6007F10C07BD4680BC704780B483B000AF78607B68184607F10C0796
S32D00012630BD4680BC704700BF80B582B000AF786039607B68012B0AD13A684FF6FF739A4205D143F20C70C1F6E2
S32D00012658FF70FFF7E1FF07F10807BD4680BD00BF80B500AF4FF001004FF6FF71FFF7E0FF80BD00BF80B483B0F7
S32D0001268000AF78600B46FB707B68FA781A707B684FF4FA725A807B6840F6C4129A807B68044A9A607B68184628
S32D000126A807F10C07BD4680BC704700BF000080BFF0B585B000AF786039604FF001031C4638684B49FAF736FE0C
S32D000126D00346002B02D14FF000031C46E3B2002B01D0454B3B604FF001031C4638684349FAF742FE0346002BBE
S32D000126F802D14FF000031C46E3B2002B01D03D4B3B607B689B6818463968FAF709FE0346002B64D17B683A687D
S32D000127209A607B685E887B689B881A467B685B88D31A1846F9F7BEFF02460B46104619462BA3D3E90023FAF7B7
S32D0001274845F902460B4614461D463868F9F7C0FF02460B4620462946FAF70EF802460B4610461946FAF7CAFA17
S32D0001277003469BB2F318FB81FB897B73FB894FEA23233B734FF43040C4F20E004FF07F01FEF7D6FD4FF4304049
S32D00012798C4F20E004FF00501FEF7CEFD7B681B784FF43040C4F20E001946FEF7C5FD3B7B4FF43040C4F20E0019
S32D000127C01946FEF7BDFD7B7B4FF43040C4F20E001946FEF7B5FD4FF43040C4F20E004FF0FF01FEF7ADFD07F11C
S32D000127E81407BD46F0BD00BF0000000000806640000000000000344380B582B000AF78604FF43040C4F20E0036
S32D000128104FF07F01FEF794FD4FF43040C4F20E004FF00901FEF78CFD7B681B784FF43040C4F20E001946FEF7D5
S32D0001283883FD4FF43040C4F20E004FF00101FEF77BFD4FF43040C4F20E004FF0FF01FEF773FD07F10807BD46A7
S32D0001286080BD00BF80B582B000AF78604FF43043C4F204034FF48072DA604FF42043C4F204034FF480729A64E7
S32D000128884FF42043C4F204034FF480721A644FF42043C4F204034FF480725A644FF42043C4F204034FF480721D
S32D000128B0DA604FF28003C4F20F034FF28002C4F20F02526942F008025A614FF24003C4F20F034FF24002C4F272
S32D000128D80F02526942F480225A614FF24003C4F20F034FF24002C4F20F02526942F480325A614FF24003C4F244
S32D000129000F034FF24002C4F20F02526942F400325A614FF24003C4F20F034FF24002C4F20F02126842F0080222
S32D000129281A604FF24003C4F20F034FF24002C4F20F02526942F008025A614FF28003C4F20F034FF28002C4F2B9
S32D000129500F02126842F008021A604FF42043C4F204034FF480725A624FF42043C4F204034FF480721A624FF46C
S32D000129783043C4F204034FF480721A614FF43043C4F204034FF480725A614FF43043C4F204034FF480729A614A
S32D000129A04FF43043C4F204034FF48072DA614FF43043C4F204034FF480721A634FF43043C4F204034FF4807258
S32D000129C85A634FF43043C4F204034FF480729A634FF43043C4F204034FF48072DA634FF43043C4F204034FF4E3
S32D000129F080721A644FF43043C4F204034FF480725A644FF43043C4F204034FF480729A644FF43043C4F20403C9
S32D00012A184FF48072DA644FF44043C4F204034FF480721A604FF44043C4F204034FF480729A604FF44043C4F2BC
S32D00012A4004034FF48072DA604FF44043C4F204034FF480721A614FF24003C4F20F034FF24002C4F20F0252696D
S32D00012A6842F440725A614FF28002C4F20F024FF28003C4F20F035B6919464FF2F003C0F20F030B4353614FF228
S32D00012A90C003C4F20F034FF2C002C4F20F02526942F01D025A6178684FF0E20100F000FD78684FF01D0100F0DF
S32D00012AB83FFE78684FF0020100F03AFE78684FF0040100F035FE78684FF0E00100F0ECFC78684FF0010100F038
S32D00012AE02BFE4FF06400FEF7B3FD78684FF0E00100F0DEFC78684FF0030100F01DFE78684FF0010100F0D4FC7D
S32D00012B084FF00100FEF7A0FD78684FF0E60100F0CBFC78684FF0010100F00AFE78684FF0A00100F005FE786863
S32D00012B304FF0FF0100F000FE78684FF0B00100F0B7FC78684FF01C0100F0F6FD78684FF00F0100F0F1FD7868CA
