S01600002E2E2F464548526F626F74436F64652E733139FF
S32D0000C00000000020D90F010035130100351301003513010035130100351301000000000000000000000000009C
S32D0000C02800000000351301003513010000000000351301003513010035130100351301003513010035130100A2
S32D0000C05035130100351301003513010035130100351301003513010035130100351301003513010035130100E8
S32D0000C07835130100351301003513010035130100351301003513010035130100351301003513010035130100C0
S32D0000C0A03513010035130100351301003513010035130100351301003513010035130100351301003513010098
S32D0000C0C83513010035130100351301003513010035130100351301003513010035130100351301003513010070
S32D0000C0F0351301005D4F01003513010035130100351301003513010035130100351301003513010035130100E4
S32D0000C118351301003513010035130100351301003513010035130100351301003513010035130100351301001F
S32D0000C140351301003513010035130100351301006D2201003513010035130100351301003513010035130100B0
S32D0000C16835130100351301003513010035130100351301003513010035130100351301003513010035130100CF
S32D0000C1903513010035130100351301003513010035130100351301008513010035130100351301003513010057
S32D0000C1B8351301003513010035130100351301003513010035130100351301003513010035130100351301007F
S32D0000C41081F0004102E000BF83F0004330B54FEA41044FEA430594EA050F08BF90EA020F1FBF54EA000C55EAC6
S32D0000C438020C7FEA645C7FEA655C00F0E2804FEA5454D4EB5555B8BF6D420CDD2C4480EA020281EA030382EA0F
S32D0000C460000083EA010180EA020281EA0303362D88BF30BD11F0004F4FEA01314FF4801C4CEA113102D0404263
S32D0000C48861EB410113F0004F4FEA03334CEA133302D0524263EB430394EA050F00F0A780A4F10104D5F1200E8A
S32D0000C4B00DDB02FA0EFC22FA05F2801841F1000103FA0EF2801843FA05F359410EE0A5F120050EF1200E012A2D
S32D0000C4D803FA0EFC28BF4CF0020C43FA05F3C01851EBE37101F0004507D54FF0000EDCF1000C7EEB00006EEB67
S32D0000C5000101B1F5801F1BD3B1F5001F0CD349085FEA30004FEA3C0C04F101044FEA445212F5800F80F09A8000
S32D0000C528BCF1004F08BF5FEA500C50F1000041EB045141EA050130BD5FEA4C0C404141EB010111F4801FA4F114
S32D0000C5500104E9D191F0000F04BF01460020B1FA81F308BF2033A3F10B03B3F120020CDA0C3208DD02F1140C87
S32D0000C578C2F10C0201FA0CF021FA02F10CE002F11402D8BFC2F1200C01FA02F120FA0CFCDCBF41EA0C019040B1
S32D0000C5A0E41AA2BF01EB0451294330BD6FEA04041F3C1CDA0C340EDC04F11404C4F1200220FA04F001FA02F3B6
S32D0000C5C840EA030021FA04F345EA030130BDC4F10C04C4F1200220FA02F001FA04F340EA0300294630BD21FAA8
S32D0000C5F004F0294630BD94F0000F83F4801306BF81F480110134013D4EE77FEA645C18BF7FEA655C29D094EA1C
S32D0000C618050F08BF90EA020F05D054EA000C04BF1946104630BD91EA030F1EBF0021002030BD5FEA545C05D1A3
S32D0000C6404000494128BF41F0004130BD14F580043CBF01F5801130BD01F0004545F0FE4141F470014FF0000031
S32D0000C66830BD7FEA645C1ABF194610467FEA655C1CBF0B46024650EA013406BF52EA033591EA030F41F40021D7
S32D0000C69030BD00BF90F0000F04BF0021704730B54FF4806404F132044FF000054FF0000150E700BF90F0000F66
S32D0000C6B804BF0021704730B54FF4806404F1320410F0004548BF40424FF000013EE700BF42004FEAE2014FEAF9
S32D0000C6E031014FEA02701FBF12F07F4393F07F4F81F06051704792F0000F14BF93F07F4F704730B54FF460741B
S32D0000C70801F0004521F0004120E700BF50EA010208BF704730B54FF000050AE050EA010208BF704730B511F046
S32D0000C730004502D5404261EB41014FF4806404F132045FEA915C3FF4DCAE4FF003025FEADC0C18BF03325FEAA0
S32D0000C758DC0C18BF033202EBDC02C2F1200300FA03FC20FA02F001FA03FE40EA0E0021FA02F11444C1E600BF19
S32D0000C78070B54FF0FF0C4CF4E06C1CEA11541DBF1CEA135594EA0C0F95EA0C0F00F0DEF82C4481EA030621EAF3
S32D0000C7A84C5123EA4C5350EA013518BF52EA033541F4801143F4801338D0A0FB02CE4FF00005E1FB02E506F05F
S32D0000C7D00042E0FB03E54FF00006E1FB03569CF0000F18BF4EF0010EA4F1FF04B6F5007F64F5407404D25FEA0F
S32D0000C7F84E0E6D4146EB060642EAC62141EA55514FEAC52040EA5E504FEACE2EB4F1FD0C88BFBCF5E06F1ED8D2
S32D0000C820BEF1004F08BF5FEA500E50F1000041EB045170BD06F0004646EA010140EA020081EA0301B4EB5C0487
S32D0000C848C2BFD4EB0C0541EA045170BD41F480114FF0000E013C00F3AB8014F1360FDEBF002001F0004170BDF0
S32D0000C870C4F10004203C35DA0C341BDC04F11404C4F1200500FA05F320FA04F001FA05F240EA020001F0004207
S32D0000C89821F0004110EBD37021FA04F642EB06015EEA430E08BF20EAD37070BDC4F10C04C4F1200500FA04F32F
S32D0000C8C020FA05F001FA04F240EA020001F0004110EBD37041F100015EEA430E08BF20EAD37070BDC4F12005C7
S32D0000C8E800FA05F24EEA020E20FA04F301FA05F243EA020321FA04F001F0004121FA04F220EA020000EBD37028
S32D0000C9105EEA430E08BF20EAD37070BD94F0000F0FD101F00046400041EB010111F4801F08BF013CF7D041EA6D
S32D0000C938060195F0000F18BF704703F00046520043EB030313F4801F08BF013DF7D043EA0603704794EA0C0FF1
S32D0000C9600CEA135518BF95EA0C0F0CD050EA410618BF52EA4306D1D181EA030101F000414FF0000070BD50EA38
S32D0000C988410606BF1046194652EA430619D094EA0C0F02D150EA013613D195EA0C0F05D152EA03361CBF10467B
S32D0000C9B019460AD181EA030101F0004141F0FE4141F470014FF0000070BD41F0FE4141F4780170BD70B54FF04D
S32D0000C9D8FF0C4CF4E06C1CEA11541DBF1CEA135594EA0C0F95EA0C0F00F0A7F8A4EB050481EA030E52EA03359B
S32D0000CA004FEA013100F088804FEA03334FF0805545EA131343EA12634FEA022245EA111545EA10654FEA002676
S32D0000CA280EF000419D4208BF964244F1FD0404F5407402D25B084FEA3202B61A65EB03055B084FEA32024FF461
S32D0000CA5080104FF4002CB6EB020E75EB030E22BFB61A754640EA0C005B084FEA3202B6EB020E75EB030E22BF22
S32D0000CA78B61A754640EA5C005B084FEA3202B6EB020E75EB030E22BFB61A754640EA9C005B084FEA3202B6EBEA
S32D0000CAA0020E75EB030E22BFB61A754640EADC0055EA060E18D04FEA051545EA16754FEA06164FEAC30343EAAC
S32D0000CAC852734FEAC2025FEA1C1CC0D111F4801F0BD141EA00014FF000004FF0004CB6E711F4801F04BF0143AE
S32D0000CAF00020B4F1FD0C88BFBCF5E06F3FF6AFAEB5EB030C04BFB6EB020C5FEA500C50F1000041EB045170BDBC
S32D0000CB180EF0004E4EEA113114EB5C04C2BFD4EB0C0541EA045170BD41F480114FF0000E013C90E645EA060EC3
S32D0000CB408DE60CEA135594EA0C0F08BF95EA0C0F3FF43BAF94EA0C0F0AD150EA01347FF434AF95EA0C0F7FF499
S32D0000CB6825AF104619462CE795EA0C0F06D152EA03353FF4FDAE1046194622E750EA410618BF52EA43067FF432
S32D0000CB90C5AE50EA41047FF40DAF52EA43057FF4EBAE12E74FF0FF3C06E000BF4FF0010C02E000BF4FF0010C75
S32D0000CBB84DF804CD4FEA410C7FEA6C5C4FEA430C18BF7FEA6C5C1BD001B050EA410C0CBF52EA430C91EA030FEC
S32D0000CBE002BF90EA020F0020704710F1000F91EA030F58BF994208BF90422CBFD8176FEAE37040F0010070476E
S32D0000CC084FEA410C7FEA6C5C02D150EA013C07D14FEA430C7FEA6C5CD6D152EA033CD3D05DF8040B704700BFCD
S32D0000CC308446104662468C461946634600E000BF01B5FFF7B7FF002848BF10F1000F01BD4DF808EDFFF7F4FF13
S32D0000CC580CBF012000205DF808FB00BF4DF808EDFFF7EAFF34BF012000205DF808FB00BF4DF808EDFFF7E0FF18
S32D0000CC8094BF012000205DF808FB00BF4DF808EDFFF7CEFF94BF012000205DF808FB00BF4DF808EDFFF7C4FF40
S32D0000CCA834BF012000205DF808FB00BF4FEA410212F5001215D211D56FF47873B3EB625212D94FEAC12343F0D6
S32D0000CCD0004343EA505311F0004F23FA02F018BF404270474FF00000704750EA013005D111F0004008BF6FF016
S32D0000CCF8004070474FF00000704700BF4A0011D212F5001211D20DD56FF47873B3EB62520ED44FEAC12343F085
S32D0000CD20004343EA505323FA02F070474FF00000704750EA013002D14FF0FF3070474FF0000070474FEA410241
S32D0000CD48B2F1E04324BFB3F5001CDCF1FE5C0DD901F0004C4FEAC0024CEA5070B2F1004F40EB830008BF20F09E
S32D0000CD700100704711F0804F21D113F13872BCBF01F00040704741F480114FEA5252C2F11802C2F1200C10FAB1
S32D0000CD980CF320FA02F018BF40F001004FEAC1234FEAD32303FA0CFC40EA0C0023FA02F34FEA4303CCE77FEA26
S32D0000CDC0625307D150EA01331EBF4FF0FE4040F44000704701F0004040F0FE4040F40000704700BF80F00040CC
S32D0000CDE802E000BF81F0004142001FBF5FEA410392EA030F7FEA226C7FEA236C6AD04FEA1262D2EB1363C1BF06
S32D0000CE10D218414048404140B8BF5B42192B88BF704710F0004F40F4000020F07F4018BF404211F0004F41F4FA
S32D0000CE38000121F07F4118BF494292EA030F3FD0A2F1010241FA03FC10EB0C00C3F1200301FA03F100F000432B
S32D0000CE6002D5494260EB4000B0F5000F13D3B0F1807F06D340084FEA310102F10102FE2A51D2B1F1004F40EB94
S32D0000CE88C25008BF20F0010040EA03007047490040EB000010F4000FA2F10102EDD1B0FA80FCACF1080CB2EB5F
S32D0000CEB00C0200FA0CF0AABF00EBC25052421843BCBFD0401843704792F0000F81F4000106BF80F400000132EB
S32D0000CED8013BB5E74FEA41037FEA226C18BF7FEA236C21D092EA030F04D092F0000F08BF0846704790EA010FD7
S32D0000CF001CBF0020704712F07F4F04D1400028BF40F00040704712F100723CBF00F50000704700F0004343F0DC
S32D0000CF28FE4040F4000070477FEA226216BF08467FEA23630146420206BF5FEA412390EA010F40F480007047C1
S32D0000CF504FF0000304E000BF10F0004348BF40425FEA000C08BF704743F0964301464FF000001CE050EA010264
S32D0000CF7808BF70474FF000030AE000BF50EA010208BF704711F0004302D5404261EB41015FEA010C02BF84465B
S32D0000CFA00146002043F0B64308BFA3F18053A3F50003BCFA8CF2083AA3EBC25310DB01FA02FC634400FA02FC6B
S32D0000CFC8C2F12002BCF1004F20FA02F243EB020008BF20F00100704702F1200201FA02FCC2F1200250EA4C0034
S32D0000CFF021FA02F243EB020008BF20EADC7070474FF0FF0C1CEAD0521EBF1CEAD15392EA0C0F93EA0C0F6FD019
S32D0000D0181A4480EA010C400218BF5FEA41211ED04FF0006343EA501043EA5111A0FB01310CF00040B1F5000FE7
S32D0000D0403EBF490041EAD3715B0040EA010062F17F02FD2A1DD8B3F1004F40EBC25008BF20F00100704790F058
S32D0000D068000F0CF0004C08BF49024CEA502040EA51207F3AC2BFD2F1FF0340EAC250704740F400004FF0000388
S32D0000D090013A5DDC12F1190FDCBF00F000407047C2F10002410021FA02F1C2F1200200FA02FC5FEA310040F1D5
S32D0000D0B8000053EA4C0308BF20EADC70704792F0000F00F0004C02BF400010F4000F013AF9D040EA0C0093F04C
S32D0000D0E0000F01F0004C02BF490011F4000F013BF9D041EA0C018FE70CEAD15392EA0C0F18BF93EA0C0F0AD00B
S32D0000D10830F0004C18BF31F0004CD8D180EA010000F00040704790F0000F17BF90F0004F084691F0000F91F0BB
S32D0000D130004F14D092EA0C0F01D142020FD193EA0C0F03D14B0218BF084608D180EA010000F0004040F0FE4051
S32D0000D15840F40000704740F0FE4040F4400070474FF0FF0C1CEAD0521EBF1CEAD15392EA0C0F93EA0C0F69D044
S32D0000D180A2EB030280EA010C49024FEA402037D04FF0805343EA111143EA10130CF000408B4238BF5B0042F14E
S32D0000D1A87D024FF4000C8B4224BF5B1A40EA0C00B3EB510F24BFA3EB510340EA5C00B3EB910F24BFA3EB9103A4
S32D0000D1D040EA9C00B3EBD10F24BFA3EBD10340EADC001B0118BF5FEA1C1CE0D1FD2A3FF650AF8B4240EBC25018
S32D0000D1F808BF20F0010070470CF0004C4CEA50207F32C2BFD2F1FF0340EAC250704740F400004FF00003013AF1
S32D0000D22037E792F0000F00F0004C02BF400010F4000F013AF9D040EA0C0093F0000F01F0004C02BF490011F4C9
S32D0000D248000F013BF9D041EA0C0195E70CEAD15392EA0C0F08D142027FF47DAF93EA0C0F7FF470AF084676E7AE
S32D0000D27093EA0C0F04D14B023FF44CAF08466EE730F0004C18BF31F0004CCAD130F000427FF45CAF31F0004376
S32D0000D2987FF43CAF5FE700BF4FF0FF3C06E000BF4FF0010C02E000BF4FF0010C4DF804CD4FEA40024FEA41039F
S32D0000D2C07FEA226C18BF7FEA236C11D001B052EA530C18BF90EA010F58BFB2EB030088BFC81738BF6FEAE1706E
S32D0000D2E818BF40F0010070477FEA226C02D15FEA402C05D17FEA236CE4D15FEA412CE1D05DF8040B704700BF16
S32D0000D310844608466146FFE70FB5FFF7C9FF002848BF10F1000F0FBD4DF808EDFFF7F4FF0CBF012000205DF839
S32D0000D33808FB00BF4DF808EDFFF7EAFF34BF012000205DF808FB00BF4DF808EDFFF7E0FF94BF012000205DF8A9
S32D0000D36008FB00BF4DF808EDFFF7D2FF94BF012000205DF808FB00BF4DF808EDFFF7C8FF34BF012000205DF8B1
S32D0000D38808FB00BF4FEA4002B2F1FE4F0FD34FF09E03B3EB12620DD94FEA002343F0004310F0004F23FA02F060
S32D0000D3B018BF404270474FF00000704712F1610F01D1420205D110F0004008BF6FF0004070474FF00000704797
S32D0000D3D8036803B11B181846704700BF03685A004CBF43F0004323F00043C018704700BF2DE9F84F0446914699
S32D0000D40041B301F1FF3BDA46002707EB0A0101EBD1756D1004EBC5063046FFF7E3FF8046681CAB4504EBC000FA
S32D0000D4280DD0FFF7DBFF0138C84504D9BD4209D005F1FF3AE5E7484505D26F1CE1E74FF0FF30F1E7002630469A
S32D0000D450BDE8F88F0E463046BDE8F88F30B52B4B83B004468D1E002B49D0284601A9AFF300800346002822D028
S32D0000D4782A4618460199FFF7BBFF054600281DD0FFF7ACFF6B68A064012B10D0281D002B22DBFFF7A3FF002164
S32D0000D4A0E06421650368002B0FDBFFF79BFF2061002003B030BD002323610520F9E720610920F6E72061092066
S32D0000D4C8F3E7C3F3036058B101280CD002280ED0002020610920E8E70122E0642265DDE7094B2361E1E7094AEF
S32D0000D4F000202261DDE7084900202161D9E7074B0749C81AC2100192B6E700BF0000000029DA000025DA0000AD
S32D0000D51821DA00001492010004940100036810B50446D80706D4990704F1480009D500F00DFD23685A0709D5F8
S32D0000D54018070ED5D90613D510BD00F0FBFC23685A07F5D404F1D00000F004FD23681807F0D404F5D87000F036
S32D0000D56805FD2368D906EBD404F50C70BDE8104000F040BD2DE9F0470F1D054691460FCFADF5916D02AC261D09
S32D0000D5900FC60FCF0FC60FCF0FC697E80F00D5F80C80D5F818A0002786E80F00216C27602846FFF753FF06460C
S32D0000D5B8B94514BF4FF00A094FF00909FEB1A16B49F01009616401208DE8100449462A462B46C04700282BD1BA
S32D0000D5E0002E2AD1204692A94FF4107208F06CFC082F28D1216C2846FFF730FF06464FF00909002EDFD1206CD7
S32D0000D60821464FF41072686192A808F059FC2F69294692AA4846B847A09B0746636401208DE8100449462A46B0
S32D0000D6302B46C0470028D3D00926304622B00DF5806DBDE8F087072FF6D1201D00F06EFC38B504460D46296C54
S32D0000D6582046FFF7FFFE50B92A6C23696261012021462A4698470828F1D0072801D00AF077FD281D00F056FCA0
S32D0000D68011B933B10220704704298CBF0220012070470F2A01D90220704700EB820118464A68009B1A6070474D
S32D0000D6A810B50A4684B000210B4603AC0094FFF7E3FF039804B010BD11B933B10220704704298CBF0220012020
S32D0000D6D070470F2A01D902207047009900EB8202096818465160704710B584B004AB0C4643F8042D0021009330
S32D0000D6F822460B46FFF7E0FF04B010BD2DE9F04FCD6C8BB00C4655F8041B174600F008021E46039200F0030823
S32D0000D7200795002B40F0CF8009020691216D8DF821300323B8F1020F8DF8203008BFA56B11F0010340F0D3807B
S32D0000D748019304F158030293D5F80090B9F1000F00F0CB80022E00F0AE80B5F80090B5F802A00435A26C0F2198
S32D0000D7702AF0010B38469344FFF796FF834518D829F0010CE3440AF0010A09F00103584543EA4A092CBF002056
S32D0000D7980120B9F1010F12D032D2B8F1000F02D0002840F01D810435CEE70AF0010A09F0010343EA4A09002092
S32D0000D7C0B9F1010FECD1B8F1000F40F0B680C8B16B68D5F800909A1C19D0029A013309920DD0281DFFF7F8FDE6
S32D0000D7E84FEAD972014609AB204609F023FD002800F0F280099A002A40F0BA800835A3E7B9F1020F03D00920D6
S32D0000D8100BB0BDE8F08F2B6823F000420092B8F1000F71D1002843D00398002840F0A1800098002800F0A08078
S32D0000D838009BDDF80C90DB0705F1040A40F1B480CDF810800596A846029E12E000998D4200F0D9800996FFF7B5
S32D0000D860BBFD5A46014609AB204609F0E7FCA946B0B90AF1040A05F1010950460996FFF7ABFD09AB01460022B4
S32D0000D888204609F0D7FC0AF1040A834609F101055046BBF1000FD9D04546059EDDF81080009A4A4564D02B68F1
S32D0000D8B0002B7BDB0099481C05EB800548E7D5F804A0083552E70B04C1F30740216D06930222B8F1020F05EB42
S32D0000D8D8800508BFA56B8DF8210011F001038DF820203FF42DAF00200190384606A900F019FC002887D1019A49
S32D0000D900002A43D1082083E70D213846D4F82090FFF7CAFE8145CAD1A26A9542C7D10098291D00220423A0623E
S32D0000D928E26223636163286800286EDB01220192BCE70D213846D4F82090FFF7B1FE81457FF45CAFA16A8D42FE
S32D0000D9507FF458AF2846FFF745FD0F2102463846FFF7C2FE384600212246FFF7BDFE07204EE7009900299BD19B
S32D0000D97838460D21FFF794FE099B20626362A562062041E70F213846FFF78AFE0E2102463846FFF7A5FE3846D5
S32D0000D9A00F211E4AFFF7A0FE072031E7043581E7029950460991FFF70FFD039A014609AB204609F03BFC00282A
S32D0000D9C87FF46EAFCDF8108005960AF1040A4FF00109A846029E4CE7CDF824800835B3E62846FFF7FBFC0435CB
S32D0000D9F00646A563204609F097FC00283FF407AF38460F213246FFF76FFE072000E74546B2E7009B591C05EBF7
S32D0000DA1881009CE79174010002236FE601236DE600236BE62DE9F0470446E8B004290CD8DFE801F0380391931A
S32D0000DA400F00150C012B96B200F07881052B00F0C780022068B0BDE8F087002BF9D1102AF7D82368D90600F115
S32D0000DA68738164A8019200F0CFFA019AA36BD00744BF53F8040B6490910744BF53F8041B6591500744BF53F8D3
S32D0000DA90041B6691110748BF53F8042B64A8A36348BF679200F0AAFA0020D3E7002BD0D1A36BD00791B244BF42
S32D0000DAB853F8042B62608A0744BF53F8042BA260480744BF53F8042BE2600A0744BF53F8042B2261C80644BF04
S32D0000DAE053F8042B62618A0644BF53F8042BA261480644BF53F8042BE2610A0644BF53F8042B2262C80544BFDC
S32D0000DB0853F8042B62628A0544BF53F8042BA262480544BF53F8042BE2620A0544BF53F8042B2263C80444BFB3
S32D0000DB3053F8042B626311F400501CBF53F8042BA2634A0444BF53F8042BE2630A0444BF53F8042B2264002890
S32D0000DB5840D1A3637AE7012078E7032B7FF475AF160C95B2AA19102A3FF66FAF2368180700F10B8144A800F026
S32D0000DB801BFAA76B4FEA450E3B460DB344A90EF1FF3C01EBC60653F8040B62460CF0010146F8040B92B129B13A
S32D0000DBA853F8041B013A46F8041B0BD01846314650F8045B41F8045B5D68031D75600E1D023AF3D107EB8E03F6
S32D0000DBD044A8A36300F0CEF900203BE7002039E777192022BA42FFF434AF012B00F0A9800F2D40F2A9803746FF
S32D0000DBF8F6B1052B7FF429AF0F2D11D82268D0070ED522F00101052B2160204600F0DA8022F0030240F8482B3D
S32D0000DC20019300F093F9019B1FB12268510700F1B880012B00F0BF800F2D75D9002F40F0A080D4F83890002E29
S32D0000DC48C8462EDD49460DF1080A4FEA46080AEBC50251F8046B08F1FF3000F0010A42F8046BA8F1020CD0B107
S32D0000DC70BAF1000F08D051F8040B0CF1FF3CBCF1FF3F42F8040B0ED00E46104656F804AB40F804AB4968ACF176
S32D0000DC98020C5160311D021DBCF1FF3FF0D109EB8808A7B3102D2CBF2E4610260DF5D079414609EBC60CACF59D
S32D0000DCC0C8724FEA470951F8046B09F1FF3000F0010A42F8046BA9F1020CD0B1BAF1000F08D051F8040B0CF1DE
S32D0000DCE8FF3CBCF1FF3F42F8040B0ED00E46104656F804AB40F804AB4968ACF1020C5160311D021DBCF1FF3FCE
S32D0000DD10F0D108EB8908012B2BD00F2DC4F8388008D9FFB9384695E602A8019300F016F9019B83E702A800F05A
S32D0000DD380DF9F2E77719102250E70F2D3FF685AE102F10D9103F54E723F01003236004F50C70019200F058F99D
S32D0000DD60019A82E624A800F0FDF8002072E6002746E708F1040302A8A36300F0E3F8002068E624A80193C5F116
S32D0000DD88100600F0EFF8019B57E723F0080704F5D870276000F00CF9ECE6204622F0040140F8D01B019300F0D1
S32D0000DDB0DDF8019B3DE702A8019300F0C7F8019B002F3FF43EAFC5F110063AE741F0020140F8481B019300F098
S32D0000DDD8C1F8019B24E700BF406C7047F0B50D460F1DC96B296404460FCFADF5117D01AE0FC60FCF0FC60FCF49
S32D0000DE000FC697E80F0086E80F004FF0FF33009310992046FFF722FB58B9266921466A46B04708280646F3D001
S32D0000DE286846FFF77BFB062E03D009200DF5117DF0BD20462946FFF707FC00BF10B4DC6BC16082611946002228
S32D0000DE501C6410BCFFF792BB38B54269C3680A6404460D4623B10122FFF788FB0AF07CF90369214602202A4603
S32D0000DE789847072803D0082804D00AF071F9281D00F050F820462946FFF7DEFBC36823B1CA6B0A640022FFF758
S32D0000DEA06DBB9FE7704700BF08B5836801460BB10120984708BD00BFF0B5D46B171D146405460C460FCFADF554
S32D0000DEC8277D01AE0FC60FCF0FC60FCF0FC697E80F0086E80F004FF0FF330093109990A8FFF7B8FA034690AA83
S32D0000DEF068460C21BBB9FFF7F7FB21466846A847064690A908206A466EB9949B98470528064601D00928E5D106
S32D0000DF186846FFF703FB30460DF5277DF0BD0926F6E700BF00F1340191E838009C46A6464CF8045D90E8FF0FD5
S32D0000DF40E54600BD90EC210B704700BF80EC210B704700BF90EC200B704700BF80EC200B704700BFD0EC200B8E
S32D0000DF68704700BFC0EC200B704700BFF0EC0201F0EC0211F0EC0221F0EC0231F0EC0241F0EC0251F0EC02615F
S32D0000DF90F0EC0271F0EC0281F0EC0291F0EC02A1F0EC02B1F0EC02C1F0EC02D1F0EC02E1F0EC02F1704700BFE6
S32D0000DFB8E0EC0201E0EC0211E0EC0221E0EC0231E0EC0241E0EC0251E0EC0261E0EC0271E0EC0281E0EC029155
S32D0000DFE0E0EC02A1E0EC02B1E0EC02C1E0EC02D1E0EC02E1E0EC02F1704700BFB0FC0181B0FC0191B0FC01A159
S32D0000E008B0FC01B1704700BFA0FC0181A0FC0191A0FC01A1A0FC01B1704700BFEC4600B52DE900502DE9FF1F47
S32D0000E0304FF000032DE90C0001A9FFF7D3FEDDF840E012B0704700BFEC4600B52DE900502DE9FF1F4FF00003FD
S32D0000E0582DE90C0001A9FFF7FBFEDDF840E012B0704700BFEC4600B52DE900502DE9FF1F4FF000032DE90C00CD
S32D0000E08001A9FFF707FFDDF840E012B0704700BFEC4600B52DE900502DE9FF1F4FF000032DE90C0001ABFFF718
S32D0000E0A8CDFEDDF840E012B0704700BFEC4600B52DE900502DE9FF1F4FF000032DE90C0001AAFFF7F5FEDDF804
S32D0000E0D040E012B0704700BF027A03461AB9427A42B9B02070470068013A01021A72000E196070474168501E6D
S32D0000E0F8587251F8040B0322596001021A72000E1960704710B5002184B00C220DEB02040B460094FFF7B0FA62
S32D0000E120039804B010BD00BFF0E700BF2DE9F043064685B00D464FF000094FF47F672846FFF7CAFFB028044683
S32D0000E14800F0B08010F0800120D000F0F003802B74D0902B37D0A02B45D0B02B56D0C02B00F0858000F0F800DB
S32D0000E170D0280BD104F00702511C41F40022304601210523FFF752FC0028D8D0092005B0BDE8F0834FEA800267
S32D0000E19803A85FFA82F800900D220B463046FFF76BFA039B600608F104084CBFC8EB0303434403AC03930094CD
S32D0000E1C0002130460D220B46FFF77AFAB7E700F00F020D2ADAD00F2AD8D0002103AC009430460B4603ACFFF77F
S32D0000E1E84BFA0094E8E7C24302F0070C47FA0CF0210700F47F6248BF42F48042002130460B46FFF70FFC00280D
S32D0000E210BCD194E7B1285DD0B2286ED0B32800F0958000F0FC02B42A46D000F00702531C43F40022012130469F
S32D0000E2380B46FFF7F7FB0028A4D17CE72846FFF747FF210240EA0104B4F5004F9AD0230500211A0C30460B46EB
S32D0000E2602401FFF7E3FB002890D114F4004F18BF4FF0010963E7C62873D0C72800F0848000F0F802C02A00F075
S32D0000E2889280C82800F0A680C9287FF47BAF2846FFF71EFF00F00F0300F0F0015A1C42EA013268E7B9F1000F81
S32D0000E2B000F0838000206AE700F00301481C022140F480220B463046FFF7B0FB00287FF45DAF34E72846FFF7FD
S32D0000E2D8FFFE024600283FF455AF10F0F0017FF451AF30460B46FFF79DFB00287FF44AAF21E700210D220B467E
S32D0000E30003AC30460094FFF7BBF92846FFF7E4FE022402060DD5039B00F07F0000FA04FE03EB0E01284603912E
S32D0000E328FFF7D6FE07340306F1D4039B00F07F0103AA03F5017C01FA04F400920CEB0402039239E72846FFF729
S32D0000E350C3FE00F00F03591C00F0F00041EA003268E72846FFF7B8FE00F00F03591C00F0F00041EA00320321E9
S32D0000E37830460B46FFF756FB00287FF403AFDAE62846FFF7A5FE024600283FF4FBAE10F0F0037FF4F7AE304688
S32D0000E3A00421FFF743FB00287FF4F0AEC7E600F00F01481C40F42022DDE703AC49460E224B4630460094FFF773
S32D0000E3C85BF9304649460F224B460094FFF774F94846D8E62846FFF77BFE00F0F00200F00F001032431C43EA3D
S32D0000E3F00232C4E610B5C26C84B0032054688DF80C00D37924020832084601A9019402928DF80D30FFF78AFE7D
S32D0000E41804B010BD08B5FFF783FE806C08BD00BF08B5FFF77DFEC16CC87901EB800303F1080008BD08B509F02F
S32D0000E44093FE00BF08B509F08FFE00BF80B582B000AF43F20070C1F6FF704FF0050105F037F843F20070C1F6B6
S32D0000E468FF704FF0060105F08DF843F2B860C1F6FF7006F06DFE43F2B860C1F6FF7007F021FB43F20070C1F6A1
S32D0000E490FF7005F047F843F20070C1F6FF7048F22831C0F2010105F093F900BF43F23860C1F6FF7004F07CF90D
S32D0000E4B8034683F00103DBB2002B1AD043F23860C1F6FF7004F090F9034683F00103DBB2002B0ED043F2386041
S32D0000E4E0C1F6FF7004F0A8F9034683F00103DBB2002B02D04FF0010301E04FF00003002BD4D143F23860C1F64F
S32D0000E508FF7004F071F90346002B0DD000BF43F23860C1F6FF7004F07BF9034683F00103DBB2002BF3D128E069
S32D0000E53043F23860C1F6FF7004F03AF90346002B0FD000BF43F23860C1F6FF7004F042F9034683F00103DBB222
S32D0000E558002BF3D101F0F2FD61E000BF43F23860C1F6FF7004F078F9034683F00103DBB2002BF3D101F0D6FE6D
S32D0000E58051E001F065FD43F20070C1F6FF7004F0C9FF43F24860C1F6FF70234904F098FA43F25460C1F6FF705E
S32D0000E5A8204904F091FA01F047FC01F019FF02F071FA01F0BBFF03467B6002F043FC786802F0AAF902F0DAFB87
S32D0000E5D002F07CFB43F20070C1F6FF7048F29831C0F2010105F0F4F800BF43F23860C1F6FF7004F0FDF803466D
S32D0000E5F883F00103DBB2002BF3D100BF43F23860C1F6FF7004F004F9034683F00103DBB2002BF3D14FF4FA7076
S32D0000E62003F0E8F931E730E70000F0410000E64280B483B000AF78607B6823F00043184607F10C07BD4680BCA1
S32D0000E648704700BF80B586B002AFF860B960FA71BB71FA79BB7905490091F868B96800F007F807F11007BD4602
S32D0000E67080BD00BF0000803FB0B586B000AFF860B960FA71BB71BB79002B00F0A78043F28060C1F6FF7003F0CB
S32D0000E698F7FF43F29C60C1F6FF7003F0F1FF43F20070C1F6FF7048F2BC31C0F2010105F08BF843F27C60C1F63E
S32D0000E6C0FF7003F03BFB0346002BF6D100BF43F27C60C1F6FF7003F031FB034683F00103DBB2002BF3D1F868A8
S32D0000E6E8FEF750FE034643F24060C1F6FF70194602F0A4FEF868FEF745FE034643F24460C1F6FF70194602F059
S32D0000E71099FE43F27C60C1F6FF7003F00FFB0346002BF6D100BF43F27C60C1F6FF7003F005FB034683F001032C
S32D0000E738DBB2002BF3D143F24060C1F6FF7002F05FFE43F24460C1F6FF7002F059FE43F20070C1F6FF7004F0E6
S32D0000E760E1FE43F20070C1F6FF7048F2E031C0F2010104F05FFF43F29C60C1F6FF7003F077FF024613464FEAF6
S32D0000E78883039B1843F20070C1F6FF70194605F02FF843F20070C1F6FF7048F2FC31C0F2010105F011F843F2CB
S32D0000E7B07C60C1F6FF7003F0C1FA0346002BF6D100BF43F27C60C1F6FF7003F0B7FA034683F00103DBB2002B3E
S32D0000E7D8F3D133E1F868FDF77BFF04460D46B86AFDF776FF02460B4620462946FDF7C4FF02460B4610461946D2
S32D0000E800FEF758FA034643F24060C1F6FF70194602F018FEF868FEF7B9FD034643F24460C1F6FF70194602F054
S32D0000E8280DFE43F28060C1F6FF7003F029FF43F29C60C1F6FF7003F023FF03F0F1F802460B4610461946FEF7D6
S32D0000E85079FA03467B6198E043F29C60C1F6FF7003F006FF014646F26763C6F2666383FB01234FEAA3024FEAB8
S32D0000E878E173D21A13464FEA83039B184FEA4303CA1A002A05D1FB79002B02D04FF0010301E04FF00003002B02
S32D0000E8A039D043F29C60C1F6FF7003F0E1FE0346002B0CBF00230123DBB2002B2BD043F29C60C1F6FF7003F095
S32D0000E8C8D3FE03461846FEF743FB03461846F968FEF792FB03461C4643F29C60C1F6FF7003F0C2FE0346184691
S32D0000E8F0FEF732FB034620461946FEF735FC03461846FEF743FD034643F24060C1F6FF70194602F097FD43F26A
S32D0000E9180070C1F6FF7004F001FE43F20070C1F6FF7048F21841C0F2010104F07FFE43F29C60C1F6FF7003F07B
S32D0000E94097FE034643F20070C1F6FF70194604F053FF43F20070C1F6FF7048F23C41C0F2010104F067FE43F297
S32D0000E9689C60C1F6FF7003F07FFE034643F20070C1F6FF70194604F03BFF4FF0320003F035F843F29C60C1F6D5
S32D0000E990FF7003F06DFE03461846FEF7DDFA0546B8682A49FEF72CFB03464FF00102144628461946FEF7C2FCBA
S32D0000E9B80346002B02D14FF000031C46E3B2002B27D003F02DF804460D467869FDF780FE02460B462046294619
S32D0000E9E0FDF71AFD02460B464FF001010C46104619464FF000024FF0804303F53813FEF731F90346002B02D131
S32D0000EA084FF000031C46E3B2002B02D04FF0010301E04FF00003002B7FF41AAF43F24060C1F6FF704FF00001A2
S32D0000EA3002F008FD43F24460C1F6FF704FF0000102F000FD07F11807BD46B0BD0000A040B0B586B000AFF8608A
S32D0000EA58B9601346FB71B64B7B61F868FEF792FC034643F24060C1F6FF70194602F0E6FCF868FEF787FC03465A
S32D0000EA8043F24460C1F6FF70194602F0DBFC43F28060C1F6FF7003F0F7FD43F29C60C1F6FF7003F0F1FD02F0F5
S32D0000EAA8BFFF02460B4610461946FEF747F903463B61B7E043F29C60C1F6FF7003F0D4FD014646F26763C6F267
S32D0000EAD0666383FB01234FEAA3024FEAE173D21A13464FEA83039B184FEA4303CA1A002A05D1FB79002B02D0B7
S32D0000EAF84FF0010301E04FF00003002B39D043F29C60C1F6FF7003F0AFFD0346002B0CBF00230123DBB2002B22
S32D0000EB202BD043F29C60C1F6FF7003F0A1FD03461846FEF711FA03461846F968FEF760FA03461C4643F29C600A
S32D0000EB48C1F6FF7003F090FD03461846FEF700FA034620461946FEF703FB03461846FEF711FC034643F240609B
S32D0000EB70C1F6FF70194602F065FC43F20070C1F6FF7004F0CFFC43F20070C1F6FF7048F21841C0F2010104F00F
S32D0000EB984DFD43F29C60C1F6FF7003F065FD034643F20070C1F6FF70194604F021FE43F20070C1F6FF7048F2CE
S32D0000EBC03C41C0F2010104F035FD43F29C60C1F6FF7003F04DFD034643F20070C1F6FF70194604F009FE43F299
S32D0000EBE83C60C1F6FF7003F05BF903464FF00102144618467969FEF79DFB0346002B02D14FF000031C46E3B2C4
S32D0000EC10002B07D043F23C60C1F6FF7003F044F903467B614FF0320002F0E4FE43F29C60C1F6FF7003F01CFDE0
S32D0000EC3803461846FEF78CF90546B8683D49FEF7DBF903464FF00102144628461946FEF771FB0346002B02D179
S32D0000EC604FF000031C46E3B2002B27D002F0DCFE04460D463869FDF72FFD02460B4620462946FDF7C9FB024693
S32D0000EC880B464FF001010C46104619464FF000024FF0804303F53813FDF7E0FF0346002B02D14FF000031C4681
S32D0000ECB0E3B2002B02D04FF0010301E04FF00003002B7FF4FBAE43F24060C1F6FF704FF0000102F0B7FB43F2E3
S32D0000ECD84460C1F6FF704FF0000102F0AFFB7869FDF7F6FC02460B464FF001010C46104619460DA3D3E9002331
S32D0000ED00FDF7B0FF0346002B02D14FF000031C46E3B2002B02D04FF0020301E04FF00103184607F11807BD46E5
S32D0000ED28B0BD00BFAFF30080333333333333F33F333353400000A040B0B586B000AFF860B9607A6043F2806088
S32D0000ED50C1F6FF7003F098FC43F29C60C1F6FF7003F092FCF868FEF711FB034643F24060C1F6FF70194602F01A
S32D0000ED7865FBF868FEF706FB034643F24460C1F6FF70194602F05AFB02F04AFE02460B4610461946FDF7D2FF7C
S32D0000EDA003467B61BB68002B08D143F26C60C1F6FF7002F0C3FF0346002B23D1BB68012B08D143F27060C1F6D2
S32D0000EDC8FF7002F0B7FF0346002B17D1BB68022B08D143F27460C1F6FF7002F0ABFF0346002B0BD1BB68032B15
S32D0000EDF050D143F27860C1F6FF7002F09FFF0346002B47D043F29C60C1F6FF7003F030FC03461846FEF7A0F8DC
S32D0000EE18054678683749FEF7EFF803464FF00102144628461946FEF785FA0346002B02D14FF000031C46E3B29F
S32D0000EE40002B27D002F0F0FD04460D467869FDF743FC02460B4620462946FDF7DDFA02460B464FF001010C468D
S32D0000EE68104619464FF000024FF0804303F53813FDF7F4FE0346002B02D14FF000031C46E3B2002B02D04FF09F
S32D0000EE90010301E04FF00003002B83D143F24060C1F6FF7002F0B0FA43F24460C1F6FF7002F0AAFA43F29C6051
S32D0000EEB8C1F6FF7003F0D8FB03461846FEF748F8054678680B49FEF797F803464FF00102144628461946FEF7BA
S32D0000EEE02DFA0346002B02D14FF000031C46E3B2184607F11807BD46B0BD00BF0000A04080B586B002AFF86065
S32D0000EF08B960FA71BB71FA79BB7905490091F868B96800F007F807F11007BD4680BD00BF000080BFB0B588B04B
S32D0000EF3002AFF860B960FA71BB7102F075FD02460B4610461946FDF7FDFE03463B6193E0FB79002B18D043F245
S32D0000EF58B860C1F6FF7006F07FFE03464FF001041846B968FEF7E6F90346002B01D14FF00004BB799C4214BF8C
S32D0000EF8000230123FB7517E043F2B860C1F6FF7006F056FE03464FF001041846B968FEF7CDF90346002B01D1EB
S32D0000EFA84FF00004BB799C4214BF00230123FB75FB7D002B01D07F4B00E07F4B18467F494FF000024FF00003CB
S32D0000EFD0FFF73CFB43F20070C1F6FF7048F26041C0F2010104F026FB43F2B860C1F6FF7006F026FE034643F26C
S32D0000EFF80070C1F6FF70194604F00EFC43F20070C1F6FF7048F26841C0F2010104F00EFB43F2B860C1F6FF7026
S32D0000F02006F01EFE034643F20070C1F6FF70194604F0F6FB4FF001031C46B86A6249FEF791F90346002B02D120
S32D0000F0484FF000031C46E3B2002B0DD0B86AFEF799F90346594A00921846F9684FF000024FF0000300F0EEFA18
S32D0000F0704FF0960002F0BEFCFB79002B2DD043F2B860C1F6FF7006F0EBFD0346B8681946FDF7ACFE03461846F7
S32D0000F098FFF7CAFA03464FF00102144618464949FEF766F90346002B02D14FF000031C46E3B2002B0DD043F2AA
S32D0000F0C0B860C1F6FF7006F0CBFD034618463E49FEF72AF90346002B58D0FB7983F00103DBB2002B55D043F247
S32D0000F0E8B860C1F6FF7006F0A7FD0346B8681946FDF778FE03461846FFF796FA03464FF00102144618462F4908
S32D0000F110FEF732F90346002B02D14FF000031C46E3B2002B35D043F2B860C1F6FF7006F087FD03461846244900
S32D0000F138FEF7F6F80346002B27D102F071FC04460D463869FDF7C4FA02460B4620462946FDF75EF902460B46B9
S32D0000F1604FF001010C46104619464FF000024FF0804303F5A013FDF775FD0346002B02D14FF000031C46E3B265
S32D0000F188002B02D04FF0010301E04FF00003002B7FF4DAAE43F24060C1F6FF7002F030F943F24460C1F6FF70BB
S32D0000F1B002F02AF907F11807BD46B0BD0000DC420000DCC20000803E000000000000003FF0B587B000AFF860F9
S32D0000F1D8B960FA71BB7102F023FC02460B4610461946FDF7ABFD03467B6145E0F868FEF7C9F8034643F24060E0
S32D0000F200C1F6FF70194602F01DF9F868FEF7BEF8034643F24460C1F6FF70194602F012F943F20070C1F6FF70D9
S32D0000F22848F26041C0F2010104F000FA43F2B860C1F6FF7006F000FD034643F20070C1F6FF70194604F0E8FA8C
S32D0000F25043F20070C1F6FF7048F26841C0F2010104F0E8F943F2B860C1F6FF7006F0F8FC034643F20070C1F657
S32D0000F278FF70194604F0D0FAFB79002B36D0BB79002B16D043F2B860C1F6FF7006F0E4FC03464FF001021446C4
S32D0000F2A01846B968FEF74AF80346002B02D14FF000031C46E3B2002B7FD1BB7983F00103DBB2002B16D043F211
S32D0000F2C8B860C1F6FF7006F0C7FC03464FF0010214461846B968FEF74BF80346002B02D14FF000031C46E3B205
S32D0000F2F0002B62D1FB7983F00103DBB2002B5FD0BB79002B16D043F2B860C1F6FF7006F097FC03464FF00102F4
S32D0000F31814461846B968FEF70DF80346002B02D14FF000031C46E3B2002B1CD1BB7983F00103DBB2002B3FD0EA
S32D0000F34043F2B860C1F6FF7006F07AFC03464FF0010214461846B968FEF70EF80346002B02D14FF000031C4676
S32D0000F368E3B2002B28D002F05BFB04460D467869FDF7AEF902460B4620462946FDF748F802460B4614461D4666
S32D0000F390386BFDF7A1F902460B464FF001010E4620462946FDF75EFC0346002B02D14FF000031E46F3B2002B10
S32D0000F3B802D04FF0010301E04FF00003002B7FF415AF43F24060C1F6FF7002F019F843F24460C1F6FF7002F09E
S32D0000F3E013F802F021FB04460D467869FDF774F902460B4620462946FDF70EF802460B4614461D46386BFDF7B2
S32D0000F40867F902460B464FF001010E4620462946FDF724FC0346002B02D14FF000031E46F3B2184607F11C0754
S32D0000F430BD46F0BDF0B587B000AFB9607A600246FA73BB73FB7B83F00103DBB2002B19D0B868FDF79BFF034618
S32D0000F45843F24460C1F6FF70194601F0EFFFBB6883F000431846FDF78DFF034643F24060C1F6FF70194601F0FE
S32D0000F480E1FF18E0BB6883F000431846FDF77EFF034643F24460C1F6FF70194601F0D2FFB868FDF773FF0346A6
S32D0000F4A843F24060C1F6FF70194601F0C7FF43F28060C1F6FF7003F0E3F843F29C60C1F6FF7003F0DDF802F00B
S32D0000F4D0ABFA02460B4610461946FDF733FC03467B6139E043F20070C1F6FF7004F01AF843F20070C1F6FF701E
S32D0000F4F848F21841C0F2010104F098F843F29C60C1F6FF7003F0B0F8034643F20070C1F6FF70194604F06CF95D
S32D0000F52043F20070C1F6FF7048F23C41C0F2010104F080F843F29C60C1F6FF7003F098F8034643F20070C1F69C
S32D0000F548FF70194604F054F94FF0320002F04EFA43F29C60C1F6FF7003F086F803461846FDF7A4F804460D463F
S32D0000F5707868FDF7F1FC0246FB7B002B05D040F20443C1F6FF731B6804E040F20043C1F6FF731B68104619460F
S32D0000F598FDF732FD03461846FDF79AF802460B464FF001010E4620462946FDF757FB0346002B02D14FF0000323
S32D0000F5C01E46F3B2002B27D002F02EFA04460D467869FDF781F802460B4620462946FCF71BFF02460B464FF09A
S32D0000F5E801010C46104619464FF000024FF0804303F53813FDF732FB0346002B02D14FF000031C46E3B2002B9A
S32D0000F61002D04FF0010301E04FF00003002B7FF461AF43F24060C1F6FF704FF0000101F009FF43F24460C1F622
S32D0000F638FF704FF0000101F001FF07F11C07BD46F0BD00BFB0B586B000AFF860B9607A60FB70F868FDF77CFCAE
S32D0000F660054643F2B860C1F6FF7006F009FB03464FF00102144628461946FDF75FFE0346002B02D14FF0000338
S32D0000F6881C46E3B2002B14D0FB6803F1B4031846FDF75EFC044643F2B860C1F6FF7006F0EBFA034620461946EE
S32D0000F6B0FDF79CFB03467B6110E0F868FDF74CFC044643F2B860C1F6FF7006F0D9FA034620461946FDF78AFBE3
S32D0000F6D803467B61F868FDF73BFC054643F2B860C1F6FF7006F0C8FA03464FF00102144628461946FDF73CFEFE
S32D0000F7000346002B02D14FF000031C46E3B2002B17D043F2B860C1F6FF7006F0B1FA034618463949FDF764FBB9
S32D0000F72803461C46F868FDF713FC034620461946FDF758FB03463B6110E043F2B860C1F6FF7006F099FA044635
S32D0000F750F868FDF701FC034620461946FDF746FB03463B617B68012B33D0022B3CD0002B45D14FF001031C46E1
S32D0000F77878693969FDF7DEFD0346002B02D14FF000031C46E3B2002B0FD07869B96AFDF733FC03461846FDF7C5
S32D0000F7A0F5FD0246FB784FF00000B968FFF742FE25E03869B96AFDF723FC03461846FDF7E5FD0246FB784FF0A5
S32D0000F7C80100B968FFF732FE15E07869FDF7DAFD0246FB784FF00000B968FFF727FE0AE03869FDF7CFFD024661
S32D0000F7F0FB784FF00100B968FFF71CFE00BF07F11807BD46B0BD00BF0000344380B582B000AF78603960786824
S32D0000F8183968034A00F006F807F10807BD4680BD0000404080B584B000AFF860B9607A60F868B9687A68034B0B
S32D0000F84000F006F807F11007BD4680BD0000803EF0B589B002AFF860B9607A603B6002F0E3F802460B4610466E
S32D0000F8681946FDF723FA03467B610DE03B680093F868B9684FF000024FF00003FFF7E2FE4FF0960002F0B2F86F
S32D0000F890F868FDF761FB044643F2B860C1F6FF7006F0EEF9034620461946FDF79FFA03461846FEF7BDFE0346C5
S32D0000F8B84FF00102144618461E49FDF759FD0346002B02D14FF000031C46E3B2002B28D002F0A6F804460D46A7
S32D0000F8E07869FCF7E7FE02460B4620462946FCF793FD02460B4614461D467868FCF7ECFE02460B464FF0010163
S32D0000F9080E4620462946FDF7A9F90346002B02D14FF000031E46F3B2002B02D04FF0010301E04FF00003002BF2
S32D0000F930A0D107F11C07BD46F0BD00BF0000A040B0B584B000AFF8600B467A60FB7243F29C60C1F6FF7002F04D
S32D0000F95897FE43F28060C1F6FF7002F091FEFB7A83F00103DBB2002B19D0F868FDF70AFD034643F24460C1F66F
S32D0000F980FF70194601F05EFDFB6883F000431846FDF7FCFC034643F24060C1F6FF70194601F050FD53E0FB6865
S32D0000F9A883F000431846FDF7EDFC034643F24460C1F6FF70194601F041FDF868FDF7E2FC034643F24060C1F663
S32D0000F9D0FF70194601F036FD39E043F20070C1F6FF7003F09FFD43F20070C1F6FF7048F21841C0F2010103F09F
S32D0000F9F81DFE43F29C60C1F6FF7002F035FE034643F20070C1F6FF70194603F0F1FE43F20070C1F6FF7048F2F0
S32D0000FA203C41C0F2010103F005FE43F29C60C1F6FF7002F01DFE034643F20070C1F6FF70194603F0D9FE4FF0B1
S32D0000FA48320001F0D3FF43F2B860C1F6FF7006F0A1F8034683F00103DBB2002B55D0FB7A002B24D043F29C6037
S32D0000FA70C1F6FF7002F0FCFD03461846FDF76CFA054640F20043C1F6FF731B6818467968FDF7B6FA03464FF07F
S32D0000FA980102144628461946FDF74CFC0346002B02D14FF000031C46E3B2002B2AD1FB7A83F00103DBB2002B90
S32D0000FAC027D043F29C60C1F6FF7002F0D1FD03461846FDF741FA054640F20443C1F6FF731B6818467968FDF791
S32D0000FAE88BFA03464FF00102144628461946FDF721FC0346002B02D14FF000031C46E3B2002B02D04FF00103E8
S32D0000FB1001E04FF00003002B7FF45FAF07F11007BD46B0BDB0B584B000AF7860396043F28060C1F6FF7002F093
S32D0000FB38A7FD43F29C60C1F6FF7002F0A1FD7868FDF720FC034643F24060C1F6FF70194601F074FC7868FDF74C
S32D0000FB6015FC034643F24460C1F6FF70194601F069FC43F2B860C1F6FF7005F0FBFF0346FB6039E043F20070A5
S32D0000FB88C1F6FF7003F0CAFC43F20070C1F6FF7048F21841C0F2010103F048FD43F28060C1F6FF7002F060FD9C
S32D0000FBB0034643F20070C1F6FF70194603F01CFE43F20070C1F6FF7048F23C41C0F2010103F030FD43F29C6020
S32D0000FBD8C1F6FF7002F048FD034643F20070C1F6FF70194603F004FE4FF0320001F0FEFE43F2B860C1F6FF7069
S32D0000FC0005F0B8FF0246FB689A4222D143F29C60C1F6FF7002F02CFD03461846FDF79CF9054638682449FDF7C2
S32D0000FC28EBF903464FF00102144628461946FDF781FB0346002B02D14FF000031C46E3B2002B02D04FF00103E8
S32D0000FC5001E04FF00003002B94D143F24060C1F6FF7001F0D1FB43F24460C1F6FF7001F0CBFB43F29C60C1F67D
S32D0000FC78FF7002F0F9FC03461846FDF769F9054638680B49FDF7B8F903464FF00102144628461946FDF74EFB38
S32D0000FCA00346002B02D14FF000031C46E3B2184607F11007BD46B0BD0000A04080B582B000AF786039607B688F
S32D0000FCC8012B40F0AA803A684FF6FF739A4240F0A48043F23860C1F6FF704FF0030102F0DDFC43F23C60C1F676
S32D0000FCF0FF704FF0080102F0C5F843F24060C1F6FF704FF0000101F06BFB43F24460C1F6FF704FF0010101F0BD
S32D0000FD1863FB43F24860C1F6FF704FF0000102F0B5FE43F25460C1F6FF704FF0040102F0ADFE43F26060C1F6DB
S32D0000FD40FF704FF0040102F09DF843F26460C1F6FF704FF00C0102F095F843F26860C1F6FF704FF0140102F008
S32D0000FD688DF843F26C60C1F6FF704FF0100101F0B1FE43F27060C1F6FF704FF00F0101F0A9FE43F27460C1F6FF
S32D0000FD90FF704FF0070101F0A1FE43F27860C1F6FF704FF0110101F099FE43F27C60C1F6FF704FF0170101F074
S32D0000FDB891FE43F28060C1F6FF704FF0000102F0ADFA42F2B943C0F2010343F28060C1F6FF70194643F28C72C7
S32D0000FDE0C1F6FF7207F002F943F29C60C1F6FF704FF0010102F096FA42F2B943C0F2010343F29C60C1F6FF7084
S32D0000FE08194643F28C72C1F6FF7207F0EBF843F2B860C1F6FF7005F057F907F10807BD4680BD00BF80B500AF96
S32D0000FE304FF001004FF6FF71FFF740FF80BD00BF90B587B002AF43F24860C1F6FF70754902F03EFE74487549E8
S32D0000FE584FF000024FF00003FEF7F4FB724B00934FF0000071494FF001024FF00003FFF7E9FB6B486E494FF0C5
S32D0000FE8000024FF00003FEF7E1FB694B00934FF05A0068494FF001024FF00003FFF7D6FB4FF0640001F0A6FD2C
S32D0000FEA84FF05A006149FFF7ADFC5D4861494FF000024FF00003FEF7C5FB4FF00003FB604FF00003BB6076E073
S32D0000FED043F2B860C1F6FF7005F04CFE03467B6043F2B860C1F6FF7005F044FE044643F2B860C1F6FF7005F0D2
S32D0000FEF82BFE034603F1FF339C4214BF00230123DBB2002B04D049484649FFF707FE03E043484449FFF702FEB4
S32D0000FF204FF0320001F066FD43F2B860C1F6FF7005F020FE02467B689A4214BF00230123DBB2002B2CD03E480D
S32D0000FF483E494FF000024FF00003FEF77BFB4FF0640001F04BFDBB6803F10103BB60384B00934FF05A003149DB
S32D0000FF704FF000024FF00003FFF768FBBB68002B19D0BB6803F00103002B14D14FF0010028494FF003024FF0F2
S32D0000FF980003FFF74BFA0AE0274823494FF000024FF00003FEF74EFB4FF00003BB60FB6803F10103FB6043F22F
S32D0000FFC0B860C1F6FF7005F0D5FD044643F2B860C1F6FF7005F0BCFD03469C4205DAFB68062B02DC4FF00103E8
S32D0000FFE801E04FF00003002B7FF46EAF124815494FF000024FF00003FEF724FB0A4B00934FF0000009494FF006
S32D0001001002024FF00003FFF719FB07F11407BD4690BD00BF000034420000DC420000A0400000803F0000C84212
S32D0001003800000041000040400000DCC20000A03F0000003F00008040B0B582B000AF01F0E7FC02460B46104653
S32D000100601946FCF76FFE03467B6021E043F20070C1F6FF7003F056FA43F20070C1F6FF7048F21851C0F201015D
S32D0001008803F0D4FA43F23C60C1F6FF7001F008FF034643F20070C1F6FF70194603F0BCFB4FF0C80001F0A2FCE6
S32D000100B043F23C60C1F6FF7001F0F6FE03464FF00102144618461E49FDF756F90346002B02D14FF000031C466D
S32D000100D8E3B2002B27D001F0A3FC04460D467868FCF7F6FA02460B4620462946FCF790F902460B464FF001018E
S32D000101000C46104619464FF000024FF0804303F58803FCF7A7FD0346002B02D14FF000031C46E3B2002B02D0EF
S32D000101284FF0010301E04FF00003002B9AD107F10807BD46B0BD00BF0000C03F80B500AF2BE043F20070C1F62C
S32D00010150FF7003F0E7F943F20070C1F6FF7048F68801C0F2010103F033FB43F20070C1F6FF7048F2B061C0F20F
S32D00010178010103F05BFA43F2B860C1F6FF7005F05BFD034643F20070C1F6FF70194603F043FB4FF0140001F066
S32D000101A029FC43F23860C1F6FF7002F021FB034683F00103DBB2002BC7D100BF43F23860C1F6FF7002F028FB33
S32D000101C8034683F00103DBB2002BF3D143F2B860C1F6FF7005F030FD024640F20843C1F6FF731A602BE043F28F
S32D000101F00070C1F6FF7003F095F943F20070C1F6FF7048F6C001C0F2010103F0E1FA43F20070C1F6FF7048F278
S32D00010218B061C0F2010103F009FA43F2B860C1F6FF7005F009FD034643F20070C1F6FF70194603F0F1FA4FF0FE
S32D00010240140001F0D7FB43F23860C1F6FF7002F0CFFA034683F00103DBB2002BC7D100BF43F23860C1F6FF7048
S32D0001026802F0D6FA034683F00103DBB2002BF3D143F2B860C1F6FF7005F0DEFC024640F20C43C1F6FF731A60BB
S32D0001029043F20070C1F6FF7003F044F943F20070C1F6FF7048F60011C0F2010103F0C2F940F20843C1F6FF7322
S32D000102B81B6843F20070C1F6FF70194603F0ACFA43F20070C1F6FF7048F61411C0F2010103F0ACF940F20C43D6
S32D000102E0C1F6FF731B6843F20070C1F6FF70194603F096FA00BF43F23860C1F6FF7002F077FA034683F00103C1
S32D00010308DBB2002BF3D100BF43F23860C1F6FF7002F07EFA034683F00103DBB2002BF3D180BD00BF80B500AF12
S32D0001033040F20C43C1F6FF73164A1A6040F20843C1F6FF73144A1A6043F20070C1F6FF7048F64011C0F201018E
S32D0001035803F03AFA00BF43F23860C1F6FF7002F043FA034683F00103DBB2002BF3D100BF43F23860C1F6FF7080
S32D0001038002F04AFA034683F00103DBB2002BF3D180BD00BF000040400000D04080B500AF43F25460C1F6FF705D
S32D000103A80B4902F091FB4FF0C80001F01FFB094809494FF000024FF00003FEF743F943F25460C1F6FF7005498E
S32D000103D002F07EFB80BD00BF0000F0410000DC42000000400000E64280B582B002AF43F24860C1F6FF70434939
S32D000103F802F06AFB42484FF00101424AFEF79CFC414B00934FF05A0040494FF002024FF00003FFF717F94FF090
S32D00010420FA0001F0E7FA4FF05A003A49FFF7EEF939483A494FF000024FF00003FEF706F9374838494FF000022C
S32D000104484FF00103FEF758FD2F4B00934FF000002E494FF001024FF00003FFF7F3F84FF4967001F0C3FA4FF09A
S32D0001047000002849FFF7CAF927484FF000012A4AFEF75EFC4FF0960001F0B4FA1E4827494FF000024FF00003F4
S32D00010498FEF7D8F84FF0960001F0A8FA1C481A494FF000024FF00003FEF7CCF8164B00934FF0870015494FF0AE
S32D000104C002024FF00003FFF7C1F843F24860C1F6FF70174902F0FCFA0E484FF000010D4AFFF72EFA4FF0000083
S32D000104E80A49094AFFF79EF943F24860C1F6FF70024902F0E9FABD4680BD00BF0000F0410000DCC20000404140
S32D000105100000803F0000C8420000DC42000000410000B4420000B0C0000060410000404000008C42B0B586B0A4
S32D0001053802AF40F20843C1F6FF731B68E34819464FF000024FF00103FEF7D6FCE04B00934FF00000DF494FF081
S32D0001056001024FF00003FFF771F84FF0FA0001F041FA4FF00000D749FFF748F9D8484FF00101D84AFEF7DCFB7E
S32D00010588034683F00103DBB2002B04D04FF00000D049FFF737F943F24860C1F6FF70D04902F092FACF4B009333
S32D000105B0CA48CF494FF000024FF00003FEF75CF843F24860C1F6FF70CA4902F081FA4FF0C80001F00FFA43F26D
S32D000105D84860C1F6FF70C24902F076FA4FF0FA0001F004FA4FF00000B849C14AFFF71AF943F24860C1F6FF703A
S32D00010600B94902F065FAB94B0093B448BB494FF000024FF00003FEF72FF84FF0FA0001F0E9F94FF00000AD4901
S32D00010628FFF7F0F843F24860C1F6FF70AB4902F04BFAA948AE494FF000024FF00003FEF701F84FF0320001F0DC
S32D00010650D1F943F24860C1F6FF70A34902F038FA4FF000009D49FFF7D1F8A548A5494FF000024FF00003FDF768
S32D00010678E9FF4FF0640001F0B9F94FF000009549FFF7C0F843F24860C1F6FF70934902F01BFA9B4B0093904823
S32D000106A09A494FF000024FF00003FDF7E5FF4FF0C80001F09FF94FF000008849FFF7A6F887484FF00101914ACE
S32D000106C8FEF73AFB034683F00103DBB2002B05D04FF000007F49864AFFF7A4F84FF0FA0001F084F984488249E5
S32D000106F04FF000024FF00003FDF7A8FF78484FF00101784AFEF71CFB4FF0C80001F072F97B4871494FF00002CD
S32D000107184FF00003FDF796FF6D4B00934FF05A006C494FF001024FF00103FEF78BFF4FF0FA0001F05BF94FF08D
S32D000107405A0066496A4A724BFFF782F86C4871494FF000024FF00003FDF778FF40F20C43C1F6FF731B68664869
S32D0001076819464FF000024FF00003FEF7C5FB4FF0320001F03BF940F20C43C1F6FF731B685D4819464FF00002C3
S32D000107904FF00003FEF7B4FB4F4B00934FF000004E494FF002024FF00103FEF74FFF4FF000004A494FF00A026B
S32D000107B84FF00103FEF73AFE4FF0FA0001F016F94FF000004349FFF71DF84FF00003FB6015E041484E494FF0A2
S32D000107E000024FF00003FDF731FF4FF0FA0001F001F94FF0000039493F4AFFF717F8FB6803F10103FB60FB68F6
S32D00010808012BCCBF00230123DBB2002BE1D1324832494FF00002FEF717F90346BB6001F0FFF802460B461046E3
S32D000108301946FCF787FA03467B6008E04FF0C80001F0D8F84FF000002449FEF7DFFF224B009332482D494FF044
S32D0001085801024FF00003FEF7B7FC034683F00103DBB2002B27D001F0DBF804460D467868FBF72EFF02460B461C
S32D0001088020462946FBF7C8FD02460B464FF001010C46104619464FF000024FF0804303F53813FCF7DFF9034642
S32D000108A8002B02D14FF000031C46E3B2002B02D04FF0010301E04FF00003002BBAD1BB68184607F11007BD463E
S32D000108D0B0BD00BF0000B4420000803F0000C8420000DCC2000020410000FA423333933F000080400000F041AA
S32D000108F800000040000080410000DC420000A0409A99193F000070410000003E000000410000C0400000C8C28D
S32D0001092080B586B002AF786050484FF00101504AFEF706FA43F24860C1F6FF704C4902F0C7F84C4B00934FF09A
S32D000109485A004B494FF002024FF00003FEF77AFE4FF05A004649FEF755FF42484FF00101444AFEF7E9F94FF0C0
S32D0001097057004149FEF74AFF7B68022B01D1404B00E0404BBB604FF00003FB601CE0B8683D49FCF7E9FB0346E7
S32D000109983C4A00923C4819464FF000024FF00003FDF766FE4FF0640001F020F84FF05A002F49314AFEF736FFF8
S32D000109C0FB6803F10103FB60FB68022BCCBF00230123DBB2002BDAD1FFF7E0FC4FF05A002549FEF713FF40F27B
S32D000109E80C43C1F6FF731B6818462849FCF7FAF90346254819464FF000024FF00103FEF77BFA1A4B00934FF0F6
S32D00010A10870019494FF001024FF00003FEF716FE43F25460C1F6FF70114902F051F8114B00934FF00000104916
S32D00010A384FF001024FF00003FEF704FE4FF0FA0000F0D4FF4FF000000949FEF7DBFE43F25460C1F6FF700E4953
S32D00010A6002F036F807F11007BD4680BD0000DCC20000F0410000803F0000C8420000A04100000040000090416E
S32D00010A88000040403333933F0000B4420000C0400000E642B0B584B002AF7F487F494FF000024FF00003FDF719
S32D00010AB0CDFD7D4B00934FF05A007C494FF002024FF00003FEF7C2FD4FF05A007749FEF79DFE774873494FF0B8
S32D00010AD800024FF00003FDF7B5FD40F20843C1F6FF731B68714819464FF000024FF00103FEF702FA4FF0C80048
S32D00010B0000F078FF4FF05A006849FEF77FFE644869494FF000024FF00003FDF797FD43F24860C1F6FF70654989
S32D00010B2801F0D2FF00F07CFF02460B4610461946FCF704F903467B6000BF00F071FF04460D467868FBF7C4FDC0
S32D00010B5002460B4620462946FBF75EFC02460B464FF001010C46104619464FF000024FF07E5303F5C003FCF7DC
S32D00010B7875F80346002B02D14FF000031C46E3B2002BDAD148484C494FF000024FF00003FDF758FD43F24860BD
S32D00010BA0C1F6FF70474901F093FF00F03DFF02460B4610461946FCF7C5F803467B6000BF00F032FF04460D4622
S32D00010BC87868FBF785FD02460B4620462946FBF71FFC02460B464FF001010C46104619464FF000024FF07E53FD
S32D00010BF003F5C003FCF736F80346002B02D14FF000031C46E3B2002BDAD143F24860C1F6FF702C4901F05CFFE0
S32D00010C1800F006FF02460B4610461946FCF78EF803467B6000BF00F0FBFE04460D467868FBF74EFD02460B46D2
S32D00010C4020462946FBF7E8FB02460B464FF001010C46104619464FF000024FF07E5303F5C003FBF7FFFF0346B5
S32D00010C68002B02D14FF000031C46E3B2002BDAD1134811494FF000024FF00003FDF7E2FC08480B494FF0000261
S32D00010C904FF00003FDF7DAFC07F10807BD46B0BD0000DCC20000A0400000803F0000C8420000DC420000B44257
S32D00010CB8000080400000AA42000020400000F0410000C8C280B582B002AF4FF05A002549FEF798FD2AE0244827
S32D00010CE04FF00101234AFEF72BF80346002B1BD0214B00934FF000001C494FF001024FF00003FEF7A3FC1D48A0
S32D00010D084FF00101194AFEF717F8194B00934FF05A0014494FF002024FF00003FEF792FC4FF05A000F49144AD0
S32D00010D30FEF77CFD43F23860C1F6FF7001F058FD034683F00103DBB2002BC8D100BF43F23860C1F6FF7001F039
S32D00010D585FFD034683F00103DBB2002BF3D1BD4680BD00BF0000C8420000FEC2000020410000803F0000DCC24D
S32D00010D800000004080B584B002AF43F24860C1F6FF70254901F09CFE4FF000037B6015E0224823494FF00002C5
S32D00010DA84FF00003FDF74EFC4FF0640000F01EFE4FF000001B491D4AFEF734FD7B6803F101037B607B68012BF8
S32D00010DD0CCBF00230123DBB2002BE1D1164B0093164817494FF001024FF00103FEF7F0F943F24860C1F6FF70A0
S32D00010DF8124901F069FE124B00934FF05A000D494FF002024FF00003FEF71CFC4FF05A000849FEF7F7FC07F1DE
S32D00010E200807BD4680BD00BF0000FA420000DC420000A040000000400000A0410000C842000018420000F041A5
S32D00010E480000803F80B582B002AF464B00934FF05A0045494FF002024FF00103FEF7F2FB4FF0FA0000F0C2FD09
S32D00010E704FF05A003E49FEF7C9FC3E484FF001013D4AFDF75DFF3D4B00933C483C494FF000024FF00103FEF73E
S32D00010E9849F8344B00934FF0000033494FF001024FF00103FEF7CEFB4FF001002E494FF00A024FF00103FEF7A0
S32D00010EC0B9FA4FF0FA0000F095FD284B00934FF0000027494FF000024FF00103FEF7B6FB4FF000002549FEF714
S32D00010EE891FC22484FF00101244AFDF725FF43F24860C1F6FF70224901F0E6FD214B00931C481B494FF00002D3
S32D00010F104FF00003FDF7B0FB16481D494FF000024FF00003FDF792FB43F24860C1F6FF70184901F0CDFD18488A
S32D00010F3818494FF000024FF00003FDF783FB4FF0320000F053FD4FF000000749124AFEF769FC43F24860C1F6AA
S32D00010F60FF700C4901F0B4FDBD4680BD0000803F0000C8420000DCC20000A0410000B4429A9949C100002041E0
S32D00010F880000FA42CDCC8C3F0000E0400000D2420000DC42000040410000204080B500AF44F2E022C1F6FF7223
S32D00010FB043F23863C1F6FF73D31A194643F23863C1F6FF731A460B4610464FF000011A4604F083FF80BD00BFBB
S32D00010FD806F00EF800F0B0F9FFF7E0FF05F0BEFF05F05AFF06F014F800F00CF84FF0000043F2C061C1F6FF71CE
S32D00011000FDF724FA0346184604F042FF80B500AF4FF4E043C4F204034FF4E042C4F2040202F5805202F13802B5
S32D00011028126842F4785203F5805303F138031A6000F02EF900F094F843F2CC63C1F6FF734FF058021A6043F243
S32D00011050CC63C1F6FF731B684FF47A7202FB03F243F2C863C1F6FF731A6043F2C863C1F6FF731B681A464FF4C3
S32D00011078E043C4F2040303F5825303F104031B6803F070634FEA136303F10103B2FBF3F31A4643F2D063C1F69F
S32D000110A0FF731A604FF4E043C4F204034FF4E042C4F2040202F5805202F13C02126842F0225203F5805303F118
S32D000110C83C031A604FF4E043C4F204034FF4E042C4F2040202F5805202F13002126842F0006203F5805303F141
S32D000110F030031A604FF45043C4F203034FF480721A614FF0640000F009FB4FF45043C4F203034FF45042C4F22E
S32D000111180302526922F010025A614FF45043C4F203034FF000021A604FF45043C4F203034FF010025A6101F02D
S32D0001114005F801F0ADF843F2C460C1F6FF7000F069FB43F20070C1F6FF7002F0A1F841F2883000F047FC80BD69
S32D0001116880B400AF4FF48043C4F206034FF000025A704FF48043C4F206034FF098021A704FF48043C4F20603B8
S32D000111909B79DBB203F01003002B0CBF00230123DBB2002BF0D14FF48043C4F206039B79DBB203F00C034FEA32
S32D000111B89303022B0CBF00230123DBB2002BEED14FF48043C4F206034FF018021A714FF48043C4F206034FF00F
S32D000111E000025A714FF4E043C4F2040303F5825303F104034FF00002C0F213121A604FF48043C4F206034FF092
S32D0001120854025A7100BF4FF48043C4F206039B79DBB203F02003002B14BF00230123DBB2002BF0D100BF4FF49B
S32D000112308043C4F206039B79DBB203F04003002B14BF00230123DBB2002BF0D14FF48043C4F206034FF48042AE
S32D00011258C4F206021278D2B202F03F02D2B21A704FF48043C4F206039B79DBB203F00C034FEA9303032B0CBF2A
S32D0001128000230123DBB2002BEED14FF000031846BD4680BC704700BF80B400AF4FF44043C4F204034FF4807291
S32D000112A85A634FF2C003C4F20F034FF2C002C4F20F02526942F400525A614FF2C003C4F20F034FF2C002C4F241
S32D000112D00F02126842F400521A604FF44043C4F2040340F20312C0F20A021A634FF46143CEF200034FF46142CD
S32D000112F8CEF20002D2F8882142F08062C3F888214FF46143CEF200034FF46142CEF20002926842F080629A60C0
S32D00011320BD4680BC704700BF80B483B000AF7860FEE700BF80B400AF00BEBD4680BC704780B400AF4FF0E0229C
S32D000113484CF20003C0F20003C2F8083D4FF40053C4F205034CF22052DA814FF40053C4F205034DF62812DA81F6
S32D000113704FF40053C4F205034FF0D2021A80BD4680BC704780B400AF4FF44043C4F20403D3F8A03003F480538C
S32D00011398002B0CBF00230123DBB2002B19D04FF44043C4F204034FF44042C4F20402D2F8A02022F48052C3F817
S32D000113C0A0204FF2C003C4F20F034FF2C002C4F20F02126822F400521A60BD4680BC704780B483B000AF786068
S32D000113E80B46FB707B68FA781A707B684FF000025A707B68184607F10C07BD4680BC704780B582B000AF78601D
S32D000114107B685B78002B10D07B684FF000025A707B681B7843F2C460C1F6FF7019464FF000024FF01E0300F019
S32D000114383FFA07F10807BD4680BD00BF80B584B000AF786039603B687F2B03DD4FF07F03FB7309E03B6813F1D1
S32D00011460800F03DA4FF08003FB7301E03B68FB737B685B78FA7B9A420FD07B68FA7B5A707B681A78FB7B43F2A7
S32D00011488C460C1F6FF7011461A464FF01E0300F00FFA07F11007BD4680BD00BF90B486B000AFF860B9607A6059
S32D000114B0FA684FF42043C4F206039A4214D14FF4E043C4F204034FF4E042C4F2040202F5805202F134021268D5
S32D000114D842F4806203F5805303F134031A6083E0FA684FF43043C4F206039A4214D14FF4E043C4F204034FF4FC
S32D00011500E042C4F2040202F5805202F13402126842F4006203F5805303F134031A6067E0FA684FF44043C4F245
S32D0001152806039A4214D14FF4E043C4F204034FF4E042C4F2040202F5805202F13402126842F4805203F5805347
S32D0001155003F134031A604BE0FA684FF45043C4F206039A4214D14FF4E043C4F204034FF4E042C4F2040202F5A9
S32D00011578805202F13402126842F4005203F5805303F134031A602FE0FA684FF42043C4F20E039A4214D14FF4F5
S32D000115A0E043C4F204034FF4E042C4F2040202F5805202F12802126842F4806203F5805303F128031A6013E04C
S32D000115C84FF4E043C4F204034FF4E042C4F2040202F5805202F12802126842F4006203F5805303F128031A6054
S32D000115F0FB68DB78DBB223F00C03DAB2FB68DA70FB684FF000029A70BB684FF47A7202FB03F27B684FEA03130A
S32D0001161892FBF3F39CB2FB681B78DBB223F01F03FB75234603F4F8534FEA2323DBB203F01F03DAB2FB7D134394
S32D00011640DAB2FB681A70E2B2FB685A70BB684FF4FA4202FB03F27B684FEA031392FBF3F39AB2234619464FEABB
S32D00011668C121CB1A4FEA43139BB2D3189CB2FB689B7ADBB223F01F03FB75E3B203F01F03DAB2FB7D1343DAB23D
S32D00011690FB689A72FB68DB78DBB243F00C03DAB2FB68DA7007F11807BD4690BC704700BF80B483B000AF786034
S32D000116B800BF7B681B79DBB203F02003002B14BF00230123DBB2002BF3D17B68DB79DBB2184607F10C07BD4639
S32D000116E080BC704780B483B000AF78600B46FB7000BF7B681B79DBB2DBB26FEA0303DBB24FEAD313DBB2002B2B
S32D00011708F3D17B68FA78DA7107F10C07BD4680BC704700BF80B483B000AF78604FF4E043C4F204034FF4E04218
S32D00011730C4F2040202F5805202F13802126842F0010203F5805303F138031A604FF00003C4F204037A689A60DA
S32D000117584FF00003C4F204034FF005025A604FF00003C4F204034FF00002C4F20402126842F001021A6000BF7F
S32D000117804FF00003C4F204031B6803F08003002B14BF00230123DBB2002BF1D14FF00003C4F204034FF0000243
S32D000117A8C4F20402126822F001021A6007F10C07BD4680BC704700BF80B582B000AF786039607B68012B0AD11C
S32D000117D03A684FF6FF739A4205D143F2C460C1F6FF7000F00FF807F10807BD4680BD00BF80B500AF4FF001003F
S32D000117F84FF6FF71FFF7E0FF80BD00BF80B483B000AF78607B684FF000021A707B68184607F10C07BD4680BC15
S32D00011820704700BF80B582B000AF78607B681B7883F00103DBB2002B36D04FF4E043C4F2040303F5805303F1A8
S32D0001184828034FF400621A604FF45043C4F204034FF440721A624FF45043C4F204034FF440725A6243F2C8637F
S32D00011870C1F6FF731B684FEAD372D3184FEA63034FF43040C4F20E0019464FF46142FFF709FE4FF0640000F049
S32D00011898ADF87B684FF001021A704FF0010301E04FF00003184607F10807BD4680BD00BF80B582B000AF786015
S32D000118C0F970BA707B704FF43040C4F20E004FF07F01FFF707FF4FF43040C4F20E004FF00801FFF7FFFEFB7824
S32D000118E84FF43040C4F20E001946FFF7F7FEBB784FF43040C4F20E001946FFF7EFFE7B784FF43040C4F20E00BA
S32D000119101946FFF7E7FE4FF43040C4F20E004FF0FF01FFF7DFFE07F10807BD4680BD00BF80B487B000AFF8606D
S32D00011938B9607A60FA6844F6D353C1F26203A3FB02134FEA9312BB68D3187B61FA6844F6D353C1F26203A3FBC0
S32D0001196002134FEA93134FF47A7101FB03F3D31AFB60FB684FEAC33244F6D353C1F26203A3FB02134FEA931262
S32D000119887B68D3183B613B694FEAD3337A69D3187B613B694FEA43434FEA53433B614FF45043C4F203031B6856
S32D000119B01A467B699A4211D34FF45043C4F203031B681A467B699A420BD14FF45043C4F203035B681A463B699A
S32D000119D89A4202D24FF0010301E04FF00003002BDDD107F11C07BD4680BC704780B584B000AF78604FF450431A
S32D00011A00C4F203031B68FB604FF45043C4F203035B68BB607B681846F968BA68FFF788FF07F11007BD4680BD1D
S32D00011A2880B584B000AF4FF45043C4F203031B68FB604FF45043C4F203035B68BB60F868FAF724FE02460B468B
S32D00011A50C7E90023B868FAF71DFE02460B46104619464FF000024FF0804303F56003FAF7B1FF02460B46D7E982
S32D00011A780001FAF7CFFC02460B46C7E90023D7E900231046194607F11007BD4680BD00BF80B483B000AF4FF417
S32D00011AA05043C4F203031B684FF47A7202FB03F37B604FF45043C4F203035B684FF47A7202FB03F34FEAD33392
S32D00011AC87A68D3187B607B68184607F10C07BD4680BC704780B582B000AF78600B46FB70FB787868194600F0B9
S32D00011AF013F87B68184607F10807BD4680BD00BF80B483B000AF78607B68184607F10C07BD4680BC704700BF86
S32D00011B1880B483B000AF78600B46FB707B68FA781A707B681B781A4648F61C33C0F201039B5C042B00F2F9806B
S32D00011B4001A252F823F000BF5D1B0100BB1B0100191C0100771C0100D51C01004FF41043C4F204037A681278EC
S32D00011B68114648F66032C0F2010252F8212040F2031143F822104FF47043C4F20F034FF47042C4F20F025269FF
S32D00011B9011467A681278104648F66032C0F2010252F8202002F01F024FF0010000FA02F26FEA02020A405A615B
S32D00011BB8BBE04FF42043C4F204037A681278114648F66032C0F2010252F8212040F2031143F822104FF24003F6
S32D00011BE0C4F20F034FF24002C4F20F02526911467A681278104648F66032C0F2010252F8202002F01F024FF08F
S32D00011C08010000FA02F26FEA02020A405A618CE04FF43043C4F204037A681278114648F66032C0F2010252F8EB
S32D00011C30212040F2031143F822104FF28003C4F20F034FF28002C4F20F02526911467A681278104648F66032D7
S32D00011C58C0F2010252F8202002F01F024FF0010000FA02F26FEA02020A405A615DE04FF44043C4F204037A68D9
S32D00011C801278114648F66032C0F2010252F8212040F2031143F822104FF2C003C4F20F034FF2C002C4F20F02FB
S32D00011CA8526911467A681278104648F66032C0F2010252F8202002F01F024FF0010000FA02F26FEA02020A4042
S32D00011CD05A612EE04FF45043C4F204037A681278114648F66032C0F2010252F8212040F2031143F822104FF4C0
S32D00011CF87143C4F20F034FF47142C4F20F02526911467A681278104648F66032C0F2010252F8202002F01F028E
S32D00011D204FF0010000FA02F26FEA02020A405A6100BF07F10C07BD4680BC704780B485B000AF78604FF0000312
S32D00011D48FB607B681B781A4648F61C33C0F201039B5C042B00F2868001A252F823F000BF7D1D0100AD1D0100B5
S32D00011D70DD1D01000D1E01003D1E01004FF47043C4F20F031B691A467B681B78194648F66033C0F2010353F878
S32D00011D98213003F01F034FF0010101FA03F31340FB605FE04FF24003C4F20F031B691A467B681B78194648F654
S32D00011DC06033C0F2010353F8213003F01F034FF0010101FA03F31340FB6047E04FF28003C4F20F031B691A4683
S32D00011DE87B681B78194648F66033C0F2010353F8213003F01F034FF0010101FA03F31340FB602FE04FF2C003CC
S32D00011E10C4F20F031B691A467B681B78194648F66033C0F2010353F8213003F01F034FF0010101FA03F3134065
S32D00011E38FB6017E04FF47143C4F20F031B691A467B681B78194648F66033C0F2010353F8213003F01F034FF03A
S32D00011E60010101FA03F31340FB6000BFFB68002B0CBF00230123DBB2184607F11407BD4680BC704780B483B0F8
S32D00011E8800AF78600B46FB707B68FA781A707B68184607F10C07BD4680BC70470000000080B586B000AF7860D5
S32D00011EB07B681B781A4648F6E033C0F2010353F822303B617B681B781A4648F63C33C0F201039B5CFB733B69AB
S32D00011ED8DBB203F01F03DAB243F2D463C1F6FF731A723B69DBB203F01F03DAB243F2D463C1F6FF735A724FF416
S32D00011F006143CEF200034FF46142CEF20002D2F8882042F01002C3F88820FB7B002B1ED14FF43040C4F203008E
S32D00011F2843F2D461C1F6FF7100F04CFD4FF43043C4F203031B6803F08003002B14BF00230123DBB2002BF1D196
S32D00011F504FF43043C4F203031B697B611DE04FF43040C4F20B0043F2D461C1F6FF7100F02DFD4FF43043C4F208
S32D00011F780B031B6803F08003002B14BF00230123DBB2002BF1D14FF43043C4F20B031B697B614FF46143CEF2F3
S32D00011FA000034FF46142CEF20002D2F8882142F01002C3F888214FF46143CEF200034FF46142CEF20002926800
S32D00011FC842F010029A604FF46143CEF200034FF46142CEF20002D2F8882142F08062C3F888214FF46143CEF2C8
S32D00011FF000034FF46142CEF20002926842F080629A607B694FEA03434FEA13431846FAF741FB02460B461046A3
S32D0001201819460FA3D3E90023FAF7AEFB02460B46104619460CA3D3E90023FAF7CFFC02460B4610461946FAF738
S32D0001204081FE0346BB60BB68184607F11807BD4680BD00BFAFF30080A4703D0AD7A30A4000000000E0FFEF40A8
S32D0001206880B586B000AF78607B681B781A4648F6E033C0F2010353F822303B617B681B781A4648F63C33C0F20C
S32D0001209001039B5CFB733B69DBB203F01F03DAB243F2E463C1F6FF731A723B69DBB203F01F03DAB243F2E46367
S32D000120B8C1F6FF735A72FB7B002B1ED14FF43040C4F2030043F2E461C1F6FF7100F07AFC4FF43043C4F203038F
S32D000120E01B6803F08003002B14BF00230123DBB2002BF1D14FF43043C4F203031B697B611DE04FF43040C4F2E1
S32D000121080B0043F2E461C1F6FF7100F05BFC4FF43043C4F20B031B6803F08003002B14BF00230123DBB2002B45
S32D00012130F1D14FF43043C4F20B031B697B617B69184607F11807BD4680BD00BF98B500AF43F2D463C1F6FF73FB
S32D000121584FF05C021A7043F2D463C1F6FF734FF010025A7043F2D463C1F6FF7341F234225A8043F2D463C1F666
S32D00012180FF7345F278629A8043F2D463C1F6FF734FF010029A7143F2D463C1F6FF734FF00702DA7143F2D4630E
S32D000121A8C1F6FF734FF4C022DA6043F2D463C1F6FF734FF01F021A7243F2D463C1F6FF734FF01F025A724FF4FB
S32D000121D03040C4F2030043F2D461C1F6FF7100F0F5FB4FF43040C4F20B0043F2D461C1F6FF7100F0EBFB4FF428
S32D000121F83040C4F20B0000F03FFB4FF43040C4F2030000F039FB4FF43040C4F20B0043F2D461C1F6FF7100F0D8
S32D00012220D5FB4FF43040C4F2030043F2D461C1F6FF7100F0CBFB43F2E462C1F6FF7243F2D463C1F6FF7314467A
S32D000122480FCB84E80F0043F2E463C1F6FF734FF05C021A7043F2E463C1F6FF734FF00402DA7198BD80B500AFD8
S32D0001227043F2F863C1F6FF731B6803F1010243F2F863C1F6FF731A6000F072F94FF4E043C4F203034FF001021A
S32D00012298C3F80C2180BD00BF80B500AF4FF4E043C4F203034FF001021A6048F2A060C0F2010000F023F84FF436
S32D000122C0E043C4F203034FF00302C3F808214FF46143CEF200034FF46142CEF20002D2F8882142F01002C3F824
S32D000122E888214FF46143CEF200034FF46142CEF20002926842F010029A6080BD80B483B000AF78604FF4E04303
S32D00012310C4F203037A68C3F8002107F10C07BD4680BC704780B584B000AF78600B46FB707A68FB78104619466D
S32D00012338FFF7A4FD43F2F463C1F6FF731B68002B32D17B684FF000021A617B684FF000025A614FF0140004F0B4
S32D0001236067FE02467B689A617B689B697A689A607B689B694FF001025A607B689B69FA781A707B689B694FF014
S32D000123880002DA607B689B694FF000021A617B689B694FF000025A707B689A6943F2F463C1F6FF731A6071E0EF
S32D000123B043F2F463C1F6FF731B68FB6002E0FB68DB68FB60FB681B78FA789A4206D0FB68DB68002B02D04FF08C
S32D000123D8010301E04FF00003002BECD1FB681B78FA789A4224D17B68FA689A617B689B699B68BB6002E0BB6844
S32D000124001B69BB60BB681B69002B0CBF00230123DBB2002BF3D1BB687A681A617B68BA685A617B684FF000024A
S32D000124281A617B689B695A6802F101025A602DE07B684FF000021A617B684FF000025A614FF0140004F0F0FDF2
S32D0001245002467B689A617B689B697A689A607B689B694FF001025A607B689B69FA781A707B689B694FF0000286
S32D00012478DA607B689B694FF000025A707B689B69FA681A617B689A69FB68DA60786800F0F7F87B684FF48C420F
S32D000124A09A607B684FF45242DA607B68184607F11007BD4680BD00BF80B586B000AF78607B685B697B617B6878
S32D000124C81B693B617B69002B31D13B69002B2ED17B689B691B69FB607B689B69DB68BB60FB68002B0AD1BB684F
S32D000124F0002B07D143F2F463C1F6FF734FF000021A6012E0FB68002B03D0FB68BA68DA6005E043F2F463C1F610
S32D00012518FF73BA681A60BB68002B02D0BB68FA681A617B689B69184604F0A4FD16E07B69002B03D07B693A692D
S32D000125401A6103E07B689B693A699A603B69002B02D03B697A695A617B689B695A6802F1FF325A607B681846DF
S32D0001256807F11807BD4680BD80B584B000AF43F2F463C1F6FF731B68FB6029E0FB685B78FB71FB689B681846D3
S32D0001259000F02EF80346BB71BB79002B19D0FB685B68012B15DDFB689B681B69BB6008E0BB685B6803F101023B
S32D000125B8BB685A60BB681B69BB60BB68002B0CBF00230123DBB2002BEED1FB68DB68FB60FB68002B0CBF002301
S32D000125E00123DBB2002BCDD107F11007BD4680BD80B584B000AF78607868FFF735FD0346FB607B689B695B78AD
S32D00012608FB72FB7A002B12D17B68DA68FB689A420DDA7B689B694FF001025A707B685B6803F101027B685A603B
S32D000126304FF0010317E0FB7A012B12D17B689A68FB689A420DDD7B689B694FF000025A707B685B6803F1010220
S32D000126587B685A604FF0010301E04FF00003184607F11007BD4680BD80B483B000AF78607B685B68184607F1B9
S32D000126800C07BD4680BC704780B483B000AF78607B684FF000025A6007F10C07BD4680BC704700BF80B582B02F
S32D000126A800AF78600B46FB707B681846FFF724FA7B6803F101031846FFF71EFA7B6803F102031846FFF718FAE2
S32D000126D0FB78032B66D801A252F823F0ED2601001B27010049270100772701007B6818464FF00001FFF710FA14
S32D000126F87B6803F1010318464FF00101FFF708FA7B6803F1020318464FF00201FFF700FA44E07B6818464FF031
S32D000127200801FFF7F9F97B6803F1010318464FF00901FFF7F1F97B6803F1020318464FF00A01FFF7E9F92DE0CE
S32D000127487B6818464FF01001FFF7E2F97B6803F1010318464FF01101FFF7DAF97B6803F1020318464FF0120121
S32D00012770FFF7D2F916E07B6818464FF01801FFF7CBF97B6803F1010318464FF01901FFF7C3F97B6803F1020310
S32D0001279818464FF01A01FFF7BBF900BF7B68184607F10807BD4680BD80B582B000AF78607B681846FFF7BEFA8C
S32D000127C0034683F00103DBB2184607F10807BD4680BD00BF80B582B000AF78607B681846FFF7ACFA03461846C7
S32D000127E807F10807BD4680BD80B582B000AF78607B6803F101031846FFF79CFA034683F00103DBB2184607F125
S32D000128100807BD4680BD00BF80B582B000AF78607B6803F101031846FFF788FA0346184607F10807BD4680BDFE
S32D0001283880B582B000AF78607B6803F102031846FFF778FA034683F00103DBB2184607F10807BD4680BD00BF30
S32D0001286080B582B000AF78607B6803F102031846FFF764FA0346184607F10807BD4680BD80B485B000AF7860EF
S32D000128887B681B6A23F040027B681A627B685B6A23F00B027B685A627B685B6A43F007027B685A627B685B6A73
S32D000128B043F080027B685A627B681B6803F08003002B14BF00230123DBB2002BF4D17B685B6A03F04003002BFE
S32D000128D80CBF00230123DBB2002B02D04FF0010369E04FF00003FB817B68DB6CFB817B689B6C9AB2FB89D318A0
S32D00012900FB817B685B6C9AB2FB89D318FB817B681B6C9AB2FB89D318FB817B68DB6B9AB2FB89D318FB817B6867
S32D000129289B6B9AB2FB89D318FB81FB894FEA5303FB81FB896FEA43436FEA5343FB81FA897B68DA624FF0000302
S32D00012950FB817B68DB6EFB817B689B6E9AB2FB89D318FB817B685B6E9AB2FB89D318FB817B681B6E9AB2FB89F2
S32D00012978D318FB817B68DB6D9AB2FB89D318FB817B689B6D9AB2FB89D318FB81FB894FEA5303FB81FB896FEAD9
S32D000129A043436FEA5343FB81FA897B681A637B685B6A23F080027B685A624FF00003184607F11407BD4680BC66
S32D000129C8704700BF80B483B000AF786039603B681B781A467B689A603B685B781A467B68DA603B685B881A4697
S32D000129F07B689A613B689B881A467B68DA613B689B791A467B681A623B68DB791A467B685A623B68DA687B6862
S32D00012A181A653B681B7A1A467B681A603B685B7A1A467B685A6007F10C07BD4680BC704780B483B000AF7860B7
S32D00012A407B68184607F10C07BD4680BC704700BF80B582B000AF786039607B68012B0AD13A684FF6FF739A42C0
S32D00012A6805D143F2FC60C1F6FF70FFF7E1FF07F10807BD4680BD00BF80B500AF4FF001004FF6FF71FFF7E0FF28
S32D00012A9080BD00BF80B483B000AF78600B46FB707B68FA781A707B684FF4FA725A807B6840F6C4129A807B683A
S32D00012AB8044A9A607B68184607F10C07BD4680BC704700BF000080BFF0B585B000AF786039604FF001031C46C8
S32D00012AE038684B49FAF72AFC0346002B02D14FF000031C46E3B2002B01D0454B3B604FF001031C463868434904
S32D00012B08FAF736FC0346002B02D14FF000031C46E3B2002B01D03D4B3B607B689B6818463968FAF7FDFB0346C5
S32D00012B30002B64D17B683A689A607B685E887B689B881A467B685B88D31A1846F9F7B2FD02460B46104619466A
