S01600002E2E2F464548526F626F74436F64652E733139FF
S32D0000C0000000002099120100F5150100F5150100F5150100F5150100F51501000000000000000000000000000F
S32D0000C02800000000F5150100F515010000000000F5150100F5150100F5150100F5150100F5150100F515010092
S32D0000C050F5150100F5150100F5150100F5150100F5150100F5150100F5150100F5150100F5150100F515010054
S32D0000C078F5150100F5150100F5150100F5150100F5150100F5150100F5150100F5150100F5150100F51501002C
S32D0000C0A0F5150100F5150100F5150100F5150100F5150100F5150100F5150100F5150100F5150100F515010004
S32D0000C0C8F5150100F5150100F5150100F5150100F5150100F5150100F5150100F5150100F5150100F5150100DC
S32D0000C0F0F515010071520100F5150100F5150100F5150100F5150100F5150100F5150100F5150100F5150100FB
S32D0000C118F5150100F5150100F5150100F5150100F5150100F5150100F5150100F5150100F5150100F51501008B
S32D0000C140F5150100F5150100F5150100F51501002D250100F5150100F5150100F5150100F5150100F51501001B
S32D0000C168F5150100F5150100F5150100F5150100F5150100F5150100F5150100F5150100F5150100F51501003B
S32D0000C190F5150100F5150100F5150100F5150100F5150100F515010045160100F5150100F5150100F5150100C2
S32D0000C1B8F5150100F5150100F5150100F5150100F5150100F5150100F5150100F5150100F5150100F5150100EB
S32D0000C41081F0004102E000BF83F0004330B54FEA41044FEA430594EA050F08BF90EA020F1FBF54EA000C55EAC6
S32D0000C438020C7FEA645C7FEA655C00F0E2804FEA5454D4EB5555B8BF6D420CDD2C4480EA020281EA030382EA0F
S32D0000C460000083EA010180EA020281EA0303362D88BF30BD11F0004F4FEA01314FF4801C4CEA113102D0404263
S32D0000C48861EB410113F0004F4FEA03334CEA133302D0524263EB430394EA050F00F0A780A4F10104D5F1200E8A
S32D0000C4B00DDB02FA0EFC22FA05F2801841F1000103FA0EF2801843FA05F359410EE0A5F120050EF1200E012A2D
S32D0000C4D803FA0EFC28BF4CF0020C43FA05F3C01851EBE37101F0004507D54FF0000EDCF1000C7EEB00006EEB67
S32D0000C5000101B1F5801F1BD3B1F5001F0CD349085FEA30004FEA3C0C04F101044FEA445212F5800F80F09A8000
S32D0000C528BCF1004F08BF5FEA500C50F1000041EB045141EA050130BD5FEA4C0C404141EB010111F4801FA4F114
S32D0000C5500104E9D191F0000F04BF01460020B1FA81F308BF2033A3F10B03B3F120020CDA0C3208DD02F1140C87
S32D0000C578C2F10C0201FA0CF021FA02F10CE002F11402D8BFC2F1200C01FA02F120FA0CFCDCBF41EA0C019040B1
S32D0000C5A0E41AA2BF01EB0451294330BD6FEA04041F3C1CDA0C340EDC04F11404C4F1200220FA04F001FA02F3B6
S32D0000C5C840EA030021FA04F345EA030130BDC4F10C04C4F1200220FA02F001FA04F340EA0300294630BD21FAA8
S32D0000C5F004F0294630BD94F0000F83F4801306BF81F480110134013D4EE77FEA645C18BF7FEA655C29D094EA1C
S32D0000C618050F08BF90EA020F05D054EA000C04BF1946104630BD91EA030F1EBF0021002030BD5FEA545C05D1A3
S32D0000C6404000494128BF41F0004130BD14F580043CBF01F5801130BD01F0004545F0FE4141F470014FF0000031
S32D0000C66830BD7FEA645C1ABF194610467FEA655C1CBF0B46024650EA013406BF52EA033591EA030F41F40021D7
S32D0000C69030BD00BF90F0000F04BF0021704730B54FF4806404F132044FF000054FF0000150E700BF90F0000F66
S32D0000C6B804BF0021704730B54FF4806404F1320410F0004548BF40424FF000013EE700BF42004FEAE2014FEAF9
S32D0000C6E031014FEA02701FBF12F07F4393F07F4F81F06051704792F0000F14BF93F07F4F704730B54FF460741B
S32D0000C70801F0004521F0004120E700BF50EA010208BF704730B54FF000050AE050EA010208BF704730B511F046
S32D0000C730004502D5404261EB41014FF4806404F132045FEA915C3FF4DCAE4FF003025FEADC0C18BF03325FEAA0
S32D0000C758DC0C18BF033202EBDC02C2F1200300FA03FC20FA02F001FA03FE40EA0E0021FA02F11444C1E600BF19
S32D0000C78070B54FF0FF0C4CF4E06C1CEA11541DBF1CEA135594EA0C0F95EA0C0F00F0DEF82C4481EA030621EAF3
S32D0000C7A84C5123EA4C5350EA013518BF52EA033541F4801143F4801338D0A0FB02CE4FF00005E1FB02E506F05F
S32D0000C7D00042E0FB03E54FF00006E1FB03569CF0000F18BF4EF0010EA4F1FF04B6F5007F64F5407404D25FEA0F
S32D0000C7F84E0E6D4146EB060642EAC62141EA55514FEAC52040EA5E504FEACE2EB4F1FD0C88BFBCF5E06F1ED8D2
S32D0000C820BEF1004F08BF5FEA500E50F1000041EB045170BD06F0004646EA010140EA020081EA0301B4EB5C0487
S32D0000C848C2BFD4EB0C0541EA045170BD41F480114FF0000E013C00F3AB8014F1360FDEBF002001F0004170BDF0
S32D0000C870C4F10004203C35DA0C341BDC04F11404C4F1200500FA05F320FA04F001FA05F240EA020001F0004207
S32D0000C89821F0004110EBD37021FA04F642EB06015EEA430E08BF20EAD37070BDC4F10C04C4F1200500FA04F32F
S32D0000C8C020FA05F001FA04F240EA020001F0004110EBD37041F100015EEA430E08BF20EAD37070BDC4F12005C7
S32D0000C8E800FA05F24EEA020E20FA04F301FA05F243EA020321FA04F001F0004121FA04F220EA020000EBD37028
S32D0000C9105EEA430E08BF20EAD37070BD94F0000F0FD101F00046400041EB010111F4801F08BF013CF7D041EA6D
S32D0000C938060195F0000F18BF704703F00046520043EB030313F4801F08BF013DF7D043EA0603704794EA0C0FF1
S32D0000C9600CEA135518BF95EA0C0F0CD050EA410618BF52EA4306D1D181EA030101F000414FF0000070BD50EA38
S32D0000C988410606BF1046194652EA430619D094EA0C0F02D150EA013613D195EA0C0F05D152EA03361CBF10467B
S32D0000C9B019460AD181EA030101F0004141F0FE4141F470014FF0000070BD41F0FE4141F4780170BD70B54FF04D
S32D0000C9D8FF0C4CF4E06C1CEA11541DBF1CEA135594EA0C0F95EA0C0F00F0A7F8A4EB050481EA030E52EA03359B
S32D0000CA004FEA013100F088804FEA03334FF0805545EA131343EA12634FEA022245EA111545EA10654FEA002676
S32D0000CA280EF000419D4208BF964244F1FD0404F5407402D25B084FEA3202B61A65EB03055B084FEA32024FF461
S32D0000CA5080104FF4002CB6EB020E75EB030E22BFB61A754640EA0C005B084FEA3202B6EB020E75EB030E22BF22
S32D0000CA78B61A754640EA5C005B084FEA3202B6EB020E75EB030E22BFB61A754640EA9C005B084FEA3202B6EBEA
S32D0000CAA0020E75EB030E22BFB61A754640EADC0055EA060E18D04FEA051545EA16754FEA06164FEAC30343EAAC
S32D0000CAC852734FEAC2025FEA1C1CC0D111F4801F0BD141EA00014FF000004FF0004CB6E711F4801F04BF0143AE
S32D0000CAF00020B4F1FD0C88BFBCF5E06F3FF6AFAEB5EB030C04BFB6EB020C5FEA500C50F1000041EB045170BDBC
S32D0000CB180EF0004E4EEA113114EB5C04C2BFD4EB0C0541EA045170BD41F480114FF0000E013C90E645EA060EC3
S32D0000CB408DE60CEA135594EA0C0F08BF95EA0C0F3FF43BAF94EA0C0F0AD150EA01347FF434AF95EA0C0F7FF499
S32D0000CB6825AF104619462CE795EA0C0F06D152EA03353FF4FDAE1046194622E750EA410618BF52EA43067FF432
S32D0000CB90C5AE50EA41047FF40DAF52EA43057FF4EBAE12E74FF0FF3C06E000BF4FF0010C02E000BF4FF0010C75
S32D0000CBB84DF804CD4FEA410C7FEA6C5C4FEA430C18BF7FEA6C5C1BD001B050EA410C0CBF52EA430C91EA030FEC
S32D0000CBE002BF90EA020F0020704710F1000F91EA030F58BF994208BF90422CBFD8176FEAE37040F0010070476E
S32D0000CC084FEA410C7FEA6C5C02D150EA013C07D14FEA430C7FEA6C5CD6D152EA033CD3D05DF8040B704700BFCD
S32D0000CC308446104662468C461946634600E000BF01B5FFF7B7FF002848BF10F1000F01BD4DF808EDFFF7F4FF13
S32D0000CC580CBF012000205DF808FB00BF4DF808EDFFF7EAFF34BF012000205DF808FB00BF4DF808EDFFF7E0FF18
S32D0000CC8094BF012000205DF808FB00BF4DF808EDFFF7CEFF94BF012000205DF808FB00BF4DF808EDFFF7C4FF40
S32D0000CCA834BF012000205DF808FB00BF4FEA410212F5001215D211D56FF47873B3EB625212D94FEAC12343F0D6
S32D0000CCD0004343EA505311F0004F23FA02F018BF404270474FF00000704750EA013005D111F0004008BF6FF016
S32D0000CCF8004070474FF00000704700BF4A0011D212F5001211D20DD56FF47873B3EB62520ED44FEAC12343F085
S32D0000CD20004343EA505323FA02F070474FF00000704750EA013002D14FF0FF3070474FF0000070474FEA410241
S32D0000CD48B2F1E04324BFB3F5001CDCF1FE5C0DD901F0004C4FEAC0024CEA5070B2F1004F40EB830008BF20F09E
S32D0000CD700100704711F0804F21D113F13872BCBF01F00040704741F480114FEA5252C2F11802C2F1200C10FAB1
S32D0000CD980CF320FA02F018BF40F001004FEAC1234FEAD32303FA0CFC40EA0C0023FA02F34FEA4303CCE77FEA26
S32D0000CDC0625307D150EA01331EBF4FF0FE4040F44000704701F0004040F0FE4040F40000704700BF80F00040CC
S32D0000CDE802E000BF81F0004142001FBF5FEA410392EA030F7FEA226C7FEA236C6AD04FEA1262D2EB1363C1BF06
S32D0000CE10D218414048404140B8BF5B42192B88BF704710F0004F40F4000020F07F4018BF404211F0004F41F4FA
S32D0000CE38000121F07F4118BF494292EA030F3FD0A2F1010241FA03FC10EB0C00C3F1200301FA03F100F000432B
S32D0000CE6002D5494260EB4000B0F5000F13D3B0F1807F06D340084FEA310102F10102FE2A51D2B1F1004F40EB94
S32D0000CE88C25008BF20F0010040EA03007047490040EB000010F4000FA2F10102EDD1B0FA80FCACF1080CB2EB5F
S32D0000CEB00C0200FA0CF0AABF00EBC25052421843BCBFD0401843704792F0000F81F4000106BF80F400000132EB
S32D0000CED8013BB5E74FEA41037FEA226C18BF7FEA236C21D092EA030F04D092F0000F08BF0846704790EA010FD7
S32D0000CF001CBF0020704712F07F4F04D1400028BF40F00040704712F100723CBF00F50000704700F0004343F0DC
S32D0000CF28FE4040F4000070477FEA226216BF08467FEA23630146420206BF5FEA412390EA010F40F480007047C1
S32D0000CF504FF0000304E000BF10F0004348BF40425FEA000C08BF704743F0964301464FF000001CE050EA010264
S32D0000CF7808BF70474FF000030AE000BF50EA010208BF704711F0004302D5404261EB41015FEA010C02BF84465B
S32D0000CFA00146002043F0B64308BFA3F18053A3F50003BCFA8CF2083AA3EBC25310DB01FA02FC634400FA02FC6B
S32D0000CFC8C2F12002BCF1004F20FA02F243EB020008BF20F00100704702F1200201FA02FCC2F1200250EA4C0034
S32D0000CFF021FA02F243EB020008BF20EADC7070474FF0FF0C1CEAD0521EBF1CEAD15392EA0C0F93EA0C0F6FD019
S32D0000D0181A4480EA010C400218BF5FEA41211ED04FF0006343EA501043EA5111A0FB01310CF00040B1F5000FE7
S32D0000D0403EBF490041EAD3715B0040EA010062F17F02FD2A1DD8B3F1004F40EBC25008BF20F00100704790F058
S32D0000D068000F0CF0004C08BF49024CEA502040EA51207F3AC2BFD2F1FF0340EAC250704740F400004FF0000388
S32D0000D090013A5DDC12F1190FDCBF00F000407047C2F10002410021FA02F1C2F1200200FA02FC5FEA310040F1D5
S32D0000D0B8000053EA4C0308BF20EADC70704792F0000F00F0004C02BF400010F4000F013AF9D040EA0C0093F04C
S32D0000D0E0000F01F0004C02BF490011F4000F013BF9D041EA0C018FE70CEAD15392EA0C0F18BF93EA0C0F0AD00B
S32D0000D10830F0004C18BF31F0004CD8D180EA010000F00040704790F0000F17BF90F0004F084691F0000F91F0BB
S32D0000D130004F14D092EA0C0F01D142020FD193EA0C0F03D14B0218BF084608D180EA010000F0004040F0FE4051
S32D0000D15840F40000704740F0FE4040F4400070474FF0FF0C1CEAD0521EBF1CEAD15392EA0C0F93EA0C0F69D044
S32D0000D180A2EB030280EA010C49024FEA402037D04FF0805343EA111143EA10130CF000408B4238BF5B0042F14E
S32D0000D1A87D024FF4000C8B4224BF5B1A40EA0C00B3EB510F24BFA3EB510340EA5C00B3EB910F24BFA3EB9103A4
S32D0000D1D040EA9C00B3EBD10F24BFA3EBD10340EADC001B0118BF5FEA1C1CE0D1FD2A3FF650AF8B4240EBC25018
S32D0000D1F808BF20F0010070470CF0004C4CEA50207F32C2BFD2F1FF0340EAC250704740F400004FF00003013AF1
S32D0000D22037E792F0000F00F0004C02BF400010F4000F013AF9D040EA0C0093F0000F01F0004C02BF490011F4C9
S32D0000D248000F013BF9D041EA0C0195E70CEAD15392EA0C0F08D142027FF47DAF93EA0C0F7FF470AF084676E7AE
S32D0000D27093EA0C0F04D14B023FF44CAF08466EE730F0004C18BF31F0004CCAD130F000427FF45CAF31F0004376
S32D0000D2987FF43CAF5FE700BF4FF0FF3C06E000BF4FF0010C02E000BF4FF0010C4DF804CD4FEA40024FEA41039F
S32D0000D2C07FEA226C18BF7FEA236C11D001B052EA530C18BF90EA010F58BFB2EB030088BFC81738BF6FEAE1706E
S32D0000D2E818BF40F0010070477FEA226C02D15FEA402C05D17FEA236CE4D15FEA412CE1D05DF8040B704700BF16
S32D0000D310844608466146FFE70FB5FFF7C9FF002848BF10F1000F0FBD4DF808EDFFF7F4FF0CBF012000205DF839
S32D0000D33808FB00BF4DF808EDFFF7EAFF34BF012000205DF808FB00BF4DF808EDFFF7E0FF94BF012000205DF8A9
S32D0000D36008FB00BF4DF808EDFFF7D2FF94BF012000205DF808FB00BF4DF808EDFFF7C8FF34BF012000205DF8B1
S32D0000D38808FB00BF4FEA4002B2F1FE4F0FD34FF09E03B3EB12620DD94FEA002343F0004310F0004F23FA02F060
S32D0000D3B018BF404270474FF00000704712F1610F01D1420205D110F0004008BF6FF0004070474FF00000704797
S32D0000D3D8036803B11B181846704700BF03685A004CBF43F0004323F00043C018704700BF2DE9F84F0446914699
S32D0000D40041B301F1FF3BDA46002707EB0A0101EBD1756D1004EBC5063046FFF7E3FF8046681CAB4504EBC000FA
S32D0000D4280DD0FFF7DBFF0138C84504D9BD4209D005F1FF3AE5E7484505D26F1CE1E74FF0FF30F1E7002630469A
S32D0000D450BDE8F88F0E463046BDE8F88F30B52B4B83B004468D1E002B49D0284601A9AFF300800346002822D028
S32D0000D4782A4618460199FFF7BBFF054600281DD0FFF7ACFF6B68A064012B10D0281D002B22DBFFF7A3FF002164
S32D0000D4A0E06421650368002B0FDBFFF79BFF2061002003B030BD002323610520F9E720610920F6E72061092066
S32D0000D4C8F3E7C3F3036058B101280CD002280ED0002020610920E8E70122E0642265DDE7094B2361E1E7094AEF
S32D0000D4F000202261DDE7084900202161D9E7074B0749C81AC2100192B6E700BF0000000029DA000025DA0000AD
S32D0000D51821DA0000C4940100B4960100036810B50446D80706D4990704F1480009D500F00DFD23685A0709D594
S32D0000D54018070ED5D90613D510BD00F0FBFC23685A07F5D404F1D00000F004FD23681807F0D404F5D87000F036
S32D0000D56805FD2368D906EBD404F50C70BDE8104000F040BD2DE9F0470F1D054691460FCFADF5916D02AC261D09
S32D0000D5900FC60FCF0FC60FCF0FC697E80F00D5F80C80D5F818A0002786E80F00216C27602846FFF753FF06460C
S32D0000D5B8B94514BF4FF00A094FF00909FEB1A16B49F01009616401208DE8100449462A462B46C04700282BD1BA
S32D0000D5E0002E2AD1204692A94FF4107208F0F6FD082F28D1216C2846FFF730FF06464FF00909002EDFD1206C4C
S32D0000D60821464FF41072686192A808F0E3FD2F69294692AA4846B847A09B0746636401208DE8100449462A4625
S32D0000D6302B46C0470028D3D00926304622B00DF5806DBDE8F087072FF6D1201D00F06EFC38B504460D46296C54
S32D0000D6582046FFF7FFFE50B92A6C23696261012021462A4698470828F1D0072801D00AF001FF281D00F056FC14
S32D0000D68011B933B10220704704298CBF0220012070470F2A01D90220704700EB820118464A68009B1A6070474D
S32D0000D6A810B50A4684B000210B4603AC0094FFF7E3FF039804B010BD11B933B10220704704298CBF0220012020
S32D0000D6D070470F2A01D902207047009900EB8202096818465160704710B584B004AB0C4643F8042D0021009330
S32D0000D6F822460B46FFF7E0FF04B010BD2DE9F04FCD6C8BB00C4655F8041B174600F008021E46039200F0030823
S32D0000D7200795002B40F0CF8009020691216D8DF821300323B8F1020F8DF8203008BFA56B11F0010340F0D3807B
S32D0000D748019304F158030293D5F80090B9F1000F00F0CB80022E00F0AE80B5F80090B5F802A00435A26C0F2198
S32D0000D7702AF0010B38469344FFF796FF834518D829F0010CE3440AF0010A09F00103584543EA4A092CBF002056
S32D0000D7980120B9F1010F12D032D2B8F1000F02D0002840F01D810435CEE70AF0010A09F0010343EA4A09002092
S32D0000D7C0B9F1010FECD1B8F1000F40F0B680C8B16B68D5F800909A1C19D0029A013309920DD0281DFFF7F8FDE6
S32D0000D7E84FEAD972014609AB204609F0ADFE002800F0F280099A002A40F0BA800835A3E7B9F1020F03D009204B
S32D0000D8100BB0BDE8F08F2B6823F000420092B8F1000F71D1002843D00398002840F0A1800098002800F0A08078
S32D0000D838009BDDF80C90DB0705F1040A40F1B480CDF810800596A846029E12E000998D4200F0D9800996FFF7B5
S32D0000D860BBFD5A46014609AB204609F071FEA946B0B90AF1040A05F1010950460996FFF7ABFD09AB0146002228
S32D0000D888204609F061FE0AF1040A834609F101055046BBF1000FD9D04546059EDDF81080009A4A4564D02B6865
S32D0000D8B0002B7BDB0099481C05EB800548E7D5F804A0083552E70B04C1F30740216D06930222B8F1020F05EB42
S32D0000D8D8800508BFA56B8DF8210011F001038DF820203FF42DAF00200190384606A900F019FC002887D1019A49
S32D0000D900002A43D1082083E70D213846D4F82090FFF7CAFE8145CAD1A26A9542C7D10098291D00220423A0623E
S32D0000D928E26223636163286800286EDB01220192BCE70D213846D4F82090FFF7B1FE81457FF45CAFA16A8D42FE
S32D0000D9507FF458AF2846FFF745FD0F2102463846FFF7C2FE384600212246FFF7BDFE07204EE7009900299BD19B
S32D0000D97838460D21FFF794FE099B20626362A562062041E70F213846FFF78AFE0E2102463846FFF7A5FE3846D5
S32D0000D9A00F211E4AFFF7A0FE072031E7043581E7029950460991FFF70FFD039A014609AB204609F0C5FD00289F
S32D0000D9C87FF46EAFCDF8108005960AF1040A4FF00109A846029E4CE7CDF824800835B3E62846FFF7FBFC0435CB
S32D0000D9F00646A563204609F021FE00283FF407AF38460F213246FFF76FFE072000E74546B2E7009B591C05EB6B
S32D0000DA1881009CE7A577010002236FE601236DE600236BE62DE9F0470446E8B004290CD8DFE801F03803919303
S32D0000DA400F00150C012B96B200F07881052B00F0C780022068B0BDE8F087002BF9D1102AF7D82368D90600F115
S32D0000DA68738164A8019200F0CFFA019AA36BD00744BF53F8040B6490910744BF53F8041B6591500744BF53F8D3
S32D0000DA90041B6691110748BF53F8042B64A8A36348BF679200F0AAFA0020D3E7002BD0D1A36BD00791B244BF42
S32D0000DAB853F8042B62608A0744BF53F8042BA260480744BF53F8042BE2600A0744BF53F8042B2261C80644BF04
S32D0000DAE053F8042B62618A0644BF53F8042BA261480644BF53F8042BE2610A0644BF53F8042B2262C80544BFDC
S32D0000DB0853F8042B62628A0544BF53F8042BA262480544BF53F8042BE2620A0544BF53F8042B2263C80444BFB3
S32D0000DB3053F8042B626311F400501CBF53F8042BA2634A0444BF53F8042BE2630A0444BF53F8042B2264002890
S32D0000DB5840D1A3637AE7012078E7032B7FF475AF160C95B2AA19102A3FF66FAF2368180700F10B8144A800F026
S32D0000DB801BFAA76B4FEA450E3B460DB344A90EF1FF3C01EBC60653F8040B62460CF0010146F8040B92B129B13A
S32D0000DBA853F8041B013A46F8041B0BD01846314650F8045B41F8045B5D68031D75600E1D023AF3D107EB8E03F6
S32D0000DBD044A8A36300F0CEF900203BE7002039E777192022BA42FFF434AF012B00F0A9800F2D40F2A9803746FF
S32D0000DBF8F6B1052B7FF429AF0F2D11D82268D0070ED522F00101052B2160204600F0DA8022F0030240F8482B3D
S32D0000DC20019300F093F9019B1FB12268510700F1B880012B00F0BF800F2D75D9002F40F0A080D4F83890002E29
S32D0000DC48C8462EDD49460DF1080A4FEA46080AEBC50251F8046B08F1FF3000F0010A42F8046BA8F1020CD0B107
S32D0000DC70BAF1000F08D051F8040B0CF1FF3CBCF1FF3F42F8040B0ED00E46104656F804AB40F804AB4968ACF176
S32D0000DC98020C5160311D021DBCF1FF3FF0D109EB8808A7B3102D2CBF2E4610260DF5D079414609EBC60CACF59D
S32D0000DCC0C8724FEA470951F8046B09F1FF3000F0010A42F8046BA9F1020CD0B1BAF1000F08D051F8040B0CF1DE
S32D0000DCE8FF3CBCF1FF3F42F8040B0ED00E46104656F804AB40F804AB4968ACF1020C5160311D021DBCF1FF3FCE
S32D0000DD10F0D108EB8908012B2BD00F2DC4F8388008D9FFB9384695E602A8019300F016F9019B83E702A800F05A
S32D0000DD380DF9F2E77719102250E70F2D3FF685AE102F10D9103F54E723F01003236004F50C70019200F058F99D
S32D0000DD60019A82E624A800F0FDF8002072E6002746E708F1040302A8A36300F0E3F8002068E624A80193C5F116
S32D0000DD88100600F0EFF8019B57E723F0080704F5D870276000F00CF9ECE6204622F0040140F8D01B019300F0D1
S32D0000DDB0DDF8019B3DE702A8019300F0C7F8019B002F3FF43EAFC5F110063AE741F0020140F8481B019300F098
S32D0000DDD8C1F8019B24E700BF406C7047F0B50D460F1DC96B296404460FCFADF5117D01AE0FC60FCF0FC60FCF49
S32D0000DE000FC697E80F0086E80F004FF0FF33009310992046FFF722FB58B9266921466A46B04708280646F3D001
S32D0000DE286846FFF77BFB062E03D009200DF5117DF0BD20462946FFF707FC00BF10B4DC6BC16082611946002228
S32D0000DE501C6410BCFFF792BB38B54269C3680A6404460D4623B10122FFF788FB0AF006FB0369214602202A4677
S32D0000DE789847072803D0082804D00AF0FBFA281D00F050F820462946FFF7DEFBC36823B1CA6B0A640022FFF7CD
S32D0000DEA06DBB9FE7704700BF08B5836801460BB10120984708BD00BFF0B5D46B171D146405460C460FCFADF554
S32D0000DEC8277D01AE0FC60FCF0FC60FCF0FC697E80F0086E80F004FF0FF330093109990A8FFF7B8FA034690AA83
S32D0000DEF068460C21BBB9FFF7F7FB21466846A847064690A908206A466EB9949B98470528064601D00928E5D106
S32D0000DF186846FFF703FB30460DF5277DF0BD0926F6E700BF00F1340191E838009C46A6464CF8045D90E8FF0FD5
S32D0000DF40E54600BD90EC210B704700BF80EC210B704700BF90EC200B704700BF80EC200B704700BFD0EC200B8E
S32D0000DF68704700BFC0EC200B704700BFF0EC0201F0EC0211F0EC0221F0EC0231F0EC0241F0EC0251F0EC02615F
S32D0000DF90F0EC0271F0EC0281F0EC0291F0EC02A1F0EC02B1F0EC02C1F0EC02D1F0EC02E1F0EC02F1704700BFE6
S32D0000DFB8E0EC0201E0EC0211E0EC0221E0EC0231E0EC0241E0EC0251E0EC0261E0EC0271E0EC0281E0EC029155
S32D0000DFE0E0EC02A1E0EC02B1E0EC02C1E0EC02D1E0EC02E1E0EC02F1704700BFB0FC0181B0FC0191B0FC01A159
S32D0000E008B0FC01B1704700BFA0FC0181A0FC0191A0FC01A1A0FC01B1704700BFEC4600B52DE900502DE9FF1F47
S32D0000E0304FF000032DE90C0001A9FFF7D3FEDDF840E012B0704700BFEC4600B52DE900502DE9FF1F4FF00003FD
S32D0000E0582DE90C0001A9FFF7FBFEDDF840E012B0704700BFEC4600B52DE900502DE9FF1F4FF000032DE90C00CD
S32D0000E08001A9FFF707FFDDF840E012B0704700BFEC4600B52DE900502DE9FF1F4FF000032DE90C0001ABFFF718
S32D0000E0A8CDFEDDF840E012B0704700BFEC4600B52DE900502DE9FF1F4FF000032DE90C0001AAFFF7F5FEDDF804
S32D0000E0D040E012B0704700BF027A03461AB9427A42B9B02070470068013A01021A72000E196070474168501E6D
S32D0000E0F8587251F8040B0322596001021A72000E1960704710B5002184B00C220DEB02040B460094FFF7B0FA62
S32D0000E120039804B010BD00BFF0E700BF2DE9F043064685B00D464FF000094FF47F672846FFF7CAFFB028044683
S32D0000E14800F0B08010F0800120D000F0F003802B74D0902B37D0A02B45D0B02B56D0C02B00F0858000F0F800DB
S32D0000E170D0280BD104F00702511C41F40022304601210523FFF752FC0028D8D0092005B0BDE8F0834FEA800267
S32D0000E19803A85FFA82F800900D220B463046FFF76BFA039B600608F104084CBFC8EB0303434403AC03930094CD
S32D0000E1C0002130460D220B46FFF77AFAB7E700F00F020D2ADAD00F2AD8D0002103AC009430460B4603ACFFF77F
S32D0000E1E84BFA0094E8E7C24302F0070C47FA0CF0210700F47F6248BF42F48042002130460B46FFF70FFC00280D
S32D0000E210BCD194E7B1285DD0B2286ED0B32800F0958000F0FC02B42A46D000F00702531C43F40022012130469F
S32D0000E2380B46FFF7F7FB0028A4D17CE72846FFF747FF210240EA0104B4F5004F9AD0230500211A0C30460B46EB
S32D0000E2602401FFF7E3FB002890D114F4004F18BF4FF0010963E7C62873D0C72800F0848000F0F802C02A00F075
S32D0000E2889280C82800F0A680C9287FF47BAF2846FFF71EFF00F00F0300F0F0015A1C42EA013268E7B9F1000F81
S32D0000E2B000F0838000206AE700F00301481C022140F480220B463046FFF7B0FB00287FF45DAF34E72846FFF7FD
S32D0000E2D8FFFE024600283FF455AF10F0F0017FF451AF30460B46FFF79DFB00287FF44AAF21E700210D220B467E
S32D0000E30003AC30460094FFF7BBF92846FFF7E4FE022402060DD5039B00F07F0000FA04FE03EB0E01284603912E
S32D0000E328FFF7D6FE07340306F1D4039B00F07F0103AA03F5017C01FA04F400920CEB0402039239E72846FFF729
S32D0000E350C3FE00F00F03591C00F0F00041EA003268E72846FFF7B8FE00F00F03591C00F0F00041EA00320321E9
S32D0000E37830460B46FFF756FB00287FF403AFDAE62846FFF7A5FE024600283FF4FBAE10F0F0037FF4F7AE304688
S32D0000E3A00421FFF743FB00287FF4F0AEC7E600F00F01481C40F42022DDE703AC49460E224B4630460094FFF773
S32D0000E3C85BF9304649460F224B460094FFF774F94846D8E62846FFF77BFE00F0F00200F00F001032431C43EA3D
S32D0000E3F00232C4E610B5C26C84B0032054688DF80C00D37924020832084601A9019402928DF80D30FFF78AFE7D
S32D0000E41804B010BD08B5FFF783FE806C08BD00BF08B5FFF77DFEC16CC87901EB800303F1080008BD08B50AF02E
S32D0000E4401DF800BF08B50AF019F800BF80B582B000AF43F20070C1F6FF704FF0050105F097F943F20070C1F64C
S32D0000E468FF704FF0060105F0EDF943F2B860C1F6FF7006F0F7FF43F2B860C1F6FF7007F0ABFC43F20070C1F62A
S32D0000E490FF7005F0A7F943F20070C1F6FF7048F23C61C0F2010105F007FB00BF43F23860C1F6FF7004F0DCFA91
S32D0000E4B8034683F00103DBB2002B1AD043F23860C1F6FF7004F0F0FA034683F00103DBB2002B0ED043F23860E0
S32D0000E4E0C1F6FF7004F008FB034683F00103DBB2002B02D04FF0010301E04FF00003002BD4D143F23860C1F6ED
S32D0000E508FF7004F0D1FA0346002B0DD000BF43F23860C1F6FF7004F0DBFA034683F00103DBB2002BF3D128E0A7
S32D0000E53043F23860C1F6FF7004F09AFA0346002B0FD000BF43F23860C1F6FF7004F0A2FA034683F00103DBB260
S32D0000E558002BF3D102F0A2F861E000BF43F23860C1F6FF7004F0D8FA034683F00103DBB2002BF3D101F0F2FC46
S32D0000E58051E001F0AFFC43F20070C1F6FF7005F029F943F24860C1F6FF70234904F0F8FB43F25460C1F6FF7059
S32D0000E5A8204904F0F1FB01F0ADFB02F045F902F0DDFB02F0E3F903467B6002F0ADFD786802F022FB02F046FDB7
S32D0000E5D002F0E8FC43F20070C1F6FF7048F2AC61C0F2010105F068FA00BF43F23860C1F6FF7004F05DFA0346E4
S32D0000E5F883F00103DBB2002BF3D100BF43F23860C1F6FF7004F064FA034683F00103DBB2002BF3D14FF4FA7015
S32D0000E62003F048FB31E730E70000F0410000E64280B483B000AF78607B6823F00043184607F10C07BD4680BC3F
S32D0000E648704700BF80B586B002AFF860B960FA71BB71FA79BB7905490091F868B96800F007F807F11007BD4602
S32D0000E67080BD00BF0000803FB0B584B000AFF860B960FA71BB71BB79002B00F0B68043F28060C1F6FF7004F0BD
S32D0000E69857F943F29C60C1F6FF7004F051F943F20070C1F6FF7048F2D061C0F2010105F0FFF943F27C60C1F6D0
S32D0000E6C0FF7003F09BFC0346002BF6D100BF43F27C60C1F6FF7003F091FC034683F00103DBB2002BF3D1F868E6
S32D0000E6E8FDF7F6FF02460B461046194672A3D3E90023FEF741F802460B4610461946FEF7D5FA034643F240607B
S32D0000E710C1F6FF70194602F0F5FFF868FEF736FE034643F24460C1F6FF70194602F0EAFF43F27C60C1F6FF702E
S32D0000E73803F060FC0346002BF6D100BF43F27C60C1F6FF7003F056FC034683F00103DBB2002BF3D143F24060DD
S32D0000E760C1F6FF7002F0B0FF43F24460C1F6FF7002F0AAFF43F20070C1F6FF7005F032F843F20070C1F6FF7075
S32D0000E78848F2F461C0F2010105F0B0F843F29C60C1F6FF7004F0C8F8024613464FEA83039B1843F20070C1F609
S32D0000E7B0FF70194605F094F943F20070C1F6FF7048F21071C0F2010105F076F943F27C60C1F6FF7003F012FC15
S32D0000E7D80346002BF6D100BF43F27C60C1F6FF7003F008FC034683F00103DBB2002BF3D10FE1F868FDF76CFF00
S32D0000E80002460B46104619462DA3D3E90023FDF7B7FF02460B4614461D46386AFDF75CFF02460B46204629468E
S32D0000E828FDF7AAFF02460B4610461946FEF73EFA034643F24060C1F6FF70194602F05EFFF868FEF79FFD03467E
S32D0000E85043F24460C1F6FF70194602F053FF43F28060C1F6FF7004F06FF843F29C60C1F6FF7004F069F89FE037
S32D0000E87843F29C60C1F6FF7004F056F8014646F26763C6F2666383FB01234FEAA3024FEAE173D21A13464FEA84
S32D0000E8A083039B184FEA4303CA1A002A0CD1FB79002B09D04FF0010308E000BFAFF300809A9999999999F13F5C
S32D0000E8C84FF00003002B39D043F29C60C1F6FF7004F02AF80346002B0CBF00230123DBB2002B2BD043F29C60D5
S32D0000E8F0C1F6FF7004F01CF803461846FEF72CFB03461846F968FEF77BFB03461C4643F29C60C1F6FF7004F0A0
S32D0000E9180BF803461846FEF71BFB034620461946FEF71EFC03461846FEF72CFD034643F24060C1F6FF70194697
S32D0000E94002F0E0FE43F20070C1F6FF7004F04AFF43F20070C1F6FF7048F22C71C0F2010104F0C8FF43F29C608F
S32D0000E968C1F6FF7003F0E0FF034643F20070C1F6FF70194605F0B0F843F20070C1F6FF7048F25071C0F20101FF
S32D0000E99004F0B0FF43F29C60C1F6FF7003F0C8FF034643F20070C1F6FF70194605F098F84FF0320003F07EF9D2
S32D0000E9B843F29C60C1F6FF7003F0B6FF03461846FEF7C6FA0546B8681449FEF715FB03464FF0010214462846B6
S32D0000E9E01946FEF7ABFC0346002B02D14FF000031C46E3B2002B7FF43FAF43F24060C1F6FF704FF0000102F0D5
S32D0000EA087DFE43F24460C1F6FF704FF0000102F075FE07F11007BD46B0BD00BF0000A040B0B586B000AFF86001
S32D0000EA30B9601346FB71944B7B61F868FDF74CFE02460B46104619468DA3D3E90023FDF797FE02460B461046AC
S32D0000EA581946FEF72BF9034643F24060C1F6FF70194602F04BFEF868FEF78CFC034643F24460C1F6FF701946B6
S32D0000EA8002F040FE43F28060C1F6FF7003F05CFF43F29C60C1F6FF7003F056FFB7E043F29C60C1F6FF7003F02F
S32D0000EAA843FF014646F26763C6F2666383FB01234FEAA3024FEAE173D21A13464FEA83039B184FEA4303CA1A0D
S32D0000EAD0002A05D1FB79002B02D04FF0010301E04FF00003002B39D043F29C60C1F6FF7003F01EFF0346002B32
S32D0000EAF80CBF00230123DBB2002B2BD043F29C60C1F6FF7003F010FF03461846FEF720FA03461846F968FEF71F
S32D0000EB206FFA03461C4643F29C60C1F6FF7003F0FFFE03461846FEF70FFA034620461946FEF712FB0346184610
S32D0000EB48FEF720FC034643F24060C1F6FF70194602F0D4FD43F20070C1F6FF7004F03EFE43F20070C1F6FF7062
S32D0000EB7048F22C71C0F2010104F0BCFE43F29C60C1F6FF7003F0D4FE034643F20070C1F6FF70194604F0A4FF18
S32D0000EB9843F20070C1F6FF7048F25071C0F2010104F0A4FE43F29C60C1F6FF7003F0BCFE034643F20070C1F696
S32D0000EBC0FF70194604F08CFF43F23C60C1F6FF7003F0CAFA03464FF00102144618467969FEF7ACFB0346002BF7
S32D0000EBE802D14FF000031C46E3B2002B07D043F23C60C1F6FF7003F0B3FA03467B614FF0320003F053F843F251
S32D0000EC109C60C1F6FF7003F08BFE03461846FEF79BF90546B8681949FEF7EAF903464FF00102144628461946B1
S32D0000EC38FEF780FB0346002B02D14FF000031C46E3B2002B7FF427AF43F24060C1F6FF704FF0000102F052FDCE
S32D0000EC6043F24460C1F6FF704FF0000102F04AFD7B69184607F11807BD46B0BDAFF300809A9999999999F13F5C
S32D0000EC88333353400000A040B0B584B000AFF860B9607A6043F28060C1F6FF7003F050FE43F29C60C1F6FF701F
S32D0000ECB003F04AFEF868FDF70FFD02460B461046194653A3D3E90023FDF75AFD02460B4610461946FDF7EEFFFE
S32D0000ECD8034643F24060C1F6FF70194602F00EFDF868FEF74FFB034643F24460C1F6FF70194602F003FDBB6813
S32D0000ED00002B08D143F26C60C1F6FF7003F076F90346002B23D1BB68012B08D143F27060C1F6FF7003F06AF947
S32D0000ED280346002B17D1BB68022B08D143F27460C1F6FF7003F05EF90346002B0BD1BB68032B2BD143F2786015
S32D0000ED50C1F6FF7003F052F90346002B22D043F29C60C1F6FF7003F0E3FD03461846FEF7F3F80546786828497E
S32D0000ED78FEF742F903464FF00102144628461946FEF7D8FA0346002B02D14FF000031C46E3B2002B02D04FF008
S32D0000EDA0010301E04FF00003002BA8D143F24060C1F6FF7002F088FC43F24460C1F6FF7002F082FC43F29C6069
S32D0000EDC8C1F6FF7003F0B0FD03461846FEF7C0F8054678680E49FEF70FF903464FF00102144628461946FEF7DD
S32D0000EDF0A5FA0346002B02D14FF000031C46E3B2184607F11007BD46B0BD00BFAFF300809A9999999999F13F51
S32D0000EE180000A040AFF30080B0B586B000AFF860B960FA71BB7102F05BFF02460B4610461946FDF783FF03461F
S32D0000EE403B6175E0FB79002B18D043F2B860C1F6FF7007F08FF803464FF001041846B968FEF76CFA0346002B60
S32D0000EE6801D14FF00004BB799C4214BF00230123FB7517E043F2B860C1F6FF7007F066F803464FF00104184621
S32D0000EE90B968FEF753FA0346002B01D14FF00004BB799C4214BF00230123FB75FB7D002B01D0624B00E0624B1E
S32D0000EEB8184662494FF000024FF00003FFF7C2FB43F20070C1F6FF7048F27471C0F2010104F00CFD43F2B86005
S32D0000EEE0C1F6FF7007F036F8034643F20070C1F6FF70194604F008FE43F20070C1F6FF7048F27C71C0F20101A6
S32D0000EF0804F0F4FC43F2B860C1F6FF7007F02EF8034643F20070C1F6FF70194604F0F0FD4FF0960002F0C2FE8C
S32D0000EF30FB79002B1FD043F2B860C1F6FF7007F019F80346B8681946FDF750FF03461846FFF76EFB03464FF011
S32D0000EF580102144618463A49FEF70AFA0346002B02D14FF000031C46E3B2002B4AD1FB7983F00103DBB2002BEB
S32D0000EF8047D043F2B860C1F6FF7006F0E3FF0346B8681946FDF72AFF03461846FFF748FB03464FF00102144657
S32D0000EFA818462749FEF7E4F90346002B02D14FF000031C46E3B2002B27D002F091FE04460D463869FDF784FBC7
S32D0000EFD002460B4620462946FDF71EFA02460B464FF001010C46104619464FF000024FF0804303F5A013FDF7D6
S32D0000EFF835FE0346002B02D14FF000031C46E3B2002B02D04FF0010301E04FF00003002B7FF414AF43F240609F
S32D0000F020C1F6FF7002F050FB43F24460C1F6FF7002F04AFB07F11807BD46B0BD0000DC420000DCC20000803E28
S32D0000F0480000003FF0B587B000AFF860B960FA71BB7102F045FE02460B4610461946FDF76DFE03467B6145E09C
S32D0000F070F868FEF78BF9034643F24060C1F6FF70194602F03FFBF868FEF780F9034643F24460C1F6FF70194655
S32D0000F09802F034FB43F20070C1F6FF7048F27471C0F2010104F022FC43F2B860C1F6FF7006F04CFF034643F247
S32D0000F0C00070C1F6FF70194604F01EFD43F20070C1F6FF7048F27C71C0F2010104F00AFC43F2B860C1F6FF700B
S32D0000F0E806F044FF034643F20070C1F6FF70194604F006FDFB79002B36D0BB79002B16D043F2B860C1F6FF70FA
S32D0000F11006F030FF03464FF0010214461846B968FEF70CF90346002B02D14FF000031C46E3B2002B7FD1BB791F
S32D0000F13883F00103DBB2002B16D043F2B860C1F6FF7006F013FF03464FF0010214461846B968FEF70DF9034671
S32D0000F160002B02D14FF000031C46E3B2002B62D1FB7983F00103DBB2002B5FD0BB79002B16D043F2B860C1F6D1
S32D0000F188FF7006F0E3FE03464FF0010214461846B968FEF7CFF80346002B02D14FF000031C46E3B2002B1CD15B
S32D0000F1B0BB7983F00103DBB2002B3FD043F2B860C1F6FF7006F0C6FE03464FF0010214461846B968FEF7D0F871
S32D0000F1D80346002B02D14FF000031C46E3B2002B28D002F07DFD04460D467869FDF770FA02460B4620462946B0
S32D0000F200FDF70AF902460B4614461D46386BFDF763FA02460B464FF001010E4620462946FDF720FD0346002B17
S32D0000F22802D14FF000031E46F3B2002B02D04FF0010301E04FF00003002B7FF415AF43F24060C1F6FF7002F0E8
S32D0000F2503BFA43F24460C1F6FF7002F035FA02F043FD04460D467869FDF736FA02460B4620462946FDF7D0F83D
S32D0000F27802460B4614461D46386BFDF729FA02460B464FF001010E4620462946FDF7E6FC0346002B02D14FF0F9
S32D0000F2A000031E46F3B2184607F11C07BD46F0BDF0B585B000AFB9607A600246FA73BB73FB7B83F00103DBB232
S32D0000F2C8002B28D0B868FEF75DF8034643F24460C1F6FF70194602F011FABB6883F000431846FDF7F5F9024686
S32D0000F2F00B461046194668A3D3E90023FDF740FA02460B4610461946FDF7D4FC034643F24060C1F6FF7019461D
S32D0000F31802F0F4F927E0BB6883F000431846FEF731F8034643F24460C1F6FF70194602F0E5F9B868FDF7CCF93C
S32D0000F34002460B461046194653A3D3E90023FDF717FA02460B4610461946FDF7ABFC034643F24060C1F6FF704A
S32D0000F368194602F0CBF943F28060C1F6FF7003F0E7FA43F29C60C1F6FF7003F0E1FA39E043F20070C1F6FF704A
S32D0000F39004F028FA43F20070C1F6FF7048F22C71C0F2010104F0A6FA43F29C60C1F6FF7003F0BEFA034643F2CF
S32D0000F3B80070C1F6FF70194604F08EFB43F20070C1F6FF7048F25071C0F2010104F08EFA43F29C60C1F6FF7068
S32D0000F3E003F0A6FA034643F20070C1F6FF70194604F076FB4FF0320002F05CFC43F29C60C1F6FF7003F094FA01
S32D0000F40803461846FDF752F904460D467868FDF79FFD0246FB7B002B05D040F20443C1F6FF731B6804E040F2EA
S32D0000F4300043C1F6FF731B6810461946FDF7E0FD03461846FDF748F902460B464FF001010E4620462946FDF766
S32D0000F45805FC0346002B02D14FF000031E46F3B2002B8DD143F24060C1F6FF704FF0000102F044F943F2446027
S32D0000F480C1F6FF704FF0000102F03CF907F11407BD46F0BDAFF300809A9999999999F13FB0B586B000AFF86083
S32D0000F4A8B9607A60FB70F868FDF752FD054643F2B860C1F6FF7006F069FD03464FF00102144628461946FDF775
S32D0000F4D035FF0346002B02D14FF000031C46E3B2002B14D0FB6803F1B4031846FDF734FD044643F2B860C1F66C
S32D0000F4F8FF7006F04BFD034620461946FDF772FC03467B6110E0F868FDF722FD044643F2B860C1F6FF7006F08E
S32D0000F52039FD034620461946FDF760FC03467B61F868FDF711FD054643F2B860C1F6FF7006F028FD03464FF041
S32D0000F5480102144628461946FDF712FF0346002B02D14FF000031C46E3B2002B17D043F2B860C1F6FF7006F06B
S32D0000F57011FD034618463949FDF73AFC03461C46F868FDF7E9FC034620461946FDF72EFC03463B6110E043F2F2
S32D0000F598B860C1F6FF7006F0F9FC0446F868FDF7D7FC034620461946FDF71CFC03463B617B68012B33D0022B6D
S32D0000F5C03CD0002B45D14FF001031C4678693969FDF7B4FE0346002B02D14FF000031C46E3B2002B0FD0786997
S32D0000F5E8B96AFDF709FD03461846FDF7CBFE0246FB784FF00000B968FFF756FE25E03869B96AFDF7F9FC034614
S32D0000F6101846FDF7BBFE0246FB784FF00100B968FFF746FE15E07869FDF7B0FE0246FB784FF00000B968FFF7E2
S32D0000F6383BFE0AE03869FDF7A5FE0246FB784FF00100B968FFF730FE00BF07F11807BD46B0BD00BF000034438D
S32D0000F66080B582B000AF7860396078683968034A00F006F807F10807BD4680BD0000404080B584B000AFF86002
S32D0000F688B9607A60F868B968034A044B00F008F807F11007BD4680BD000040400000803EF0B589B002AFF860E0
S32D0000F6B0B9607A603B6002F017FB02460B4610461946FDF7F7FA03467B610DE03B680093F868B9684FF000025D
S32D0000F6D84FF00003FFF7E0FE4FF0960002F0E6FAF868FDF735FC044643F2B860C1F6FF7006F04CFC0346204618
S32D0000F7001946FDF773FB03461846FEF791FF03464FF00102144618461E49FDF72DFE0346002B02D14FF000039C
S32D0000F7281C46E3B2002B28D002F0DAFA04460D467869FCF7BBFF02460B4620462946FCF767FE02460B461446EF
S32D0000F7501D467868FCF7C0FF02460B464FF001010E4620462946FDF77DFA0346002B02D14FF000031E46F3B296
S32D0000F778002B02D04FF0010301E04FF00003002BA0D107F11C07BD46F0BD00BF0000A040B0B584B000AFF8605A
S32D0000F7A00B467A60FB7243F29C60C1F6FF7003F0CBF843F28060C1F6FF7003F0C5F8FB7A83F00103DBB2002B07
S32D0000F7C828D0F868FDF7DEFD034643F24460C1F6FF70194601F092FFFB6883F000431846FCF776FF02460B464B
S32D0000F7F01046194670A3D3E90023FCF7C1FF02460B4610461946FDF755FA034643F24060C1F6FF70194601F06C
S32D0000F81875FF62E0FB6883F000431846FDF7B2FD034643F24460C1F6FF70194601F066FFF868FCF74DFF02460E
S32D0000F8400B46104619465CA3D3E90023FCF798FF02460B4610461946FDF72CFA034643F24060C1F6FF70194621
S32D0000F86801F04CFF39E043F20070C1F6FF7003F0B5FF43F20070C1F6FF7048F22C71C0F2010104F033F843F201
S32D0000F8909C60C1F6FF7003F04BF8034643F20070C1F6FF70194604F01BF943F20070C1F6FF7048F25071C0F2FF
S32D0000F8B8010104F01BF843F29C60C1F6FF7003F033F8034643F20070C1F6FF70194604F003F94FF0320002F0DE
S32D0000F8E0E9F943F2B860C1F6FF7006F0E1FA034683F00103DBB2002B55D0FB7A002B24D043F29C60C1F6FF704C
S32D0000F90803F012F803461846FDF722FB054640F20043C1F6FF731B6818467968FDF76CFB03464FF00102144631
S32D0000F93028461946FDF702FD0346002B02D14FF000031C46E3B2002B2AD1FB7A83F00103DBB2002B27D043F273
S32D0000F9589C60C1F6FF7002F0E7FF03461846FDF7F7FA054640F20443C1F6FF731B6818467968FDF741FB0346D3
S32D0000F9804FF00102144628461946FDF7D7FC0346002B02D14FF000031C46E3B2002B02D04FF0010301E04FF049
S32D0000F9A80003002B7FF45FAF07F11007BD46B0BD9A9999999999F13FB0B584B000AF7860396043F28060C1F6B7
S32D0000F9D0FF7002F0B9FF43F29C60C1F6FF7002F0B3FF7868FCF778FE02460B461046194661A3D3E90023FCF788
S32D0000F9F8C3FE02460B4610461946FDF757F9034643F24060C1F6FF70194601F077FE7868FDF7B8FC034643F27F
S32D0000FA204460C1F6FF70194601F06CFE43F2B860C1F6FF7006F028FA0346FB6039E043F20070C1F6FF7003F02E
S32D0000FA48CDFE43F20070C1F6FF7048F22C71C0F2010103F04BFF43F28060C1F6FF7002F063FF034643F20070B5
S32D0000FA70C1F6FF70194604F033F843F20070C1F6FF7048F25071C0F2010103F033FF43F29C60C1F6FF7002F0DC
S32D0000FA984BFF034643F20070C1F6FF70194604F01BF84FF0320002F001F943F2B860C1F6FF7006F0E5F9024690
S32D0000FAC0FB689A4222D143F29C60C1F6FF7002F02FFF03461846FDF73FFA054638682849FDF78EFA03464FF03B
S32D0000FAE80102144628461946FDF724FC0346002B02D14FF000031C46E3B2002B02D04FF0010301E04FF00003CF
S32D0000FB10002B94D143F24060C1F6FF7001F0D4FD43F24460C1F6FF7001F0CEFD43F29C60C1F6FF7002F0FCFE7C
S32D0000FB3803461846FDF70CFA054638680E49FDF75BFA03464FF00102144628461946FDF7F1FB0346002B02D19A
S32D0000FB604FF000031C46E3B2184607F11007BD46B0BD00BFAFF300809A9999999999F13F0000A040AFF30080B7
S32D0000FB8880B582B000AF786039607B68012B40F0AA803A684FF6FF739A4240F0A48043F23860C1F6FF704FF0A4
S32D0000FBB0030102F0D7FE43F23C60C1F6FF704FF0080102F0BFFA43F24060C1F6FF704FF0000101F065FD43F2AF
S32D0000FBD84460C1F6FF704FF0010101F05DFD43F24860C1F6FF704FF0000103F0AFF843F25460C1F6FF704FF07E
S32D0000FC00040103F0A7F843F26060C1F6FF704FF0040102F097FA43F26460C1F6FF704FF00C0102F08FFA43F242
S32D0000FC286860C1F6FF704FF0140102F087FA43F26C60C1F6FF704FF0100102F0ABF843F27060C1F6FF704FF083
S32D0000FC500F0102F0A3F843F27460C1F6FF704FF0070102F09BF843F27860C1F6FF704FF0110102F093F843F2B8
S32D0000FC787C60C1F6FF704FF0170102F08BF843F28060C1F6FF704FF0000102F0A7FC42F27973C0F2010343F275
S32D0000FCA08060C1F6FF70194643F28C72C1F6FF7207F026FB43F29C60C1F6FF704FF0010102F090FC42F2797328
S32D0000FCC8C0F2010343F29C60C1F6FF70194643F28C72C1F6FF7207F00FFB43F2B860C1F6FF7005F07BFB07F170
S32D0000FCF00807BD4680BD00BF80B500AF4FF001004FF6FF71FFF740FF80BD00BF90B585B002AF43F24860C1F60F
S32D0000FD18FF70674903F038F8664867494FF000024FF00003FEF78EFC644B00934FF0000063494FF001024FF06D
S32D0000FD400003FFF7ADFB5D4860494FF000024FF00003FEF77BFC5B4B00934FF05A005A494FF001024FF00003BE
S32D0000FD68FFF79AFB4FF0640001F0A0FF4FF05A005349FFF771FC4F4853494FF000024FF00003FEF75FFC4FF0D2
S32D0000FD9000037B605EE043F2B860C1F6FF7006F073F803463B6043F2B860C1F6FF7006F06BF8044643F2B8600E
S32D0000FDB8C1F6FF7006F052F8034603F1FF339C4214BF00230123DBB2002B04D03C483A49FFF7F2FD03E0374876
S32D0000FDE03749FFF7EDFD4FF0320001F063FF43F2B860C1F6FF7006F047F802463B689A4214BF00230123DBB2BB
S32D0000FE08002B17D0314832494FF000024FF00003FEF718FC4FF0640001F048FF2D4B00934FF05A0026494FF00D
S32D0000FE3000024FF00003FFF733FB07E0254821494FF000024FF00003FEF700FC7B6803F101037B6043F2B86007
S32D0000FE58C1F6FF7006F014F8044643F2B860C1F6FF7005F0FBFF03469C4205DA7B68062B02DC4FF0010301E08C
S32D0000FE804FF00003002B86D1124815494FF000024FF00003FEF7DAFB0A4B00934FF0000009494FF002024FF090
S32D0000FEA80003FFF7F9FA07F10C07BD4690BD00BF000034420000DC420000A0400000803F0000C84200000041A8
S32D0000FED0000040400000DCC20000A03F0000003F0000804098B500AF21E043F20070C1F6FF7003F077FC43F2A5
S32D0000FEF80070C1F6FF7048F62C01C0F2010103F0F5FC43F23C60C1F6FF7002F029F9034643F20070C1F6FF7024
S32D0000FF20194603F0F1FD4FF0C80001F0C3FE43F23C60C1F6FF7002F017F903464FF00102144618460649FDF73B
S32D0000FF4817FA0346002B02D14FF000031C46E3B2002BC6D198BD00BF0000E03F80B500AF43F20070C1F6FF7056
S32D0000FF7048F6E411C0F2010103F09EFD00BF43F23860C1F6FF7002F073FD034683F00103DBB2002B1AD043F243
S32D0000FF983860C1F6FF7002F0ABFD034683F00103DBB2002B0ED043F23860C1F6FF7002F07BFD034683F0010370
S32D0000FFC0DBB2002B02D04FF0010301E04FF00003002BD4D143F23860C1F6FF7002F048FD0346002B00F01B8129
S32D0000FFE800BF43F23860C1F6FF7002F04FFD034683F00103DBB2002BF3D143F20070C1F6FF7003F0EBFB43F2E6
S32D000100100070C1F6FF7048F66821C0F2010103F04BFD43F20070C1F6FF7048F69021C0F2010103F041FD00BF17
S32D0001003843F23860C1F6FF7002F036FD034683F00103DBB2002BF3D100BF43F23860C1F6FF7002F03DFD03461E
S32D0001006083F00103DBB2002BF3D143F24060C1F6FF706FF0630101F045FB43F24460C1F6FF704FF0640101F0FB
S32D000100883DFB43F28060C1F6FF7002F059FC43F29C60C1F6FF7002F053FC43F27C60C1F6FF7001F0A7FF0346E0
S32D000100B0002BF6D143F20070C1F6FF7003F092FB43F24060C1F6FF7001F0FEFA43F24460C1F6FF7001F0F8FA1E
S32D000100D843F20070C1F6FF7048F6B421C0F2010103F004FC43F28060C1F6FF7002F01CFC034643F20070C1F68A
S32D00010100FF70194603F0ECFC43F20070C1F6FF7048F6D021C0F2010103F0ECFB43F29C60C1F6FF7002F004FC56
S32D00010128034643F20070C1F6FF70194603F0D4FC43F20070C1F6FF7048F6F021C0F2010103F0D4FB43F28060CD
S32D00010150C1F6FF7002F0ECFB03461846FCF7AAFA02460B46104619464FF000024FF08243A3F5D303FCF72EFC25
S32D0001017802460B4643F20070C1F6FF7003F0D4FC43F20070C1F6FF7048F61031C0F2010103F0ACFB43F29C6068
S32D000101A0C1F6FF7002F0C4FB03461846FCF782FA02460B46104619464FF000024FF08243A3F5D303FCF706FC4D
S32D000101C802460B4643F20070C1F6FF7003F0ACFC43F28060C1F6FF7002F0A6FB03461846FCF764FA02460B46AA
S32D000101F0104619464FF000024FF08243A3F5D303FCF7E8FB02460B4610461946FCF79AFD024640F20043C1F656
S32D00010218FF731A601CE243F23860C1F6FF7002F067FC0346002B00F01B8100BF43F23860C1F6FF7002F070FC75
S32D00010240034683F00103DBB2002BF3D143F20070C1F6FF7003F0C6FA43F20070C1F6FF7048F66821C0F201018F
S32D0001026803F026FC43F20070C1F6FF7048F69021C0F2010103F01CFC00BF43F23860C1F6FF7002F011FC0346DF
S32D0001029083F00103DBB2002BF3D100BF43F23860C1F6FF7002F018FC034683F00103DBB2002BF3D143F2406083
S32D000102B8C1F6FF704FF0640101F020FA43F24460C1F6FF706FF0630101F018FA43F28060C1F6FF7002F034FB21
S32D000102E043F29C60C1F6FF7002F02EFB43F27C60C1F6FF7001F082FE0346002BF6D143F20070C1F6FF7003F0DC
S32D000103086DFA43F24060C1F6FF7001F0D9F943F24460C1F6FF7001F0D3F943F20070C1F6FF7048F6B421C0F255
S32D00010330010103F0DFFA43F28060C1F6FF7002F0F7FA034643F20070C1F6FF70194603F0C7FB43F20070C1F62E
S32D00010358FF7048F6D021C0F2010103F0C7FA43F29C60C1F6FF7002F0DFFA034643F20070C1F6FF70194603F0E8
S32D00010380AFFB43F20070C1F6FF7048F6F021C0F2010103F0AFFA43F28060C1F6FF7002F0C7FA03461846FCF7B2
S32D000103A885F902460B46104619464FF000024FF08243A3F5D303FCF709FB02460B4643F20070C1F6FF7003F059
S32D000103D0AFFB43F20070C1F6FF7048F61031C0F2010103F087FA43F29C60C1F6FF7002F09FFA03461846FCF766
S32D000103F85DF902460B46104619464FF000024FF08243A3F5D303FCF7E1FA02460B4643F20070C1F6FF7003F05A
S32D0001042087FB43F28060C1F6FF7002F081FA03461846FCF73FF902460B46104619464FF000024FF08243A3F586
S32D00010448D303FCF7C3FA02460B4610461946FCF775FC024640F20443C1F6FF731A60F7E000BF43F23860C1F6CF
S32D00010470FF7002F031FB034683F00103DBB2002BF3D143F20070C1F6FF7003F0ABF943F20070C1F6FF7048F629
S32D000104983431C0F2010103F00BFB43F20070C1F6FF7048F69021C0F2010103F001FB00BF43F23860C1F6FF7014
S32D000104C002F0F6FA034683F00103DBB2002BF3D100BF43F23860C1F6FF7002F0FDFA034683F00103DBB2002BDC
S32D000104E8F3D143F24060C1F6FF704FF0640101F005F943F24460C1F6FF704FF0640101F0FDF843F28060C1F63E
S32D00010510FF7002F019FA43F29C60C1F6FF7002F013FA43F27C60C1F6FF7001F067FD0346002BF6D143F2007086
S32D00010538C1F6FF7003F052F943F24060C1F6FF7001F0BEF843F24460C1F6FF7001F0B8F843F20070C1F6FF7023
S32D0001056048F6B421C0F2010103F0C4F943F28060C1F6FF7002F0DCF9034643F20070C1F6FF70194603F0ACFAE7
S32D0001058843F20070C1F6FF7048F6D021C0F2010103F0ACF943F29C60C1F6FF7002F0C4F9034643F20070C1F653
S32D000105B0FF70194603F094FA43F20070C1F6FF7048F65431C0F2010103F094F943F28060C1F6FF7002F0ACF939
S32D000105D803461846FCF76AF802460B46104619464FF000024FF0804303F58403FCF7EEF902460B4643F20070D0
S32D00010600C1F6FF7003F094FA43F20070C1F6FF7048F61031C0F2010103F06CF943F29C60C1F6FF7002F084F908
S32D0001062803461846FCF742F802460B46104619464FF000024FF0804303F58403FCF7C6F902460B4643F20070CF
S32D00010650C1F6FF7003F06CFA43F20070C1F6FF7048F67431C0F2010103F026FA00BF43F23860C1F6FF7002F0E3
S32D000106781BFA034683F00103DBB2002BF3D100BF43F23860C1F6FF7002F022FA034683F00103DBB2002BF3D106
S32D000106A080BD00BF80B500AF2BE043F20070C1F6FF7003F097F843F20070C1F6FF7048F69C31C0F2010103F076
S32D000106C8F7F943F20070C1F6FF7048F6C411C0F2010103F00BF943F2B860C1F6FF7005F035FC034643F2007003
S32D000106F0C1F6FF70194603F007FA4FF0140001F0D9FA43F23860C1F6FF7002F0D1F9034683F00103DBB2002B24
S32D00010718C7D100BF43F23860C1F6FF7002F0D8F9034683F00103DBB2002BF3D143F2B860C1F6FF7005F00AFCFB
S32D00010740024640F20843C1F6FF731A602BE043F20070C1F6FF7003F045F843F20070C1F6FF7048F6D431C0F25C
S32D00010768010103F0A5F943F20070C1F6FF7048F6C411C0F2010103F0B9F843F2B860C1F6FF7005F0E3FB03460A
S32D0001079043F20070C1F6FF70194603F0B5F94FF0140001F087FA43F23860C1F6FF7002F07FF9034683F001038D
S32D000107B8DBB2002BC7D100BF43F23860C1F6FF7002F086F9034683F00103DBB2002BF3D143F2B860C1F6FF70F0
S32D000107E005F0B8FB024640F20C43C1F6FF731A6080BD00BF80B500AF43F25460C1F6FF700B4902F0C5FA4FF0A3
S32D00010808C80001F053FA094809494FF000024FF00003FDF717FF43F25460C1F6FF70054902F0B2FA80BD00BF94
S32D000108300000F0410000DC42000000400000E64280B582B002AF43F24860C1F6FF70414902F09EFA40484FF0EC
S32D0001085801013E4AFEF718FA3E4B00934FF05A003D494FF002024FF00003FEF715FE4FF0FA0001F01BFA4FF09A
S32D000108805A003749FEF7ECFE364837494FF000024FF00003FDF7DAFE344835494FF000024FF00103FEF7BCFA1A
S32D000108A82C4B00934FF000002B494FF001024FF00003FEF7F1FD4FF0FA0001F0F7F94FF000002549FEF7C8FE7B
S32D000108D024484FF00001274AFEF7DAF91E4826494FF000024FF00003FDF7B0FE4FF0320001F0E0F91B48214912
S32D000108F84FF000024FF00003FDF7A4FE154B00934FF0870014494FF002024FF00003FEF7C3FD43F24860C1F6D4
S32D00010920FF70174902F034FA0D484FF000010C4AFEF732FF4FF000000949084AFEF7A0FE43F24860C1F6FF702F
S32D00010948024902F021FABD4680BD00BF0000F0410000DCC20000803F0000C8420000DC42000000410000B4423C
S32D000109700000B0C000004041000040400000A03F00008C4280B584B002AF904B00934FF000008F494FF0010259
S32D000109984FF00003FEF780FD4FF0FA0001F086F94FF000008949FEF757FE89484FF00101884AFEF769F90346F4
S32D000109C083F00103DBB2002B04D04FF000008049FEF746FE43F24860C1F6FF70804902F0D7F9804B00937A4816
S32D000109E87F494FF000024FF00003FDF741FE4FF0FA0001F05BF94FF000007449FEF72CFE764B009370487749FD
S32D00010A104FF000024FF00003FDF72EFE4FF0FA0001F048F94FF0AF006949FEF719FE43F24860C1F6FF70694948
S32D00010A3802F0AAF966486C494FF000024FF00003FDF700FE4FF0320001F030F9674868494FF000024FF00003B4
S32D00010A60FDF7F4FD5C484FF00101644AFEF710F94FF0FA0001F01EF95E485D494FF000024FF00003FDF7E2FD0E
S32D00010A8853484FF001015B4AFEF7FEF857484D494FF000024FF00003FDF7D4FD494B00934FF05A0048494FF0C6
S32D00010AB001024FF00103FEF7F3FC4FF0FA0001F0F9F84FF05A004249474A4D4BFEF7ECFD40F20C43C1F6FF73FD
S32D00010AD81B68464819464FF000024FF00003FEF79BF9384B00934FF0000037494FF002024FF00103FEF7D0FC57
S32D00010B004FF0000032494FF00A024FF00103FEF7CFFB4FF0FA0001F0CDF84FF000002C49FEF79EFD4FF000034A
S32D00010B287B6014E02A4835494FF000024FF00003FDF788FD4FF0FA0001F0B8F84FF000002149FEF789FD7B6802
S32D00010B5003F101037B607B68012BCCBF00230123DBB2002BE2D11C481C494FF00002FDF75BFF03461846FCF765
S32D00010B7809FC03463B6016484FF001011D4AFEF783F808E04FF0C80001F090F84FF000000D49FEF761FD0B4B49
S32D00010BA00093194819494FF001024FF00003FEF74DFA034683F00103DBB2002BE6D13B68184607F10807BD46D6
S32D00010BC880BD00BF0000803F0000C8420000B4420000DCC2000020410000FA423333933F00008040000080414F
S32D00010BF0000000400000DC420000A0400000F0410000003E0000E0400000C8C20000704180B586B002AF7860DA
S32D00010C1849484FF00101494AFEF736F843F24860C1F6FF70454902F0AFF8454B00934FF05A0044494FF002026F
S32D00010C404FF00003FEF72CFC4FF05A003F49FEF707FD3B484FF001013D4AFEF719F84FF057003A49FEF7FCFCB5
S32D00010C687B68022B01D1394B00E0394BBB604FF00003FB601CE0B8683649FCF771FA0346354A009235481946AC
S32D00010C904FF000024FF00003FDF7EEFC4FF0640001F008F84FF05A0028492F4AFEF7E8FCFB6803F10103FB602E
S32D00010CB8FB68022BCCBF00230123DBB2002BDAD1FFF794FD4FF05A001E49FEF7C5FC40F20C43C1F6FF731B68DE
S32D00010CE018462249FCF782F803461E4819464FF000024FF00103FEF793F843F25460C1F6FF70104902F044F807
S32D00010D080F4B00934FF000000E494FF001024FF00003FEF7C1FB4FF000000A49FEF79CFC43F25460C1F6FF70D6
S32D00010D300F4902F02DF807F11007BD4680BD00BF0000DCC20000F0410000803F0000C8420000A04100008040DE
S32D00010D5800009041000040409A99993F0000B442000000400000C0400000E642B0B584B002AF7F487F494FF09A
S32D00010D8000024FF00003FDF761FC7D4B00934FF05A007C494FF002024FF00003FEF780FB4FF05A007749FEF7B3
S32D00010DA85BFC774873494FF000024FF00003FDF749FC40F20843C1F6FF731B68714819464FF000024FF00103C9
S32D00010DD0FEF726F84FF0C80000F06CFF4FF05A006849FEF73DFC644869494FF000024FF00003FDF72BFC43F2D6
S32D00010DF84860C1F6FF70654901F0C6FF00F070FF02460B4610461946FBF798FF03467B6000BF00F065FF0446E3
S32D00010E200D467868FBF758FC02460B4620462946FBF7F2FA02460B464FF001010C46104619464FF000024FF07D
S32D00010E487E5303F5C003FBF709FF0346002B02D14FF000031C46E3B2002BDAD148484C494FF000024FF00003F7
S32D00010E70FDF7ECFB43F24860C1F6FF70474901F087FF00F031FF02460B4610461946FBF759FF03467B6000BFD3
S32D00010E9800F026FF04460D467868FBF719FC02460B4620462946FBF7B3FA02460B464FF001010C4610461946A4
S32D00010EC04FF000024FF07E5303F5C003FBF7CAFE0346002B02D14FF000031C46E3B2002BDAD143F24860C1F653
S32D00010EE8FF702C4901F050FF00F0FAFE02460B4610461946FBF722FF03467B6000BF00F0EFFE04460D46786831
S32D00010F10FBF7E2FB02460B4620462946FBF77CFA02460B464FF001010C46104619464FF000024FF07E5303F5E3
S32D00010F38C003FBF793FE0346002B02D14FF000031C46E3B2002BDAD1134811494FF000024FF00003FDF776FB51
S32D00010F6008480B494FF000024FF00003FDF76EFB07F10807BD46B0BD0000DCC20000A0400000803F0000C84220
S32D00010F880000DC420000B442000080400000AA42000040400000F0410000C8C280B582B002AF4FF05A00254920
S32D00010FB0FEF756FB2AE024484FF00101234AFDF767FE0346002B1BD0214B00934FF000001C494FF001024FF0CC
S32D00010FD80003FEF761FA1D484FF00101194AFDF753FE194B00934FF05A0014494FF002024FF00003FEF750FA98
S32D000110004FF05A000F49144AFEF73AFB43F23860C1F6FF7001F04CFD034683F00103DBB2002BC8D100BF43F216
S32D000110283860C1F6FF7001F053FD034683F00103DBB2002BF3D1BD4680BD00BF0000C8420000FEC20000204134
S32D000110500000803F0000DCC20000004080B584B002AF43F24860C1F6FF70254901F090FE4FF000037B6015E0B8
S32D00011078224823494FF000024FF00003FDF7E2FA4FF0640000F012FE4FF000001B491D4AFEF7F2FA7B6803F1BB
S32D000110A001037B607B68012BCCBF00230123DBB2002BE1D1164B0093164817494FF001024FF00103FDF7C2FF0B
S32D000110C843F24860C1F6FF700F4901F05DFE114B00934FF05A000D494FF002024FF00003FEF7DAF94FF05A008E
S32D000110F00849FEF7B5FA07F10807BD4680BD00BF0000FA420000DC420000A040000040400000F0410000C842E1
S32D0001111800000C420000803F80B582B002AF424B00934FF05A0041494FF002024FF00103FEF7B2F94FF0FA00E1
S32D0001114000F0B8FD4FF05A003A49FEF789FA3A484FF00101394AFDF79BFD394839494FF000024FF00103FDF7FA
S32D000111685BFE314B00934FF0000030494FF001024FF00103FEF790F94FF001002B494FF00A024FF00103FEF7FE
S32D000111908FF84FF0FA0000F08DFD254B00934FF0000024494FF000024FF00103FEF778F94FF000002249FEF7BE
S32D000111B853FA1F484FF001011E4AFDF765FD43F24860C1F6FF701E4901F0DEFD1D4B0093194818494FF0000221
S32D000111E04FF00003FDF748FA134819494FF000024FF00003FDF72AFA43F24860C1F6FF70144901F0C5FD1448A1
S32D0001120814494FF000024FF00003FDF71BFA4FF0320000F04BFD4FF0000004490E4AFEF72BFABD4680BD00BF28
S32D000112300000803F0000C8420000DCC20000A0410000B4429A9959C10000FA42CDCC8C3F000050410000E642AB
S32D000112580000DC420000A0400000204080B500AF44F2E022C1F6FF7243F23863C1F6FF73D31A194643F23863B0
S32D00011280C1F6FF731A460B4610464FF000011A4604F0ADFF80BD00BF06F038F800F0B0F9FFF7E0FF05F0E8FF63
S32D000112A805F084FF06F03EF800F00CF84FF0000043F2C061C1F6FF71FDF7C4F80346184604F06CFF80B500AF29
S32D000112D04FF4E043C4F204034FF4E042C4F2040202F5805202F13802126842F4785203F5805303F138031A60C7
S32D000112F800F02EF900F094F843F2CC63C1F6FF734FF058021A6043F2CC63C1F6FF731B684FF47A7202FB03F263
S32D0001132043F2C863C1F6FF731A6043F2C863C1F6FF731B681A464FF4E043C4F2040303F5825303F104031B68C1
S32D0001134803F070634FEA136303F10103B2FBF3F31A4643F2D063C1F6FF731A604FF4E043C4F204034FF4E04283
S32D00011370C4F2040202F5805202F13C02126842F0225203F5805303F13C031A604FF4E043C4F204034FF4E04278
S32D00011398C4F2040202F5805202F13002126842F0006203F5805303F130031A604FF45043C4F203034FF480723B
S32D000113C01A614FF0640000F009FB4FF45043C4F203034FF45042C4F20302526922F010025A614FF45043C4F2A4
S32D000113E803034FF000021A604FF45043C4F203034FF010025A6101F005F801F0ADF843F2C460C1F6FF7000F084
S32D0001141069FB43F20070C1F6FF7002F0A1F841F2883000F047FC80BD80B400AF4FF48043C4F206034FF00002AF
S32D000114385A704FF48043C4F206034FF098021A704FF48043C4F206039B79DBB203F01003002B0CBF00230123EA
S32D00011460DBB2002BF0D14FF48043C4F206039B79DBB203F00C034FEA9303022B0CBF00230123DBB2002BEED1F7
S32D000114884FF48043C4F206034FF018021A714FF48043C4F206034FF000025A714FF4E043C4F2040303F58253CB
S32D000114B003F104034FF00002C0F213121A604FF48043C4F206034FF054025A7100BF4FF48043C4F206039B79C3
S32D000114D8DBB203F02003002B14BF00230123DBB2002BF0D100BF4FF48043C4F206039B79DBB203F04003002BFE
S32D0001150014BF00230123DBB2002BF0D14FF48043C4F206034FF48042C4F206021278D2B202F03F02D2B21A7052
S32D000115284FF48043C4F206039B79DBB203F00C034FEA9303032B0CBF00230123DBB2002BEED14FF00003184606
S32D00011550BD4680BC704700BF80B400AF4FF44043C4F204034FF480725A634FF2C003C4F20F034FF2C002C4F2DA
S32D000115780F02526942F400525A614FF2C003C4F20F034FF2C002C4F20F02126842F400521A604FF44043C4F2A7
S32D000115A0040340F20312C0F20A021A634FF46143CEF200034FF46142CEF20002D2F8882142F08062C3F8882156
S32D000115C84FF46143CEF200034FF46142CEF20002926842F080629A60BD4680BC704700BF80B483B000AF7860F7
S32D000115F0FEE700BF80B400AF00BEBD4680BC704780B400AF4FF0E0224CF20003C0F20003C2F8083D4FF40053E2
S32D00011618C4F205034CF22052DA814FF40053C4F205034DF62812DA814FF40053C4F205034FF0D2021A80BD46AA
S32D0001164080BC704780B400AF4FF44043C4F20403D3F8A03003F48053002B0CBF00230123DBB2002B19D04FF49C
S32D000116684043C4F204034FF44042C4F20402D2F8A02022F48052C3F8A0204FF2C003C4F20F034FF2C002C4F220
S32D000116900F02126822F400521A60BD4680BC704780B483B000AF78600B46FB707B68FA781A707B684FF000021B
S32D000116B85A707B68184607F10C07BD4680BC704780B582B000AF78607B685B78002B10D07B684FF000025A705A
S32D000116E07B681B7843F2C460C1F6FF7019464FF000024FF01E0300F03FFA07F10807BD4680BD00BF80B584B04E
S32D0001170800AF786039603B687F2B03DD4FF07F03FB7309E03B6813F1800F03DA4FF08003FB7301E03B68FB7318
S32D000117307B685B78FA7B9A420FD07B68FA7B5A707B681A78FB7B43F2C460C1F6FF7011461A464FF01E0300F011
S32D000117580FFA07F11007BD4680BD00BF90B486B000AFF860B9607A60FA684FF42043C4F206039A4214D14FF40C
S32D00011780E043C4F204034FF4E042C4F2040202F5805202F13402126842F4806203F5805303F134031A6083E0E2
S32D000117A8FA684FF43043C4F206039A4214D14FF4E043C4F204034FF4E042C4F2040202F5805202F134021268CA
S32D000117D042F4006203F5805303F134031A6067E0FA684FF44043C4F206039A4214D14FF4E043C4F204034FF48D
S32D000117F8E042C4F2040202F5805202F13402126842F4805203F5805303F134031A604BE0FA684FF45043C4F2E7
S32D0001182006039A4214D14FF4E043C4F204034FF4E042C4F2040202F5805202F13402126842F4005203F58053CC
S32D0001184803F134031A602FE0FA684FF42043C4F20E039A4214D14FF4E043C4F204034FF4E042C4F2040202F5F2
S32D00011870805202F12802126842F4806203F5805303F128031A6013E04FF4E043C4F204034FF4E042C4F204022D
S32D0001189802F5805202F12802126842F4006203F5805303F128031A60FB68DB78DBB223F00C03DAB2FB68DA7027
S32D000118C0FB684FF000029A70BB684FF47A7202FB03F27B684FEA031392FBF3F39CB2FB681B78DBB223F01F035C
S32D000118E8FB75234603F4F8534FEA2323DBB203F01F03DAB2FB7D1343DAB2FB681A70E2B2FB685A70BB684FF49B
S32D00011910FA4202FB03F27B684FEA031392FBF3F39AB2234619464FEAC121CB1A4FEA43139BB2D3189CB2FB6849
S32D000119389B7ADBB223F01F03FB75E3B203F01F03DAB2FB7D1343DAB2FB689A72FB68DB78DBB243F00C03DAB229
S32D00011960FB68DA7007F11807BD4690BC704700BF80B483B000AF786000BF7B681B79DBB203F02003002B14BF0A
S32D0001198800230123DBB2002BF3D17B68DB79DBB2184607F10C07BD4680BC704780B483B000AF78600B46FB70A0
S32D000119B000BF7B681B79DBB2DBB26FEA0303DBB24FEAD313DBB2002BF3D17B68FA78DA7107F10C07BD4680BC47
S32D000119D8704700BF80B483B000AF78604FF4E043C4F204034FF4E042C4F2040202F5805202F13802126842F096
S32D00011A00010203F5805303F138031A604FF00003C4F204037A689A604FF00003C4F204034FF005025A604FF027
S32D00011A280003C4F204034FF00002C4F20402126842F001021A6000BF4FF00003C4F204031B6803F08003002BC7
S32D00011A5014BF00230123DBB2002BF1D14FF00003C4F204034FF00002C4F20402126822F001021A6007F10C07C3
S32D00011A78BD4680BC704700BF80B582B000AF786039607B68012B0AD13A684FF6FF739A4205D143F2C460C1F6FE
S32D00011AA0FF7000F00FF807F10807BD4680BD00BF80B500AF4FF001004FF6FF71FFF7E0FF80BD00BF80B483B09A
S32D00011AC800AF78607B684FF000021A707B68184607F10C07BD4680BC704700BF80B582B000AF78607B681B7855
S32D00011AF083F00103DBB2002B36D04FF4E043C4F2040303F5805303F128034FF400621A604FF45043C4F20403D3
S32D00011B184FF440721A624FF45043C4F204034FF440725A6243F2C863C1F6FF731B684FEAD372D3184FEA6303D5
S32D00011B404FF43040C4F20E0019464FF46142FFF709FE4FF0640000F0ADF87B684FF001021A704FF0010301E0B2
S32D00011B684FF00003184607F10807BD4680BD00BF80B582B000AF7860F970BA707B704FF43040C4F20E004FF086
S32D00011B907F01FFF707FF4FF43040C4F20E004FF00801FFF7FFFEFB784FF43040C4F20E001946FFF7F7FEBB7891
S32D00011BB84FF43040C4F20E001946FFF7EFFE7B784FF43040C4F20E001946FFF7E7FE4FF43040C4F20E004FF0EB
S32D00011BE0FF01FFF7DFFE07F10807BD4680BD00BF80B487B000AFF860B9607A60FA6844F6D353C1F26203A3FB20
S32D00011C0802134FEA9312BB68D3187B61FA6844F6D353C1F26203A3FB02134FEA93134FF47A7101FB03F3D31A57
S32D00011C30FB60FB684FEAC33244F6D353C1F26203A3FB02134FEA93127B68D3183B613B694FEAD3337A69D31875
S32D00011C587B613B694FEA43434FEA53433B614FF45043C4F203031B681A467B699A4211D34FF45043C4F2030308
S32D00011C801B681A467B699A420BD14FF45043C4F203035B681A463B699A4202D24FF0010301E04FF00003002B1C
S32D00011CA8DDD107F11C07BD4680BC704780B584B000AF78604FF45043C4F203031B68FB604FF45043C4F203035C
S32D00011CD05B68BB607B681846F968BA68FFF788FF07F11007BD4680BD80B584B000AF4FF45043C4F203031B684A
S32D00011CF8FB604FF45043C4F203035B68BB60F868FAF7C4FC02460B46C7E90023B868FAF7BDFC02460B461046BC
S32D00011D2019464FF000024FF0804303F56003FAF751FE02460B46D7E90001FAF76FFB02460B46C7E90023D7E976
S32D00011D4800231046194607F11007BD4680BD00BF80B483B000AF4FF45043C4F203031B684FF47A7202FB03F339
S32D00011D707B604FF45043C4F203035B684FF47A7202FB03F34FEAD3337A68D3187B607B68184607F10C07BD46BC
S32D00011D9880BC704780B582B000AF78600B46FB70FB787868194600F013F87B68184607F10807BD4680BD00BF8B
S32D00011DC080B483B000AF78607B68184607F10C07BD4680BC704700BF80B483B000AF78600B46FB707B68FA7806
S32D00011DE81A707B681B781A4648F6CC53C0F201039B5C042B00F2F98001A252F823F000BF1D1E01007B1E010033
S32D00011E10D91E0100371F0100951F01004FF41043C4F204037A681278114648F61062C0F2010252F8212040F267
S32D00011E38031143F822104FF47043C4F20F034FF47042C4F20F02526911467A681278104648F61062C0F2010247
S32D00011E6052F8202002F01F024FF0010000FA02F26FEA02020A405A61BBE04FF42043C4F204037A681278114665
S32D00011E8848F61062C0F2010252F8212040F2031143F822104FF24003C4F20F034FF24002C4F20F0252691146E0
S32D00011EB07A681278104648F61062C0F2010252F8202002F01F024FF0010000FA02F26FEA02020A405A618CE043
S32D00011ED84FF43043C4F204037A681278114648F61062C0F2010252F8212040F2031143F822104FF28003C4F288
S32D00011F000F034FF28002C4F20F02526911467A681278104648F61062C0F2010252F8202002F01F024FF0010000
S32D00011F2800FA02F26FEA02020A405A615DE04FF44043C4F204037A681278114648F61062C0F2010252F82120C7
S32D00011F5040F2031143F822104FF2C003C4F20F034FF2C002C4F20F02526911467A681278104648F61062C0F2E3
S32D00011F78010252F8202002F01F024FF0010000FA02F26FEA02020A405A612EE04FF45043C4F204037A681278FD
S32D00011FA0114648F61062C0F2010252F8212040F2031143F822104FF47143C4F20F034FF47142C4F20F025269E1
S32D00011FC811467A681278104648F61062C0F2010252F8202002F01F024FF0010000FA02F26FEA02020A405A613F
S32D00011FF000BF07F10C07BD4680BC704780B485B000AF78604FF00003FB607B681B781A4648F6CC53C0F201038C
S32D000120189B5C042B00F2868001A252F823F000BF3D2001006D2001009D200100CD200100FD2001004FF4704310
S32D00012040C4F20F031B691A467B681B78194648F61063C0F2010353F8213003F01F034FF0010101FA03F3134053
S32D00012068FB605FE04FF24003C4F20F031B691A467B681B78194648F61063C0F2010353F8213003F01F034FF053
S32D00012090010101FA03F31340FB6047E04FF28003C4F20F031B691A467B681B78194648F61063C0F2010353F862
S32D000120B8213003F01F034FF0010101FA03F31340FB602FE04FF2C003C4F20F031B691A467B681B78194648F6E1
S32D000120E01063C0F2010353F8213003F01F034FF0010101FA03F31340FB6017E04FF47143C4F20F031B691A467D
S32D000121087B681B78194648F61063C0F2010353F8213003F01F034FF0010101FA03F31340FB6000BFFB68002B8E
S32D000121300CBF00230123DBB2184607F11407BD4680BC704780B483B000AF78600B46FB707B68FA781A707B680E
S32D00012158184607F10C07BD4680BC70470000000080B586B000AF78607B681B781A4648F69063C0F2010353F8FF
S32D0001218022303B617B681B781A4648F6EC53C0F201039B5CFB733B69DBB203F01F03DAB243F2D463C1F6FF736D
S32D000121A81A723B69DBB203F01F03DAB243F2D463C1F6FF735A724FF46143CEF200034FF46142CEF20002D2F82D
S32D000121D0882042F01002C3F88820FB7B002B1ED14FF43040C4F2030043F2D461C1F6FF7100F04CFD4FF4304315
S32D000121F8C4F203031B6803F08003002B14BF00230123DBB2002BF1D14FF43043C4F203031B697B611DE04FF432
S32D000122203040C4F20B0043F2D461C1F6FF7100F02DFD4FF43043C4F20B031B6803F08003002B14BF00230123FB
S32D00012248DBB2002BF1D14FF43043C4F20B031B697B614FF46143CEF200034FF46142CEF20002D2F8882142F01C
S32D000122701002C3F888214FF46143CEF200034FF46142CEF20002926842F010029A604FF46143CEF200034FF452
S32D000122986142CEF20002D2F8882142F08062C3F888214FF46143CEF200034FF46142CEF20002926842F0806267
S32D000122C09A607B694FEA03434FEA13431846FAF7E1F902460B46104619460FA3D3E90023FAF74EFA02460B4629
S32D000122E8104619460CA3D3E90023FAF76FFB02460B4610461946FAF721FD0346BB60BB68184607F11807BD46CD
S32D0001231080BD00BFAFF30080A4703D0AD7A30A4000000000E0FFEF4080B586B000AF78607B681B781A4648F64D
S32D000123389063C0F2010353F822303B617B681B781A4648F6EC53C0F201039B5CFB733B69DBB203F01F03DAB254
S32D0001236043F2E463C1F6FF731A723B69DBB203F01F03DAB243F2E463C1F6FF735A72FB7B002B1ED14FF4304097
S32D00012388C4F2030043F2E461C1F6FF7100F07AFC4FF43043C4F203031B6803F08003002B14BF00230123DBB229
S32D000123B0002BF1D14FF43043C4F203031B697B611DE04FF43040C4F20B0043F2E461C1F6FF7100F05BFC4FF4A3
S32D000123D83043C4F20B031B6803F08003002B14BF00230123DBB2002BF1D14FF43043C4F20B031B697B617B6929
S32D00012400184607F11807BD4680BD00BF98B500AF43F2D463C1F6FF734FF05C021A7043F2D463C1F6FF734FF0AD
S32D0001242810025A7043F2D463C1F6FF7341F234225A8043F2D463C1F6FF7345F278629A8043F2D463C1F6FF735C
S32D000124504FF010029A7143F2D463C1F6FF734FF00702DA7143F2D463C1F6FF734FF4C022DA6043F2D463C1F6C2
S32D00012478FF734FF01F021A7243F2D463C1F6FF734FF01F025A724FF43040C4F2030043F2D461C1F6FF7100F029
S32D000124A0F5FB4FF43040C4F20B0043F2D461C1F6FF7100F0EBFB4FF43040C4F20B0000F03FFB4FF43040C4F23B
S32D000124C8030000F039FB4FF43040C4F20B0043F2D461C1F6FF7100F0D5FB4FF43040C4F2030043F2D461C1F66C
S32D000124F0FF7100F0CBFB43F2E462C1F6FF7243F2D463C1F6FF7314460FCB84E80F0043F2E463C1F6FF734FF0CC
S32D000125185C021A7043F2E463C1F6FF734FF00402DA7198BD80B500AF43F2F863C1F6FF731B6803F1010243F2D6
S32D00012540F863C1F6FF731A6000F072F94FF4E043C4F203034FF00102C3F80C2180BD00BF80B500AF4FF4E04381
S32D00012568C4F203034FF001021A6048F2A060C0F2010000F023F84FF4E043C4F203034FF00302C3F808214FF447
S32D000125906143CEF200034FF46142CEF20002D2F8882142F01002C3F888214FF46143CEF200034FF46142CEF2A2
S32D000125B80002926842F010029A6080BD80B483B000AF78604FF4E043C4F203037A68C3F8002107F10C07BD46A1
S32D000125E080BC704780B584B000AF78600B46FB707A68FB7810461946FFF7A4FD43F2F463C1F6FF731B68002B29
S32D0001260832D17B684FF000021A617B684FF000025A614FF0140004F091FE02467B689A617B689B697A689A6063
S32D000126307B689B694FF001025A607B689B69FA781A707B689B694FF00002DA607B689B694FF000021A617B68CD
S32D000126589B694FF000025A707B689A6943F2F463C1F6FF731A6071E043F2F463C1F6FF731B68FB6002E0FB6806
S32D00012680DB68FB60FB681B78FA789A4206D0FB68DB68002B02D04FF0010301E04FF00003002BECD1FB681B788C
S32D000126A8FA789A4224D17B68FA689A617B689B699B68BB6002E0BB681B69BB60BB681B69002B0CBF00230123F3
S32D000126D0DBB2002BF3D1BB687A681A617B68BA685A617B684FF000021A617B689B695A6802F101025A602DE01A
S32D000126F87B684FF000021A617B684FF000025A614FF0140004F01AFE02467B689A617B689B697A689A607B680A
S32D000127209B694FF001025A607B689B69FA781A707B689B694FF00002DA607B689B694FF000025A707B689B696C
S32D00012748FA681A617B689A69FB68DA60786800F0F7F87B684FF48C429A607B684FF45242DA607B68184607F128
S32D000127701007BD4680BD00BF80B586B000AF78607B685B697B617B681B693B617B69002B31D13B69002B2ED1CD
S32D000127987B689B691B69FB607B689B69DB68BB60FB68002B0AD1BB68002B07D143F2F463C1F6FF734FF0000282
S32D000127C01A6012E0FB68002B03D0FB68BA68DA6005E043F2F463C1F6FF73BA681A60BB68002B02D0BB68FA6883
S32D000127E81A617B689B69184604F0CEFD16E07B69002B03D07B693A691A6103E07B689B693A699A603B69002B33
S32D0001281002D03B697A695A617B689B695A6802F1FF325A607B68184607F11807BD4680BD80B584B000AF43F219
S32D00012838F463C1F6FF731B68FB6029E0FB685B78FB71FB689B68184600F02EF80346BB71BB79002B19D0FB686E
S32D000128605B68012B15DDFB689B681B69BB6008E0BB685B6803F10102BB685A60BB681B69BB60BB68002B0CBFE6
S32D0001288800230123DBB2002BEED1FB68DB68FB60FB68002B0CBF00230123DBB2002BCDD107F11007BD4680BD1D
S32D000128B080B584B000AF78607868FFF735FD0346FB607B689B695B78FB72FB7A002B12D17B68DA68FB689A424F
S32D000128D80DDA7B689B694FF001025A707B685B6803F101027B685A604FF0010317E0FB7A012B12D17B689A681A
S32D00012900FB689A420DDD7B689B694FF000025A707B685B6803F101027B685A604FF0010301E04FF0000318468F
S32D0001292807F11007BD4680BD80B483B000AF78607B685B68184607F10C07BD4680BC704780B483B000AF786050
S32D000129507B684FF000025A6007F10C07BD4680BC704700BF80B582B000AF78600B46FB707B681846FFF724FABB
S32D000129787B6803F101031846FFF71EFA7B6803F102031846FFF718FAFB78032B66D801A252F823F0AD290100F1
S32D000129A0DB290100092A0100372A01007B6818464FF00001FFF710FA7B6803F1010318464FF00101FFF708FA7A
S32D000129C87B6803F1020318464FF00201FFF700FA44E07B6818464FF00801FFF7F9F97B6803F1010318464FF067
S32D000129F00901FFF7F1F97B6803F1020318464FF00A01FFF7E9F92DE07B6818464FF01001FFF7E2F97B6803F12C
S32D00012A18010318464FF01101FFF7DAF97B6803F1020318464FF01201FFF7D2F916E07B6818464FF01801FFF741
S32D00012A40CBF97B6803F1010318464FF01901FFF7C3F97B6803F1020318464FF01A01FFF7BBF900BF7B68184621
S32D00012A6807F10807BD4680BD80B582B000AF78607B681846FFF7BEFA034683F00103DBB2184607F10807BD4666
S32D00012A9080BD00BF80B582B000AF78607B681846FFF7ACFA0346184607F10807BD4680BD80B582B000AF786074
S32D00012AB87B6803F101031846FFF79CFA034683F00103DBB2184607F10807BD4680BD00BF80B582B000AF78608B
S32D00012AE07B6803F101031846FFF788FA0346184607F10807BD4680BD80B582B000AF78607B6803F10203184600
S32D00012B08FFF778FA034683F00103DBB2184607F10807BD4680BD00BF80B582B000AF78607B6803F1020318465D
S32D00012B30FFF764FA0346184607F10807BD4680BD80B485B000AF78607B681B6A23F040027B681A627B685B6A80
