S01600002E2E2F464548526F626F74436F64652E733139FF
S32D0000C0000000002089140100E5170100E5170100E5170100E5170100E517010000000000000000000000000063
S32D0000C02800000000E5170100E517010000000000E5170100E5170100E5170100E5170100E5170100E517010002
S32D0000C050E5170100E5170100E5170100E5170100E5170100E5170100E5170100E5170100E5170100E5170100E0
S32D0000C078E5170100E5170100E5170100E5170100E5170100E5170100E5170100E5170100E5170100E5170100B8
S32D0000C0A0E5170100E5170100E5170100E5170100E5170100E5170100E5170100E5170100E5170100E517010090
S32D0000C0C8E5170100E5170100E5170100E5170100E5170100E5170100E5170100E5170100E5170100E517010068
S32D0000C0F0E517010061540100E5170100E5170100E5170100E5170100E5170100E5170100E5170100E517010087
S32D0000C118E5170100E5170100E5170100E5170100E5170100E5170100E5170100E5170100E5170100E517010017
S32D0000C140E5170100E5170100E5170100E51701001D270100E5170100E5170100E5170100E5170100E5170100A7
S32D0000C168E5170100E5170100E5170100E5170100E5170100E5170100E5170100E5170100E5170100E5170100C7
S32D0000C190E5170100E5170100E5170100E5170100E5170100E517010035180100E5170100E5170100E51701004E
S32D0000C1B8E5170100E5170100E5170100E5170100E5170100E5170100E5170100E5170100E5170100E517010077
S32D0000C41081F0004102E000BF83F0004330B54FEA41044FEA430594EA050F08BF90EA020F1FBF54EA000C55EAC6
S32D0000C438020C7FEA645C7FEA655C00F0E2804FEA5454D4EB5555B8BF6D420CDD2C4480EA020281EA030382EA0F
S32D0000C460000083EA010180EA020281EA0303362D88BF30BD11F0004F4FEA01314FF4801C4CEA113102D0404263
S32D0000C48861EB410113F0004F4FEA03334CEA133302D0524263EB430394EA050F00F0A780A4F10104D5F1200E8A
S32D0000C4B00DDB02FA0EFC22FA05F2801841F1000103FA0EF2801843FA05F359410EE0A5F120050EF1200E012A2D
S32D0000C4D803FA0EFC28BF4CF0020C43FA05F3C01851EBE37101F0004507D54FF0000EDCF1000C7EEB00006EEB67
S32D0000C5000101B1F5801F1BD3B1F5001F0CD349085FEA30004FEA3C0C04F101044FEA445212F5800F80F09A8000
S32D0000C528BCF1004F08BF5FEA500C50F1000041EB045141EA050130BD5FEA4C0C404141EB010111F4801FA4F114
S32D0000C5500104E9D191F0000F04BF01460020B1FA81F308BF2033A3F10B03B3F120020CDA0C3208DD02F1140C87
S32D0000C578C2F10C0201FA0CF021FA02F10CE002F11402D8BFC2F1200C01FA02F120FA0CFCDCBF41EA0C019040B1
S32D0000C5A0E41AA2BF01EB0451294330BD6FEA04041F3C1CDA0C340EDC04F11404C4F1200220FA04F001FA02F3B6
S32D0000C5C840EA030021FA04F345EA030130BDC4F10C04C4F1200220FA02F001FA04F340EA0300294630BD21FAA8
S32D0000C5F004F0294630BD94F0000F83F4801306BF81F480110134013D4EE77FEA645C18BF7FEA655C29D094EA1C
S32D0000C618050F08BF90EA020F05D054EA000C04BF1946104630BD91EA030F1EBF0021002030BD5FEA545C05D1A3
S32D0000C6404000494128BF41F0004130BD14F580043CBF01F5801130BD01F0004545F0FE4141F470014FF0000031
S32D0000C66830BD7FEA645C1ABF194610467FEA655C1CBF0B46024650EA013406BF52EA033591EA030F41F40021D7
S32D0000C69030BD00BF90F0000F04BF0021704730B54FF4806404F132044FF000054FF0000150E700BF90F0000F66
S32D0000C6B804BF0021704730B54FF4806404F1320410F0004548BF40424FF000013EE700BF42004FEAE2014FEAF9
S32D0000C6E031014FEA02701FBF12F07F4393F07F4F81F06051704792F0000F14BF93F07F4F704730B54FF460741B
S32D0000C70801F0004521F0004120E700BF50EA010208BF704730B54FF000050AE050EA010208BF704730B511F046
S32D0000C730004502D5404261EB41014FF4806404F132045FEA915C3FF4DCAE4FF003025FEADC0C18BF03325FEAA0
S32D0000C758DC0C18BF033202EBDC02C2F1200300FA03FC20FA02F001FA03FE40EA0E0021FA02F11444C1E600BF19
S32D0000C78070B54FF0FF0C4CF4E06C1CEA11541DBF1CEA135594EA0C0F95EA0C0F00F0DEF82C4481EA030621EAF3
S32D0000C7A84C5123EA4C5350EA013518BF52EA033541F4801143F4801338D0A0FB02CE4FF00005E1FB02E506F05F
S32D0000C7D00042E0FB03E54FF00006E1FB03569CF0000F18BF4EF0010EA4F1FF04B6F5007F64F5407404D25FEA0F
S32D0000C7F84E0E6D4146EB060642EAC62141EA55514FEAC52040EA5E504FEACE2EB4F1FD0C88BFBCF5E06F1ED8D2
S32D0000C820BEF1004F08BF5FEA500E50F1000041EB045170BD06F0004646EA010140EA020081EA0301B4EB5C0487
S32D0000C848C2BFD4EB0C0541EA045170BD41F480114FF0000E013C00F3AB8014F1360FDEBF002001F0004170BDF0
S32D0000C870C4F10004203C35DA0C341BDC04F11404C4F1200500FA05F320FA04F001FA05F240EA020001F0004207
S32D0000C89821F0004110EBD37021FA04F642EB06015EEA430E08BF20EAD37070BDC4F10C04C4F1200500FA04F32F
S32D0000C8C020FA05F001FA04F240EA020001F0004110EBD37041F100015EEA430E08BF20EAD37070BDC4F12005C7
S32D0000C8E800FA05F24EEA020E20FA04F301FA05F243EA020321FA04F001F0004121FA04F220EA020000EBD37028
S32D0000C9105EEA430E08BF20EAD37070BD94F0000F0FD101F00046400041EB010111F4801F08BF013CF7D041EA6D
S32D0000C938060195F0000F18BF704703F00046520043EB030313F4801F08BF013DF7D043EA0603704794EA0C0FF1
S32D0000C9600CEA135518BF95EA0C0F0CD050EA410618BF52EA4306D1D181EA030101F000414FF0000070BD50EA38
S32D0000C988410606BF1046194652EA430619D094EA0C0F02D150EA013613D195EA0C0F05D152EA03361CBF10467B
S32D0000C9B019460AD181EA030101F0004141F0FE4141F470014FF0000070BD41F0FE4141F4780170BD70B54FF04D
S32D0000C9D8FF0C4CF4E06C1CEA11541DBF1CEA135594EA0C0F95EA0C0F00F0A7F8A4EB050481EA030E52EA03359B
S32D0000CA004FEA013100F088804FEA03334FF0805545EA131343EA12634FEA022245EA111545EA10654FEA002676
S32D0000CA280EF000419D4208BF964244F1FD0404F5407402D25B084FEA3202B61A65EB03055B084FEA32024FF461
S32D0000CA5080104FF4002CB6EB020E75EB030E22BFB61A754640EA0C005B084FEA3202B6EB020E75EB030E22BF22
S32D0000CA78B61A754640EA5C005B084FEA3202B6EB020E75EB030E22BFB61A754640EA9C005B084FEA3202B6EBEA
S32D0000CAA0020E75EB030E22BFB61A754640EADC0055EA060E18D04FEA051545EA16754FEA06164FEAC30343EAAC
S32D0000CAC852734FEAC2025FEA1C1CC0D111F4801F0BD141EA00014FF000004FF0004CB6E711F4801F04BF0143AE
S32D0000CAF00020B4F1FD0C88BFBCF5E06F3FF6AFAEB5EB030C04BFB6EB020C5FEA500C50F1000041EB045170BDBC
S32D0000CB180EF0004E4EEA113114EB5C04C2BFD4EB0C0541EA045170BD41F480114FF0000E013C90E645EA060EC3
S32D0000CB408DE60CEA135594EA0C0F08BF95EA0C0F3FF43BAF94EA0C0F0AD150EA01347FF434AF95EA0C0F7FF499
S32D0000CB6825AF104619462CE795EA0C0F06D152EA03353FF4FDAE1046194622E750EA410618BF52EA43067FF432
S32D0000CB90C5AE50EA41047FF40DAF52EA43057FF4EBAE12E74FF0FF3C06E000BF4FF0010C02E000BF4FF0010C75
S32D0000CBB84DF804CD4FEA410C7FEA6C5C4FEA430C18BF7FEA6C5C1BD001B050EA410C0CBF52EA430C91EA030FEC
S32D0000CBE002BF90EA020F0020704710F1000F91EA030F58BF994208BF90422CBFD8176FEAE37040F0010070476E
S32D0000CC084FEA410C7FEA6C5C02D150EA013C07D14FEA430C7FEA6C5CD6D152EA033CD3D05DF8040B704700BFCD
S32D0000CC308446104662468C461946634600E000BF01B5FFF7B7FF002848BF10F1000F01BD4DF808EDFFF7F4FF13
S32D0000CC580CBF012000205DF808FB00BF4DF808EDFFF7EAFF34BF012000205DF808FB00BF4DF808EDFFF7E0FF18
S32D0000CC8094BF012000205DF808FB00BF4DF808EDFFF7CEFF94BF012000205DF808FB00BF4DF808EDFFF7C4FF40
S32D0000CCA834BF012000205DF808FB00BF4FEA410212F5001215D211D56FF47873B3EB625212D94FEAC12343F0D6
S32D0000CCD0004343EA505311F0004F23FA02F018BF404270474FF00000704750EA013005D111F0004008BF6FF016
S32D0000CCF8004070474FF00000704700BF4A0011D212F5001211D20DD56FF47873B3EB62520ED44FEAC12343F085
S32D0000CD20004343EA505323FA02F070474FF00000704750EA013002D14FF0FF3070474FF0000070474FEA410241
S32D0000CD48B2F1E04324BFB3F5001CDCF1FE5C0DD901F0004C4FEAC0024CEA5070B2F1004F40EB830008BF20F09E
S32D0000CD700100704711F0804F21D113F13872BCBF01F00040704741F480114FEA5252C2F11802C2F1200C10FAB1
S32D0000CD980CF320FA02F018BF40F001004FEAC1234FEAD32303FA0CFC40EA0C0023FA02F34FEA4303CCE77FEA26
S32D0000CDC0625307D150EA01331EBF4FF0FE4040F44000704701F0004040F0FE4040F40000704700BF80F00040CC
S32D0000CDE802E000BF81F0004142001FBF5FEA410392EA030F7FEA226C7FEA236C6AD04FEA1262D2EB1363C1BF06
S32D0000CE10D218414048404140B8BF5B42192B88BF704710F0004F40F4000020F07F4018BF404211F0004F41F4FA
S32D0000CE38000121F07F4118BF494292EA030F3FD0A2F1010241FA03FC10EB0C00C3F1200301FA03F100F000432B
S32D0000CE6002D5494260EB4000B0F5000F13D3B0F1807F06D340084FEA310102F10102FE2A51D2B1F1004F40EB94
S32D0000CE88C25008BF20F0010040EA03007047490040EB000010F4000FA2F10102EDD1B0FA80FCACF1080CB2EB5F
S32D0000CEB00C0200FA0CF0AABF00EBC25052421843BCBFD0401843704792F0000F81F4000106BF80F400000132EB
S32D0000CED8013BB5E74FEA41037FEA226C18BF7FEA236C21D092EA030F04D092F0000F08BF0846704790EA010FD7
S32D0000CF001CBF0020704712F07F4F04D1400028BF40F00040704712F100723CBF00F50000704700F0004343F0DC
S32D0000CF28FE4040F4000070477FEA226216BF08467FEA23630146420206BF5FEA412390EA010F40F480007047C1
S32D0000CF504FF0000304E000BF10F0004348BF40425FEA000C08BF704743F0964301464FF000001CE050EA010264
S32D0000CF7808BF70474FF000030AE000BF50EA010208BF704711F0004302D5404261EB41015FEA010C02BF84465B
S32D0000CFA00146002043F0B64308BFA3F18053A3F50003BCFA8CF2083AA3EBC25310DB01FA02FC634400FA02FC6B
S32D0000CFC8C2F12002BCF1004F20FA02F243EB020008BF20F00100704702F1200201FA02FCC2F1200250EA4C0034
S32D0000CFF021FA02F243EB020008BF20EADC7070474FF0FF0C1CEAD0521EBF1CEAD15392EA0C0F93EA0C0F6FD019
S32D0000D0181A4480EA010C400218BF5FEA41211ED04FF0006343EA501043EA5111A0FB01310CF00040B1F5000FE7
S32D0000D0403EBF490041EAD3715B0040EA010062F17F02FD2A1DD8B3F1004F40EBC25008BF20F00100704790F058
S32D0000D068000F0CF0004C08BF49024CEA502040EA51207F3AC2BFD2F1FF0340EAC250704740F400004FF0000388
S32D0000D090013A5DDC12F1190FDCBF00F000407047C2F10002410021FA02F1C2F1200200FA02FC5FEA310040F1D5
S32D0000D0B8000053EA4C0308BF20EADC70704792F0000F00F0004C02BF400010F4000F013AF9D040EA0C0093F04C
S32D0000D0E0000F01F0004C02BF490011F4000F013BF9D041EA0C018FE70CEAD15392EA0C0F18BF93EA0C0F0AD00B
S32D0000D10830F0004C18BF31F0004CD8D180EA010000F00040704790F0000F17BF90F0004F084691F0000F91F0BB
S32D0000D130004F14D092EA0C0F01D142020FD193EA0C0F03D14B0218BF084608D180EA010000F0004040F0FE4051
S32D0000D15840F40000704740F0FE4040F4400070474FF0FF0C1CEAD0521EBF1CEAD15392EA0C0F93EA0C0F69D044
S32D0000D180A2EB030280EA010C49024FEA402037D04FF0805343EA111143EA10130CF000408B4238BF5B0042F14E
S32D0000D1A87D024FF4000C8B4224BF5B1A40EA0C00B3EB510F24BFA3EB510340EA5C00B3EB910F24BFA3EB9103A4
S32D0000D1D040EA9C00B3EBD10F24BFA3EBD10340EADC001B0118BF5FEA1C1CE0D1FD2A3FF650AF8B4240EBC25018
S32D0000D1F808BF20F0010070470CF0004C4CEA50207F32C2BFD2F1FF0340EAC250704740F400004FF00003013AF1
S32D0000D22037E792F0000F00F0004C02BF400010F4000F013AF9D040EA0C0093F0000F01F0004C02BF490011F4C9
S32D0000D248000F013BF9D041EA0C0195E70CEAD15392EA0C0F08D142027FF47DAF93EA0C0F7FF470AF084676E7AE
S32D0000D27093EA0C0F04D14B023FF44CAF08466EE730F0004C18BF31F0004CCAD130F000427FF45CAF31F0004376
S32D0000D2987FF43CAF5FE700BF4FF0FF3C06E000BF4FF0010C02E000BF4FF0010C4DF804CD4FEA40024FEA41039F
S32D0000D2C07FEA226C18BF7FEA236C11D001B052EA530C18BF90EA010F58BFB2EB030088BFC81738BF6FEAE1706E
S32D0000D2E818BF40F0010070477FEA226C02D15FEA402C05D17FEA236CE4D15FEA412CE1D05DF8040B704700BF16
S32D0000D310844608466146FFE70FB5FFF7C9FF002848BF10F1000F0FBD4DF808EDFFF7F4FF0CBF012000205DF839
S32D0000D33808FB00BF4DF808EDFFF7EAFF34BF012000205DF808FB00BF4DF808EDFFF7E0FF94BF012000205DF8A9
S32D0000D36008FB00BF4DF808EDFFF7D2FF94BF012000205DF808FB00BF4DF808EDFFF7C8FF34BF012000205DF8B1
S32D0000D38808FB00BF4FEA4002B2F1FE4F0FD34FF09E03B3EB12620DD94FEA002343F0004310F0004F23FA02F060
S32D0000D3B018BF404270474FF00000704712F1610F01D1420205D110F0004008BF6FF0004070474FF00000704797
S32D0000D3D8036803B11B181846704700BF03685A004CBF43F0004323F00043C018704700BF2DE9F84F0446914699
S32D0000D40041B301F1FF3BDA46002707EB0A0101EBD1756D1004EBC5063046FFF7E3FF8046681CAB4504EBC000FA
S32D0000D4280DD0FFF7DBFF0138C84504D9BD4209D005F1FF3AE5E7484505D26F1CE1E74FF0FF30F1E7002630469A
S32D0000D450BDE8F88F0E463046BDE8F88F30B52B4B83B004468D1E002B49D0284601A9AFF300800346002822D028
S32D0000D4782A4618460199FFF7BBFF054600281DD0FFF7ACFF6B68A064012B10D0281D002B22DBFFF7A3FF002164
S32D0000D4A0E06421650368002B0FDBFFF79BFF2061002003B030BD002323610520F9E720610920F6E72061092066
S32D0000D4C8F3E7C3F3036058B101280CD002280ED0002020610920E8E70122E0642265DDE7094B2361E1E7094AEF
S32D0000D4F000202261DDE7084900202161D9E7074B0749C81AC2100192B6E700BF0000000029DA000025DA0000AD
S32D0000D51821DA00004496010034980100036810B50446D80706D4990704F1480009D500F00DFD23685A0709D590
S32D0000D54018070ED5D90613D510BD00F0FBFC23685A07F5D404F1D00000F004FD23681807F0D404F5D87000F036
S32D0000D56805FD2368D906EBD404F50C70BDE8104000F040BD2DE9F0470F1D054691460FCFADF5916D02AC261D09
S32D0000D5900FC60FCF0FC60FCF0FC697E80F00D5F80C80D5F818A0002786E80F00216C27602846FFF753FF06460C
S32D0000D5B8B94514BF4FF00A094FF00909FEB1A16B49F01009616401208DE8100449462A462B46C04700282BD1BA
S32D0000D5E0002E2AD1204692A94FF4107208F0EEFE082F28D1216C2846FFF730FF06464FF00909002EDFD1206C53
S32D0000D60821464FF41072686192A808F0DBFE2F69294692AA4846B847A09B0746636401208DE8100449462A462C
S32D0000D6302B46C0470028D3D00926304622B00DF5806DBDE8F087072FF6D1201D00F06EFC38B504460D46296C54
S32D0000D6582046FFF7FFFE50B92A6C23696261012021462A4698470828F1D0072801D00AF0F9FF281D00F056FC1C
S32D0000D68011B933B10220704704298CBF0220012070470F2A01D90220704700EB820118464A68009B1A6070474D
S32D0000D6A810B50A4684B000210B4603AC0094FFF7E3FF039804B010BD11B933B10220704704298CBF0220012020
S32D0000D6D070470F2A01D902207047009900EB8202096818465160704710B584B004AB0C4643F8042D0021009330
S32D0000D6F822460B46FFF7E0FF04B010BD2DE9F04FCD6C8BB00C4655F8041B174600F008021E46039200F0030823
S32D0000D7200795002B40F0CF8009020691216D8DF821300323B8F1020F8DF8203008BFA56B11F0010340F0D3807B
S32D0000D748019304F158030293D5F80090B9F1000F00F0CB80022E00F0AE80B5F80090B5F802A00435A26C0F2198
S32D0000D7702AF0010B38469344FFF796FF834518D829F0010CE3440AF0010A09F00103584543EA4A092CBF002056
S32D0000D7980120B9F1010F12D032D2B8F1000F02D0002840F01D810435CEE70AF0010A09F0010343EA4A09002092
S32D0000D7C0B9F1010FECD1B8F1000F40F0B680C8B16B68D5F800909A1C19D0029A013309920DD0281DFFF7F8FDE6
S32D0000D7E84FEAD972014609AB204609F0A5FF002800F0F280099A002A40F0BA800835A3E7B9F1020F03D0092052
S32D0000D8100BB0BDE8F08F2B6823F000420092B8F1000F71D1002843D00398002840F0A1800098002800F0A08078
S32D0000D838009BDDF80C90DB0705F1040A40F1B480CDF810800596A846029E12E000998D4200F0D9800996FFF7B5
S32D0000D860BBFD5A46014609AB204609F069FFA946B0B90AF1040A05F1010950460996FFF7ABFD09AB014600222F
S32D0000D888204609F059FF0AF1040A834609F101055046BBF1000FD9D04546059EDDF81080009A4A4564D02B686C
S32D0000D8B0002B7BDB0099481C05EB800548E7D5F804A0083552E70B04C1F30740216D06930222B8F1020F05EB42
S32D0000D8D8800508BFA56B8DF8210011F001038DF820203FF42DAF00200190384606A900F019FC002887D1019A49
S32D0000D900002A43D1082083E70D213846D4F82090FFF7CAFE8145CAD1A26A9542C7D10098291D00220423A0623E
S32D0000D928E26223636163286800286EDB01220192BCE70D213846D4F82090FFF7B1FE81457FF45CAFA16A8D42FE
S32D0000D9507FF458AF2846FFF745FD0F2102463846FFF7C2FE384600212246FFF7BDFE07204EE7009900299BD19B
S32D0000D97838460D21FFF794FE099B20626362A562062041E70F213846FFF78AFE0E2102463846FFF7A5FE3846D5
S32D0000D9A00F211E4AFFF7A0FE072031E7043581E7029950460991FFF70FFD039A014609AB204609F0BDFE0028A6
S32D0000D9C87FF46EAFCDF8108005960AF1040A4FF00109A846029E4CE7CDF824800835B3E62846FFF7FBFC0435CB
S32D0000D9F00646A563204609F019FF00283FF407AF38460F213246FFF76FFE072000E74546B2E7009B591C05EB72
S32D0000DA1881009CE79579010002236FE601236DE600236BE62DE9F0470446E8B004290CD8DFE801F03803919311
S32D0000DA400F00150C012B96B200F07881052B00F0C780022068B0BDE8F087002BF9D1102AF7D82368D90600F115
S32D0000DA68738164A8019200F0CFFA019AA36BD00744BF53F8040B6490910744BF53F8041B6591500744BF53F8D3
S32D0000DA90041B6691110748BF53F8042B64A8A36348BF679200F0AAFA0020D3E7002BD0D1A36BD00791B244BF42
S32D0000DAB853F8042B62608A0744BF53F8042BA260480744BF53F8042BE2600A0744BF53F8042B2261C80644BF04
S32D0000DAE053F8042B62618A0644BF53F8042BA261480644BF53F8042BE2610A0644BF53F8042B2262C80544BFDC
S32D0000DB0853F8042B62628A0544BF53F8042BA262480544BF53F8042BE2620A0544BF53F8042B2263C80444BFB3
S32D0000DB3053F8042B626311F400501CBF53F8042BA2634A0444BF53F8042BE2630A0444BF53F8042B2264002890
S32D0000DB5840D1A3637AE7012078E7032B7FF475AF160C95B2AA19102A3FF66FAF2368180700F10B8144A800F026
S32D0000DB801BFAA76B4FEA450E3B460DB344A90EF1FF3C01EBC60653F8040B62460CF0010146F8040B92B129B13A
S32D0000DBA853F8041B013A46F8041B0BD01846314650F8045B41F8045B5D68031D75600E1D023AF3D107EB8E03F6
S32D0000DBD044A8A36300F0CEF900203BE7002039E777192022BA42FFF434AF012B00F0A9800F2D40F2A9803746FF
S32D0000DBF8F6B1052B7FF429AF0F2D11D82268D0070ED522F00101052B2160204600F0DA8022F0030240F8482B3D
S32D0000DC20019300F093F9019B1FB12268510700F1B880012B00F0BF800F2D75D9002F40F0A080D4F83890002E29
S32D0000DC48C8462EDD49460DF1080A4FEA46080AEBC50251F8046B08F1FF3000F0010A42F8046BA8F1020CD0B107
S32D0000DC70BAF1000F08D051F8040B0CF1FF3CBCF1FF3F42F8040B0ED00E46104656F804AB40F804AB4968ACF176
S32D0000DC98020C5160311D021DBCF1FF3FF0D109EB8808A7B3102D2CBF2E4610260DF5D079414609EBC60CACF59D
S32D0000DCC0C8724FEA470951F8046B09F1FF3000F0010A42F8046BA9F1020CD0B1BAF1000F08D051F8040B0CF1DE
S32D0000DCE8FF3CBCF1FF3F42F8040B0ED00E46104656F804AB40F804AB4968ACF1020C5160311D021DBCF1FF3FCE
S32D0000DD10F0D108EB8908012B2BD00F2DC4F8388008D9FFB9384695E602A8019300F016F9019B83E702A800F05A
S32D0000DD380DF9F2E77719102250E70F2D3FF685AE102F10D9103F54E723F01003236004F50C70019200F058F99D
S32D0000DD60019A82E624A800F0FDF8002072E6002746E708F1040302A8A36300F0E3F8002068E624A80193C5F116
S32D0000DD88100600F0EFF8019B57E723F0080704F5D870276000F00CF9ECE6204622F0040140F8D01B019300F0D1
S32D0000DDB0DDF8019B3DE702A8019300F0C7F8019B002F3FF43EAFC5F110063AE741F0020140F8481B019300F098
S32D0000DDD8C1F8019B24E700BF406C7047F0B50D460F1DC96B296404460FCFADF5117D01AE0FC60FCF0FC60FCF49
S32D0000DE000FC697E80F0086E80F004FF0FF33009310992046FFF722FB58B9266921466A46B04708280646F3D001
S32D0000DE286846FFF77BFB062E03D009200DF5117DF0BD20462946FFF707FC00BF10B4DC6BC16082611946002228
S32D0000DE501C6410BCFFF792BB38B54269C3680A6404460D4623B10122FFF788FB0AF0FEFB0369214602202A467F
S32D0000DE789847072803D0082804D00AF0F3FB281D00F050F820462946FFF7DEFBC36823B1CA6B0A640022FFF7D4
S32D0000DEA06DBB9FE7704700BF08B5836801460BB10120984708BD00BFF0B5D46B171D146405460C460FCFADF554
S32D0000DEC8277D01AE0FC60FCF0FC60FCF0FC697E80F0086E80F004FF0FF330093109990A8FFF7B8FA034690AA83
S32D0000DEF068460C21BBB9FFF7F7FB21466846A847064690A908206A466EB9949B98470528064601D00928E5D106
S32D0000DF186846FFF703FB30460DF5277DF0BD0926F6E700BF00F1340191E838009C46A6464CF8045D90E8FF0FD5
S32D0000DF40E54600BD90EC210B704700BF80EC210B704700BF90EC200B704700BF80EC200B704700BFD0EC200B8E
S32D0000DF68704700BFC0EC200B704700BFF0EC0201F0EC0211F0EC0221F0EC0231F0EC0241F0EC0251F0EC02615F
S32D0000DF90F0EC0271F0EC0281F0EC0291F0EC02A1F0EC02B1F0EC02C1F0EC02D1F0EC02E1F0EC02F1704700BFE6
S32D0000DFB8E0EC0201E0EC0211E0EC0221E0EC0231E0EC0241E0EC0251E0EC0261E0EC0271E0EC0281E0EC029155
S32D0000DFE0E0EC02A1E0EC02B1E0EC02C1E0EC02D1E0EC02E1E0EC02F1704700BFB0FC0181B0FC0191B0FC01A159
S32D0000E008B0FC01B1704700BFA0FC0181A0FC0191A0FC01A1A0FC01B1704700BFEC4600B52DE900502DE9FF1F47
S32D0000E0304FF000032DE90C0001A9FFF7D3FEDDF840E012B0704700BFEC4600B52DE900502DE9FF1F4FF00003FD
S32D0000E0582DE90C0001A9FFF7FBFEDDF840E012B0704700BFEC4600B52DE900502DE9FF1F4FF000032DE90C00CD
S32D0000E08001A9FFF707FFDDF840E012B0704700BFEC4600B52DE900502DE9FF1F4FF000032DE90C0001ABFFF718
S32D0000E0A8CDFEDDF840E012B0704700BFEC4600B52DE900502DE9FF1F4FF000032DE90C0001AAFFF7F5FEDDF804
S32D0000E0D040E012B0704700BF027A03461AB9427A42B9B02070470068013A01021A72000E196070474168501E6D
S32D0000E0F8587251F8040B0322596001021A72000E1960704710B5002184B00C220DEB02040B460094FFF7B0FA62
S32D0000E120039804B010BD00BFF0E700BF2DE9F043064685B00D464FF000094FF47F672846FFF7CAFFB028044683
S32D0000E14800F0B08010F0800120D000F0F003802B74D0902B37D0A02B45D0B02B56D0C02B00F0858000F0F800DB
S32D0000E170D0280BD104F00702511C41F40022304601210523FFF752FC0028D8D0092005B0BDE8F0834FEA800267
S32D0000E19803A85FFA82F800900D220B463046FFF76BFA039B600608F104084CBFC8EB0303434403AC03930094CD
S32D0000E1C0002130460D220B46FFF77AFAB7E700F00F020D2ADAD00F2AD8D0002103AC009430460B4603ACFFF77F
S32D0000E1E84BFA0094E8E7C24302F0070C47FA0CF0210700F47F6248BF42F48042002130460B46FFF70FFC00280D
S32D0000E210BCD194E7B1285DD0B2286ED0B32800F0958000F0FC02B42A46D000F00702531C43F40022012130469F
S32D0000E2380B46FFF7F7FB0028A4D17CE72846FFF747FF210240EA0104B4F5004F9AD0230500211A0C30460B46EB
S32D0000E2602401FFF7E3FB002890D114F4004F18BF4FF0010963E7C62873D0C72800F0848000F0F802C02A00F075
S32D0000E2889280C82800F0A680C9287FF47BAF2846FFF71EFF00F00F0300F0F0015A1C42EA013268E7B9F1000F81
S32D0000E2B000F0838000206AE700F00301481C022140F480220B463046FFF7B0FB00287FF45DAF34E72846FFF7FD
S32D0000E2D8FFFE024600283FF455AF10F0F0017FF451AF30460B46FFF79DFB00287FF44AAF21E700210D220B467E
S32D0000E30003AC30460094FFF7BBF92846FFF7E4FE022402060DD5039B00F07F0000FA04FE03EB0E01284603912E
S32D0000E328FFF7D6FE07340306F1D4039B00F07F0103AA03F5017C01FA04F400920CEB0402039239E72846FFF729
S32D0000E350C3FE00F00F03591C00F0F00041EA003268E72846FFF7B8FE00F00F03591C00F0F00041EA00320321E9
S32D0000E37830460B46FFF756FB00287FF403AFDAE62846FFF7A5FE024600283FF4FBAE10F0F0037FF4F7AE304688
S32D0000E3A00421FFF743FB00287FF4F0AEC7E600F00F01481C40F42022DDE703AC49460E224B4630460094FFF773
S32D0000E3C85BF9304649460F224B460094FFF774F94846D8E62846FFF77BFE00F0F00200F00F001032431C43EA3D
S32D0000E3F00232C4E610B5C26C84B0032054688DF80C00D37924020832084601A9019402928DF80D30FFF78AFE7D
S32D0000E41804B010BD08B5FFF783FE806C08BD00BF08B5FFF77DFEC16CC87901EB800303F1080008BD08B50AF02E
S32D0000E44015F900BF08B50AF011F900BF80B582B000AF43F21470C1F6FF704FF0050105F08FFA43F21470C1F639
S32D0000E468FF704FF0060105F0E5FA43F2CC60C1F6FF7007F0EFF843F2CC60C1F6FF7007F0A3FD43F21470C1F60A
S32D0000E490FF7005F09FFA43F21470C1F6FF7048F62C01C0F2010105F0FFFB00BF43F24C60C1F6FF7004F0D4FBEB
S32D0000E4B8034683F00103DBB2002B1AD043F24C60C1F6FF7004F0E8FB034683F00103DBB2002B0ED043F24C60BF
S32D0000E4E0C1F6FF7004F000FC034683F00103DBB2002B02D04FF0010301E04FF00003002BD4D143F24C60C1F6E0
S32D0000E508FF7004F0C9FB0346002B0DD000BF43F24C60C1F6FF7004F0D3FB034683F00103DBB2002BF3D12AE09F
S32D0000E53043F24C60C1F6FF7004F092FB0346002B11D000BF43F24C60C1F6FF7004F09AFB034683F00103DBB244
S32D0000E558002BF3D14FF0010001F006FE56E000BF43F24C60C1F6FF7004F0CEFB034683F00103DBB2002BF3D17C
S32D0000E58002F000F846E001F0A7FD43F21470C1F6FF7005F01FFA43F25C60C1F6FF701E4904F0EEFC01F0E2FCB0
S32D0000E5A802F0A6FB02F014FC03467B60786802F08BFD02F043FE02F00DFF43F21470C1F6FF7048F6A401C0F28D
S32D0000E5D0010105F069FB00BF43F24C60C1F6FF7004F05EFB034683F00103DBB2002BF3D100BF43F24C60C1F61C
S32D0000E5F8FF7004F065FB034683F00103DBB2002BF3D14FF4FA7003F049FC3AE739E700BF0000F04180B483B079
S32D0000E62000AF78607B6823F00043184607F10C07BD4680BC704700BFF0B585B000AFF860B960FA71BB71BB7929
S32D0000E648002B00F0C28043F29460C1F6FF7004F06FFA43F2B060C1F6FF7004F069FA43F21470C1F6FF7048F6BC
S32D0000E670C801C0F2010105F017FB43F29060C1F6FF7003F0B3FD0346002BF6D100BF43F29060C1F6FF7003F0D2
S32D0000E698A9FD034683F00103DBB2002BF3D1F868FEF716F802460B461046194670A3D3E90023FEF761F8024639
S32D0000E6C00B4610461946FEF7F5FA034643F25460C1F6FF70194603F00DF9F868FEF756FE034643F25860C1F6FC
S32D0000E6E8FF70194603F002F943F29060C1F6FF7003F078FD0346002BF6D100BF43F29060C1F6FF7003F06EFDF2
S32D0000E710034683F00103DBB2002BF3D143F25460C1F6FF7003F0C8F843F25860C1F6FF7003F0C2F843F2147064
S32D0000E738C1F6FF7005F04AF943F21470C1F6FF7048F6EC01C0F2010105F0C8F943F29460C1F6FF7004F0E0F9C5
S32D0000E76003461846FDF7A6FF02460B46104619464FF000024FF0804303F59013FEF700F802460B4643F21470E0
S32D0000E788C1F6FF7005F0C8FA43F21470C1F6FF7048F60811C0F2010105F082FA43F29060C1F6FF7003F01EFDD2
S32D0000E7B00346002BF6D100BF43F29060C1F6FF7003F014FD034683F00103DBB2002BF3D10CE1F868FDF780FFF6
S32D0000E7D802460B461046194625A3D3E90023FDF7CBFF02460B4610461946FEF75FFA034643F25460C1F6FF706C
S32D0000E800194603F077F8F868FEF7C0FD034643F25860C1F6FF70194603F06CF843F29460C1F6FF7004F088F941
S32D0000E82843F2B060C1F6FF7004F082F99CE043F29460C1F6FF7004F06FF9014646F26763C6F2666383FB012355
S32D0000E8504FEAA3024FEAE173D21A13464FEA83039B184FEA4303CA1A002A09D1FB79002B06D04FF0010305E074
S32D0000E878666666666666F23F4FF00003002B39D043F29460C1F6FF7004F046F90346002B0CBF00230123DBB2D2
S32D0000E8A0002B2BD043F29460C1F6FF7004F038F903461846FEF750FB03461846F968FEF79FFB03461C4643F252
S32D0000E8C89460C1F6FF7004F027F903461846FEF73FFB034620461946FEF742FC03461846FEF750FD034643F276
S32D0000E8F05460C1F6FF70194602F0FCFF43F21470C1F6FF7005F066F843F21470C1F6FF7048F62411C0F201019C
S32D0000E91805F0E4F843F29460C1F6FF7004F0FCF8034643F21470C1F6FF70194605F0CCF943F21470C1F6FF70A9
S32D0000E94048F64811C0F2010105F0CCF843F29460C1F6FF7004F0E4F8034643F21470C1F6FF70194605F0B4F95D
S32D0000E9684FF0320003F09AFA43F29460C1F6FF7004F0D2F803461846FDF798FE04460D46B868FDF7A5FE0246AF
S32D0000E9900B46104619464FF000024FF0804303F59013FDF7EDFE02460B464FF001010E4620462946FEF756F94F
S32D0000E9B80346002B02D14FF000031E46F3B2002B7FF435AF43F25460C1F6FF704FF0000102F08CFF43F2586064
S32D0000E9E0C1F6FF704FF0000102F084FF07F11407BD46F0BDAFF30080F0B587B000AFF860B9601346FB719A4BA3
S32D0000EA087B61F868FDF764FE02460B461046194693A3D3E90023FDF7AFFE02460B4610461946FEF743F9034682
S32D0000EA3043F25460C1F6FF70194602F05BFFF868FEF7A4FC034643F25860C1F6FF70194602F050FF43F29460E4
S32D0000EA58C1F6FF7004F06CF843F2B060C1F6FF7004F066F8B7E043F29460C1F6FF7004F053F8014646F26763E7
S32D0000EA80C6F2666383FB01234FEAA3024FEAE173D21A13464FEA83039B184FEA4303CA1A002A05D1FB79002B21
S32D0000EAA802D04FF0010301E04FF00003002B39D043F29460C1F6FF7004F02EF80346002B0CBF00230123DBB258
S32D0000EAD0002B2BD043F29460C1F6FF7004F020F803461846FEF738FA03461846F968FEF787FA03461C4643F26B
S32D0000EAF89460C1F6FF7004F00FF803461846FEF727FA034620461946FEF72AFB03461846FEF738FC034643F2A8
S32D0000EB205460C1F6FF70194602F0E4FE43F21470C1F6FF7004F04EFF43F21470C1F6FF7048F62411C0F2010194
S32D0000EB4804F0CCFF43F29460C1F6FF7003F0E4FF034643F21470C1F6FF70194605F0B4F843F21470C1F6FF70B4
S32D0000EB7048F64811C0F2010104F0B4FF43F29460C1F6FF7003F0CCFF034643F21470C1F6FF70194605F09CF868
S32D0000EB9843F25060C1F6FF7003F0DAFB03464FF00102144618467969FEF7C4FB0346002B02D14FF000031C46B8
S32D0000EBC0E3B2002B07D043F25060C1F6FF7003F0C3FB03467B614FF0320003F063F943F29460C1F6FF7003F0AD
S32D0000EBE89BFF03461846FDF761FD04460D46B868FDF76EFD02460B46104619464FF000024FF0804303F5901324
S32D0000EC10FDF7B6FD02460B464FF001010E4620462946FEF71FF80346002B02D14FF000031E46F3B2002B7FF4F0
S32D0000EC381AAF43F25460C1F6FF704FF0000102F055FE43F25860C1F6FF704FF0000102F04DFE7B69184607F187
S32D0000EC601C07BD46F0BD00BF666666666666F23F33335340AFF30080F0B585B000AFF860B9607A6043F2946047
S32D0000EC88C1F6FF7003F054FF43F2B060C1F6FF7003F04EFFF868FDF71BFD02460B46104619465FA3D3E90023AC
S32D0000ECB0FDF766FD02460B4610461946FDF7FAFF034643F25460C1F6FF70194602F012FEF868FEF75BFB0346F7
S32D0000ECD843F25860C1F6FF70194602F007FEBB68002B08D143F28060C1F6FF7003F07AFA0346002B23D1BB6851
S32D0000ED00012B08D143F28460C1F6FF7003F06EFA0346002B17D1BB68022B08D143F28860C1F6FF7003F062FA2F
S32D0000ED280346002B0BD1BB68032B38D143F28C60C1F6FF7003F056FA0346002B2FD043F29460C1F6FF7003F0D4
S32D0000ED50E7FE03461846FDF7ADFC04460D467868FDF7BAFC02460B46104619464FF000024FF0804303F5901319
S32D0000ED78FDF702FD02460B464FF001010E4620462946FDF76BFF0346002B02D14FF000031E46F3B2002B02D08A
S32D0000EDA04FF0010301E04FF00003002B9BD143F25460C1F6FF7002F07FFD43F25860C1F6FF7002F079FD43F21B
S32D0000EDC89460C1F6FF7003F0A7FE03461846FDF76DFC04460D467868FDF77AFC02460B46104619464FF00002F1
S32D0000EDF04FF0804303F59013FDF7C2FC02460B464FF001010E4620462946FDF72BFF0346002B02D14FF00003FC
S32D0000EE181E46F3B2184607F11407BD46F0BD00BF666666666666F23F90B587B000AFF860B960FA71BB7175E0C6
S32D0000EE40FB79002B18D043F2CC60C1F6FF7007F089F903464FF001041846B968FEF76EFA0346002B01D14FF02F
S32D0000EE680004BB799C4214BF00230123FB7517E043F2CC60C1F6FF7007F060F903464FF001041846B968FEF70D
S32D0000EE9055FA0346002B01D14FF00004BB799C4214BF00230123FB75FB7D002B01D0504B00E0504B184650495F
S32D0000EEB84FF000024FF00003FFF7BAFB43F21470C1F6FF7048F66C11C0F2010104F006FE43F2CC60C1F6FF7031
S32D0000EEE007F030F9034643F21470C1F6FF70194604F002FF43F21470C1F6FF7048F67411C0F2010104F0EEFD33
S32D0000EF0843F2CC60C1F6FF7007F028F9034643F21470C1F6FF70194604F0EAFE4FF0C80002F0BCFFFB79002B86
S32D0000EF301FD043F2CC60C1F6FF7007F013F90346B8681946FDF752FF03461846FFF766FB03464FF0010214464A
S32D0000EF5818462849FEF70CFA0346002B02D14FF000031C46E3B2002B25D1FB7983F00103DBB2002B22D043F256
S32D0000EF80CC60C1F6FF7007F0DDF80346B8681946FDF72CFF03461846FFF740FB03464FF00102144618461549E5
S32D0000EFA8FEF7E6F90346002B02D14FF000031C46E3B2002B02D04FF0010301E04FF00003002B7FF439AF43F2C9
S32D0000EFD05460C1F6FF7002F06FFC43F25860C1F6FF7002F069FC07F11C07BD4690BD00BF0000C8420000C8C2B4
S32D0000EFF80000803E0000003F90B585B000AFF860B960FA71BB7145E0F868FEF7BBF9034643F25460C1F6FF7037
S32D0000F020194602F067FCF868FEF7B0F9034643F25860C1F6FF70194602F05CFC43F21470C1F6FF7048F66C1171
S32D0000F048C0F2010104F04AFD43F2CC60C1F6FF7007F074F8034643F21470C1F6FF70194604F046FE43F2147049
S32D0000F070C1F6FF7048F67411C0F2010104F032FD43F2CC60C1F6FF7007F06CF8034643F21470C1F6FF70194649
S32D0000F09804F02EFEFB79002B36D0BB79002B16D043F2CC60C1F6FF7007F058F803464FF0010214461846B9680E
S32D0000F0C0FEF73CF90346002B02D14FF000031C46E3B2002B59D1BB7983F00103DBB2002B16D043F2CC60C1F6C2
S32D0000F0E8FF7007F03BF803464FF0010214461846B968FEF73DF90346002B02D14FF000031C46E3B2002B3CD11A
S32D0000F110FB7983F00103DBB2002B39D0BB79002B16D043F2CC60C1F6FF7007F00BF803464FF00102144618461C
S32D0000F138B968FEF7FFF80346002B02D14FF000031C46E3B2002B1CD1BB7983F00103DBB2002B19D043F2CC6057
S32D0000F160C1F6FF7006F0EEFF03464FF0010214461846B968FEF700F90346002B02D14FF000031C46E3B2002B7B
S32D0000F18802D04FF0010301E04FF00003002B7FF43BAF43F25460C1F6FF7002F089FB43F25860C1F6FF7002F00F
S32D0000F1B083FB07F11407BD4690BD00BF00000000F0B585B000AFB9607A600246FA73BB73FB7B83F00103DBB2B8
S32D0000F1D8002B28D0B868FEF7D5F8034643F25860C1F6FF70194602F081FBBB6883F000431846FDF76DFA024601
S32D0000F2000B461046194668A3D3E90023FDF7B8FA02460B4610461946FDF74CFD034643F25460C1F6FF70194608
S32D0000F22802F064FB27E0BB6883F000431846FEF7A9F8034643F25860C1F6FF70194602F055FBB868FDF744FA44
S32D0000F25002460B461046194653A3D3E90023FDF78FFA02460B4610461946FDF723FD034643F25460C1F6FF7036
S32D0000F278194602F03BFB43F29460C1F6FF7003F057FC43F2B060C1F6FF7003F051FC39E043F21470C1F6FF70A9
S32D0000F2A004F098FB43F21470C1F6FF7048F62411C0F2010104F016FC43F29460C1F6FF7003F02EFC034643F2C3
S32D0000F2C81470C1F6FF70194604F0FEFC43F21470C1F6FF7048F64811C0F2010104F0FEFB43F29460C1F6FF70BB
S32D0000F2F003F016FC034643F21470C1F6FF70194604F0E6FC4FF0320002F0CCFD43F29460C1F6FF7003F004FC20
S32D0000F31803461846FDF7CAF904460D467868FDF717FE0246FB7B002B05D040F21043C1F6FF731B6804E040F2DE
S32D0000F3400C43C1F6FF731B6810461946FDF758FE03461846FDF7C0F902460B464FF001010E4620462946FDF75A
S32D0000F3687DFC0346002B02D14FF000031E46F3B2002B8DD143F25460C1F6FF704FF0000102F0B4FA43F2586007
S32D0000F390C1F6FF704FF0000102F0ACFA07F11407BD46F0BDAFF30080666666666666F23FB0B586B000AFF86035
S32D0000F3B8B9607A60FB70F868FDF7CAFD054643F2CC60C1F6FF7006F0D9FE03464FF00102144628461946FDF769
S32D0000F3E0ADFF0346002B02D14FF000031C46E3B2002B14D0FB6803F1B4031846FDF7ACFD044643F2CC60C1F659
S32D0000F408FF7006F0BBFE034620461946FDF7EAFC03467B6110E0F868FDF79AFD044643F2CC60C1F6FF7006F009
S32D0000F430A9FE034620461946FDF7D8FC03467B61F868FDF789FD054643F2CC60C1F6FF7006F098FE03464FF04C
S32D0000F4580102144628461946FDF78AFF0346002B02D14FF000031C46E3B2002B17D043F2CC60C1F6FF7006F0D0
S32D0000F48081FE034618463949FDF7B2FC03461C46F868FDF761FD034620461946FDF7A6FC03463B6110E043F209
S32D0000F4A8CC60C1F6FF7006F069FE0446F868FDF74FFD034620461946FDF794FC03463B617B68012B33D0022BE7
S32D0000F4D03CD0002B45D14FF001031C4678693969FDF72CFF0346002B02D14FF000031C46E3B2002B0FD078690F
S32D0000F4F8B96AFDF781FD03461846FDF743FF0246FB784FF00000B968FFF756FE25E03869B96AFDF771FD03469B
S32D0000F5201846FDF733FF0246FB784FF00100B968FFF746FE15E07869FDF728FF0246FB784FF00000B968FFF7E1
S32D0000F5483BFE0AE03869FDF71DFF0246FB784FF00100B968FFF730FE00BF07F11807BD46B0BD00BF0000344305
S32D0000F570B0B586B002AF7860396002F0ADFC02460B4610461946FDF795FB0346FB600DE0304B00937868396823
S32D0000F5984FF000024FF00003FFF706FF4FF0C80002F07CFC7868FDF7D3FC044643F2CC60C1F6FF7006F0E2FD0D
S32D0000F5C0034620461946FDF711FC03461846FFF725F803464FF00102144618461E49FDF7CBFE0346002B02D1A6
S32D0000F5E84FF000031C46E3B2002B27D002F070FC04460D46F868FDF759F802460B4620462946FCF705FF02464D
S32D0000F6100B464FF001010C46104619464FF000024FF0804303F58013FDF71CFB0346002B02D14FF000031C466F
S32D0000F638E3B2002B02D04FF0010301E04FF00003002BA1D107F11007BD46B0BD0000803E0000A040F0B587B016
S32D0000F66000AFF860B9603B601346FB714FF004037B6143F29460C1F6FF7003F05DFA43F2B060C1F6FF7003F0E3
S32D0000F68857FAC4E1FB79002B1BD043F27860C1F6FF7002F05DFE024640F20443C1F6FF731B684FF001010C4654
S32D0000F6B010461946FDF742FE0346002B02D14FF000031C46E3B2002B21D1FB7983F00103DBB2002B1ED043F2E0
S32D0000F6D87860C1F6FF7002F03BFE024643F24463C1F6FF731B684FF001010C4610461946FDF73EFE0346002B1F
S32D0000F70002D14FF000031C46E3B2002B02D04FF0010301E04FF00003002B12D04FF0010000F0F2F97B69002B35
S32D0000F72803D14FF001037B61D7E07B69022B40F0D4804FF003037B61CFE0FB79002B1BD043F27460C1F6FF70EB
S32D0000F75002F002FE024640F20043C1F6FF731B684FF001010C4610461946FDF7E7FD0346002B02D14FF0000387
S32D0000F7781C46E3B2002B21D1FB7983F00103DBB2002B1ED043F27460C1F6FF7002F0E0FD024643F24063C1F6E9
S32D0000F7A0FF731B684FF001010C4610461946FDF7E3FD0346002B02D14FF000031C46E3B2002B02D04FF001036A
S32D0000F7C801E04FF00003002B07D04FF0010000F0C5F94FF002037B617FE0FB79002B1BD043F27C60C1F6FF70C0
S32D0000F7F002F0B2FD024640F20843C1F6FF731B684FF001010C4610461946FDF797FD0346002B02D14FF0000380
S32D0000F8181C46E3B2002B21D1FB7983F00103DBB2002B1ED043F27C60C1F6FF7002F090FD024643F24863C1F688
S32D0000F840FF731B684FF001010C4610461946FDF793FD0346002B02D14FF000031C46E3B2002B02D04FF0010319
S32D0000F86801E04FF00003002B07D04FF0000000F075F94FF000037B612FE07B69042B2CD801A252F823F000BFAD
S32D0000F890BFF80000AFF80000A5F80000C9F80000D9F800004FF0010000F05CF919E04FF000037B614FF00000E2
S32D0000F8B800F054F911E04FF0000000F04FF90CE04FF002037B614FF0010000F047F904E04FF0010000F014F9E0
S32D0000F8E000BF43F21470C1F6FF7004F073F87B69042B44D801A252F823F000BF3DF9000027F9000011F90000AF
S32D0000F90853F9000069F9000043F21470C1F6FF7048F67C11C0F2010104F0C2F92BE043F21470C1F6FF7048F6EE
S32D0000F9309011C0F2010104F0B7F920E043F21470C1F6FF7048F6A811C0F2010104F0ACF915E043F21470C1F628
S32D0000F958FF7048F6BC11C0F2010104F0A1F90AE043F21470C1F6FF7048F61021C0F2010104F096F900BF43F262
S32D0000F9801470C1F6FF7048F6D411C0F2010104F0A9F843F27460C1F6FF7002F0DDFC034643F21470C1F6FF7021
S32D0000F9A8194604F0A5F943F21470C1F6FF7048F6E811C0F2010104F091F843F27860C1F6FF7002F0C5FC0346CA
S32D0000F9D043F21470C1F6FF70194604F08DF943F21470C1F6FF7048F6FC11C0F2010104F079F843F27C60C1F646
S32D0000F9F8FF7002F0ADFC034643F21470C1F6FF70194604F075F94FF0320002F047FABB68002B08D143F280600E
S32D0000FA20C1F6FF7002F0E2FB0346002B23D1BB68012B08D143F28460C1F6FF7002F0D6FB0346002B17D1BB68B2
S32D0000FA48022B08D143F28860C1F6FF7002F0CAFB0346002B0BD1BB68032B38D143F28C60C1F6FF7002F0BEFBF4
S32D0000FA700346002B2FD043F29460C1F6FF7003F04FF803461846FCF715FE04460D463868FCF722FE02460B46D6
S32D0000FA98104619464FF000024FF0804303F59013FCF76AFE02460B464FF001010E4620462946FDF7D3F8034647
S32D0000FAC0002B02D14FF000031E46F3B2002B02D04FF0010301E04FF00003002B7FF4D6AD43F25460C1F6FF703C
S32D0000FAE84FF0000101F002FF43F25860C1F6FF704FF0000101F0FAFE07F11C07BD46F0BD80B582B000AF034658
S32D0000FB10FB71FB79002B10D043F25460C1F6FF704FF0720101F0E6FE43F25860C1F6FF704FF0640101F0DEFEC2
S32D0000FB380FE043F25460C1F6FF706FF0710101F0D5FE43F25860C1F6FF706FF0630101F0CDFE07F10807BD4670
S32D0000FB6080BD00BF80B582B000AF0346FB71FB79002B10D043F25860C1F6FF704FF05A0101F0B8FE43F25460F4
S32D0000FB88C1F6FF704FF0430101F0B0FE0FE043F25460C1F6FF704FF0670101F0A7FE43F25860C1F6FF704FF07A
S32D0000FBB04D0101F09FFE07F10807BD4680BD00BFB0B584B000AFF8600B467A60FB7243F2B060C1F6FF7002F0B0
S32D0000FBD8AFFF43F29460C1F6FF7002F0A9FFFB7A83F00103DBB2002B28D0F868FDF7CAFB034643F25860C1F6C6
S32D0000FC00FF70194601F076FEFB6883F000431846FCF762FD02460B461046194670A3D3E90023FCF7ADFD0246B5
S32D0000FC280B4610461946FDF741F8034643F25460C1F6FF70194601F059FE62E0FB6883F000431846FDF79EFB36
S32D0000FC50034643F25860C1F6FF70194601F04AFEF868FCF739FD02460B46104619465CA3D3E90023FCF784FD69
S32D0000FC7802460B4610461946FDF718F8034643F25460C1F6FF70194601F030FE39E043F21470C1F6FF7003F04B
S32D0000FCA099FE43F21470C1F6FF7048F62411C0F2010103F017FF43F29460C1F6FF7002F02FFF034643F214701F
S32D0000FCC8C1F6FF70194603F0FFFF43F21470C1F6FF7048F64811C0F2010103F0FFFE43F29460C1F6FF7002F03D
S32D0000FCF017FF034643F21470C1F6FF70194603F0E7FF4FF0320002F0CDF843F2CC60C1F6FF7006F0C5F90346C4
S32D0000FD1883F00103DBB2002B55D0FB7A002B24D043F29460C1F6FF7002F0F6FE03461846FDF70EF9054640F281
S32D0000FD400C43C1F6FF731B6818467968FDF758F903464FF00102144628461946FDF7EEFA0346002B02D14FF002
S32D0000FD6800031C46E3B2002B2AD1FB7A83F00103DBB2002B27D043F29460C1F6FF7002F0CBFE03461846FDF70D
S32D0000FD90E3F8054640F21043C1F6FF731B6818467968FDF72DF903464FF00102144628461946FDF7C3FA0346E9
S32D0000FDB8002B02D14FF000031C46E3B2002B02D04FF0010301E04FF00003002B7FF45FAF07F11007BD46B0BD58
S32D0000FDE0666666666666F23F80B582B000AF786039607B68012B40F0AA803A684FF6FF739A4240F0A48043F2B2
S32D0000FE084C60C1F6FF704FF0030102F09FFE43F25060C1F6FF704FF0080102F087FA43F25460C1F6FF704FF014
S32D0000FE30000101F02DFD43F25860C1F6FF704FF0010101F025FD43F25C60C1F6FF704FF0000103F077F843F233
S32D0000FE586860C1F6FF704FF0040103F06FF843F27460C1F6FF704FF0040102F05FFA43F27860C1F6FF704FF0C0
S32D0000FE800C0102F057FA43F27C60C1F6FF704FF0140102F04FFA43F28060C1F6FF704FF0100102F073F843F221
S32D0000FEA88460C1F6FF704FF00F0102F06BF843F28860C1F6FF704FF0070102F063F843F28C60C1F6FF704FF021
S32D0000FED0110102F05BF843F29060C1F6FF704FF0170102F053F843F29460C1F6FF704FF0000102F06FFC42F6AA
S32D0000FEF86913C0F2010343F29460C1F6FF70194643F2A072C1F6FF7207F0EEFA43F2B060C1F6FF704FF0010102
S32D0000FF2002F058FC42F66913C0F2010343F2B060C1F6FF70194643F2A072C1F6FF7207F0D7FA43F2CC60C1F6EA
S32D0000FF48FF7005F043FB07F10807BD4680BD00BF80B500AF4FF001004FF6FF71FFF740FF80BD00BF90B587B05D
S32D0000FF7002AF43F25C60C1F6FF704E4903F000F84D484E494FF000024FF00003FEF754FB4B4B00934FF00000BE
S32D0000FF984A494FF001024FF00003FFF705FA444844494FF000024FF00003FEF741FB424B00934FF05A0041491F
S32D0000FFC04FF001024FF00003FFF7F2F94FF00003FB603DE043F2CC60C1F6FF7006F04CF80346BB6034484FF014
S32D0000FFE80001374AFEF744FE0346FB71304835494FF000024FF00003FEF71AFB32482E494FF000024FF0000386
S32D00010010FEF712FB43F2CC60C1F6FF7006F02CF80246BB689A4214BF00230123DBB2002B0AD0234B00934FF0EB
S32D000100385A0022494FF000024FF00003FFF7B4F9FB6803F10103FB6043F2CC60C1F6FF7006F00EF8044643F2F6
S32D00010060CC60C1F6FF7005F0F5FF03469C4205DAFB68092B02DC4FF0010301E04FF00003002BA7D112481349FC
S32D000100884FF000024FF00003FEF7D2FA0A4B00934FF0000009494FF002024FF00003FFF783F907F11407BD467F
S32D000100B090BD00BF000034420000C8420000C0400000803F0000B4420000E0400000003F0000C8C20000804037
S32D000100D898B500AF21E043F21470C1F6FF7003F075FC43F21470C1F6FF7048F62421C0F2010103F0F3FC43F28C
S32D000101005060C1F6FF7002F027F9034643F21470C1F6FF70194603F0EFFD4FF0C80001F0C1FE43F25060C1F62F
S32D00010128FF7002F015F903461846FCF7D1FA02460B464FF001010C461046194608A3D3E90023FCF7A9FD034687
S32D00010150002B02D14FF000031C46E3B2002BBED198BD00BFAFF30080CDCCCCCCCCCCFC3F80B588B000AF0346F0
S32D00010178FB7143F21470C1F6FF7048F65421C0F2010103F08DFD00BF43F24C60C1F6FF7002F082FD034683F036
S32D000101A00103DBB2002BF3D100BF43F24C60C1F6FF7002F089FD034683F00103DBB2002BF3D143F27460C1F676
S32D000101C8FF7002F0C5F80346FB6143F27C60C1F6FF7002F0BDF80346BB6143F27860C1F6FF7002F0B5F80346E7
S32D000101F07B6143F21470C1F6FF7048F66C21C0F2010103F051FD00BF43F24C60C1F6FF7002F026FD034683F0CE
S32D000102180103DBB2002BF3D100BF43F24C60C1F6FF7002F02BFD034683F00103DBB2002BF3D143F27460C1F65B
S32D00010240FF7002F089F803463B6143F21470C1F6FF7048F68021C0F2010103F025FD00BF43F24C60C1F6FF707B
S32D0001026802F03EFD034683F00103DBB2002BF3D100BF43F24C60C1F6FF7002F045FD034683F00103DBB2002B8C
S32D00010290F3D143F27C60C1F6FF7002F05DF80346FB6043F21470C1F6FF7048F69821C0F2010103F0F9FC00BF28
S32D000102B843F24C60C1F6FF7002F0EEFC034683F00103DBB2002BF3D100BF43F24C60C1F6FF7002F0F5FC034606
S32D000102E083F00103DBB2002BF3D143F27860C1F6FF7002F031F80346BB6043F21470C1F6FF7003F067FBFB79A2
S32D00010308002B00F08780F8693969FCF76DFD034618469949FCF724FF03461A4640F20043C1F6FF731A60B869C3
S32D00010330F968FCF75DFD034618469149FCF714FF03461A4640F20843C1F6FF731A607869B968FCF74DFD034618
S32D0001035818468949FCF704FF03461A4640F20443C1F6FF731A6043F21470C1F6FF7048F6B021C0F2010103F0F6
S32D0001038093FC43F21470C1F6FF7048F6BC21C0F2010103F089FC43F21470C1F6FF7048F6C821C0F2010103F0EC
S32D000103A89DFB40F20043C1F6FF731B6843F21470C1F6FF70194603F09BFC43F21470C1F6FF7048F6EC21C0F2C9
S32D000103D0010103F087FB40F20843C1F6FF731B6843F21470C1F6FF70194603F085FC43F21470C1F6FF7048F68F
S32D000103F81031C0F2010103F071FB40F20443C1F6FF731B6843F21470C1F6FF70194603F06FFC85E0F869396959
S32D00010420FCF7E6FC034618465549FCF79DFE03461A4643F24063C1F6FF731A60B869F968FCF7D6FC03461846F3
S32D000104484D49FCF78DFE03461A4643F24863C1F6FF731A607869B968FCF7C6FC034618464549FCF77DFE0346A2
S32D000104701A4643F24463C1F6FF731A6043F21470C1F6FF7048F63831C0F2010103F00CFC43F21470C1F6FF706A
S32D0001049848F6BC21C0F2010103F002FC43F21470C1F6FF7048F6C821C0F2010103F016FB43F24063C1F6FF73B6
S32D000104C01B6843F21470C1F6FF70194603F014FC43F21470C1F6FF7048F6EC21C0F2010103F000FB43F248639D
S32D000104E8C1F6FF731B6843F21470C1F6FF70194603F0FEFB43F21470C1F6FF7048F64431C0F2010103F0EAFAF2
S32D0001051043F24463C1F6FF731B6843F21470C1F6FF70194603F0E8FB43F21470C1F6FF7048F66831C0F20101B6
S32D0001053803F0B6FB00BF43F24C60C1F6FF7002F0ABFB034683F00103DBB2002BF3D100BF43F24C60C1F6FF7090
S32D0001056002F0B2FB034683F00103DBB2002BF3D14FF4FA7001F096FC07F12007BD4680BD0000004080B500AFDE
S32D0001058843F21470C1F6FF7048F6DC31C0F2010103F086FB00BF43F24C60C1F6FF7002F05BFB034683F0010324
S32D000105B0DBB2002B1AD043F24C60C1F6FF7002F093FB034683F00103DBB2002B0ED043F24C60C1F6FF7002F0A4
S32D000105D863FB034683F00103DBB2002B02D04FF0010301E04FF00003002BD4D143F24C60C1F6FF7002F030FBF2
S32D000106000346002B00F01B8100BF43F24C60C1F6FF7002F037FB034683F00103DBB2002BF3D143F21470C1F635
S32D00010628FF7003F0D3F943F21470C1F6FF7048F66041C0F2010103F033FB43F21470C1F6FF7048F68841C0F24A
S32D00010650010103F029FB00BF43F24C60C1F6FF7002F01EFB034683F00103DBB2002BF3D100BF43F24C60C1F6FE
S32D00010678FF7002F025FB034683F00103DBB2002BF3D143F25460C1F6FF706FF0590101F02DF943F25860C1F613
S32D000106A0FF704FF05A0101F025F943F29460C1F6FF7002F041FA43F2B060C1F6FF7002F03BFA43F29060C1F629
S32D000106C8FF7001F08FFD0346002BF6D143F21470C1F6FF7003F07AF943F25460C1F6FF7001F0E6F843F25860CC
S32D000106F0C1F6FF7001F0E0F843F21470C1F6FF7048F6AC41C0F2010103F0ECF943F29460C1F6FF7002F004FA17
S32D00010718034643F21470C1F6FF70194603F0D4FA43F21470C1F6FF7048F6C841C0F2010103F0D4F943F2B0608B
S32D00010740C1F6FF7002F0ECF9034643F21470C1F6FF70194603F0BCFA43F21470C1F6FF7048F6E841C0F2010163
S32D0001076803F0BCF943F29460C1F6FF7002F0D4F903461846FBF79AFF02460B46104619464FF000024FF08243E7
S32D00010790A3F5D303FCF71EF902460B4643F21470C1F6FF7003F0BCFA43F21470C1F6FF7048F60851C0F2010177
S32D000107B803F094F943F2B060C1F6FF7002F0ACF903461846FBF772FF02460B46104619464FF000024FF08243F3
S32D000107E0A3F5D303FCF7F6F802460B4643F21470C1F6FF7003F094FA43F29460C1F6FF7002F08EF90346184633
S32D00010808FBF754FF02460B46104619464FF000024FF08243A3F5D303FCF7D8F802460B4610461946FCF78AFAF3
S32D00010830024640F20C43C1F6FF731A601CE243F24C60C1F6FF7002F04FFA0346002B00F01B8100BF43F24C604D
S32D00010858C1F6FF7002F058FA034683F00103DBB2002BF3D143F21470C1F6FF7003F0AEF843F21470C1F6FF7074
S32D0001088048F66041C0F2010103F00EFA43F21470C1F6FF7048F68841C0F2010103F004FA00BF43F24C60C1F6D9
S32D000108A8FF7002F0F9F9034683F00103DBB2002BF3D100BF43F24C60C1F6FF7002F000FA034683F00103DBB293
S32D000108D0002BF3D143F25460C1F6FF704FF05A0101F008F843F25860C1F6FF706FF0590101F000F843F2946092
S32D000108F8C1F6FF7002F01CF943F2B060C1F6FF7002F016F943F29060C1F6FF7001F06AFC0346002BF6D143F226
S32D000109201470C1F6FF7003F055F843F25460C1F6FF7000F0C1FF43F25860C1F6FF7000F0BBFF43F21470C1F6D2
S32D00010948FF7048F6AC41C0F2010103F0C7F843F29460C1F6FF7002F0DFF8034643F21470C1F6FF70194603F0EE
S32D00010970AFF943F21470C1F6FF7048F6C841C0F2010103F0AFF843F2B060C1F6FF7002F0C7F8034643F214701E
S32D00010998C1F6FF70194603F097F943F21470C1F6FF7048F6E841C0F2010103F097F843F29460C1F6FF7002F06B
S32D000109C0AFF803461846FBF775FE02460B46104619464FF000024FF08243A3F5D303FBF7F9FF02460B4643F29C
S32D000109E81470C1F6FF7003F097F943F21470C1F6FF7048F60851C0F2010103F06FF843F2B060C1F6FF7002F0D2
S32D00010A1087F803461846FBF74DFE02460B46104619464FF000024FF08243A3F5D303FBF7D1FF02460B4643F2C3
S32D00010A381470C1F6FF7003F06FF943F29460C1F6FF7002F069F803461846FBF72FFE02460B46104619464FF095
S32D00010A6000024FF08243A3F5D303FBF7B3FF02460B4610461946FCF765F9024640F21043C1F6FF731A60F7E069
S32D00010A8800BF43F24C60C1F6FF7002F019F9034683F00103DBB2002BF3D143F21470C1F6FF7002F093FF43F2A1
S32D00010AB01470C1F6FF7048F62C51C0F2010103F0F3F843F21470C1F6FF7048F68841C0F2010103F0E9F800BFF3
S32D00010AD843F24C60C1F6FF7002F0DEF8034683F00103DBB2002BF3D100BF43F24C60C1F6FF7002F0E5F8034606
S32D00010B0083F00103DBB2002BF3D143F25460C1F6FF704FF05A0100F0EDFE43F25860C1F6FF704FF05A0100F0B2
S32D00010B28E5FE43F29460C1F6FF7002F001F843F2B060C1F6FF7001F0FBFF43F29060C1F6FF7001F04FFB03465C
S32D00010B50002BF6D143F21470C1F6FF7002F03AFF43F25460C1F6FF7000F0A6FE43F25860C1F6FF7000F0A0FE36
S32D00010B7843F21470C1F6FF7048F6AC41C0F2010102F0ACFF43F29460C1F6FF7001F0C4FF034643F21470C1F637
S32D00010BA0FF70194603F094F843F21470C1F6FF7048F6C841C0F2010102F094FF43F2B060C1F6FF7001F0ACFF73
S32D00010BC8034643F21470C1F6FF70194603F07CF843F21470C1F6FF7048F64C51C0F2010102F07CFF43F294600C
S32D00010BF0C1F6FF7001F094FF03461846FBF75AFD02460B46104619464FF000024FF0804303F58403FBF7DEFE5E
S32D00010C1802460B4643F21470C1F6FF7003F07CF843F21470C1F6FF7048F60851C0F2010102F054FF43F2B0601A
S32D00010C40C1F6FF7001F06CFF03461846FBF732FD02460B46104619464FF000024FF0804303F58403FBF7B6FE85
S32D00010C6802460B4643F21470C1F6FF7003F054F843F21470C1F6FF7048F66C51C0F2010103F00EF800BF43F22B
S32D00010C904C60C1F6FF7002F003F8034683F00103DBB2002BF3D100BF43F24C60C1F6FF7002F00AF8034683F0C4
S32D00010CB80103DBB2002BF3D180BD00BF80B500AF43F26860C1F6FF70074902F055F94FF4FA6001F0E3F843F25C
S32D00010CE06860C1F6FF70034902F04AF980BD00BF0000F0410000E64280B582B002AF43F25C60C1F6FF702B497E
S32D00010D0802F03AF92A484FF00101284AFDF7B0FF284B00934FF05A0027494FF002024FF00003FEF741FB25489D
S32D00010D3025494FF000024FF00103FEF779F81F4B00934FF000001E494FF001024FF00003FEF72EFB1D484FF053
S32D00010D5800011D4AFDF78CFF154816494FF000024FF00003FDF764FC124B00934FF0870011494FF002024FF060
S32D00010D800003FEF715FB43F25C60C1F6FF70114902F0F6F80A484FF000010C4AFEF710FF43F25C60C1F6FF70E8
S32D00010DA8024902F0E9F8BD4680BD00BF0000F0410000C8C20000803F0000B4420000A0420000B0C00000C84233
S32D00010DD0000040410000964290B587B002AFA948A9494FF000024FF00003FDF725FCA74B00934FF05A00A649E6
S32D00010DF84FF002024FF00003FEF7D6FAA348A4494FF000024FF00103FEF70EF89D4B00934FF000009C494FF04D
S32D00010E2001024FF00003FEF7C3FA4FF000009949FEF79EFB93484FF00101984AFDF71CFF0346FB7343F25C6048
S32D00010E48C1F6FF70944902F097F8944894494FF000024FF00003FDF7EBFB4FF0FA0001F01DF843F25C60C1F6FA
S32D00010E70FF708A4902F084F882484FF001018B4AFDF7FAFE4FF0FA0001F00CF8854888494FF000024FF0000388
S32D00010E98FDF7CEFB79484FF00101824AFDF7E8FE784B00934FF05A0077494FF001024FF00103FEF779FA794869
S32D00010EC07C494FF000024FF00003FDF7B1FF6F4B00934FF000006E494FF002024FF00103FEF766FA4FF00000BA
S32D00010EE86949FEF741FB43F2CC60C1F6FF7005F035F90346BB6061486D494FF000024FF00003FDF795FB43F24F
S32D00010F10CC60C1F6FF7005F025F903461846B968FBF764FF03461846FDF778FB03464FF001021446184658493E
S32D00010F38FCF700FA0346002B02D14FF000031C46E3B2002B1DD04F4B00934FF05A004E494FF002024FF0000323
S32D00010F60FEF726FA474855494FF000024FF00003FDF762FB454B00934FF0000044494FF001024FF00003FEF7E4
S32D00010F8813FA3E484C494FF00002FDF731FD03461846FCF7F7F903467B6038484FF00101404AFDF765FE374BDD
S32D00010FB000934FF05A0036494FF002024FF00103FEF7F6F92F484FF00101374AFDF754FE30483C494FF0000240
S32D00010FD84FF00103FDF728FF2A4B00934FF0000029494FF001024FF00103FEF7DDF94FF0FA0000F053FF234B9A
S32D0001100000934FF0000022494FF000024FF00103FEF7CEF94FF000001E49FEF7A9FA19484FF00101204AFDF706
S32D0001102827FE43F25C60C1F6FF701B4901F0A4FF1A481C494FF000024FF00003FDF7F8FA0E4813494FF0000242
S32D000110504FF00003FDF7F0FA43F25C60C1F6FF70194901F08DFF0F4818494FF000024FF00003FDF7E1FA7B686E
S32D00011078184607F11407BD4690BD00BF0000C8C20000C0400000803F0000B4420000A0420000A0400000204167
S32D000110A00000FA420000C8420000A0410000F04100000040CDCCCC3F0000004100004040000000429A9959C195
S32D000110C80000DC420000404180B584B002AF78604E484FF001014E4AFDF7CAFD43F25C60C1F6FF704A4901F0A3
S32D000110F047FF4A4B00934FF05A0049494FF002024FF00003FEF754F942484FF00101454AFDF7B2FD414B009355
S32D000111184FF0000040494FF001024FF00003FEF743F93A484FF001013D4AFDF7A1FD394B00934FF05A0038491E
S32D000111404FF002024FF00003FEF732F931484FF00101354AFDF790FD7B68022B08D1334833494FF000024FF0C1
S32D000111680003FDF765FA2BE02E4830494FF000024FF00003FDF75CFA264B00934FF0000025494FF001024FF009
S32D000111900003FEF70DF91F484FF00101264AFDF76BFD264B00934FF05A001D494FF002024FF00003FEF7FCF84D
S32D000111B81C481B494FF000024FF00003FDF738FAFFF77CFD11484FF001011B4AFDF750FD144816494FF00002EC
S32D000111E04FF00003FDF728FA0C4B00934FF000000B494FF001024FF00003FEF7D9F805484FF001010E4AFDF7E7
S32D0001120837FD07F10807BD4680BD00BF0000C8C20000F0410000803F0000B4420000A041000000410000C842E1
S32D000112300000E040000050410000A040000000000000204280B582B002AF43F25C60C1F6FF70524901F094FE4F
S32D00011258514852494FF001024FF00103FDF7CCFE43F25C60C1F6FF704D4901F085FE4D4B00934FF05A004C4976
S32D000112804FF001024FF00003FEF792F849484A494FF000024FF00003FDF7CAFD434B00934FF0000042494FF0B0
S32D000112A802024FF00003FEF77FF842484FF00101414AFDF7DDFC43F25C60C1F6FF703F4901F05AFE39483E4952
S32D000112D04FF001024FF00103FDF7AAFD334B00934FF05A0032494FF002024FF00003FEF75FF82E4B00934FF08E
S32D000112F800002D494FF002024FF00003FEF754F8284B00934FF05A0027494FF001024FF00003FEF749F843F28D
S32D000113205C60C1F6FF70204901F02AFE4FF0FA0000F0B8FD254B00934FF05A001C494FF000024FF00003FEF7E3
S32D0001134833F81A484FF003014FF001021E4BFEF781F918481D494FF000024FF00003FDF767F943F25C60C1F647
S32D00011370FF700A4901F004FE0E4817494FF000024FF00003FDF758F943F25C60C1F6FF70054901F0F5FDBD46D0
S32D0001139880BD00BF0000FA420000FE42000018420000F0410000803F0000B4420000C842666626400000C8C2A8
S32D000113C00000204100009642000026420000003F00000041000080400000404080B582B002AF164816494FF089
S32D000113E800024FF00003FDF723F9144B00934FF0000013494FF001024FF00003FDF7D4FF0C484FF001010F4ABC
S32D00011410FDF732FC0B4B00934FF05A000A494FF000024FF00003FDF7C3FF04484FF00101074AFDF721FCBD468B
S32D0001143880BD00BF0000C8C20000F0410000803F0000B4420000704100007A4480B500AF44F2F022C1F6FF7256
S32D0001146043F24063C1F6FF73D31A194643F24063C1F6FF731A460B4610464FF000011A4604F0ADFF80BD00BFCC
S32D0001148806F038F800F0B0F9FFF7E0FF05F0E8FF05F084FF06F03EF800F00CF84FF0000043F2D461C1F6FF715D
S32D000114B0FCF7CCFF0346184604F06CFF80B500AF4FF4E043C4F204034FF4E042C4F2040202F5805202F138022B
S32D000114D8126842F4785203F5805303F138031A6000F02EF900F094F843F2E063C1F6FF734FF058021A6043F27B
S32D00011500E063C1F6FF731B684FF47A7202FB03F243F2DC63C1F6FF731A6043F2DC63C1F6FF731B681A464FF4D2
S32D00011528E043C4F2040303F5825303F104031B6803F070634FEA136303F10103B2FBF3F31A4643F2E463C1F6D6
S32D00011550FF731A604FF4E043C4F204034FF4E042C4F2040202F5805202F13C02126842F0225203F5805303F163
S32D000115783C031A604FF4E043C4F204034FF4E042C4F2040202F5805202F13002126842F0006203F5805303F18C
S32D000115A030031A604FF45043C4F203034FF480721A614FF0640000F009FB4FF45043C4F203034FF45042C4F279
S32D000115C80302526922F010025A614FF45043C4F203034FF000021A604FF45043C4F203034FF010025A6101F079
S32D000115F005F801F0ADF843F2D860C1F6FF7000F069FB43F21470C1F6FF7002F0A1F841F2883000F047FC80BD8D
S32D0001161880B400AF4FF48043C4F206034FF000025A704FF48043C4F206034FF098021A704FF48043C4F2060303
S32D000116409B79DBB203F01003002B0CBF00230123DBB2002BF0D14FF48043C4F206039B79DBB203F00C034FEA7D
S32D000116689303022B0CBF00230123DBB2002BEED14FF48043C4F206034FF018021A714FF48043C4F206034FF05A
S32D0001169000025A714FF4E043C4F2040303F5825303F104034FF00002C0F213121A604FF48043C4F206034FF0DD
S32D000116B854025A7100BF4FF48043C4F206039B79DBB203F02003002B14BF00230123DBB2002BF0D100BF4FF4E7
S32D000116E08043C4F206039B79DBB203F04003002B14BF00230123DBB2002BF0D14FF48043C4F206034FF48042FA
S32D00011708C4F206021278D2B202F03F02D2B21A704FF48043C4F206039B79DBB203F00C034FEA9303032B0CBF75
S32D0001173000230123DBB2002BEED14FF000031846BD4680BC704700BF80B400AF4FF44043C4F204034FF48072DC
S32D000117585A634FF2C003C4F20F034FF2C002C4F20F02526942F400525A614FF2C003C4F20F034FF2C002C4F28C
S32D000117800F02126842F400521A604FF44043C4F2040340F20312C0F20A021A634FF46143CEF200034FF4614218
S32D000117A8CEF20002D2F8882142F08062C3F888214FF46143CEF200034FF46142CEF20002926842F080629A600B
S32D000117D0BD4680BC704700BF80B483B000AF7860FEE700BF80B400AF00BEBD4680BC704780B400AF4FF0E022E8
S32D000117F84CF20003C0F20003C2F8083D4FF40053C4F205034CF22052DA814FF40053C4F205034DF62812DA8142
S32D000118204FF40053C4F205034FF0D2021A80BD4680BC704780B400AF4FF44043C4F20403D3F8A03003F48053D7
S32D00011848002B0CBF00230123DBB2002B19D04FF44043C4F204034FF44042C4F20402D2F8A02022F48052C3F862
S32D00011870A0204FF2C003C4F20F034FF2C002C4F20F02126822F400521A60BD4680BC704780B483B000AF7860B3
S32D000118980B46FB707B68FA781A707B684FF000025A707B68184607F10C07BD4680BC704780B582B000AF786068
S32D000118C07B685B78002B10D07B684FF000025A707B681B7843F2D860C1F6FF7019464FF000024FF01E0300F051
S32D000118E83FFA07F10807BD4680BD00BF80B584B000AF786039603B687F2B03DD4FF07F03FB7309E03B6813F11D
S32D00011910800F03DA4FF08003FB7301E03B68FB737B685B78FA7B9A420FD07B68FA7B5A707B681A78FB7B43F2F2
S32D00011938D860C1F6FF7011461A464FF01E0300F00FFA07F11007BD4680BD00BF90B486B000AFF860B9607A6090
S32D00011960FA684FF42043C4F206039A4214D14FF4E043C4F204034FF4E042C4F2040202F5805202F13402126820
S32D0001198842F4806203F5805303F134031A6083E0FA684FF43043C4F206039A4214D14FF4E043C4F204034FF447
S32D000119B0E042C4F2040202F5805202F13402126842F4006203F5805303F134031A6067E0FA684FF44043C4F291
S32D000119D806039A4214D14FF4E043C4F204034FF4E042C4F2040202F5805202F13402126842F4805203F5805393
S32D00011A0003F134031A604BE0FA684FF45043C4F206039A4214D14FF4E043C4F204034FF4E042C4F2040202F5F4
S32D00011A28805202F13402126842F4005203F5805303F134031A602FE0FA684FF42043C4F20E039A4214D14FF440
S32D00011A50E043C4F204034FF4E042C4F2040202F5805202F12802126842F4806203F5805303F128031A6013E097
S32D00011A784FF4E043C4F204034FF4E042C4F2040202F5805202F12802126842F4006203F5805303F128031A609F
S32D00011AA0FB68DB78DBB223F00C03DAB2FB68DA70FB684FF000029A70BB684FF47A7202FB03F27B684FEA031355
S32D00011AC892FBF3F39CB2FB681B78DBB223F01F03FB75234603F4F8534FEA2323DBB203F01F03DAB2FB7D1343E0
S32D00011AF0DAB2FB681A70E2B2FB685A70BB684FF4FA4202FB03F27B684FEA031392FBF3F39AB2234619464FEA07
S32D00011B18C121CB1A4FEA43139BB2D3189CB2FB689B7ADBB223F01F03FB75E3B203F01F03DAB2FB7D1343DAB288
S32D00011B40FB689A72FB68DB78DBB243F00C03DAB2FB68DA7007F11807BD4690BC704700BF80B483B000AF78607F
S32D00011B6800BF7B681B79DBB203F02003002B14BF00230123DBB2002BF3D17B68DB79DBB2184607F10C07BD4684
S32D00011B9080BC704780B483B000AF78600B46FB7000BF7B681B79DBB2DBB26FEA0303DBB24FEAD313DBB2002B76
S32D00011BB8F3D17B68FA78DA7107F10C07BD4680BC704700BF80B483B000AF78604FF4E043C4F204034FF4E04264
S32D00011BE0C4F2040202F5805202F13802126842F0010203F5805303F138031A604FF00003C4F204037A689A6026
S32D00011C084FF00003C4F204034FF005025A604FF00003C4F204034FF00002C4F20402126842F001021A6000BFCA
S32D00011C304FF00003C4F204031B6803F08003002B14BF00230123DBB2002BF1D14FF00003C4F204034FF000028E
S32D00011C58C4F20402126822F001021A6007F10C07BD4680BC704700BF80B582B000AF786039607B68012B0AD167
S32D00011C803A684FF6FF739A4205D143F2D860C1F6FF7000F00FF807F10807BD4680BD00BF80B500AF4FF0010076
S32D00011CA84FF6FF71FFF7E0FF80BD00BF80B483B000AF78607B684FF000021A707B68184607F10C07BD4680BC60
S32D00011CD0704700BF80B582B000AF78607B681B7883F00103DBB2002B36D04FF4E043C4F2040303F5805303F1F4
S32D00011CF828034FF400621A604FF45043C4F204034FF440721A624FF45043C4F204034FF440725A6243F2DC63B7
S32D00011D20C1F6FF731B684FEAD372D3184FEA63034FF43040C4F20E0019464FF46142FFF709FE4FF0640000F094
S32D00011D48ADF87B684FF001021A704FF0010301E04FF00003184607F10807BD4680BD00BF80B582B000AF786060
S32D00011D70F970BA707B704FF43040C4F20E004FF07F01FFF707FF4FF43040C4F20E004FF00801FFF7FFFEFB786F
S32D00011D984FF43040C4F20E001946FFF7F7FEBB784FF43040C4F20E001946FFF7EFFE7B784FF43040C4F20E0005
S32D00011DC01946FFF7E7FE4FF43040C4F20E004FF0FF01FFF7DFFE07F10807BD4680BD00BF80B487B000AFF860B9
S32D00011DE8B9607A60FA6844F6D353C1F26203A3FB02134FEA9312BB68D3187B61FA6844F6D353C1F26203A3FB0C
S32D00011E1002134FEA93134FF47A7101FB03F3D31AFB60FB684FEAC33244F6D353C1F26203A3FB02134FEA9312AD
S32D00011E387B68D3183B613B694FEAD3337A69D3187B613B694FEA43434FEA53433B614FF45043C4F203031B68A1
S32D00011E601A467B699A4211D34FF45043C4F203031B681A467B699A420BD14FF45043C4F203035B681A463B69E5
S32D00011E889A4202D24FF0010301E04FF00003002BDDD107F11C07BD4680BC704780B584B000AF78604FF4504365
S32D00011EB0C4F203031B68FB604FF45043C4F203035B68BB607B681846F968BA68FFF788FF07F11007BD4680BD69
S32D00011ED880B584B000AF4FF45043C4F203031B68FB604FF45043C4F203035B68BB60F868FAF7CCFB02460B4632
S32D00011F00C7E90023B868FAF7C5FB02460B46104619464FF000024FF0804303F56003FAF759FD02460B46D7E982
S32D00011F280001FAF777FA02460B46C7E90023D7E900231046194607F11007BD4680BD00BF80B483B000AF4FF4BC
S32D00011F505043C4F203031B684FF47A7202FB03F37B604FF45043C4F203035B684FF47A7202FB03F34FEAD333DD
S32D00011F787A68D3187B607B68184607F10C07BD4680BC704780B582B000AF78600B46FB70FB787868194600F004
S32D00011FA013F87B68184607F10807BD4680BD00BF80B483B000AF78607B68184607F10C07BD4680BC704700BFD1
S32D00011FC880B483B000AF78600B46FB707B68FA781A707B681B781A4648F64C73C0F201039B5C042B00F2F98047
S32D00011FF001A252F823F000BF0D2001006B200100C920010027210100852101004FF41043C4F204037A681278B0
S32D00012018114648F69072C0F2010252F8212040F2031143F822104FF47043C4F20F034FF47042C4F20F025269DA
S32D0001204011467A681278104648F69072C0F2010252F8202002F01F024FF0010000FA02F26FEA02020A405A6136
S32D00012068BBE04FF42043C4F204037A681278114648F69072C0F2010252F8212040F2031143F822104FF24003D1
S32D00012090C4F20F034FF24002C4F20F02526911467A681278104648F69072C0F2010252F8202002F01F024FF06A
S32D000120B8010000FA02F26FEA02020A405A618CE04FF43043C4F204037A681278114648F69072C0F2010252F8C7
S32D000120E0212040F2031143F822104FF28003C4F20F034FF28002C4F20F02526911467A681278104648F69072B3
S32D00012108C0F2010252F8202002F01F024FF0010000FA02F26FEA02020A405A615DE04FF44043C4F204037A6824
S32D000121301278114648F69072C0F2010252F8212040F2031143F822104FF2C003C4F20F034FF2C002C4F20F02D6
S32D00012158526911467A681278104648F69072C0F2010252F8202002F01F024FF0010000FA02F26FEA02020A401D
S32D000121805A612EE04FF45043C4F204037A681278114648F69072C0F2010252F8212040F2031143F822104FF49B
S32D000121A87143C4F20F034FF47142C4F20F02526911467A681278104648F69072C0F2010252F8202002F01F0269
S32D000121D04FF0010000FA02F26FEA02020A405A6100BF07F10C07BD4680BC704780B485B000AF78604FF000035E
S32D000121F8FB607B681B781A4648F64C73C0F201039B5C042B00F2868001A252F823F000BF2D2201005D22010027
S32D000122208D220100BD220100ED2201004FF47043C4F20F031B691A467B681B78194648F69073C0F2010353F836
S32D00012248213003F01F034FF0010101FA03F31340FB605FE04FF24003C4F20F031B691A467B681B78194648F69F
S32D000122709073C0F2010353F8213003F01F034FF0010101FA03F31340FB6047E04FF28003C4F20F031B691A465E
S32D000122987B681B78194648F69073C0F2010353F8213003F01F034FF0010101FA03F31340FB602FE04FF2C003A7
S32D000122C0C4F20F031B691A467B681B78194648F69073C0F2010353F8213003F01F034FF0010101FA03F3134041
S32D000122E8FB6017E04FF47143C4F20F031B691A467B681B78194648F69073C0F2010353F8213003F01F034FF016
S32D00012310010101FA03F31340FB6000BFFB68002B0CBF00230123DBB2184607F11407BD4680BC704780B483B043
S32D0001233800AF78600B46FB707B68FA781A707B68184607F10C07BD4680BC70470000000080B586B000AF786020
S32D000123607B681B781A4649F21003C0F2010353F822303B617B681B781A4648F66C73C0F201039B5CFB733B6989
S32D00012388DBB203F01F03DAB243F2E863C1F6FF731A723B69DBB203F01F03DAB243F2E863C1F6FF735A724FF439
S32D000123B06143CEF200034FF46142CEF20002D2F8882042F01002C3F88820FB7B002B1ED14FF43040C4F20300DA
S32D000123D843F2E861C1F6FF7100F04CFD4FF43043C4F203031B6803F08003002B14BF00230123DBB2002BF1D1CE
S32D000124004FF43043C4F203031B697B611DE04FF43040C4F20B0043F2E861C1F6FF7100F02DFD4FF43043C4F23F
S32D000124280B031B6803F08003002B14BF00230123DBB2002BF1D14FF43043C4F20B031B697B614FF46143CEF23E
S32D0001245000034FF46142CEF20002D2F8882142F01002C3F888214FF46143CEF200034FF46142CEF2000292684B
S32D0001247842F010029A604FF46143CEF200034FF46142CEF20002D2F8882142F08062C3F888214FF46143CEF213
S32D000124A000034FF46142CEF20002926842F080629A607B694FEA03434FEA13431846FAF7E9F802460B46104649
S32D000124C819460FA3D3E90023FAF756F902460B46104619460CA3D3E90023FAF777FA02460B4610461946FAF738
S32D000124F029FC0346BB60BB68184607F11807BD4680BD00BFAFF30080A4703D0AD7A30A4000000000E0FFEF404E
S32D0001251880B586B000AF78607B681B781A4649F21003C0F2010353F822303B617B681B781A4648F66C73C0F2EA
S32D0001254001039B5CFB733B69DBB203F01F03DAB243F2F863C1F6FF731A723B69DBB203F01F03DAB243F2F8638A
S32D00012568C1F6FF735A72FB7B002B1ED14FF43040C4F2030043F2F861C1F6FF7100F07AFC4FF43043C4F20303C6
S32D000125901B6803F08003002B14BF00230123DBB2002BF1D14FF43043C4F203031B697B611DE04FF43040C4F22C
S32D000125B80B0043F2F861C1F6FF7100F05BFC4FF43043C4F20B031B6803F08003002B14BF00230123DBB2002B7D
S32D000125E0F1D14FF43043C4F20B031B697B617B69184607F11807BD4680BD00BF98B500AF43F2E863C1F6FF7333
S32D000126084FF05C021A7043F2E863C1F6FF734FF010025A7043F2E863C1F6FF7341F234225A8043F2E863C1F675
S32D00012630FF7345F278629A8043F2E863C1F6FF734FF010029A7143F2E863C1F6FF734FF00702DA7143F2E8631D
S32D00012658C1F6FF734FF4C022DA6043F2E863C1F6FF734FF01F021A7243F2E863C1F6FF734FF01F025A724FF41E
S32D000126803040C4F2030043F2E861C1F6FF7100F0F5FB4FF43040C4F20B0043F2E861C1F6FF7100F0EBFB4FF44B
S32D000126A83040C4F20B0000F03FFB4FF43040C4F2030000F039FB4FF43040C4F20B0043F2E861C1F6FF7100F00F
S32D000126D0D5FB4FF43040C4F2030043F2E861C1F6FF7100F0CBFB43F2F862C1F6FF7243F2E863C1F6FF7314468A
S32D000126F80FCB84E80F0043F2F863C1F6FF734FF05C021A7043F2F863C1F6FF734FF00402DA7198BD80B500AFFC
S32D0001272043F20C73C1F6FF731B6803F1010243F20C73C1F6FF731A6000F072F94FF4E043C4F203034FF001021D
S32D00012748C3F80C2180BD00BF80B500AF4FF4E043C4F203034FF001021A6048F2A060C0F2010000F023F84FF481
S32D00012770E043C4F203034FF00302C3F808214FF46143CEF200034FF46142CEF20002D2F8882142F01002C3F86F
S32D0001279888214FF46143CEF200034FF46142CEF20002926842F010029A6080BD80B483B000AF78604FF4E0434E
S32D000127C0C4F203037A68C3F8002107F10C07BD4680BC704780B584B000AF78600B46FB707A68FB7810461946B9
S32D000127E8FFF7A4FD43F20873C1F6FF731B68002B32D17B684FF000021A617B684FF000025A614FF0140004F0DC
S32D0001281091FE02467B689A617B689B697A689A607B689B694FF001025A607B689B69FA781A707B689B694FF035
S32D000128380002DA607B689B694FF000021A617B689B694FF000025A707B689A6943F20873C1F6FF731A6071E016
S32D0001286043F20873C1F6FF731B68FB6002E0FB68DB68FB60FB681B78FA789A4206D0FB68DB68002B02D04FF0B3
S32D00012888010301E04FF00003002BECD1FB681B78FA789A4224D17B68FA689A617B689B699B68BB6002E0BB688F
S32D000128B01B69BB60BB681B69002B0CBF00230123DBB2002BF3D1BB687A681A617B68BA685A617B684FF0000296
S32D000128D81A617B689B695A6802F101025A602DE07B684FF000021A617B684FF000025A614FF0140004F01AFE13
S32D0001290002467B689A617B689B697A689A607B689B694FF001025A607B689B69FA781A707B689B694FF00002D1
S32D00012928DA607B689B694FF000025A707B689B69FA681A617B689A69FB68DA60786800F0F7F87B684FF48C425A
S32D000129509A607B684FF45242DA607B68184607F11007BD4680BD00BF80B586B000AF78607B685B697B617B68C3
S32D000129781B693B617B69002B31D13B69002B2ED17B689B691B69FB607B689B69DB68BB60FB68002B0AD1BB689A
S32D000129A0002B07D143F20873C1F6FF734FF000021A6012E0FB68002B03D0FB68BA68DA6005E043F20873C1F613
S32D000129C8FF73BA681A60BB68002B02D0BB68FA681A617B689B69184604F0CEFD16E07B69002B03D07B693A694F
S32D000129F01A6103E07B689B693A699A603B69002B02D03B697A695A617B689B695A6802F1FF325A607B6818462B
S32D00012A1807F11807BD4680BD80B584B000AF43F20873C1F6FF731B68FB6029E0FB685B78FB71FB689B681846FA
S32D00012A4000F02EF80346BB71BB79002B19D0FB685B68012B15DDFB689B681B69BB6008E0BB685B6803F1010286
S32D00012A68BB685A60BB681B69BB60BB68002B0CBF00230123DBB2002BEED1FB68DB68FB60FB68002B0CBF00234C
S32D00012A900123DBB2002BCDD107F11007BD4680BD80B584B000AF78607868FFF735FD0346FB607B689B695B78F8
S32D00012AB8FB72FB7A002B12D17B68DA68FB689A420DDA7B689B694FF001025A707B685B6803F101027B685A6087
S32D00012AE04FF0010317E0FB7A012B12D17B689A68FB689A420DDD7B689B694FF000025A707B685B6803F101026C
S32D00012B087B685A604FF0010301E04FF00003184607F11007BD4680BD80B483B000AF78607B685B68184607F104
S32D00012B300C07BD4680BC704780B483B000AF78607B684FF000025A6007F10C07BD4680BC704700BF80B582B07A
