S01600002E2E2F464548526F626F74436F64652E733139FF
S32D0000C000000000205D120100B9150100B9150100B9150100B9150100B915010000000000000000000000000077
S32D0000C02800000000B9150100B915010000000000B9150100B9150100B9150100B9150100B9150100B915010072
S32D0000C050B9150100B9150100B9150100B9150100B9150100B9150100B9150100B9150100B9150100B9150100AC
S32D0000C078B9150100B9150100B9150100B9150100B9150100B9150100B9150100B9150100B9150100B915010084
S32D0000C0A0B9150100B9150100B9150100B9150100B9150100B9150100B9150100B9150100B9150100B91501005C
S32D0000C0C8B9150100B9150100B9150100B9150100B9150100B9150100B9150100B9150100B9150100B915010034
S32D0000C0F0B915010031520100B9150100B9150100B9150100B9150100B9150100B9150100B9150100B915010057
S32D0000C118B9150100B9150100B9150100B9150100B9150100B9150100B9150100B9150100B9150100B9150100E3
S32D0000C140B9150100B9150100B9150100B9150100ED240100B9150100B9150100B9150100B9150100B915010078
S32D0000C168B9150100B9150100B9150100B9150100B9150100B9150100B9150100B9150100B9150100B915010093
S32D0000C190B9150100B9150100B9150100B9150100B9150100B915010009160100B9150100B9150100B91501001A
S32D0000C1B8B9150100B9150100B9150100B9150100B9150100B9150100B9150100B9150100B9150100B915010043
S32D0000C41081F0004102E000BF83F0004330B54FEA41044FEA430594EA050F08BF90EA020F1FBF54EA000C55EAC6
S32D0000C438020C7FEA645C7FEA655C00F0E2804FEA5454D4EB5555B8BF6D420CDD2C4480EA020281EA030382EA0F
S32D0000C460000083EA010180EA020281EA0303362D88BF30BD11F0004F4FEA01314FF4801C4CEA113102D0404263
S32D0000C48861EB410113F0004F4FEA03334CEA133302D0524263EB430394EA050F00F0A780A4F10104D5F1200E8A
S32D0000C4B00DDB02FA0EFC22FA05F2801841F1000103FA0EF2801843FA05F359410EE0A5F120050EF1200E012A2D
S32D0000C4D803FA0EFC28BF4CF0020C43FA05F3C01851EBE37101F0004507D54FF0000EDCF1000C7EEB00006EEB67
S32D0000C5000101B1F5801F1BD3B1F5001F0CD349085FEA30004FEA3C0C04F101044FEA445212F5800F80F09A8000
S32D0000C528BCF1004F08BF5FEA500C50F1000041EB045141EA050130BD5FEA4C0C404141EB010111F4801FA4F114
S32D0000C5500104E9D191F0000F04BF01460020B1FA81F308BF2033A3F10B03B3F120020CDA0C3208DD02F1140C87
S32D0000C578C2F10C0201FA0CF021FA02F10CE002F11402D8BFC2F1200C01FA02F120FA0CFCDCBF41EA0C019040B1
S32D0000C5A0E41AA2BF01EB0451294330BD6FEA04041F3C1CDA0C340EDC04F11404C4F1200220FA04F001FA02F3B6
S32D0000C5C840EA030021FA04F345EA030130BDC4F10C04C4F1200220FA02F001FA04F340EA0300294630BD21FAA8
S32D0000C5F004F0294630BD94F0000F83F4801306BF81F480110134013D4EE77FEA645C18BF7FEA655C29D094EA1C
S32D0000C618050F08BF90EA020F05D054EA000C04BF1946104630BD91EA030F1EBF0021002030BD5FEA545C05D1A3
S32D0000C6404000494128BF41F0004130BD14F580043CBF01F5801130BD01F0004545F0FE4141F470014FF0000031
S32D0000C66830BD7FEA645C1ABF194610467FEA655C1CBF0B46024650EA013406BF52EA033591EA030F41F40021D7
S32D0000C69030BD00BF90F0000F04BF0021704730B54FF4806404F132044FF000054FF0000150E700BF90F0000F66
S32D0000C6B804BF0021704730B54FF4806404F1320410F0004548BF40424FF000013EE700BF42004FEAE2014FEAF9
S32D0000C6E031014FEA02701FBF12F07F4393F07F4F81F06051704792F0000F14BF93F07F4F704730B54FF460741B
S32D0000C70801F0004521F0004120E700BF50EA010208BF704730B54FF000050AE050EA010208BF704730B511F046
S32D0000C730004502D5404261EB41014FF4806404F132045FEA915C3FF4DCAE4FF003025FEADC0C18BF03325FEAA0
S32D0000C758DC0C18BF033202EBDC02C2F1200300FA03FC20FA02F001FA03FE40EA0E0021FA02F11444C1E600BF19
S32D0000C78070B54FF0FF0C4CF4E06C1CEA11541DBF1CEA135594EA0C0F95EA0C0F00F0DEF82C4481EA030621EAF3
S32D0000C7A84C5123EA4C5350EA013518BF52EA033541F4801143F4801338D0A0FB02CE4FF00005E1FB02E506F05F
S32D0000C7D00042E0FB03E54FF00006E1FB03569CF0000F18BF4EF0010EA4F1FF04B6F5007F64F5407404D25FEA0F
S32D0000C7F84E0E6D4146EB060642EAC62141EA55514FEAC52040EA5E504FEACE2EB4F1FD0C88BFBCF5E06F1ED8D2
S32D0000C820BEF1004F08BF5FEA500E50F1000041EB045170BD06F0004646EA010140EA020081EA0301B4EB5C0487
S32D0000C848C2BFD4EB0C0541EA045170BD41F480114FF0000E013C00F3AB8014F1360FDEBF002001F0004170BDF0
S32D0000C870C4F10004203C35DA0C341BDC04F11404C4F1200500FA05F320FA04F001FA05F240EA020001F0004207
S32D0000C89821F0004110EBD37021FA04F642EB06015EEA430E08BF20EAD37070BDC4F10C04C4F1200500FA04F32F
S32D0000C8C020FA05F001FA04F240EA020001F0004110EBD37041F100015EEA430E08BF20EAD37070BDC4F12005C7
S32D0000C8E800FA05F24EEA020E20FA04F301FA05F243EA020321FA04F001F0004121FA04F220EA020000EBD37028
S32D0000C9105EEA430E08BF20EAD37070BD94F0000F0FD101F00046400041EB010111F4801F08BF013CF7D041EA6D
S32D0000C938060195F0000F18BF704703F00046520043EB030313F4801F08BF013DF7D043EA0603704794EA0C0FF1
S32D0000C9600CEA135518BF95EA0C0F0CD050EA410618BF52EA4306D1D181EA030101F000414FF0000070BD50EA38
S32D0000C988410606BF1046194652EA430619D094EA0C0F02D150EA013613D195EA0C0F05D152EA03361CBF10467B
S32D0000C9B019460AD181EA030101F0004141F0FE4141F470014FF0000070BD41F0FE4141F4780170BD70B54FF04D
S32D0000C9D8FF0C4CF4E06C1CEA11541DBF1CEA135594EA0C0F95EA0C0F00F0A7F8A4EB050481EA030E52EA03359B
S32D0000CA004FEA013100F088804FEA03334FF0805545EA131343EA12634FEA022245EA111545EA10654FEA002676
S32D0000CA280EF000419D4208BF964244F1FD0404F5407402D25B084FEA3202B61A65EB03055B084FEA32024FF461
S32D0000CA5080104FF4002CB6EB020E75EB030E22BFB61A754640EA0C005B084FEA3202B6EB020E75EB030E22BF22
S32D0000CA78B61A754640EA5C005B084FEA3202B6EB020E75EB030E22BFB61A754640EA9C005B084FEA3202B6EBEA
S32D0000CAA0020E75EB030E22BFB61A754640EADC0055EA060E18D04FEA051545EA16754FEA06164FEAC30343EAAC
S32D0000CAC852734FEAC2025FEA1C1CC0D111F4801F0BD141EA00014FF000004FF0004CB6E711F4801F04BF0143AE
S32D0000CAF00020B4F1FD0C88BFBCF5E06F3FF6AFAEB5EB030C04BFB6EB020C5FEA500C50F1000041EB045170BDBC
S32D0000CB180EF0004E4EEA113114EB5C04C2BFD4EB0C0541EA045170BD41F480114FF0000E013C90E645EA060EC3
S32D0000CB408DE60CEA135594EA0C0F08BF95EA0C0F3FF43BAF94EA0C0F0AD150EA01347FF434AF95EA0C0F7FF499
S32D0000CB6825AF104619462CE795EA0C0F06D152EA03353FF4FDAE1046194622E750EA410618BF52EA43067FF432
S32D0000CB90C5AE50EA41047FF40DAF52EA43057FF4EBAE12E74FF0FF3C06E000BF4FF0010C02E000BF4FF0010C75
S32D0000CBB84DF804CD4FEA410C7FEA6C5C4FEA430C18BF7FEA6C5C1BD001B050EA410C0CBF52EA430C91EA030FEC
S32D0000CBE002BF90EA020F0020704710F1000F91EA030F58BF994208BF90422CBFD8176FEAE37040F0010070476E
S32D0000CC084FEA410C7FEA6C5C02D150EA013C07D14FEA430C7FEA6C5CD6D152EA033CD3D05DF8040B704700BFCD
S32D0000CC308446104662468C461946634600E000BF01B5FFF7B7FF002848BF10F1000F01BD4DF808EDFFF7F4FF13
S32D0000CC580CBF012000205DF808FB00BF4DF808EDFFF7EAFF34BF012000205DF808FB00BF4DF808EDFFF7E0FF18
S32D0000CC8094BF012000205DF808FB00BF4DF808EDFFF7CEFF94BF012000205DF808FB00BF4DF808EDFFF7C4FF40
S32D0000CCA834BF012000205DF808FB00BF4FEA410212F5001215D211D56FF47873B3EB625212D94FEAC12343F0D6
S32D0000CCD0004343EA505311F0004F23FA02F018BF404270474FF00000704750EA013005D111F0004008BF6FF016
S32D0000CCF8004070474FF00000704700BF4A0011D212F5001211D20DD56FF47873B3EB62520ED44FEAC12343F085
S32D0000CD20004343EA505323FA02F070474FF00000704750EA013002D14FF0FF3070474FF0000070474FEA410241
S32D0000CD48B2F1E04324BFB3F5001CDCF1FE5C0DD901F0004C4FEAC0024CEA5070B2F1004F40EB830008BF20F09E
S32D0000CD700100704711F0804F21D113F13872BCBF01F00040704741F480114FEA5252C2F11802C2F1200C10FAB1
S32D0000CD980CF320FA02F018BF40F001004FEAC1234FEAD32303FA0CFC40EA0C0023FA02F34FEA4303CCE77FEA26
S32D0000CDC0625307D150EA01331EBF4FF0FE4040F44000704701F0004040F0FE4040F40000704700BF80F00040CC
S32D0000CDE802E000BF81F0004142001FBF5FEA410392EA030F7FEA226C7FEA236C6AD04FEA1262D2EB1363C1BF06
S32D0000CE10D218414048404140B8BF5B42192B88BF704710F0004F40F4000020F07F4018BF404211F0004F41F4FA
S32D0000CE38000121F07F4118BF494292EA030F3FD0A2F1010241FA03FC10EB0C00C3F1200301FA03F100F000432B
S32D0000CE6002D5494260EB4000B0F5000F13D3B0F1807F06D340084FEA310102F10102FE2A51D2B1F1004F40EB94
S32D0000CE88C25008BF20F0010040EA03007047490040EB000010F4000FA2F10102EDD1B0FA80FCACF1080CB2EB5F
S32D0000CEB00C0200FA0CF0AABF00EBC25052421843BCBFD0401843704792F0000F81F4000106BF80F400000132EB
S32D0000CED8013BB5E74FEA41037FEA226C18BF7FEA236C21D092EA030F04D092F0000F08BF0846704790EA010FD7
S32D0000CF001CBF0020704712F07F4F04D1400028BF40F00040704712F100723CBF00F50000704700F0004343F0DC
S32D0000CF28FE4040F4000070477FEA226216BF08467FEA23630146420206BF5FEA412390EA010F40F480007047C1
S32D0000CF504FF0000304E000BF10F0004348BF40425FEA000C08BF704743F0964301464FF000001CE050EA010264
S32D0000CF7808BF70474FF000030AE000BF50EA010208BF704711F0004302D5404261EB41015FEA010C02BF84465B
S32D0000CFA00146002043F0B64308BFA3F18053A3F50003BCFA8CF2083AA3EBC25310DB01FA02FC634400FA02FC6B
S32D0000CFC8C2F12002BCF1004F20FA02F243EB020008BF20F00100704702F1200201FA02FCC2F1200250EA4C0034
S32D0000CFF021FA02F243EB020008BF20EADC7070474FF0FF0C1CEAD0521EBF1CEAD15392EA0C0F93EA0C0F6FD019
S32D0000D0181A4480EA010C400218BF5FEA41211ED04FF0006343EA501043EA5111A0FB01310CF00040B1F5000FE7
S32D0000D0403EBF490041EAD3715B0040EA010062F17F02FD2A1DD8B3F1004F40EBC25008BF20F00100704790F058
S32D0000D068000F0CF0004C08BF49024CEA502040EA51207F3AC2BFD2F1FF0340EAC250704740F400004FF0000388
S32D0000D090013A5DDC12F1190FDCBF00F000407047C2F10002410021FA02F1C2F1200200FA02FC5FEA310040F1D5
S32D0000D0B8000053EA4C0308BF20EADC70704792F0000F00F0004C02BF400010F4000F013AF9D040EA0C0093F04C
S32D0000D0E0000F01F0004C02BF490011F4000F013BF9D041EA0C018FE70CEAD15392EA0C0F18BF93EA0C0F0AD00B
S32D0000D10830F0004C18BF31F0004CD8D180EA010000F00040704790F0000F17BF90F0004F084691F0000F91F0BB
S32D0000D130004F14D092EA0C0F01D142020FD193EA0C0F03D14B0218BF084608D180EA010000F0004040F0FE4051
S32D0000D15840F40000704740F0FE4040F4400070474FF0FF0C1CEAD0521EBF1CEAD15392EA0C0F93EA0C0F69D044
S32D0000D180A2EB030280EA010C49024FEA402037D04FF0805343EA111143EA10130CF000408B4238BF5B0042F14E
S32D0000D1A87D024FF4000C8B4224BF5B1A40EA0C00B3EB510F24BFA3EB510340EA5C00B3EB910F24BFA3EB9103A4
S32D0000D1D040EA9C00B3EBD10F24BFA3EBD10340EADC001B0118BF5FEA1C1CE0D1FD2A3FF650AF8B4240EBC25018
S32D0000D1F808BF20F0010070470CF0004C4CEA50207F32C2BFD2F1FF0340EAC250704740F400004FF00003013AF1
S32D0000D22037E792F0000F00F0004C02BF400010F4000F013AF9D040EA0C0093F0000F01F0004C02BF490011F4C9
S32D0000D248000F013BF9D041EA0C0195E70CEAD15392EA0C0F08D142027FF47DAF93EA0C0F7FF470AF084676E7AE
S32D0000D27093EA0C0F04D14B023FF44CAF08466EE730F0004C18BF31F0004CCAD130F000427FF45CAF31F0004376
S32D0000D2987FF43CAF5FE700BF4FF0FF3C06E000BF4FF0010C02E000BF4FF0010C4DF804CD4FEA40024FEA41039F
S32D0000D2C07FEA226C18BF7FEA236C11D001B052EA530C18BF90EA010F58BFB2EB030088BFC81738BF6FEAE1706E
S32D0000D2E818BF40F0010070477FEA226C02D15FEA402C05D17FEA236CE4D15FEA412CE1D05DF8040B704700BF16
S32D0000D310844608466146FFE70FB5FFF7C9FF002848BF10F1000F0FBD4DF808EDFFF7F4FF0CBF012000205DF839
S32D0000D33808FB00BF4DF808EDFFF7EAFF34BF012000205DF808FB00BF4DF808EDFFF7E0FF94BF012000205DF8A9
S32D0000D36008FB00BF4DF808EDFFF7D2FF94BF012000205DF808FB00BF4DF808EDFFF7C8FF34BF012000205DF8B1
S32D0000D38808FB00BF4FEA4002B2F1FE4F0FD34FF09E03B3EB12620DD94FEA002343F0004310F0004F23FA02F060
S32D0000D3B018BF404270474FF00000704712F1610F01D1420205D110F0004008BF6FF0004070474FF00000704797
S32D0000D3D8036803B11B181846704700BF03685A004CBF43F0004323F00043C018704700BF2DE9F84F0446914699
S32D0000D40041B301F1FF3BDA46002707EB0A0101EBD1756D1004EBC5063046FFF7E3FF8046681CAB4504EBC000FA
S32D0000D4280DD0FFF7DBFF0138C84504D9BD4209D005F1FF3AE5E7484505D26F1CE1E74FF0FF30F1E7002630469A
S32D0000D450BDE8F88F0E463046BDE8F88F30B52B4B83B004468D1E002B49D0284601A9AFF300800346002822D028
S32D0000D4782A4618460199FFF7BBFF054600281DD0FFF7ACFF6B68A064012B10D0281D002B22DBFFF7A3FF002164
S32D0000D4A0E06421650368002B0FDBFFF79BFF2061002003B030BD002323610520F9E720610920F6E72061092066
S32D0000D4C8F3E7C3F3036058B101280CD002280ED0002020610920E8E70122E0642265DDE7094B2361E1E7094AEF
S32D0000D4F000202261DDE7084900202161D9E7074B0749C81AC2100192B6E700BF0000000029DA000025DA0000AD
S32D0000D51821DA00008494010074960100036810B50446D80706D4990704F1480009D500F00DFD23685A0709D514
S32D0000D54018070ED5D90613D510BD00F0FBFC23685A07F5D404F1D00000F004FD23681807F0D404F5D87000F036
S32D0000D56805FD2368D906EBD404F50C70BDE8104000F040BD2DE9F0470F1D054691460FCFADF5916D02AC261D09
S32D0000D5900FC60FCF0FC60FCF0FC697E80F00D5F80C80D5F818A0002786E80F00216C27602846FFF753FF06460C
S32D0000D5B8B94514BF4FF00A094FF00909FEB1A16B49F01009616401208DE8100449462A462B46C04700282BD1BA
S32D0000D5E0002E2AD1204692A94FF4107208F0D6FD082F28D1216C2846FFF730FF06464FF00909002EDFD1206C6C
S32D0000D60821464FF41072686192A808F0C3FD2F69294692AA4846B847A09B0746636401208DE8100449462A4645
S32D0000D6302B46C0470028D3D00926304622B00DF5806DBDE8F087072FF6D1201D00F06EFC38B504460D46296C54
S32D0000D6582046FFF7FFFE50B92A6C23696261012021462A4698470828F1D0072801D00AF0E1FE281D00F056FC35
S32D0000D68011B933B10220704704298CBF0220012070470F2A01D90220704700EB820118464A68009B1A6070474D
S32D0000D6A810B50A4684B000210B4603AC0094FFF7E3FF039804B010BD11B933B10220704704298CBF0220012020
S32D0000D6D070470F2A01D902207047009900EB8202096818465160704710B584B004AB0C4643F8042D0021009330
S32D0000D6F822460B46FFF7E0FF04B010BD2DE9F04FCD6C8BB00C4655F8041B174600F008021E46039200F0030823
S32D0000D7200795002B40F0CF8009020691216D8DF821300323B8F1020F8DF8203008BFA56B11F0010340F0D3807B
S32D0000D748019304F158030293D5F80090B9F1000F00F0CB80022E00F0AE80B5F80090B5F802A00435A26C0F2198
S32D0000D7702AF0010B38469344FFF796FF834518D829F0010CE3440AF0010A09F00103584543EA4A092CBF002056
S32D0000D7980120B9F1010F12D032D2B8F1000F02D0002840F01D810435CEE70AF0010A09F0010343EA4A09002092
S32D0000D7C0B9F1010FECD1B8F1000F40F0B680C8B16B68D5F800909A1C19D0029A013309920DD0281DFFF7F8FDE6
S32D0000D7E84FEAD972014609AB204609F08DFE002800F0F280099A002A40F0BA800835A3E7B9F1020F03D009206B
S32D0000D8100BB0BDE8F08F2B6823F000420092B8F1000F71D1002843D00398002840F0A1800098002800F0A08078
S32D0000D838009BDDF80C90DB0705F1040A40F1B480CDF810800596A846029E12E000998D4200F0D9800996FFF7B5
S32D0000D860BBFD5A46014609AB204609F051FEA946B0B90AF1040A05F1010950460996FFF7ABFD09AB0146002248
S32D0000D888204609F041FE0AF1040A834609F101055046BBF1000FD9D04546059EDDF81080009A4A4564D02B6885
S32D0000D8B0002B7BDB0099481C05EB800548E7D5F804A0083552E70B04C1F30740216D06930222B8F1020F05EB42
S32D0000D8D8800508BFA56B8DF8210011F001038DF820203FF42DAF00200190384606A900F019FC002887D1019A49
S32D0000D900002A43D1082083E70D213846D4F82090FFF7CAFE8145CAD1A26A9542C7D10098291D00220423A0623E
S32D0000D928E26223636163286800286EDB01220192BCE70D213846D4F82090FFF7B1FE81457FF45CAFA16A8D42FE
S32D0000D9507FF458AF2846FFF745FD0F2102463846FFF7C2FE384600212246FFF7BDFE07204EE7009900299BD19B
S32D0000D97838460D21FFF794FE099B20626362A562062041E70F213846FFF78AFE0E2102463846FFF7A5FE3846D5
S32D0000D9A00F211E4AFFF7A0FE072031E7043581E7029950460991FFF70FFD039A014609AB204609F0A5FD0028BF
S32D0000D9C87FF46EAFCDF8108005960AF1040A4FF00109A846029E4CE7CDF824800835B3E62846FFF7FBFC0435CB
S32D0000D9F00646A563204609F001FE00283FF407AF38460F213246FFF76FFE072000E74546B2E7009B591C05EB8B
S32D0000DA1881009CE76577010002236FE601236DE600236BE62DE9F0470446E8B004290CD8DFE801F03803919343
S32D0000DA400F00150C012B96B200F07881052B00F0C780022068B0BDE8F087002BF9D1102AF7D82368D90600F115
S32D0000DA68738164A8019200F0CFFA019AA36BD00744BF53F8040B6490910744BF53F8041B6591500744BF53F8D3
S32D0000DA90041B6691110748BF53F8042B64A8A36348BF679200F0AAFA0020D3E7002BD0D1A36BD00791B244BF42
S32D0000DAB853F8042B62608A0744BF53F8042BA260480744BF53F8042BE2600A0744BF53F8042B2261C80644BF04
S32D0000DAE053F8042B62618A0644BF53F8042BA261480644BF53F8042BE2610A0644BF53F8042B2262C80544BFDC
S32D0000DB0853F8042B62628A0544BF53F8042BA262480544BF53F8042BE2620A0544BF53F8042B2263C80444BFB3
S32D0000DB3053F8042B626311F400501CBF53F8042BA2634A0444BF53F8042BE2630A0444BF53F8042B2264002890
S32D0000DB5840D1A3637AE7012078E7032B7FF475AF160C95B2AA19102A3FF66FAF2368180700F10B8144A800F026
S32D0000DB801BFAA76B4FEA450E3B460DB344A90EF1FF3C01EBC60653F8040B62460CF0010146F8040B92B129B13A
S32D0000DBA853F8041B013A46F8041B0BD01846314650F8045B41F8045B5D68031D75600E1D023AF3D107EB8E03F6
S32D0000DBD044A8A36300F0CEF900203BE7002039E777192022BA42FFF434AF012B00F0A9800F2D40F2A9803746FF
S32D0000DBF8F6B1052B7FF429AF0F2D11D82268D0070ED522F00101052B2160204600F0DA8022F0030240F8482B3D
S32D0000DC20019300F093F9019B1FB12268510700F1B880012B00F0BF800F2D75D9002F40F0A080D4F83890002E29
S32D0000DC48C8462EDD49460DF1080A4FEA46080AEBC50251F8046B08F1FF3000F0010A42F8046BA8F1020CD0B107
S32D0000DC70BAF1000F08D051F8040B0CF1FF3CBCF1FF3F42F8040B0ED00E46104656F804AB40F804AB4968ACF176
S32D0000DC98020C5160311D021DBCF1FF3FF0D109EB8808A7B3102D2CBF2E4610260DF5D079414609EBC60CACF59D
S32D0000DCC0C8724FEA470951F8046B09F1FF3000F0010A42F8046BA9F1020CD0B1BAF1000F08D051F8040B0CF1DE
S32D0000DCE8FF3CBCF1FF3F42F8040B0ED00E46104656F804AB40F804AB4968ACF1020C5160311D021DBCF1FF3FCE
S32D0000DD10F0D108EB8908012B2BD00F2DC4F8388008D9FFB9384695E602A8019300F016F9019B83E702A800F05A
S32D0000DD380DF9F2E77719102250E70F2D3FF685AE102F10D9103F54E723F01003236004F50C70019200F058F99D
S32D0000DD60019A82E624A800F0FDF8002072E6002746E708F1040302A8A36300F0E3F8002068E624A80193C5F116
S32D0000DD88100600F0EFF8019B57E723F0080704F5D870276000F00CF9ECE6204622F0040140F8D01B019300F0D1
S32D0000DDB0DDF8019B3DE702A8019300F0C7F8019B002F3FF43EAFC5F110063AE741F0020140F8481B019300F098
S32D0000DDD8C1F8019B24E700BF406C7047F0B50D460F1DC96B296404460FCFADF5117D01AE0FC60FCF0FC60FCF49
S32D0000DE000FC697E80F0086E80F004FF0FF33009310992046FFF722FB58B9266921466A46B04708280646F3D001
S32D0000DE286846FFF77BFB062E03D009200DF5117DF0BD20462946FFF707FC00BF10B4DC6BC16082611946002228
S32D0000DE501C6410BCFFF792BB38B54269C3680A6404460D4623B10122FFF788FB0AF0E6FA0369214602202A4698
S32D0000DE789847072803D0082804D00AF0DBFA281D00F050F820462946FFF7DEFBC36823B1CA6B0A640022FFF7ED
S32D0000DEA06DBB9FE7704700BF08B5836801460BB10120984708BD00BFF0B5D46B171D146405460C460FCFADF554
S32D0000DEC8277D01AE0FC60FCF0FC60FCF0FC697E80F0086E80F004FF0FF330093109990A8FFF7B8FA034690AA83
S32D0000DEF068460C21BBB9FFF7F7FB21466846A847064690A908206A466EB9949B98470528064601D00928E5D106
S32D0000DF186846FFF703FB30460DF5277DF0BD0926F6E700BF00F1340191E838009C46A6464CF8045D90E8FF0FD5
S32D0000DF40E54600BD90EC210B704700BF80EC210B704700BF90EC200B704700BF80EC200B704700BFD0EC200B8E
S32D0000DF68704700BFC0EC200B704700BFF0EC0201F0EC0211F0EC0221F0EC0231F0EC0241F0EC0251F0EC02615F
S32D0000DF90F0EC0271F0EC0281F0EC0291F0EC02A1F0EC02B1F0EC02C1F0EC02D1F0EC02E1F0EC02F1704700BFE6
S32D0000DFB8E0EC0201E0EC0211E0EC0221E0EC0231E0EC0241E0EC0251E0EC0261E0EC0271E0EC0281E0EC029155
S32D0000DFE0E0EC02A1E0EC02B1E0EC02C1E0EC02D1E0EC02E1E0EC02F1704700BFB0FC0181B0FC0191B0FC01A159
S32D0000E008B0FC01B1704700BFA0FC0181A0FC0191A0FC01A1A0FC01B1704700BFEC4600B52DE900502DE9FF1F47
S32D0000E0304FF000032DE90C0001A9FFF7D3FEDDF840E012B0704700BFEC4600B52DE900502DE9FF1F4FF00003FD
S32D0000E0582DE90C0001A9FFF7FBFEDDF840E012B0704700BFEC4600B52DE900502DE9FF1F4FF000032DE90C00CD
S32D0000E08001A9FFF707FFDDF840E012B0704700BFEC4600B52DE900502DE9FF1F4FF000032DE90C0001ABFFF718
S32D0000E0A8CDFEDDF840E012B0704700BFEC4600B52DE900502DE9FF1F4FF000032DE90C0001AAFFF7F5FEDDF804
S32D0000E0D040E012B0704700BF027A03461AB9427A42B9B02070470068013A01021A72000E196070474168501E6D
S32D0000E0F8587251F8040B0322596001021A72000E1960704710B5002184B00C220DEB02040B460094FFF7B0FA62
S32D0000E120039804B010BD00BFF0E700BF2DE9F043064685B00D464FF000094FF47F672846FFF7CAFFB028044683
S32D0000E14800F0B08010F0800120D000F0F003802B74D0902B37D0A02B45D0B02B56D0C02B00F0858000F0F800DB
S32D0000E170D0280BD104F00702511C41F40022304601210523FFF752FC0028D8D0092005B0BDE8F0834FEA800267
S32D0000E19803A85FFA82F800900D220B463046FFF76BFA039B600608F104084CBFC8EB0303434403AC03930094CD
S32D0000E1C0002130460D220B46FFF77AFAB7E700F00F020D2ADAD00F2AD8D0002103AC009430460B4603ACFFF77F
S32D0000E1E84BFA0094E8E7C24302F0070C47FA0CF0210700F47F6248BF42F48042002130460B46FFF70FFC00280D
S32D0000E210BCD194E7B1285DD0B2286ED0B32800F0958000F0FC02B42A46D000F00702531C43F40022012130469F
S32D0000E2380B46FFF7F7FB0028A4D17CE72846FFF747FF210240EA0104B4F5004F9AD0230500211A0C30460B46EB
S32D0000E2602401FFF7E3FB002890D114F4004F18BF4FF0010963E7C62873D0C72800F0848000F0F802C02A00F075
S32D0000E2889280C82800F0A680C9287FF47BAF2846FFF71EFF00F00F0300F0F0015A1C42EA013268E7B9F1000F81
S32D0000E2B000F0838000206AE700F00301481C022140F480220B463046FFF7B0FB00287FF45DAF34E72846FFF7FD
S32D0000E2D8FFFE024600283FF455AF10F0F0017FF451AF30460B46FFF79DFB00287FF44AAF21E700210D220B467E
S32D0000E30003AC30460094FFF7BBF92846FFF7E4FE022402060DD5039B00F07F0000FA04FE03EB0E01284603912E
S32D0000E328FFF7D6FE07340306F1D4039B00F07F0103AA03F5017C01FA04F400920CEB0402039239E72846FFF729
S32D0000E350C3FE00F00F03591C00F0F00041EA003268E72846FFF7B8FE00F00F03591C00F0F00041EA00320321E9
S32D0000E37830460B46FFF756FB00287FF403AFDAE62846FFF7A5FE024600283FF4FBAE10F0F0037FF4F7AE304688
S32D0000E3A00421FFF743FB00287FF4F0AEC7E600F00F01481C40F42022DDE703AC49460E224B4630460094FFF773
S32D0000E3C85BF9304649460F224B460094FFF774F94846D8E62846FFF77BFE00F0F00200F00F001032431C43EA3D
S32D0000E3F00232C4E610B5C26C84B0032054688DF80C00D37924020832084601A9019402928DF80D30FFF78AFE7D
S32D0000E41804B010BD08B5FFF783FE806C08BD00BF08B5FFF77DFEC16CC87901EB800303F1080008BD08B509F02F
S32D0000E440FDFF00BF08B509F0F9FF00BF80B582B000AF43F20070C1F6FF704FF0050105F077F943F20070C1F69F
S32D0000E468FF704FF0060105F0CDF943F2B860C1F6FF7006F0D7FF43F2B860C1F6FF7007F08BFC43F20070C1F68A
S32D0000E490FF7005F087F943F20070C1F6FF7048F2FC51C0F2010105F0E7FA00BF43F23860C1F6FF7004F0BCFA42
S32D0000E4B8034683F00103DBB2002B1AD043F23860C1F6FF7004F0D0FA034683F00103DBB2002B0ED043F2386000
S32D0000E4E0C1F6FF7004F0E8FA034683F00103DBB2002B02D04FF0010301E04FF00003002BD4D143F23860C1F60E
S32D0000E508FF7004F0B1FA0346002B0DD000BF43F23860C1F6FF7004F0BBFA034683F00103DBB2002BF3D128E0E7
S32D0000E53043F23860C1F6FF7004F07AFA0346002B0FD000BF43F23860C1F6FF7004F082FA034683F00103DBB2A0
S32D0000E558002BF3D102F09EF85DE000BF43F23860C1F6FF7004F0B8FA034683F00103DBB2002BF3D101F0EEFC72
S32D0000E5804DE001F0ABFC43F20070C1F6FF7005F009F943F24860C1F6FF70214904F0D8FB43F25460C1F6FF70A3
S32D0000E5A81E4904F0D1FB01F0A9FB02F041F902F0E1F903467B60786802F0C2FC02F0CEFD02F070FD43F200701C
S32D0000E5D0C1F6FF7048F26C61C0F2010105F04CFA00BF43F23860C1F6FF7004F041FA034683F00103DBB2002BA8
S32D0000E5F8F3D100BF43F23860C1F6FF7004F048FA034683F00103DBB2002BF3D14FF4FA7003F02EFB35E734E70D
S32D0000E6200000F0410000E64280B483B000AF78607B6823F00043184607F10C07BD4680BC704700BF80B586B0C3
S32D0000E64802AFF860B960FA71BB71FA79BB7905490091F868B96800F007F807F11007BD4680BD00BF0000803F28
S32D0000E670B0B584B000AFF860B960FA71BB71BB79002B00F0B68043F28060C1F6FF7004F03BF943F29C60C1F65C
S32D0000E698FF7004F035F943F20070C1F6FF7048F29061C0F2010105F0E3F943F27C60C1F6FF7003F081FC034658
S32D0000E6C0002BF6D100BF43F27C60C1F6FF7003F077FC034683F00103DBB2002BF3D1F868FDF7FAFF02460B46BC
S32D0000E6E81046194672A3D3E90023FEF745F802460B4610461946FEF7D9FA034643F24060C1F6FF70194602F07E
S32D0000E710DBFFF868FEF73AFE034643F24460C1F6FF70194602F0D0FF43F27C60C1F6FF7003F046FC0346002B2C
S32D0000E738F6D100BF43F27C60C1F6FF7003F03CFC034683F00103DBB2002BF3D143F24060C1F6FF7002F096FF0D
S32D0000E76043F24460C1F6FF7002F090FF43F20070C1F6FF7005F016F843F20070C1F6FF7048F2B461C0F201016F
S32D0000E78805F094F843F29C60C1F6FF7004F0ACF8024613464FEA83039B1843F20070C1F6FF70194605F078F950
S32D0000E7B043F20070C1F6FF7048F2D061C0F2010105F05AF943F27C60C1F6FF7003F0F8FB0346002BF6D100BFF2
S32D0000E7D843F27C60C1F6FF7003F0EEFB034683F00103DBB2002BF3D10FE1F868FDF770FF02460B4610461946C3
S32D0000E8002DA3D3E90023FDF7BBFF02460B4614461D46386AFDF760FF02460B4620462946FDF7AEFF02460B469A
S32D0000E82810461946FEF742FA034643F24060C1F6FF70194602F044FFF868FEF7A3FD034643F24460C1F6FF70C7
S32D0000E850194602F039FF43F28060C1F6FF7004F053F843F29C60C1F6FF7004F04DF89FE043F29C60C1F6FF7031
S32D0000E87804F03AF8014646F26763C6F2666383FB01234FEAA3024FEAE173D21A13464FEA83039B184FEA43033F
S32D0000E8A0CA1A002A0CD1FB79002B09D04FF0010308E000BFAFF300809A9999999999F13F4FF00003002B39D09E
S32D0000E8C843F29C60C1F6FF7004F00EF80346002B0CBF00230123DBB2002B2BD043F29C60C1F6FF7004F000F855
S32D0000E8F003461846FEF730FB03461846F968FEF77FFB03461C4643F29C60C1F6FF7003F0EFFF03461846FEF73D
S32D0000E9181FFB034620461946FEF722FC03461846FEF730FD034643F24060C1F6FF70194602F0C6FE43F20070CF
S32D0000E940C1F6FF7004F02EFF43F20070C1F6FF7048F2EC61C0F2010104F0ACFF43F29C60C1F6FF7003F0C4FFB0
S32D0000E968034643F20070C1F6FF70194605F094F843F20070C1F6FF7048F21071C0F2010104F094FF43F29C609B
S32D0000E990C1F6FF7003F0ACFF034643F20070C1F6FF70194605F07CF84FF0320003F064F943F29C60C1F6FF70A1
S32D0000E9B803F09AFF03461846FEF7CAFA0546B8681449FEF719FB03464FF00102144628461946FEF7AFFC0346D9
S32D0000E9E0002B02D14FF000031C46E3B2002B7FF43FAF43F24060C1F6FF704FF0000102F063FE43F24460C1F628
S32D0000EA08FF704FF0000102F05BFE07F11007BD46B0BD00BF0000A040B0B586B000AFF860B9601346FB71944B69
S32D0000EA307B61F868FDF750FE02460B46104619468DA3D3E90023FDF79BFE02460B4610461946FEF72FF903469C
S32D0000EA5843F24060C1F6FF70194602F031FEF868FEF790FC034643F24460C1F6FF70194602F026FE43F2806062
S32D0000EA80C1F6FF7003F040FF43F29C60C1F6FF7003F03AFFB7E043F29C60C1F6FF7003F027FF014646F267633D
S32D0000EAA8C6F2666383FB01234FEAA3024FEAE173D21A13464FEA83039B184FEA4303CA1A002A05D1FB79002BF9
S32D0000EAD002D04FF0010301E04FF00003002B39D043F29C60C1F6FF7003F002FF0346002B0CBF00230123DBB24E
S32D0000EAF8002B2BD043F29C60C1F6FF7003F0F4FE03461846FEF724FA03461846F968FEF773FA03461C4643F28A
S32D0000EB209C60C1F6FF7003F0E3FE03461846FEF713FA034620461946FEF716FB03461846FEF724FC034643F2DA
S32D0000EB484060C1F6FF70194602F0BAFD43F20070C1F6FF7004F022FE43F20070C1F6FF7048F2EC61C0F20101EC
S32D0000EB7004F0A0FE43F29C60C1F6FF7003F0B8FE034643F20070C1F6FF70194604F088FF43F20070C1F6FF702C
S32D0000EB9848F21071C0F2010104F088FE43F29C60C1F6FF7003F0A0FE034643F20070C1F6FF70194604F070FFA8
S32D0000EBC043F23C60C1F6FF7003F0AEFA03464FF00102144618467969FEF7B0FB0346002B02D14FF000031C46E5
S32D0000EBE8E3B2002B07D043F23C60C1F6FF7003F097FA03467B614FF0320003F039F843F29C60C1F6FF7003F0E9
S32D0000EC106FFE03461846FEF79FF90546B8681949FEF7EEF903464FF00102144628461946FEF784FB0346002BF2
S32D0000EC3802D14FF000031C46E3B2002B7FF427AF43F24060C1F6FF704FF0000102F038FD43F24460C1F6FF70CD
S32D0000EC604FF0000102F030FD7B69184607F11807BD46B0BDAFF300809A9999999999F13F333353400000A0409C
S32D0000EC88B0B584B000AFF860B9607A6043F28060C1F6FF7003F034FE43F29C60C1F6FF7003F02EFEF868FDF7A1
S32D0000ECB013FD02460B461046194653A3D3E90023FDF75EFD02460B4610461946FDF7F2FF034643F24060C1F6AC
S32D0000ECD8FF70194602F0F4FCF868FEF753FB034643F24460C1F6FF70194602F0E9FCBB68002B08D143F26C6015
S32D0000ED00C1F6FF7003F05CF90346002B23D1BB68012B08D143F27060C1F6FF7003F050F90346002B17D1BB6801
S32D0000ED28022B08D143F27460C1F6FF7003F044F90346002B0BD1BB68032B2BD143F27860C1F6FF7003F038F964
S32D0000ED500346002B22D043F29C60C1F6FF7003F0C7FD03461846FEF7F7F8054678682849FEF746F903464FF03E
S32D0000ED780102144628461946FEF7DCFA0346002B02D14FF000031C46E3B2002B02D04FF0010301E04FF0000395
S32D0000EDA0002BA8D143F24060C1F6FF7002F06EFC43F24460C1F6FF7002F068FC43F29C60C1F6FF7003F094FD1A
S32D0000EDC803461846FEF7C4F8054678680E49FEF713F903464FF00102144628461946FEF7A9FA0346002B02D1B1
S32D0000EDF04FF000031C46E3B2184607F11007BD46B0BD00BFAFF300809A9999999999F13F0000A040AFF3008035
S32D0000EE18B0B586B000AFF860B960FA71BB7102F041FF02460B4610461946FDF787FF03463B6175E0FB79002BA7
S32D0000EE4018D043F2B860C1F6FF7007F073F803464FF001041846B968FEF770FA0346002B01D14FF00004BB79BF
S32D0000EE689C4214BF00230123FB7517E043F2B860C1F6FF7007F04AF803464FF001041846B968FEF757FA0346D6
S32D0000EE90002B01D14FF00004BB799C4214BF00230123FB75FB7D002B01D0624B00E0624B184662494FF0000280
S32D0000EEB84FF00003FFF7C2FB43F20070C1F6FF7048F23471C0F2010104F0F0FC43F2B860C1F6FF7007F01AF87D
S32D0000EEE0034643F20070C1F6FF70194604F0ECFD43F20070C1F6FF7048F23C71C0F2010104F0D8FC43F2B86039
S32D0000EF08C1F6FF7007F012F8034643F20070C1F6FF70194604F0D4FD4FF0960002F0A8FEFB79002B1FD043F24C
S32D0000EF30B860C1F6FF7006F0FDFF0346B8681946FDF754FF03461846FFF76EFB03464FF00102144618463A49A8
S32D0000EF58FEF70EFA0346002B02D14FF000031C46E3B2002B4AD1FB7983F00103DBB2002B47D043F2B860C1F60A
S32D0000EF80FF7006F0C7FF0346B8681946FDF72EFF03461846FFF748FB03464FF00102144618462749FEF7E8F9E6
S32D0000EFA80346002B02D14FF000031C46E3B2002B27D002F077FE04460D463869FDF788FB02460B46204629460F
S32D0000EFD0FDF722FA02460B464FF001010C46104619464FF000024FF0804303F5A013FDF739FE0346002B02D1C2
S32D0000EFF84FF000031C46E3B2002B02D04FF0010301E04FF00003002B7FF414AF43F24060C1F6FF7002F036FBD0
S32D0000F02043F24460C1F6FF7002F030FB07F11807BD46B0BD0000DC420000DCC20000803E0000003FF0B587B08A
S32D0000F04800AFF860B960FA71BB7102F02BFE02460B4610461946FDF771FE03467B6145E0F868FEF78FF90346A7
S32D0000F07043F24060C1F6FF70194602F025FBF868FEF784F9034643F24460C1F6FF70194602F01AFB43F20070E1
S32D0000F098C1F6FF7048F23471C0F2010104F006FC43F2B860C1F6FF7006F030FF034643F20070C1F6FF70194690
S32D0000F0C004F002FD43F20070C1F6FF7048F23C71C0F2010104F0EEFB43F2B860C1F6FF7006F028FF034643F2DE
S32D0000F0E80070C1F6FF70194604F0EAFCFB79002B36D0BB79002B16D043F2B860C1F6FF7006F014FF03464FF03D
S32D0000F110010214461846B968FEF710F90346002B02D14FF000031C46E3B2002B7FD1BB7983F00103DBB2002B99
S32D0000F13816D043F2B860C1F6FF7006F0F7FE03464FF0010214461846B968FEF711F90346002B02D14FF0000379
S32D0000F1601C46E3B2002B62D1FB7983F00103DBB2002B5FD0BB79002B16D043F2B860C1F6FF7006F0C7FE03469E
S32D0000F1884FF0010214461846B968FEF7D3F80346002B02D14FF000031C46E3B2002B1CD1BB7983F00103DBB2AE
S32D0000F1B0002B3FD043F2B860C1F6FF7006F0AAFE03464FF0010214461846B968FEF7D4F80346002B02D14FF03B
S32D0000F1D800031C46E3B2002B28D002F063FD04460D467869FDF774FA02460B4620462946FDF70EF902460B46B8
S32D0000F20014461D46386BFDF767FA02460B464FF001010E4620462946FDF724FD0346002B02D14FF000031E4626
S32D0000F228F3B2002B02D04FF0010301E04FF00003002B7FF415AF43F24060C1F6FF7002F021FA43F24460C1F6B6
S32D0000F250FF7002F01BFA02F029FD04460D467869FDF73AFA02460B4620462946FDF7D4F802460B4614461D46D8
S32D0000F278386BFDF72DFA02460B464FF001010E4620462946FDF7EAFC0346002B02D14FF000031E46F3B21846DD
S32D0000F2A007F11C07BD46F0BDF0B585B000AFB9607A600246FA73BB73FB7B83F00103DBB2002B28D0B868FEF764
S32D0000F2C861F8034643F24460C1F6FF70194602F0F7F9BB6883F000431846FDF7F9F902460B461046194668A3C0
S32D0000F2F0D3E90023FDF744FA02460B4610461946FDF7D8FC034643F24060C1F6FF70194602F0DAF927E0BB6837
S32D0000F31883F000431846FEF735F8034643F24460C1F6FF70194602F0CBF9B868FDF7D0F902460B461046194609
S32D0000F34053A3D3E90023FDF71BFA02460B4610461946FDF7AFFC034643F24060C1F6FF70194602F0B1F943F260
S32D0000F3688060C1F6FF7003F0CBFA43F29C60C1F6FF7003F0C5FA39E043F20070C1F6FF7004F00CFA43F200702D
S32D0000F390C1F6FF7048F2EC61C0F2010104F08AFA43F29C60C1F6FF7003F0A2FA034643F20070C1F6FF7019461D
S32D0000F3B804F072FB43F20070C1F6FF7048F21071C0F2010104F072FA43F29C60C1F6FF7003F08AFA034643F2E0
S32D0000F3E00070C1F6FF70194604F05AFB4FF0320002F042FC43F29C60C1F6FF7003F078FA03461846FDF756F97A
S32D0000F40804460D467868FDF7A3FD0246FB7B002B05D040F20443C1F6FF731B6804E040F20043C1F6FF731B68DD
S32D0000F43010461946FDF7E4FD03461846FDF74CF902460B464FF001010E4620462946FDF709FC0346002B02D101
S32D0000F4584FF000031E46F3B2002B8DD143F24060C1F6FF704FF0000102F02AF943F24460C1F6FF704FF0000123
S32D0000F48002F022F907F11407BD46F0BDAFF300809A9999999999F13FB0B586B000AFF860B9607A60FB70F86845
S32D0000F4A8FDF756FD054643F2B860C1F6FF7006F04DFD03464FF00102144628461946FDF739FF0346002B02D1CC
S32D0000F4D04FF000031C46E3B2002B14D0FB6803F1B4031846FDF738FD044643F2B860C1F6FF7006F02FFD034609
S32D0000F4F820461946FDF776FC03467B6110E0F868FDF726FD044643F2B860C1F6FF7006F01DFD03462046194654
S32D0000F520FDF764FC03467B61F868FDF715FD054643F2B860C1F6FF7006F00CFD03464FF001021446284619466F
S32D0000F548FDF716FF0346002B02D14FF000031C46E3B2002B17D043F2B860C1F6FF7006F0F5FC03461846394977
S32D0000F570FDF73EFC03461C46F868FDF7EDFC034620461946FDF732FC03463B6110E043F2B860C1F6FF7006F0E9
S32D0000F598DDFC0446F868FDF7DBFC034620461946FDF720FC03463B617B68012B33D0022B3CD0002B45D14FF029
S32D0000F5C001031C4678693969FDF7B8FE0346002B02D14FF000031C46E3B2002B0FD07869B96AFDF70DFD0346B5
S32D0000F5E81846FDF7CFFE0246FB784FF00000B968FFF756FE25E03869B96AFDF7FDFC03461846FDF7BFFE02461B
S32D0000F610FB784FF00100B968FFF746FE15E07869FDF7B4FE0246FB784FF00000B968FFF73BFE0AE03869FDF779
S32D0000F638A9FE0246FB784FF00100B968FFF730FE00BF07F11807BD46B0BD00BF0000344380B582B000AF786053
S32D0000F660396078683968034A00F006F807F10807BD4680BD0000404080B584B000AFF860B9607A60F868B9687C
S32D0000F688034A044B00F008F807F11007BD4680BD000040400000803EF0B589B002AFF860B9607A603B6002F0D4
S32D0000F6B0FDFA02460B4610461946FDF7FBFA03467B610DE03B680093F868B9684FF000024FF00003FFF7E0FEDE
S32D0000F6D84FF0960002F0CCFAF868FDF739FC044643F2B860C1F6FF7006F030FC034620461946FDF777FB034652
S32D0000F7001846FEF791FF03464FF00102144618461E49FDF731FE0346002B02D14FF000031C46E3B2002B28D088
S32D0000F72802F0C0FA04460D467869FCF7BFFF02460B4620462946FCF76BFE02460B4614461D467868FCF7C4FF22
S32D0000F75002460B464FF001010E4620462946FDF781FA0346002B02D14FF000031E46F3B2002B02D04FF0010347
S32D0000F77801E04FF00003002BA0D107F11C07BD46F0BD00BF0000A040B0B584B000AFF8600B467A60FB7243F2CD
S32D0000F7A09C60C1F6FF7003F0AFF843F28060C1F6FF7003F0A9F8FB7A83F00103DBB2002B28D0F868FDF7E2FDE1
S32D0000F7C8034643F24460C1F6FF70194601F078FFFB6883F000431846FCF77AFF02460B461046194670A3D3E904
S32D0000F7F00023FCF7C5FF02460B4610461946FDF759FA034643F24060C1F6FF70194601F05BFF62E0FB6883F076
S32D0000F81800431846FDF7B6FD034643F24460C1F6FF70194601F04CFFF868FCF751FF02460B46104619465CA3A7
S32D0000F840D3E90023FCF79CFF02460B4610461946FDF730FA034643F24060C1F6FF70194601F032FF39E043F2AE
S32D0000F8680070C1F6FF7003F099FF43F20070C1F6FF7048F2EC61C0F2010104F017F843F29C60C1F6FF7003F0FE
S32D0000F8902FF8034643F20070C1F6FF70194604F0FFF843F20070C1F6FF7048F21071C0F2010103F0FFFF43F265
S32D0000F8B89C60C1F6FF7003F017F8034643F20070C1F6FF70194604F0E7F84FF0320002F0CFF943F2B860C1F689
S32D0000F8E0FF7006F0C5FA034683F00103DBB2002B55D0FB7A002B24D043F29C60C1F6FF7002F0F6FF03461846C0
S32D0000F908FDF726FB054640F20043C1F6FF731B6818467968FDF770FB03464FF00102144628461946FDF706FD09
S32D0000F9300346002B02D14FF000031C46E3B2002B2AD1FB7A83F00103DBB2002B27D043F29C60C1F6FF7002F01F
S32D0000F958CBFF03461846FDF7FBFA054640F20443C1F6FF731B6818467968FDF745FB03464FF0010214462846F1
S32D0000F9801946FDF7DBFC0346002B02D14FF000031C46E3B2002B02D04FF0010301E04FF00003002B7FF45FAFA0
S32D0000F9A807F11007BD46B0BD9A9999999999F13FB0B584B000AF7860396043F28060C1F6FF7002F09DFF43F234
S32D0000F9D09C60C1F6FF7002F097FF7868FCF77CFE02460B461046194661A3D3E90023FCF7C7FE02460B4610463A
S32D0000F9F81946FDF75BF9034643F24060C1F6FF70194601F05DFE7868FDF7BCFC034643F24460C1F6FF70194618
S32D0000FA2001F052FE43F2B860C1F6FF7006F00CFA0346FB6039E043F20070C1F6FF7003F0B1FE43F20070C1F682
S32D0000FA48FF7048F2EC61C0F2010103F02FFF43F28060C1F6FF7002F047FF034643F20070C1F6FF70194604F0EB
S32D0000FA7017F843F20070C1F6FF7048F21071C0F2010103F017FF43F29C60C1F6FF7002F02FFF034643F20070B1
S32D0000FA98C1F6FF70194603F0FFFF4FF0320002F0E7F843F2B860C1F6FF7006F0C9F90246FB689A4222D143F2AE
S32D0000FAC09C60C1F6FF7002F013FF03461846FDF743FA054638682849FDF792FA03464FF001021446284619468C
S32D0000FAE8FDF728FC0346002B02D14FF000031C46E3B2002B02D04FF0010301E04FF00003002B94D143F2406090
S32D0000FB10C1F6FF7001F0BAFD43F24460C1F6FF7001F0B4FD43F29C60C1F6FF7002F0E0FE03461846FDF710FA8C
S32D0000FB38054638680E49FDF75FFA03464FF00102144628461946FDF7F5FB0346002B02D14FF000031C46E3B2FA
S32D0000FB60184607F11007BD46B0BD00BFAFF300809A9999999999F13F0000A040AFF3008080B582B000AF786002
S32D0000FB8839607B68012B40F0AA803A684FF6FF739A4240F0A48043F23860C1F6FF704FF0030102F0BBFE43F2AE
S32D0000FBB03C60C1F6FF704FF0080102F0A5FA43F24060C1F6FF704FF0000101F04BFD43F24460C1F6FF704FF0DA
S32D0000FBD8010101F043FD43F24860C1F6FF704FF0000103F093F843F25460C1F6FF704FF0040103F08BF843F20D
S32D0000FC006060C1F6FF704FF0040102F07DFA43F26460C1F6FF704FF00C0102F075FA43F26860C1F6FF704FF015
S32D0000FC28140102F06DFA43F26C60C1F6FF704FF0100102F091F843F27060C1F6FF704FF00F0102F089F843F22C
S32D0000FC507460C1F6FF704FF0070102F081F843F27860C1F6FF704FF0110102F079F843F27C60C1F6FF704FF07D
S32D0000FC78170102F071F843F28060C1F6FF704FF0000102F08BFC42F23973C0F2010343F28060C1F6FF701946C7
S32D0000FCA043F28C72C1F6FF7207F00AFB43F29C60C1F6FF704FF0010102F074FC42F23973C0F2010343F29C601E
S32D0000FCC8C1F6FF70194643F28C72C1F6FF7207F0F3FA43F2B860C1F6FF7005F05FFB07F10807BD4680BD00BF82
S32D0000FCF080B500AF4FF001004FF6FF71FFF740FF80BD00BF90B585B002AF43F24860C1F6FF70674903F01CF8F7
S32D0000FD18664867494FF000024FF00003FEF78EFC644B00934FF0000063494FF001024FF00003FFF7ADFB5D4869
S32D0000FD4060494FF000024FF00003FEF77BFC5B4B00934FF05A005A494FF001024FF00003FFF79AFB4FF06400D6
S32D0000FD6801F086FF4FF05A005349FFF771FC4F4853494FF000024FF00003FEF75FFC4FF000037B605EE043F2C9
S32D0000FD90B860C1F6FF7006F057F803463B6043F2B860C1F6FF7006F04FF8044643F2B860C1F6FF7006F036F84D
S32D0000FDB8034603F1FF339C4214BF00230123DBB2002B04D03C483A49FFF7F2FD03E037483749FFF7EDFD4FF03D
S32D0000FDE0320001F049FF43F2B860C1F6FF7006F02BF802463B689A4214BF00230123DBB2002B17D0314832498A
S32D0000FE084FF000024FF00003FEF718FC4FF0640001F02EFF2D4B00934FF05A0026494FF000024FF00003FFF7F3
S32D0000FE3033FB07E0254821494FF000024FF00003FEF700FC7B6803F101037B6043F2B860C1F6FF7005F0F8FF2F
S32D0000FE58044643F2B860C1F6FF7005F0DFFF03469C4205DA7B68062B02DC4FF0010301E04FF00003002B86D10C
S32D0000FE80124815494FF000024FF00003FEF7DAFB0A4B00934FF0000009494FF002024FF00003FFF7F9FA07F170
S32D0000FEA80C07BD4690BD00BF000034420000DC420000A0400000803F0000C84200000041000040400000DCC26E
S32D0000FED00000A03F0000003F0000804098B500AF21E043F20070C1F6FF7003F05BFC43F20070C1F6FF7048F20F
S32D0000FEF8EC71C0F2010103F0D9FC43F23C60C1F6FF7002F00DF9034643F20070C1F6FF70194603F0D5FD4FF09D
S32D0000FF20C80001F0A9FE43F23C60C1F6FF7002F0FBF803464FF00102144618460649FDF71BFA0346002B02D195
S32D0000FF484FF000031C46E3B2002BC6D198BD00BF0000E03F80B500AF43F20070C1F6FF7048F6A411C0F2010107
S32D0000FF7003F082FD00BF43F23860C1F6FF7002F057FD034683F00103DBB2002B1AD043F23860C1F6FF7002F0B2
S32D0000FF988FFD034683F00103DBB2002B0ED043F23860C1F6FF7002F05FFD034683F00103DBB2002B02D04FF08F
S32D0000FFC0010301E04FF00003002BD4D143F23860C1F6FF7002F02CFD0346002B00F01B8100BF43F23860C1F6CB
S32D0000FFE8FF7002F033FD034683F00103DBB2002BF3D143F20070C1F6FF7003F0CFFB43F20070C1F6FF7048F68D
S32D000100102821C0F2010103F02FFD43F20070C1F6FF7048F65021C0F2010103F025FD00BF43F23860C1F6FF70B0
S32D0001003802F01AFD034683F00103DBB2002BF3D100BF43F23860C1F6FF7002F021FD034683F00103DBB2002B1A
S32D00010060F3D143F24060C1F6FF706FF0630101F02BFB43F24460C1F6FF704FF0640101F023FB43F28060C1F65A
S32D00010088FF7002F03DFC43F29C60C1F6FF7002F037FC43F27C60C1F6FF7001F08DFF0346002BF6D143F200709F
S32D000100B0C1F6FF7003F076FB43F24060C1F6FF7001F0E4FA43F24460C1F6FF7001F0DEFA43F20070C1F6FF703A
S32D000100D848F67421C0F2010103F0E8FB43F28060C1F6FF7002F000FC034643F20070C1F6FF70194603F0D0FC41
S32D0001010043F20070C1F6FF7048F69021C0F2010103F0D0FB43F29C60C1F6FF7002F0E8FB034643F20070C1F6D3
S32D00010128FF70194603F0B8FC43F20070C1F6FF7048F6B021C0F2010103F0B8FB43F28060C1F6FF7002F0D0FB07
S32D0001015003461846FCF7AEFA02460B46104619464FF000024FF08243A3F5D303FCF732FC02460B4643F20070DE
S32D00010178C1F6FF7003F0B8FC43F20070C1F6FF7048F6D021C0F2010103F090FB43F29C60C1F6FF7002F0A8FB73
S32D000101A003461846FCF786FA02460B46104619464FF000024FF08243A3F5D303FCF70AFC02460B4643F20070DE
S32D000101C8C1F6FF7003F090FC43F28060C1F6FF7002F08AFB03461846FCF768FA02460B46104619464FF0000226
S32D000101F04FF08243A3F5D303FCF7ECFB02460B4610461946FCF79EFD024640F20043C1F6FF731A601CE243F225
S32D000102183860C1F6FF7002F04BFC0346002B00F01B8100BF43F23860C1F6FF7002F054FC034683F00103DBB27F
S32D00010240002BF3D143F20070C1F6FF7003F0AAFA43F20070C1F6FF7048F62821C0F2010103F00AFC43F200709A
S32D00010268C1F6FF7048F65021C0F2010103F000FC00BF43F23860C1F6FF7002F0F5FB034683F00103DBB2002BE3
S32D00010290F3D100BF43F23860C1F6FF7002F0FCFB034683F00103DBB2002BF3D143F24060C1F6FF704FF0640105
S32D000102B801F006FA43F24460C1F6FF706FF0630101F0FEF943F28060C1F6FF7002F018FB43F29C60C1F6FF70E5
S32D000102E002F012FB43F27C60C1F6FF7001F068FE0346002BF6D143F20070C1F6FF7003F051FA43F24060C1F692
S32D00010308FF7001F0BFF943F24460C1F6FF7001F0B9F943F20070C1F6FF7048F67421C0F2010103F0C3FA43F2D5
S32D000103308060C1F6FF7002F0DBFA034643F20070C1F6FF70194603F0ABFB43F20070C1F6FF7048F69021C0F259
S32D00010358010103F0ABFA43F29C60C1F6FF7002F0C3FA034643F20070C1F6FF70194603F093FB43F20070C1F686
S32D00010380FF7048F6B021C0F2010103F093FA43F28060C1F6FF7002F0ABFA03461846FCF789F902460B461046BF
S32D000103A819464FF000024FF08243A3F5D303FCF70DFB02460B4643F20070C1F6FF7003F093FB43F20070C1F6D8
S32D000103D0FF7048F6D021C0F2010103F06BFA43F29C60C1F6FF7002F083FA03461846FCF761F902460B461046AB
S32D000103F819464FF000024FF08243A3F5D303FCF7E5FA02460B4643F20070C1F6FF7003F06BFB43F28060C1F669
S32D00010420FF7002F065FA03461846FCF743F902460B46104619464FF000024FF08243A3F5D303FCF7C7FA02461A
S32D000104480B4610461946FCF779FC024640F20443C1F6FF731A60F7E000BF43F23860C1F6FF7002F015FB0346DF
S32D0001047083F00103DBB2002BF3D143F20070C1F6FF7003F08FF943F20070C1F6FF7048F6F421C0F2010103F05F
S32D00010498EFFA43F20070C1F6FF7048F65021C0F2010103F0E5FA00BF43F23860C1F6FF7002F0DAFA034683F018
S32D000104C00103DBB2002BF3D100BF43F23860C1F6FF7002F0E1FA034683F00103DBB2002BF3D143F24060C1F646
S32D000104E8FF704FF0640101F0EBF843F24460C1F6FF704FF0640101F0E3F843F28060C1F6FF7002F0FDF943F237
S32D000105109C60C1F6FF7002F0F7F943F27C60C1F6FF7001F04DFD0346002BF6D143F20070C1F6FF7003F036F91E
S32D0001053843F24060C1F6FF7001F0A4F843F24460C1F6FF7001F09EF843F20070C1F6FF7048F67421C0F2010134
S32D0001056003F0A8F943F28060C1F6FF7002F0C0F9034643F20070C1F6FF70194603F090FA43F20070C1F6FF7037
S32D0001058848F69021C0F2010103F090F943F29C60C1F6FF7002F0A8F9034643F20070C1F6FF70194603F078FA63
S32D000105B043F20070C1F6FF7048F61431C0F2010103F078F943F28060C1F6FF7002F090F903461846FCF76EF800
S32D000105D802460B46104619464FF000024FF0804303F58403FCF7F2F902460B4643F20070C1F6FF7003F078FA3D
S32D0001060043F20070C1F6FF7048F6D021C0F2010103F050F943F29C60C1F6FF7002F068F903461846FCF746F85F
S32D0001062802460B46104619464FF000024FF0804303F58403FCF7CAF902460B4643F20070C1F6FF7003F050FA3C
S32D0001065043F20070C1F6FF7048F63431C0F2010103F00AFA00BF43F23860C1F6FF7002F0FFF9034683F0010306
S32D00010678DBB2002BF3D100BF43F23860C1F6FF7002F006FA034683F00103DBB2002BF3D180BD00BF80B500AF17
S32D000106A02BE043F20070C1F6FF7003F07BF843F20070C1F6FF7048F65C31C0F2010103F0DBF943F20070C1F682
S32D000106C8FF7048F68411C0F2010103F0EFF843F2B860C1F6FF7005F019FC034643F20070C1F6FF70194603F050
S32D000106F0EBF94FF0140001F0BFFA43F23860C1F6FF7002F0B5F9034683F00103DBB2002BC7D100BF43F23860CB
S32D00010718C1F6FF7002F0BCF9034683F00103DBB2002BF3D143F2B860C1F6FF7005F0EEFB024640F20843C1F6DC
S32D00010740FF731A602BE043F20070C1F6FF7003F029F843F20070C1F6FF7048F69431C0F2010103F089F943F288
S32D000107680070C1F6FF7048F68411C0F2010103F09DF843F2B860C1F6FF7005F0C7FB034643F20070C1F6FF707F
S32D00010790194603F099F94FF0140001F06DFA43F23860C1F6FF7002F063F9034683F00103DBB2002BC7D100BF9B
S32D000107B843F23860C1F6FF7002F06AF9034683F00103DBB2002BF3D143F2B860C1F6FF7005F09CFB024640F215
S32D000107E00C43C1F6FF731A6080BD00BF80B500AF43F25460C1F6FF700B4902F0A9FA4FF0C80001F039FA0948A4
S32D0001080809494FF000024FF00003FDF717FF43F25460C1F6FF70054902F096FA80BD00BF0000F0410000DC42B8
S32D00010830000000400000E64280B582B002AF43F24860C1F6FF70414902F082FA40484FF001013E4AFEF718FAC6
S32D000108583E4B00934FF05A003D494FF002024FF00003FEF715FE4FF0FA0001F001FA4FF05A003749FEF7ECFE8C
S32D00010880364837494FF000024FF00003FDF7DAFE344835494FF000024FF00103FEF7BCFA2C4B00934FF000008A
S32D000108A82B494FF001024FF00003FEF7F1FD4FF0FA0001F0DDF94FF000002549FEF7C8FE24484FF00001274AC1
S32D000108D0FEF7DAF91E4826494FF000024FF00003FDF7B0FE4FF0320001F0C6F91B4821494FF000024FF00003C6
S32D000108F8FDF7A4FE154B00934FF0870014494FF002024FF00003FEF7C3FD43F24860C1F6FF70174902F018FA84
S32D000109200D484FF000010C4AFEF732FF4FF000000949084AFEF7A0FE43F24860C1F6FF70024902F005FABD46DF
S32D0001094880BD00BF0000F0410000DCC20000803F0000C8420000DC42000000410000B4420000B0C000004041A6
S32D00010970000040400000A03F00008C42B0B586B002AFDFF85805DFF858154FF000024FF00003FDF757FEDFF8C4
S32D000109984C3500934FF05A00DFF844154FF002024FF00003FEF774FD4FF05A00DFF83015FEF74EFEDFF82C056A
S32D000109C0DFF82C154FF000024FF00003FDF73AFE40F20843C1F6FF731B68DFF8180519464FF000024FF0010341
S32D000109E8FEF716FA4FF0C80001F042F94FF05A00DFF8EC14FEF72CFEDFF8D804DFF8F0144FF000024FF0000308
S32D00010A10FDF718FE43F24860C1F6FF70DFF8DC1402F096F901F042F902460B4610461946FCF788F90346BB6010
S32D00010A3800BF01F037F904460D46B868FBF748FE02460B4620462946FBF7E2FC02460B464FF001010C461046FA
S32D00010A6019464FF000024FF07E5303F5C003FCF7F9F80346002B02D14FF000031C46E3B2002BDAD1DFF8640483
S32D00010A88DFF874144FF000024FF00003FDF7D6FD43F24860C1F6FF70DFF8601402F054F901F000F902460B4686
S32D00010AB010461946FCF746F90346BB6000BF01F0F5F804460D46B868FBF706FE02460B4620462946FBF7A0FC80
S32D00010AD802460B464FF001010C46104619464FF000024FF07E5303F5C003FCF7B7F80346002B02D14FF00003D7
S32D00010B001C46E3B2002BDAD143F24860C1F6FF70FC4902F01DF901F0C9F802460B4610461946FCF70FF9034665
S32D00010B28BB6000BF01F0BEF804460D46B868FBF7CFFD02460B4620462946FBF769FC02460B464FF001010C46B1
S32D00010B50104619464FF000024FF07E5303F5C003FCF780F80346002B02D14FF000031C46E3B2002BDAD1E448C8
S32D00010B78E1494FF000024FF00003FDF75FFDD848DB494FF000024FF00003FDF757FDD34B00934FF00000D24937
S32D00010BA04FF001024FF00003FEF776FC4FF0FA0001F062F84FF00000CE49FEF74DFDC7484FF00101D14AFEF7C2
S32D00010BC85FF8034683F00103DBB2002B04D04FF00000C349FEF73CFD43F24860C1F6FF70C94902F0B1F8C94B1E
S32D00010BF00093BD48C0494FF000024FF00003FDF737FD4FF0FA0001F037F84FF00000B949FEF722FDBF4B00933F
S32D00010C18B348BF494FF000024FF00003FDF724FD4FF0FA0001F024F84FF0AF00AC49FEF70FFD43F24860C1F654
S32D00010C40FF70B24902F084F8A448B4494FF000024FF00003FDF7F6FC4FF0320001F00CF8A2489F494FF00002E2
S32D00010C684FF00003FDF7EAFC9A484FF00101A34AFEF706F84FF0FA0000F0FAFF9948A5494FF000024FF00003CA
S32D00010C90FDF7D8FC91484FF001019A4AFDF7F4FF924890494FF000024FF00003FDF7CAFC8C4B00934FF05A0095
S32D00010CB88B494FF001024FF00103FEF7E9FB4FF0FA0000F0D5FF4FF05A008549884A924BFEF7E2FC40F20C4374
S32D00010CE0C1F6FF731B68814819464FF000024FF00003FEF791F87B4B00934FF000007A494FF002024FF001032F
S32D00010D08FEF7C6FB4FF0000075494FF00A024FF00103FEF7C5FA4FF0FA0000F0A9FF4FF000006F49FEF794FC7A
S32D00010D304FF00003FB6014E068487A494FF000024FF00003FDF77EFC4FF0FA0000F094FF4FF000006449FEF702
S32D00010D587FFCFB6803F10103FB60FB68012BCCBF00230123DBB2002BE2D15A4865494FF00002FDF751FE034652
S32D00010D801846FCF703FB03467B6054484FF001015C4AFDF779FF08E04FF0C80000F06CFF4FF000005049FEF7CB
S32D00010DA857FC4E4B009356485D494FF001024FF00003FEF743F9034683F00103DBB2002BE6D1464B00934FF012
S32D00010DD05A0045494FF002024FF00103FEF75CFB4FF0FA0000F048FF4FF05A003E49FEF733FC3A484FF00101C3
S32D00010DF84C4AFDF745FF3D484B494FF000024FF00103FEF705F8354B00934FF0000034494FF001024FF001031B
S32D00010E20FEF73AFB4FF001002F494FF00A024FF00103FEF739FA4FF0FA0000F01DFF294B00934FF0000028490F
S32D00010E484FF000024FF00103FEF722FB4FF000002649FEF7FDFB1F484FF00101314AFDF70FFF43F24860C1F691
S32D00010E70FF70274901F06CFF2E4B00931D482B494FF000024FF00003FDF7F2FB13482A494FF000024FF000037E
S32D00010E98FDF7D4FB43F24860C1F6FF70254901F053FF104824494FF000024FF00003FDF7C5FB4FF0320000F057
S32D00010EC0DBFE4FF0000008491E4AFEF7D5FB7B68184607F11007BD46B0BD00BF0000DCC20000A0400000803FB1
S32D00010EE80000C8420000DC42000010410000B442000080400000AA42000040400000F0410000C8C20000204124
S32D00010F100000FA423333933F00008041000000400000003E0000E040000070410000A0419A9959C1CDCC8C3F9C
S32D00010F380000F0400000E642000050410000204080B586B002AF786049484FF00101494AFDF796FE43F2486083
S32D00010F60C1F6FF70454901F0F3FE454B00934FF05A0044494FF002024FF00003FEF78CFA4FF05A003F49FEF76D
S32D00010F8867FB3B484FF001013D4AFDF779FE4FF057003A49FEF75CFB7B68022B01D1394B00E0394BBB604FF099
S32D00010FB00003FB601CE0B8683649FCF7D5F80346354A0092354819464FF000024FF00003FDF74EFB4FF06400C0
S32D00010FD800F04EFE4FF05A0028492F4AFEF748FBFB6803F10103FB60FB68022BCCBF00230123DBB2002BDAD178
S32D00011000FFF7F4FB4FF05A001E49FEF725FB40F20C43C1F6FF731B6818462249FBF7E6FE03461E4819464FF0AE
S32D0001102800024FF00103FDF7F3FE43F25460C1F6FF70104901F088FE0F4B00934FF000000E494FF001024FF08C
S32D000110500003FEF721FA4FF000000A49FEF7FCFA43F25460C1F6FF700F4901F071FE07F11007BD4680BD00BF0C
S32D000110780000DCC20000F0410000803F0000C8420000A0410000804000009041000040409A99993F0000B442BE
S32D000110A0000000400000C0400000E64280B582B002AF4FF05A002549FEF7CEFA2AE024484FF00101234AFDF7C5
S32D000110C8DFFD0346002B1BD0214B00934FF000001C494FF001024FF00003FEF7D9F91D484FF00101194AFDF7D3
S32D000110F0CBFD194B00934FF05A0014494FF002024FF00003FEF7C8F94FF05A000F49144AFEF7B2FA43F2386024
S32D00011118C1F6FF7001F0A8FC034683F00103DBB2002BC8D100BF43F23860C1F6FF7001F0AFFC034683F00103CE
S32D00011140DBB2002BF3D1BD4680BD00BF0000C8420000FEC2000020410000803F0000DCC20000004080B584B0D4
S32D0001116802AF43F24860C1F6FF70254901F0ECFD4FF000037B6015E0224823494FF000024FF00003FDF75AFAA9
S32D000111904FF0640000F070FD4FF000001B491D4AFEF76AFA7B6803F101037B607B68012BCCBF00230123DBB2A9
S32D000111B8002BE1D1164B0093164817494FF001024FF00103FDF73AFF43F24860C1F6FF700F4901F0B9FD114B69
S32D000111E000934FF05A000D494FF002024FF00003FEF752F94FF05A000849FEF72DFA07F10807BD4680BD00BF8D
S32D000112080000FA420000DC420000A040000040400000F0410000C84200000C420000803F80B500AF44F2E02299
S32D00011230C1F6FF7243F23863C1F6FF73D31A194643F23863C1F6FF731A460B4610464FF000011A4604F0ABFFE4
S32D0001125880BD00BF06F036F800F0B0F9FFF7E0FF05F0E6FF05F082FF06F03CF800F00CF84FF0000043F2C061D6
S32D00011280C1F6FF71FDF7E2F80346184604F06AFF80B500AF4FF4E043C4F204034FF4E042C4F2040202F5805255
S32D000112A802F13802126842F4785203F5805303F138031A6000F02EF900F094F843F2CC63C1F6FF734FF0580243
S32D000112D01A6043F2CC63C1F6FF731B684FF47A7202FB03F243F2C863C1F6FF731A6043F2C863C1F6FF731B6835
S32D000112F81A464FF4E043C4F2040303F5825303F104031B6803F070634FEA136303F10103B2FBF3F31A4643F264
S32D00011320D063C1F6FF731A604FF4E043C4F204034FF4E042C4F2040202F5805202F13C02126842F0225203F572
S32D00011348805303F13C031A604FF4E043C4F204034FF4E042C4F2040202F5805202F13002126842F0006203F5BE
S32D00011370805303F130031A604FF45043C4F203034FF480721A614FF0640000F009FB4FF45043C4F203034FF42C
S32D000113985042C4F20302526922F010025A614FF45043C4F203034FF000021A604FF45043C4F203034FF010020F
S32D000113C05A6101F003F801F0ABF843F2C460C1F6FF7000F069FB43F20070C1F6FF7002F09FF841F2883000F0C1
S32D000113E847FC80BD80B400AF4FF48043C4F206034FF000025A704FF48043C4F206034FF098021A704FF4804375
S32D00011410C4F206039B79DBB203F01003002B0CBF00230123DBB2002BF0D14FF48043C4F206039B79DBB203F038
S32D000114380C034FEA9303022B0CBF00230123DBB2002BEED14FF48043C4F206034FF018021A714FF48043C4F28C
S32D0001146006034FF000025A714FF4E043C4F2040303F5825303F104034FF00002C0F213121A604FF48043C4F20F
S32D0001148806034FF054025A7100BF4FF48043C4F206039B79DBB203F02003002B14BF00230123DBB2002BF0D1D3
S32D000114B000BF4FF48043C4F206039B79DBB203F04003002B14BF00230123DBB2002BF0D14FF48043C4F206032F
S32D000114D84FF48042C4F206021278D2B202F03F02D2B21A704FF48043C4F206039B79DBB203F00C034FEA93039C
S32D00011500032B0CBF00230123DBB2002BEED14FF000031846BD4680BC704700BF80B400AF4FF44043C4F204034A
S32D000115284FF480725A634FF2C003C4F20F034FF2C002C4F20F02526942F400525A614FF2C003C4F20F034FF201
S32D00011550C002C4F20F02126842F400521A604FF44043C4F2040340F20312C0F20A021A634FF46143CEF20003B8
S32D000115784FF46142CEF20002D2F8882142F08062C3F888214FF46143CEF200034FF46142CEF20002926842F033
S32D000115A080629A60BD4680BC704700BF80B483B000AF7860FEE700BF80B400AF00BEBD4680BC704780B400AF7F
S32D000115C84FF0E0224CF20003C0F20003C2F8083D4FF40053C4F205034CF22052DA814FF40053C4F205034DF6C8
S32D000115F02812DA814FF40053C4F205034FF0D2021A80BD4680BC704780B400AF4FF44043C4F20403D3F8A0303F
S32D0001161803F48053002B0CBF00230123DBB2002B19D04FF44043C4F204034FF44042C4F20402D2F8A02022F457
S32D000116408052C3F8A0204FF2C003C4F20F034FF2C002C4F20F02126822F400521A60BD4680BC704780B483B0DF
S32D0001166800AF78600B46FB707B68FA781A707B684FF000025A707B68184607F10C07BD4680BC704780B582B09A
S32D0001169000AF78607B685B78002B10D07B684FF000025A707B681B7843F2C460C1F6FF7019464FF000024FF021
S32D000116B81E0300F03FFA07F10807BD4680BD00BF80B584B000AF786039603B687F2B03DD4FF07F03FB7309E0E5
S32D000116E03B6813F1800F03DA4FF08003FB7301E03B68FB737B685B78FA7B9A420FD07B68FA7B5A707B681A7829
S32D00011708FB7B43F2C460C1F6FF7011461A464FF01E0300F00FFA07F11007BD4680BD00BF90B486B000AFF8601E
S32D00011730B9607A60FA684FF42043C4F206039A4214D14FF4E043C4F204034FF4E042C4F2040202F5805202F10F
S32D000117583402126842F4806203F5805303F134031A6083E0FA684FF43043C4F206039A4214D14FF4E043C4F213
S32D0001178004034FF4E042C4F2040202F5805202F13402126842F4006203F5805303F134031A6067E0FA684FF4B2
S32D000117A84043C4F206039A4214D14FF4E043C4F204034FF4E042C4F2040202F5805202F13402126842F4805257
S32D000117D003F5805303F134031A604BE0FA684FF45043C4F206039A4214D14FF4E043C4F204034FF4E042C4F259
S32D000117F8040202F5805202F13402126842F4005203F5805303F134031A602FE0FA684FF42043C4F20E039A429E
S32D0001182014D14FF4E043C4F204034FF4E042C4F2040202F5805202F12802126842F4806203F5805303F128030E
S32D000118481A6013E04FF4E043C4F204034FF4E042C4F2040202F5805202F12802126842F4006203F5805303F109
S32D0001187028031A60FB68DB78DBB223F00C03DAB2FB68DA70FB684FF000029A70BB684FF47A7202FB03F27B6831
S32D000118984FEA031392FBF3F39CB2FB681B78DBB223F01F03FB75234603F4F8534FEA2323DBB203F01F03DAB291
S32D000118C0FB7D1343DAB2FB681A70E2B2FB685A70BB684FF4FA4202FB03F27B684FEA031392FBF3F39AB2234603
S32D000118E819464FEAC121CB1A4FEA43139BB2D3189CB2FB689B7ADBB223F01F03FB75E3B203F01F03DAB2FB7D05
S32D000119101343DAB2FB689A72FB68DB78DBB243F00C03DAB2FB68DA7007F11807BD4690BC704700BF80B483B056
S32D0001193800AF786000BF7B681B79DBB203F02003002B14BF00230123DBB2002BF3D17B68DB79DBB2184607F145
S32D000119600C07BD4680BC704780B483B000AF78600B46FB7000BF7B681B79DBB2DBB26FEA0303DBB24FEAD3134A
S32D00011988DBB2002BF3D17B68FA78DA7107F10C07BD4680BC704700BF80B483B000AF78604FF4E043C4F2040343
S32D000119B04FF4E042C4F2040202F5805202F13802126842F0010203F5805303F138031A604FF00003C4F20403CF
S32D000119D87A689A604FF00003C4F204034FF005025A604FF00003C4F204034FF00002C4F20402126842F001025A
S32D00011A001A6000BF4FF00003C4F204031B6803F08003002B14BF00230123DBB2002BF1D14FF00003C4F20403C8
S32D00011A284FF00002C4F20402126822F001021A6007F10C07BD4680BC704700BF80B582B000AF786039607B685F
S32D00011A50012B0AD13A684FF6FF739A4205D143F2C460C1F6FF7000F00FF807F10807BD4680BD00BF80B500AFF5
S32D00011A784FF001004FF6FF71FFF7E0FF80BD00BF80B483B000AF78607B684FF000021A707B68184607F10C0791
S32D00011AA0BD4680BC704700BF80B582B000AF78607B681B7883F00103DBB2002B36D04FF4E043C4F2040303F5AE
S32D00011AC8805303F128034FF400621A604FF45043C4F204034FF440721A624FF45043C4F204034FF440725A6296
S32D00011AF043F2C863C1F6FF731B684FEAD372D3184FEA63034FF43040C4F20E0019464FF46142FFF709FE4FF0BB
S32D00011B18640000F0ADF87B684FF001021A704FF0010301E04FF00003184607F10807BD4680BD00BF80B582B0C5
S32D00011B4000AF7860F970BA707B704FF43040C4F20E004FF07F01FFF707FF4FF43040C4F20E004FF00801FFF78A
S32D00011B68FFFEFB784FF43040C4F20E001946FFF7F7FEBB784FF43040C4F20E001946FFF7EFFE7B784FF430408B
S32D00011B90C4F20E001946FFF7E7FE4FF43040C4F20E004FF0FF01FFF7DFFE07F10807BD4680BD00BF80B487B02E
S32D00011BB800AFF860B9607A60FA6844F6D353C1F26203A3FB02134FEA9312BB68D3187B61FA6844F6D353C1F23A
S32D00011BE06203A3FB02134FEA93134FF47A7101FB03F3D31AFB60FB684FEAC33244F6D353C1F26203A3FB0213BB
S32D00011C084FEA93127B68D3183B613B694FEAD3337A69D3187B613B694FEA43434FEA53433B614FF45043C4F27E
S32D00011C3003031B681A467B699A4211D34FF45043C4F203031B681A467B699A420BD14FF45043C4F203035B6892
S32D00011C581A463B699A4202D24FF0010301E04FF00003002BDDD107F11C07BD4680BC704780B584B000AF786069
S32D00011C804FF45043C4F203031B68FB604FF45043C4F203035B68BB607B681846F968BA68FFF788FF07F1100705
S32D00011CA8BD4680BD80B584B000AF4FF45043C4F203031B68FB604FF45043C4F203035B68BB60F868FAF7E2FCA6
S32D00011CD002460B46C7E90023B868FAF7DBFC02460B46104619464FF000024FF0804303F56003FAF76FFE0246FF
S32D00011CF80B46D7E90001FAF78DFB02460B46C7E90023D7E900231046194607F11007BD4680BD00BF80B483B0B9
S32D00011D2000AF4FF45043C4F203031B684FF47A7202FB03F37B604FF45043C4F203035B684FF47A7202FB03F35C
S32D00011D484FEAD3337A68D3187B607B68184607F10C07BD4680BC704780B582B000AF78600B46FB70FB78786846
S32D00011D70194600F013F87B68184607F10807BD4680BD00BF80B483B000AF78607B68184607F10C07BD4680BC2A
S32D00011D98704700BF80B483B000AF78600B46FB707B68FA781A707B681B781A4648F68C53C0F201039B5C042B4E
S32D00011DC000F2F98001A252F823F000BFE11D01003F1E01009D1E0100FB1E0100591F01004FF41043C4F20403CB
S32D00011DE87A681278114648F6D052C0F2010252F8212040F2031143F822104FF47043C4F20F034FF47042C4F24D
S32D00011E100F02526911467A681278104648F6D052C0F2010252F8202002F01F024FF0010000FA02F26FEA020281
S32D00011E380A405A61BBE04FF42043C4F204037A681278114648F6D052C0F2010252F8212040F2031143F8221062
S32D00011E604FF24003C4F20F034FF24002C4F20F02526911467A681278104648F6D052C0F2010252F8202002F058
S32D00011E881F024FF0010000FA02F26FEA02020A405A618CE04FF43043C4F204037A681278114648F6D052C0F2C6
S32D00011EB0010252F8212040F2031143F822104FF28003C4F20F034FF28002C4F20F02526911467A6812781046D8
S32D00011ED848F6D052C0F2010252F8202002F01F024FF0010000FA02F26FEA02020A405A615DE04FF44043C4F2E0
S32D00011F0004037A681278114648F6D052C0F2010252F8212040F2031143F822104FF2C003C4F20F034FF2C002C6
S32D00011F28C4F20F02526911467A681278104648F6D052C0F2010252F8202002F01F024FF0010000FA02F26FEAB6
S32D00011F5002020A405A612EE04FF45043C4F204037A681278114648F6D052C0F2010252F8212040F2031143F8D4
S32D00011F7822104FF47143C4F20F034FF47142C4F20F02526911467A681278104648F6D052C0F2010252F8202019
S32D00011FA002F01F024FF0010000FA02F26FEA02020A405A6100BF07F10C07BD4680BC704780B485B000AF7860BF
S32D00011FC84FF00003FB607B681B781A4648F68C53C0F201039B5C042B00F2868001A252F823F000BF01200100A5
S32D00011FF0312001006120010091200100C12001004FF47043C4F20F031B691A467B681B78194648F6D053C0F2D0
S32D00012018010353F8213003F01F034FF0010101FA03F31340FB605FE04FF24003C4F20F031B691A467B681B781F
S32D00012040194648F6D053C0F2010353F8213003F01F034FF0010101FA03F31340FB6047E04FF28003C4F20F03B7
S32D000120681B691A467B681B78194648F6D053C0F2010353F8213003F01F034FF0010101FA03F31340FB602FE0D9
S32D000120904FF2C003C4F20F031B691A467B681B78194648F6D053C0F2010353F8213003F01F034FF0010101FA98
S32D000120B803F31340FB6017E04FF47143C4F20F031B691A467B681B78194648F6D053C0F2010353F8213003F040
S32D000120E01F034FF0010101FA03F31340FB6000BFFB68002B0CBF00230123DBB2184607F11407BD4680BC70477C
S32D0001210880B483B000AF78600B46FB707B68FA781A707B68184607F10C07BD4680BC704780B586B000AF7860EB
S32D000121307B681B781A4648F65063C0F2010353F822303B617B681B781A4648F6AC53C0F201039B5CFB733B69F8
S32D00012158DBB203F01F03DAB243F2D463C1F6FF731A723B69DBB203F01F03DAB243F2D463C1F6FF735A724FF493
S32D000121806143CEF200034FF46142CEF20002D2F8882042F01002C3F88820FB7B002B1ED14FF43040C4F203000C
S32D000121A843F2D461C1F6FF7100F04CFD4FF43043C4F203031B6803F08003002B14BF00230123DBB2002BF1D114
S32D000121D04FF43043C4F203031B697B611DE04FF43040C4F20B0043F2D461C1F6FF7100F02DFD4FF43043C4F286
S32D000121F80B031B6803F08003002B14BF00230123DBB2002BF1D14FF43043C4F20B031B697B614FF46143CEF271
S32D0001222000034FF46142CEF20002D2F8882142F01002C3F888214FF46143CEF200034FF46142CEF2000292687D
S32D0001224842F010029A604FF46143CEF200034FF46142CEF20002D2F8882142F08062C3F888214FF46143CEF245
S32D0001227000034FF46142CEF20002926842F080629A607B694FEA03434FEA13431846FAF701FA02460B46104661
S32D0001229819460FA3D3E90023FAF76EFA02460B46104619460CA3D3E90023FAF78FFB02460B4610461946FAF738
S32D000122C041FD0346BB60BB68184607F11807BD4680BD00BFAFF30080A4703D0AD7A30A4000000000E0FFEF4067
S32D000122E880B586B000AF78607B681B781A4648F65063C0F2010353F822303B617B681B781A4648F6AC53C0F25A
S32D0001231001039B5CFB733B69DBB203F01F03DAB243F2E463C1F6FF731A723B69DBB203F01F03DAB243F2E463E4
S32D00012338C1F6FF735A72FB7B002B1ED14FF43040C4F2030043F2E461C1F6FF7100F07AFC4FF43043C4F203030C
S32D000123601B6803F08003002B14BF00230123DBB2002BF1D14FF43043C4F203031B697B611DE04FF43040C4F25E
S32D000123880B0043F2E461C1F6FF7100F05BFC4FF43043C4F20B031B6803F08003002B14BF00230123DBB2002BC3
S32D000123B0F1D14FF43043C4F20B031B697B617B69184607F11807BD4680BD00BF98B500AF43F2D463C1F6FF7379
S32D000123D84FF05C021A7043F2D463C1F6FF734FF010025A7043F2D463C1F6FF7341F234225A8043F2D463C1F6E4
S32D00012400FF7345F278629A8043F2D463C1F6FF734FF010029A7143F2D463C1F6FF734FF00702DA7143F2D4638B
S32D00012428C1F6FF734FF4C022DA6043F2D463C1F6FF734FF01F021A7243F2D463C1F6FF734FF01F025A724FF478
S32D000124503040C4F2030043F2D461C1F6FF7100F0F5FB4FF43040C4F20B0043F2D461C1F6FF7100F0EBFB4FF4A5
S32D000124783040C4F20B0000F03FFB4FF43040C4F2030000F039FB4FF43040C4F20B0043F2D461C1F6FF7100F055
S32D000124A0D5FB4FF43040C4F2030043F2D461C1F6FF7100F0CBFB43F2E462C1F6FF7243F2D463C1F6FF731446F8
S32D000124C80FCB84E80F0043F2E463C1F6FF734FF05C021A7043F2E463C1F6FF734FF00402DA7198BD80B500AF56
S32D000124F043F2F863C1F6FF731B6803F1010243F2F863C1F6FF731A6000F072F94FF4E043C4F203034FF0010298
S32D00012518C3F80C2180BD00BF80B500AF4FF4E043C4F203034FF001021A6048F2A060C0F2010000F023F84FF4B3
S32D00012540E043C4F203034FF00302C3F808214FF46143CEF200034FF46142CEF20002D2F8882142F01002C3F8A1
S32D0001256888214FF46143CEF200034FF46142CEF20002926842F010029A6080BD80B483B000AF78604FF4E04380
S32D00012590C4F203037A68C3F8002107F10C07BD4680BC704780B584B000AF78600B46FB707A68FB7810461946EB
S32D000125B8FFF7A6FD43F2F463C1F6FF731B68002B32D17B684FF000021A617B684FF000025A614FF0140004F030
S32D000125E091FE02467B689A617B689B697A689A607B689B694FF001025A607B689B69FA781A707B689B694FF068
S32D000126080002DA607B689B694FF000021A617B689B694FF000025A707B689A6943F2F463C1F6FF731A6071E06C
S32D0001263043F2F463C1F6FF731B68FB6002E0FB68DB68FB60FB681B78FA789A4206D0FB68DB68002B02D04FF009
S32D00012658010301E04FF00003002BECD1FB681B78FA789A4224D17B68FA689A617B689B699B68BB6002E0BB68C1
S32D000126801B69BB60BB681B69002B0CBF00230123DBB2002BF3D1BB687A681A617B68BA685A617B684FF00002C8
S32D000126A81A617B689B695A6802F101025A602DE07B684FF000021A617B684FF000025A614FF0140004F01AFE45
S32D000126D002467B689A617B689B697A689A607B689B694FF001025A607B689B69FA781A707B689B694FF0000204
S32D000126F8DA607B689B694FF000025A707B689B69FA681A617B689A69FB68DA60786800F0F7F87B684FF48C428D
S32D000127209A607B684FF45242DA607B68184607F11007BD4680BD00BF80B586B000AF78607B685B697B617B68F5
S32D000127481B693B617B69002B31D13B69002B2ED17B689B691B69FB607B689B69DB68BB60FB68002B0AD1BB68CC
S32D00012770002B07D143F2F463C1F6FF734FF000021A6012E0FB68002B03D0FB68BA68DA6005E043F2F463C1F68D
S32D00012798FF73BA681A60BB68002B02D0BB68FA681A617B689B69184604F0CEFD16E07B69002B03D07B693A6981
S32D000127C01A6103E07B689B693A699A603B69002B02D03B697A695A617B689B695A6802F1FF325A607B6818465D
S32D000127E807F11807BD4680BD80B584B000AF43F2F463C1F6FF731B68FB6029E0FB685B78FB71FB689B68184651
S32D0001281000F02EF80346BB71BB79002B19D0FB685B68012B15DDFB689B681B69BB6008E0BB685B6803F10102B8
S32D00012838BB685A60BB681B69BB60BB68002B0CBF00230123DBB2002BEED1FB68DB68FB60FB68002B0CBF00237E
S32D000128600123DBB2002BCDD107F11007BD4680BD80B584B000AF78607868FFF735FD0346FB607B689B695B782A
S32D00012888FB72FB7A002B12D17B68DA68FB689A420DDA7B689B694FF001025A707B685B6803F101027B685A60B9
S32D000128B04FF0010317E0FB7A012B12D17B689A68FB689A420DDD7B689B694FF000025A707B685B6803F101029E
S32D000128D87B685A604FF0010301E04FF00003184607F11007BD4680BD80B483B000AF78607B685B68184607F137
S32D000129000C07BD4680BC704780B483B000AF78607B684FF000025A6007F10C07BD4680BC704700BF80B582B0AC
S32D0001292800AF78600B46FB707B681846FFF726FA7B6803F101031846FFF720FA7B6803F102031846FFF71AFA59
S32D00012950FB78032B66D801A252F823F06D2901009B290100C9290100F72901007B6818464FF00001FFF712FA86
S32D000129787B6803F1010318464FF00101FFF70AFA7B6803F1020318464FF00201FFF702FA44E07B6818464FF0AA
S32D000129A00801FFF7FBF97B6803F1010318464FF00901FFF7F3F97B6803F1020318464FF00A01FFF7EBF92DE046
S32D000129C87B6818464FF01001FFF7E4F97B6803F1010318464FF01101FFF7DCF97B6803F1020318464FF012019B
S32D000129F0FFF7D4F916E07B6818464FF01801FFF7CDF97B6803F1010318464FF01901FFF7C5F97B6803F1020388
S32D00012A1818464FF01A01FFF7BDF900BF7B68184607F10807BD4680BD80B582B000AF78607B681846FFF7C0FA05
S32D00012A40034683F00103DBB2184607F10807BD4680BD00BF80B582B000AF78607B681846FFF7AEFA0346184642
S32D00012A6807F10807BD4680BD80B582B000AF78607B6803F101031846FFF79EFA034683F00103DBB2184607F1A0
S32D00012A900807BD4680BD00BF80B582B000AF78607B6803F101031846FFF78AFA0346184607F10807BD4680BD7A
S32D00012AB880B582B000AF78607B6803F102031846FFF77AFA034683F00103DBB2184607F10807BD4680BD00BFAC
S32D00012AE080B582B000AF78607B6803F102031846FFF766FA0346184607F10807BD4680BD80B485B000AF78606B
S32D00012B087B681B6A23F040027B681A627B685B6A23F00B027B685A627B685B6A43F007027B685A627B685B6AF0
S32D00012B3043F080027B685A627B681B6803F08003002B14BF00230123DBB2002BF4D17B685B6A03F04003002B7B
