S01600002E2E2F464548526F626F74436F64652E733139FF
S32D0000C00000000020F50C0100511001005110010051100100511001005110010000000000000000000000000006
S32D0000C02800000000511001005110010000000000511001005110010051100100511001005110010051100100DA
S32D0000C05051100100511001005110010051100100511001005110010051100100511001005110010051100100EE
S32D0000C07851100100511001005110010051100100511001005110010051100100511001005110010051100100C6
S32D0000C0A0511001005110010051100100511001005110010051100100511001005110010051100100511001009E
S32D0000C0C85110010051100100511001005110010051100100511001005110010051100100511001005110010076
S32D0000C0F051100100754C01005110010051100100511001005110010051100100511001005110010051100100EE
S32D0000C1185110010051100100511001005110010051100100511001005110010051100100511001005110010025
S32D0000C14051100100511001005110010051100100851F01005110010051100100511001005110010051100100BA
S32D0000C16851100100511001005110010051100100511001005110010051100100511001005110010051100100D5
S32D0000C190511001005110010051100100511001005110010051100100A11001005110010051100100511001005D
S32D0000C1B85110010051100100511001005110010051100100511001005110010051100100511001005110010085
S32D0000C41081F0004102E000BF83F0004330B54FEA41044FEA430594EA050F08BF90EA020F1FBF54EA000C55EAC6
S32D0000C438020C7FEA645C7FEA655C00F0E2804FEA5454D4EB5555B8BF6D420CDD2C4480EA020281EA030382EA0F
S32D0000C460000083EA010180EA020281EA0303362D88BF30BD11F0004F4FEA01314FF4801C4CEA113102D0404263
S32D0000C48861EB410113F0004F4FEA03334CEA133302D0524263EB430394EA050F00F0A780A4F10104D5F1200E8A
S32D0000C4B00DDB02FA0EFC22FA05F2801841F1000103FA0EF2801843FA05F359410EE0A5F120050EF1200E012A2D
S32D0000C4D803FA0EFC28BF4CF0020C43FA05F3C01851EBE37101F0004507D54FF0000EDCF1000C7EEB00006EEB67
S32D0000C5000101B1F5801F1BD3B1F5001F0CD349085FEA30004FEA3C0C04F101044FEA445212F5800F80F09A8000
S32D0000C528BCF1004F08BF5FEA500C50F1000041EB045141EA050130BD5FEA4C0C404141EB010111F4801FA4F114
S32D0000C5500104E9D191F0000F04BF01460020B1FA81F308BF2033A3F10B03B3F120020CDA0C3208DD02F1140C87
S32D0000C578C2F10C0201FA0CF021FA02F10CE002F11402D8BFC2F1200C01FA02F120FA0CFCDCBF41EA0C019040B1
S32D0000C5A0E41AA2BF01EB0451294330BD6FEA04041F3C1CDA0C340EDC04F11404C4F1200220FA04F001FA02F3B6
S32D0000C5C840EA030021FA04F345EA030130BDC4F10C04C4F1200220FA02F001FA04F340EA0300294630BD21FAA8
S32D0000C5F004F0294630BD94F0000F83F4801306BF81F480110134013D4EE77FEA645C18BF7FEA655C29D094EA1C
S32D0000C618050F08BF90EA020F05D054EA000C04BF1946104630BD91EA030F1EBF0021002030BD5FEA545C05D1A3
S32D0000C6404000494128BF41F0004130BD14F580043CBF01F5801130BD01F0004545F0FE4141F470014FF0000031
S32D0000C66830BD7FEA645C1ABF194610467FEA655C1CBF0B46024650EA013406BF52EA033591EA030F41F40021D7
S32D0000C69030BD00BF90F0000F04BF0021704730B54FF4806404F132044FF000054FF0000150E700BF90F0000F66
S32D0000C6B804BF0021704730B54FF4806404F1320410F0004548BF40424FF000013EE700BF42004FEAE2014FEAF9
S32D0000C6E031014FEA02701FBF12F07F4393F07F4F81F06051704792F0000F14BF93F07F4F704730B54FF460741B
S32D0000C70801F0004521F0004120E700BF50EA010208BF704730B54FF000050AE050EA010208BF704730B511F046
S32D0000C730004502D5404261EB41014FF4806404F132045FEA915C3FF4DCAE4FF003025FEADC0C18BF03325FEAA0
S32D0000C758DC0C18BF033202EBDC02C2F1200300FA03FC20FA02F001FA03FE40EA0E0021FA02F11444C1E600BF19
S32D0000C78070B54FF0FF0C4CF4E06C1CEA11541DBF1CEA135594EA0C0F95EA0C0F00F0DEF82C4481EA030621EAF3
S32D0000C7A84C5123EA4C5350EA013518BF52EA033541F4801143F4801338D0A0FB02CE4FF00005E1FB02E506F05F
S32D0000C7D00042E0FB03E54FF00006E1FB03569CF0000F18BF4EF0010EA4F1FF04B6F5007F64F5407404D25FEA0F
S32D0000C7F84E0E6D4146EB060642EAC62141EA55514FEAC52040EA5E504FEACE2EB4F1FD0C88BFBCF5E06F1ED8D2
S32D0000C820BEF1004F08BF5FEA500E50F1000041EB045170BD06F0004646EA010140EA020081EA0301B4EB5C0487
S32D0000C848C2BFD4EB0C0541EA045170BD41F480114FF0000E013C00F3AB8014F1360FDEBF002001F0004170BDF0
S32D0000C870C4F10004203C35DA0C341BDC04F11404C4F1200500FA05F320FA04F001FA05F240EA020001F0004207
S32D0000C89821F0004110EBD37021FA04F642EB06015EEA430E08BF20EAD37070BDC4F10C04C4F1200500FA04F32F
S32D0000C8C020FA05F001FA04F240EA020001F0004110EBD37041F100015EEA430E08BF20EAD37070BDC4F12005C7
S32D0000C8E800FA05F24EEA020E20FA04F301FA05F243EA020321FA04F001F0004121FA04F220EA020000EBD37028
S32D0000C9105EEA430E08BF20EAD37070BD94F0000F0FD101F00046400041EB010111F4801F08BF013CF7D041EA6D
S32D0000C938060195F0000F18BF704703F00046520043EB030313F4801F08BF013DF7D043EA0603704794EA0C0FF1
S32D0000C9600CEA135518BF95EA0C0F0CD050EA410618BF52EA4306D1D181EA030101F000414FF0000070BD50EA38
S32D0000C988410606BF1046194652EA430619D094EA0C0F02D150EA013613D195EA0C0F05D152EA03361CBF10467B
S32D0000C9B019460AD181EA030101F0004141F0FE4141F470014FF0000070BD41F0FE4141F4780170BD70B54FF04D
S32D0000C9D8FF0C4CF4E06C1CEA11541DBF1CEA135594EA0C0F95EA0C0F00F0A7F8A4EB050481EA030E52EA03359B
S32D0000CA004FEA013100F088804FEA03334FF0805545EA131343EA12634FEA022245EA111545EA10654FEA002676
S32D0000CA280EF000419D4208BF964244F1FD0404F5407402D25B084FEA3202B61A65EB03055B084FEA32024FF461
S32D0000CA5080104FF4002CB6EB020E75EB030E22BFB61A754640EA0C005B084FEA3202B6EB020E75EB030E22BF22
S32D0000CA78B61A754640EA5C005B084FEA3202B6EB020E75EB030E22BFB61A754640EA9C005B084FEA3202B6EBEA
S32D0000CAA0020E75EB030E22BFB61A754640EADC0055EA060E18D04FEA051545EA16754FEA06164FEAC30343EAAC
S32D0000CAC852734FEAC2025FEA1C1CC0D111F4801F0BD141EA00014FF000004FF0004CB6E711F4801F04BF0143AE
S32D0000CAF00020B4F1FD0C88BFBCF5E06F3FF6AFAEB5EB030C04BFB6EB020C5FEA500C50F1000041EB045170BDBC
S32D0000CB180EF0004E4EEA113114EB5C04C2BFD4EB0C0541EA045170BD41F480114FF0000E013C90E645EA060EC3
S32D0000CB408DE60CEA135594EA0C0F08BF95EA0C0F3FF43BAF94EA0C0F0AD150EA01347FF434AF95EA0C0F7FF499
S32D0000CB6825AF104619462CE795EA0C0F06D152EA03353FF4FDAE1046194622E750EA410618BF52EA43067FF432
S32D0000CB90C5AE50EA41047FF40DAF52EA43057FF4EBAE12E74FF0FF3C06E000BF4FF0010C02E000BF4FF0010C75
S32D0000CBB84DF804CD4FEA410C7FEA6C5C4FEA430C18BF7FEA6C5C1BD001B050EA410C0CBF52EA430C91EA030FEC
S32D0000CBE002BF90EA020F0020704710F1000F91EA030F58BF994208BF90422CBFD8176FEAE37040F0010070476E
S32D0000CC084FEA410C7FEA6C5C02D150EA013C07D14FEA430C7FEA6C5CD6D152EA033CD3D05DF8040B704700BFCD
S32D0000CC308446104662468C461946634600E000BF01B5FFF7B7FF002848BF10F1000F01BD4DF808EDFFF7F4FF13
S32D0000CC580CBF012000205DF808FB00BF4DF808EDFFF7EAFF34BF012000205DF808FB00BF4DF808EDFFF7E0FF18
S32D0000CC8094BF012000205DF808FB00BF4DF808EDFFF7CEFF94BF012000205DF808FB00BF4DF808EDFFF7C4FF40
S32D0000CCA834BF012000205DF808FB00BF4FEA410212F5001215D211D56FF47873B3EB625212D94FEAC12343F0D6
S32D0000CCD0004343EA505311F0004F23FA02F018BF404270474FF00000704750EA013005D111F0004008BF6FF016
S32D0000CCF8004070474FF00000704700BF4A0011D212F5001211D20DD56FF47873B3EB62520ED44FEAC12343F085
S32D0000CD20004343EA505323FA02F070474FF00000704750EA013002D14FF0FF3070474FF0000070474FEA410241
S32D0000CD48B2F1E04324BFB3F5001CDCF1FE5C0DD901F0004C4FEAC0024CEA5070B2F1004F40EB830008BF20F09E
S32D0000CD700100704711F0804F21D113F13872BCBF01F00040704741F480114FEA5252C2F11802C2F1200C10FAB1
S32D0000CD980CF320FA02F018BF40F001004FEAC1234FEAD32303FA0CFC40EA0C0023FA02F34FEA4303CCE77FEA26
S32D0000CDC0625307D150EA01331EBF4FF0FE4040F44000704701F0004040F0FE4040F40000704700BF80F00040CC
S32D0000CDE802E000BF81F0004142001FBF5FEA410392EA030F7FEA226C7FEA236C6AD04FEA1262D2EB1363C1BF06
S32D0000CE10D218414048404140B8BF5B42192B88BF704710F0004F40F4000020F07F4018BF404211F0004F41F4FA
S32D0000CE38000121F07F4118BF494292EA030F3FD0A2F1010241FA03FC10EB0C00C3F1200301FA03F100F000432B
S32D0000CE6002D5494260EB4000B0F5000F13D3B0F1807F06D340084FEA310102F10102FE2A51D2B1F1004F40EB94
S32D0000CE88C25008BF20F0010040EA03007047490040EB000010F4000FA2F10102EDD1B0FA80FCACF1080CB2EB5F
S32D0000CEB00C0200FA0CF0AABF00EBC25052421843BCBFD0401843704792F0000F81F4000106BF80F400000132EB
S32D0000CED8013BB5E74FEA41037FEA226C18BF7FEA236C21D092EA030F04D092F0000F08BF0846704790EA010FD7
S32D0000CF001CBF0020704712F07F4F04D1400028BF40F00040704712F100723CBF00F50000704700F0004343F0DC
S32D0000CF28FE4040F4000070477FEA226216BF08467FEA23630146420206BF5FEA412390EA010F40F480007047C1
S32D0000CF504FF0000304E000BF10F0004348BF40425FEA000C08BF704743F0964301464FF000001CE050EA010264
S32D0000CF7808BF70474FF000030AE000BF50EA010208BF704711F0004302D5404261EB41015FEA010C02BF84465B
S32D0000CFA00146002043F0B64308BFA3F18053A3F50003BCFA8CF2083AA3EBC25310DB01FA02FC634400FA02FC6B
S32D0000CFC8C2F12002BCF1004F20FA02F243EB020008BF20F00100704702F1200201FA02FCC2F1200250EA4C0034
S32D0000CFF021FA02F243EB020008BF20EADC7070474FF0FF0C1CEAD0521EBF1CEAD15392EA0C0F93EA0C0F6FD019
S32D0000D0181A4480EA010C400218BF5FEA41211ED04FF0006343EA501043EA5111A0FB01310CF00040B1F5000FE7
S32D0000D0403EBF490041EAD3715B0040EA010062F17F02FD2A1DD8B3F1004F40EBC25008BF20F00100704790F058
S32D0000D068000F0CF0004C08BF49024CEA502040EA51207F3AC2BFD2F1FF0340EAC250704740F400004FF0000388
S32D0000D090013A5DDC12F1190FDCBF00F000407047C2F10002410021FA02F1C2F1200200FA02FC5FEA310040F1D5
S32D0000D0B8000053EA4C0308BF20EADC70704792F0000F00F0004C02BF400010F4000F013AF9D040EA0C0093F04C
S32D0000D0E0000F01F0004C02BF490011F4000F013BF9D041EA0C018FE70CEAD15392EA0C0F18BF93EA0C0F0AD00B
S32D0000D10830F0004C18BF31F0004CD8D180EA010000F00040704790F0000F17BF90F0004F084691F0000F91F0BB
S32D0000D130004F14D092EA0C0F01D142020FD193EA0C0F03D14B0218BF084608D180EA010000F0004040F0FE4051
S32D0000D15840F40000704740F0FE4040F4400070474FF0FF0C1CEAD0521EBF1CEAD15392EA0C0F93EA0C0F69D044
S32D0000D180A2EB030280EA010C49024FEA402037D04FF0805343EA111143EA10130CF000408B4238BF5B0042F14E
S32D0000D1A87D024FF4000C8B4224BF5B1A40EA0C00B3EB510F24BFA3EB510340EA5C00B3EB910F24BFA3EB9103A4
S32D0000D1D040EA9C00B3EBD10F24BFA3EBD10340EADC001B0118BF5FEA1C1CE0D1FD2A3FF650AF8B4240EBC25018
S32D0000D1F808BF20F0010070470CF0004C4CEA50207F32C2BFD2F1FF0340EAC250704740F400004FF00003013AF1
S32D0000D22037E792F0000F00F0004C02BF400010F4000F013AF9D040EA0C0093F0000F01F0004C02BF490011F4C9
S32D0000D248000F013BF9D041EA0C0195E70CEAD15392EA0C0F08D142027FF47DAF93EA0C0F7FF470AF084676E7AE
S32D0000D27093EA0C0F04D14B023FF44CAF08466EE730F0004C18BF31F0004CCAD130F000427FF45CAF31F0004376
S32D0000D2987FF43CAF5FE700BF4FF0FF3C06E000BF4FF0010C02E000BF4FF0010C4DF804CD4FEA40024FEA41039F
S32D0000D2C07FEA226C18BF7FEA236C11D001B052EA530C18BF90EA010F58BFB2EB030088BFC81738BF6FEAE1706E
S32D0000D2E818BF40F0010070477FEA226C02D15FEA402C05D17FEA236CE4D15FEA412CE1D05DF8040B704700BF16
S32D0000D310844608466146FFE70FB5FFF7C9FF002848BF10F1000F0FBD4DF808EDFFF7F4FF0CBF012000205DF839
S32D0000D33808FB00BF4DF808EDFFF7EAFF34BF012000205DF808FB00BF4DF808EDFFF7E0FF94BF012000205DF8A9
S32D0000D36008FB00BF4DF808EDFFF7D2FF94BF012000205DF808FB00BF4DF808EDFFF7C8FF34BF012000205DF8B1
S32D0000D38808FB00BF4FEA4002B2F1FE4F0FD34FF09E03B3EB12620DD94FEA002343F0004310F0004F23FA02F060
S32D0000D3B018BF404270474FF00000704712F1610F01D1420205D110F0004008BF6FF0004070474FF00000704797
S32D0000D3D8036803B11B181846704700BF03685A004CBF43F0004323F00043C018704700BF2DE9F84F0446914699
S32D0000D40041B301F1FF3BDA46002707EB0A0101EBD1756D1004EBC5063046FFF7E3FF8046681CAB4504EBC000FA
S32D0000D4280DD0FFF7DBFF0138C84504D9BD4209D005F1FF3AE5E7484505D26F1CE1E74FF0FF30F1E7002630469A
S32D0000D450BDE8F88F0E463046BDE8F88F30B52B4B83B004468D1E002B49D0284601A9AFF300800346002822D028
S32D0000D4782A4618460199FFF7BBFF054600281DD0FFF7ACFF6B68A064012B10D0281D002B22DBFFF7A3FF002164
S32D0000D4A0E06421650368002B0FDBFFF79BFF2061002003B030BD002323610520F9E720610920F6E72061092066
S32D0000D4C8F3E7C3F3036058B101280CD002280ED0002020610920E8E70122E0642265DDE7094B2361E1E7094AEF
S32D0000D4F000202261DDE7084900202161D9E7074B0749C81AC2100192B6E700BF0000000029DA000025DA0000AD
S32D0000D51821DA0000048F0100F4900100036810B50446D80706D4990704F1480009D500F00DFD23685A0709D51F
S32D0000D54018070ED5D90613D510BD00F0FBFC23685A07F5D404F1D00000F004FD23681807F0D404F5D87000F036
S32D0000D56805FD2368D906EBD404F50C70BDE8104000F040BD2DE9F0470F1D054691460FCFADF5916D02AC261D09
S32D0000D5900FC60FCF0FC60FCF0FC697E80F00D5F80C80D5F818A0002786E80F00216C27602846FFF753FF06460C
S32D0000D5B8B94514BF4FF00A094FF00909FEB1A16B49F01009616401208DE8100449462A462B46C04700282BD1BA
S32D0000D5E0002E2AD1204692A94FF4107208F0F8FA082F28D1216C2846FFF730FF06464FF00909002EDFD1206C4D
S32D0000D60821464FF41072686192A808F0E5FA2F69294692AA4846B847A09B0746636401208DE8100449462A4626
S32D0000D6302B46C0470028D3D00926304622B00DF5806DBDE8F087072FF6D1201D00F06EFC38B504460D46296C54
S32D0000D6582046FFF7FFFE50B92A6C23696261012021462A4698470828F1D0072801D00AF003FC281D00F056FC15
S32D0000D68011B933B10220704704298CBF0220012070470F2A01D90220704700EB820118464A68009B1A6070474D
S32D0000D6A810B50A4684B000210B4603AC0094FFF7E3FF039804B010BD11B933B10220704704298CBF0220012020
S32D0000D6D070470F2A01D902207047009900EB8202096818465160704710B584B004AB0C4643F8042D0021009330
S32D0000D6F822460B46FFF7E0FF04B010BD2DE9F04FCD6C8BB00C4655F8041B174600F008021E46039200F0030823
S32D0000D7200795002B40F0CF8009020691216D8DF821300323B8F1020F8DF8203008BFA56B11F0010340F0D3807B
S32D0000D748019304F158030293D5F80090B9F1000F00F0CB80022E00F0AE80B5F80090B5F802A00435A26C0F2198
S32D0000D7702AF0010B38469344FFF796FF834518D829F0010CE3440AF0010A09F00103584543EA4A092CBF002056
S32D0000D7980120B9F1010F12D032D2B8F1000F02D0002840F01D810435CEE70AF0010A09F0010343EA4A09002092
S32D0000D7C0B9F1010FECD1B8F1000F40F0B680C8B16B68D5F800909A1C19D0029A013309920DD0281DFFF7F8FDE6
S32D0000D7E84FEAD972014609AB204609F0AFFB002800F0F280099A002A40F0BA800835A3E7B9F1020F03D009204C
S32D0000D8100BB0BDE8F08F2B6823F000420092B8F1000F71D1002843D00398002840F0A1800098002800F0A08078
S32D0000D838009BDDF80C90DB0705F1040A40F1B480CDF810800596A846029E12E000998D4200F0D9800996FFF7B5
S32D0000D860BBFD5A46014609AB204609F073FBA946B0B90AF1040A05F1010950460996FFF7ABFD09AB0146002229
S32D0000D888204609F063FB0AF1040A834609F101055046BBF1000FD9D04546059EDDF81080009A4A4564D02B6866
S32D0000D8B0002B7BDB0099481C05EB800548E7D5F804A0083552E70B04C1F30740216D06930222B8F1020F05EB42
S32D0000D8D8800508BFA56B8DF8210011F001038DF820203FF42DAF00200190384606A900F019FC002887D1019A49
S32D0000D900002A43D1082083E70D213846D4F82090FFF7CAFE8145CAD1A26A9542C7D10098291D00220423A0623E
S32D0000D928E26223636163286800286EDB01220192BCE70D213846D4F82090FFF7B1FE81457FF45CAFA16A8D42FE
S32D0000D9507FF458AF2846FFF745FD0F2102463846FFF7C2FE384600212246FFF7BDFE07204EE7009900299BD19B
S32D0000D97838460D21FFF794FE099B20626362A562062041E70F213846FFF78AFE0E2102463846FFF7A5FE3846D5
S32D0000D9A00F211E4AFFF7A0FE072031E7043581E7029950460991FFF70FFD039A014609AB204609F0C7FA0028A0
S32D0000D9C87FF46EAFCDF8108005960AF1040A4FF00109A846029E4CE7CDF824800835B3E62846FFF7FBFC0435CB
S32D0000D9F00646A563204609F023FB00283FF407AF38460F213246FFF76FFE072000E74546B2E7009B591C05EB6C
S32D0000DA1881009CE7A971010002236FE601236DE600236BE62DE9F0470446E8B004290CD8DFE801F03803919305
S32D0000DA400F00150C012B96B200F07881052B00F0C780022068B0BDE8F087002BF9D1102AF7D82368D90600F115
S32D0000DA68738164A8019200F0CFFA019AA36BD00744BF53F8040B6490910744BF53F8041B6591500744BF53F8D3
S32D0000DA90041B6691110748BF53F8042B64A8A36348BF679200F0AAFA0020D3E7002BD0D1A36BD00791B244BF42
S32D0000DAB853F8042B62608A0744BF53F8042BA260480744BF53F8042BE2600A0744BF53F8042B2261C80644BF04
S32D0000DAE053F8042B62618A0644BF53F8042BA261480644BF53F8042BE2610A0644BF53F8042B2262C80544BFDC
S32D0000DB0853F8042B62628A0544BF53F8042BA262480544BF53F8042BE2620A0544BF53F8042B2263C80444BFB3
S32D0000DB3053F8042B626311F400501CBF53F8042BA2634A0444BF53F8042BE2630A0444BF53F8042B2264002890
S32D0000DB5840D1A3637AE7012078E7032B7FF475AF160C95B2AA19102A3FF66FAF2368180700F10B8144A800F026
S32D0000DB801BFAA76B4FEA450E3B460DB344A90EF1FF3C01EBC60653F8040B62460CF0010146F8040B92B129B13A
S32D0000DBA853F8041B013A46F8041B0BD01846314650F8045B41F8045B5D68031D75600E1D023AF3D107EB8E03F6
S32D0000DBD044A8A36300F0CEF900203BE7002039E777192022BA42FFF434AF012B00F0A9800F2D40F2A9803746FF
S32D0000DBF8F6B1052B7FF429AF0F2D11D82268D0070ED522F00101052B2160204600F0DA8022F0030240F8482B3D
S32D0000DC20019300F093F9019B1FB12268510700F1B880012B00F0BF800F2D75D9002F40F0A080D4F83890002E29
S32D0000DC48C8462EDD49460DF1080A4FEA46080AEBC50251F8046B08F1FF3000F0010A42F8046BA8F1020CD0B107
S32D0000DC70BAF1000F08D051F8040B0CF1FF3CBCF1FF3F42F8040B0ED00E46104656F804AB40F804AB4968ACF176
S32D0000DC98020C5160311D021DBCF1FF3FF0D109EB8808A7B3102D2CBF2E4610260DF5D079414609EBC60CACF59D
S32D0000DCC0C8724FEA470951F8046B09F1FF3000F0010A42F8046BA9F1020CD0B1BAF1000F08D051F8040B0CF1DE
S32D0000DCE8FF3CBCF1FF3F42F8040B0ED00E46104656F804AB40F804AB4968ACF1020C5160311D021DBCF1FF3FCE
S32D0000DD10F0D108EB8908012B2BD00F2DC4F8388008D9FFB9384695E602A8019300F016F9019B83E702A800F05A
S32D0000DD380DF9F2E77719102250E70F2D3FF685AE102F10D9103F54E723F01003236004F50C70019200F058F99D
S32D0000DD60019A82E624A800F0FDF8002072E6002746E708F1040302A8A36300F0E3F8002068E624A80193C5F116
S32D0000DD88100600F0EFF8019B57E723F0080704F5D870276000F00CF9ECE6204622F0040140F8D01B019300F0D1
S32D0000DDB0DDF8019B3DE702A8019300F0C7F8019B002F3FF43EAFC5F110063AE741F0020140F8481B019300F098
S32D0000DDD8C1F8019B24E700BF406C7047F0B50D460F1DC96B296404460FCFADF5117D01AE0FC60FCF0FC60FCF49
S32D0000DE000FC697E80F0086E80F004FF0FF33009310992046FFF722FB58B9266921466A46B04708280646F3D001
S32D0000DE286846FFF77BFB062E03D009200DF5117DF0BD20462946FFF707FC00BF10B4DC6BC16082611946002228
S32D0000DE501C6410BCFFF792BB38B54269C3680A6404460D4623B10122FFF788FB0AF008F80369214602202A4678
S32D0000DE789847072803D0082804D009F0FDFF281D00F050F820462946FFF7DEFBC36823B1CA6B0A640022FFF7C7
S32D0000DEA06DBB9FE7704700BF08B5836801460BB10120984708BD00BFF0B5D46B171D146405460C460FCFADF554
S32D0000DEC8277D01AE0FC60FCF0FC60FCF0FC697E80F0086E80F004FF0FF330093109990A8FFF7B8FA034690AA83
S32D0000DEF068460C21BBB9FFF7F7FB21466846A847064690A908206A466EB9949B98470528064601D00928E5D106
S32D0000DF186846FFF703FB30460DF5277DF0BD0926F6E700BF00F1340191E838009C46A6464CF8045D90E8FF0FD5
S32D0000DF40E54600BD90EC210B704700BF80EC210B704700BF90EC200B704700BF80EC200B704700BFD0EC200B8E
S32D0000DF68704700BFC0EC200B704700BFF0EC0201F0EC0211F0EC0221F0EC0231F0EC0241F0EC0251F0EC02615F
S32D0000DF90F0EC0271F0EC0281F0EC0291F0EC02A1F0EC02B1F0EC02C1F0EC02D1F0EC02E1F0EC02F1704700BFE6
S32D0000DFB8E0EC0201E0EC0211E0EC0221E0EC0231E0EC0241E0EC0251E0EC0261E0EC0271E0EC0281E0EC029155
S32D0000DFE0E0EC02A1E0EC02B1E0EC02C1E0EC02D1E0EC02E1E0EC02F1704700BFB0FC0181B0FC0191B0FC01A159
S32D0000E008B0FC01B1704700BFA0FC0181A0FC0191A0FC01A1A0FC01B1704700BFEC4600B52DE900502DE9FF1F47
S32D0000E0304FF000032DE90C0001A9FFF7D3FEDDF840E012B0704700BFEC4600B52DE900502DE9FF1F4FF00003FD
S32D0000E0582DE90C0001A9FFF7FBFEDDF840E012B0704700BFEC4600B52DE900502DE9FF1F4FF000032DE90C00CD
S32D0000E08001A9FFF707FFDDF840E012B0704700BFEC4600B52DE900502DE9FF1F4FF000032DE90C0001ABFFF718
S32D0000E0A8CDFEDDF840E012B0704700BFEC4600B52DE900502DE9FF1F4FF000032DE90C0001AAFFF7F5FEDDF804
S32D0000E0D040E012B0704700BF027A03461AB9427A42B9B02070470068013A01021A72000E196070474168501E6D
S32D0000E0F8587251F8040B0322596001021A72000E1960704710B5002184B00C220DEB02040B460094FFF7B0FA62
S32D0000E120039804B010BD00BFF0E700BF2DE9F043064685B00D464FF000094FF47F672846FFF7CAFFB028044683
S32D0000E14800F0B08010F0800120D000F0F003802B74D0902B37D0A02B45D0B02B56D0C02B00F0858000F0F800DB
S32D0000E170D0280BD104F00702511C41F40022304601210523FFF752FC0028D8D0092005B0BDE8F0834FEA800267
S32D0000E19803A85FFA82F800900D220B463046FFF76BFA039B600608F104084CBFC8EB0303434403AC03930094CD
S32D0000E1C0002130460D220B46FFF77AFAB7E700F00F020D2ADAD00F2AD8D0002103AC009430460B4603ACFFF77F
S32D0000E1E84BFA0094E8E7C24302F0070C47FA0CF0210700F47F6248BF42F48042002130460B46FFF70FFC00280D
S32D0000E210BCD194E7B1285DD0B2286ED0B32800F0958000F0FC02B42A46D000F00702531C43F40022012130469F
S32D0000E2380B46FFF7F7FB0028A4D17CE72846FFF747FF210240EA0104B4F5004F9AD0230500211A0C30460B46EB
S32D0000E2602401FFF7E3FB002890D114F4004F18BF4FF0010963E7C62873D0C72800F0848000F0F802C02A00F075
S32D0000E2889280C82800F0A680C9287FF47BAF2846FFF71EFF00F00F0300F0F0015A1C42EA013268E7B9F1000F81
S32D0000E2B000F0838000206AE700F00301481C022140F480220B463046FFF7B0FB00287FF45DAF34E72846FFF7FD
S32D0000E2D8FFFE024600283FF455AF10F0F0017FF451AF30460B46FFF79DFB00287FF44AAF21E700210D220B467E
S32D0000E30003AC30460094FFF7BBF92846FFF7E4FE022402060DD5039B00F07F0000FA04FE03EB0E01284603912E
S32D0000E328FFF7D6FE07340306F1D4039B00F07F0103AA03F5017C01FA04F400920CEB0402039239E72846FFF729
S32D0000E350C3FE00F00F03591C00F0F00041EA003268E72846FFF7B8FE00F00F03591C00F0F00041EA00320321E9
S32D0000E37830460B46FFF756FB00287FF403AFDAE62846FFF7A5FE024600283FF4FBAE10F0F0037FF4F7AE304688
S32D0000E3A00421FFF743FB00287FF4F0AEC7E600F00F01481C40F42022DDE703AC49460E224B4630460094FFF773
S32D0000E3C85BF9304649460F224B460094FFF774F94846D8E62846FFF77BFE00F0F00200F00F001032431C43EA3D
S32D0000E3F00232C4E610B5C26C84B0032054688DF80C00D37924020832084601A9019402928DF80D30FFF78AFE7D
S32D0000E41804B010BD08B5FFF783FE806C08BD00BF08B5FFF77DFEC16CC87901EB800303F1080008BD08B509F02F
S32D0000E4401FFD00BF08B509F01BFD00BF80B582B000AF43F20070C1F6FF704FF0050104F0C3FE43F20070C1F60F
S32D0000E468FF704FF0060104F019FF43F2B860C1F6FF7006F0F9FC43F2B860C1F6FF7007F0ADF943F20070C1F6FB
S32D0000E490FF7004F0D3FE43F20070C1F6FF7048F24001C0F2010105F01FF800BF43F23860C1F6FF7004F008F87E
S32D0000E4B8034683F00103DBB2002B1AD043F23860C1F6FF7004F01CF8034683F00103DBB2002B0ED043F23860B6
S32D0000E4E0C1F6FF7004F034F8034683F00103DBB2002B02D04FF0010301E04FF00003002BD4D143F23860C1F6C4
S32D0000E508FF7003F0FDFF0346002B0DD000BF43F23860C1F6FF7004F007F8034683F00103DBB2002BF3D128E04D
S32D0000E53043F23860C1F6FF7003F0C6FF0346002B0FD000BF43F23860C1F6FF7003F0CEFF034683F00103DBB200
S32D0000E558002BF3D101F002FD61E000BF43F23860C1F6FF7004F004F8034683F00103DBB2002BF3D101F09AFD0F
S32D0000E58051E001F075FC43F20070C1F6FF7004F055FE43F24860C1F6FF70234904F024F943F25460C1F6FF7039
S32D0000E5A8204904F01DF901F057FB01F0DDFD02F007F901F07FFE03467B6002F0D7FA786802F040F802F070FA17
S32D0000E5D002F012FA43F20070C1F6FF7048F2B001C0F2010104F080FF00BF43F23860C1F6FF7003F089FF0346CC
S32D0000E5F883F00103DBB2002BF3D100BF43F23860C1F6FF7003F090FF034683F00103DBB2002BF3D14FF4FA70E5
S32D0000E62003F076F831E730E70000F0410000E64280B483B000AF78607B6823F00043184607F10C07BD4680BC14
S32D0000E648704700BF80B586B002AFF860B960FA71BB71FA79BB7905490091F868B96800F007F807F11007BD4602
S32D0000E67080BD00BF0000803FB0B584B000AFF860B960FA71BB71BB79002B00F0A78043F28060C1F6FF7003F0CD
S32D0000E69883FE43F29C60C1F6FF7003F07DFE43F20070C1F6FF7048F2D401C0F2010104F017FF43F27C60C1F6AE
S32D0000E6C0FF7003F0C9F90346002BF6D100BF43F27C60C1F6FF7003F0BFF9034683F00103DBB2002BF3D1F86890
S32D0000E6E8FEF750FE034643F24060C1F6FF70194602F032FDF868FEF745FE034643F24460C1F6FF70194602F0CC
S32D0000E71027FD43F27C60C1F6FF7003F09DF90346002BF6D100BF43F27C60C1F6FF7003F093F9034683F0010387
S32D0000E738DBB2002BF3D143F24060C1F6FF7002F0EDFC43F24460C1F6FF7002F0E7FC43F20070C1F6FF7004F0CE
S32D0000E7606DFD43F20070C1F6FF7048F2F801C0F2010104F0EBFD43F29C60C1F6FF7003F003FE024613464FEA6E
S32D0000E78883039B1843F20070C1F6FF70194604F0BBFE43F20070C1F6FF7048F21411C0F2010104F09DFE43F2B1
S32D0000E7B07C60C1F6FF7003F04FF90346002BF6D100BF43F27C60C1F6FF7003F045F9034683F00103DBB2002B24
S32D0000E7D8F3D1FDE0F868FDF77BFF04460D46386AFDF776FF02460B4620462946FDF7C4FF02460B461046194689
S32D0000E800FEF758FA034643F24060C1F6FF70194602F0A6FCF868FEF7B9FD034643F24460C1F6FF70194602F0C8
S32D0000E8289BFC43F28060C1F6FF7003F0B5FD43F29C60C1F6FF7003F0AFFD98E043F29C60C1F6FF7003F09CFDFA
S32D0000E850014646F26763C6F2666383FB01234FEAA3024FEAE173D21A13464FEA83039B184FEA4303CA1A002A7F
S32D0000E87805D1FB79002B02D04FF0010301E04FF00003002B39D043F29C60C1F6FF7003F077FD0346002B0CBF94
S32D0000E8A000230123DBB2002B2BD043F29C60C1F6FF7003F069FD03461846FEF74DFB03461846F968FEF79CFB28
S32D0000E8C803461C4643F29C60C1F6FF7003F058FD03461846FEF73CFB034620461946FEF73FFC03461846FEF72B
S32D0000E8F04DFD034643F24060C1F6FF70194602F02FFC43F20070C1F6FF7004F097FC43F20070C1F6FF7048F299
S32D0000E9183011C0F2010104F015FD43F29C60C1F6FF7003F02DFD034643F20070C1F6FF70194604F0E9FD43F2E0
S32D0000E9400070C1F6FF7048F25411C0F2010104F0FDFC43F29C60C1F6FF7003F015FD034643F20070C1F6FF7063
S32D0000E968194604F0D1FD4FF0320002F0CDFE43F29C60C1F6FF7003F003FD03461846FEF7E7FA0546B8681449A3
S32D0000E990FEF736FB03464FF00102144628461946FEF7CCFC0346002B02D14FF000031C46E3B2002B7FF446AFB1
S32D0000E9B843F24060C1F6FF704FF0000102F0CCFB43F24460C1F6FF704FF0000102F0C4FB07F11007BD46B0BDCE
S32D0000E9E00000A04000000000B0B586B000AFF860B9601346FB719A4B7B61F868FEF7C6FC034643F24060C1F6FC
S32D0000EA08FF70194602F0A8FBF868FEF7BBFC034643F24460C1F6FF70194602F09DFB43F28060C1F6FF7003F012
S32D0000EA30B7FC43F29C60C1F6FF7003F0B1FCB7E043F29C60C1F6FF7003F09EFC014646F26763C6F2666383FB4B
S32D0000EA5801234FEAA3024FEAE173D21A13464FEA83039B184FEA4303CA1A002A05D1FB79002B02D04FF0010333
S32D0000EA8001E04FF00003002B39D043F29C60C1F6FF7003F079FC0346002B0CBF00230123DBB2002B2BD043F2E4
S32D0000EAA89C60C1F6FF7003F06BFC03461846FEF74FFA03461846F968FEF79EFA03461C4643F29C60C1F6FF7048
S32D0000EAD003F05AFC03461846FEF73EFA034620461946FEF741FB03461846FEF74FFC034643F24060C1F6FF7091
S32D0000EAF8194602F031FB43F20070C1F6FF7004F099FB43F20070C1F6FF7048F23011C0F2010104F017FC43F2EA
S32D0000EB209C60C1F6FF7003F02FFC034643F20070C1F6FF70194604F0EBFC43F20070C1F6FF7048F25411C0F21D
S32D0000EB48010104F0FFFB43F29C60C1F6FF7003F017FC034643F20070C1F6FF70194604F0D3FC43F23C60C1F694
S32D0000EB70FF7003F025F803464FF00102144618467969FEF7DBFB0346002B02D14FF000031C46E3B2002B07D086
S32D0000EB9843F23C60C1F6FF7003F00EF803467B614FF0320002F0B0FD43F29C60C1F6FF7003F0E6FB0346184658
S32D0000EBC0FEF7CAF90546B8682649FEF719FA03464FF00102144628461946FEF7AFFB0346002B02D14FF00003B3
S32D0000EBE81C46E3B2002B7FF427AF43F24060C1F6FF704FF0000102F0AFFA43F24460C1F6FF704FF0000102F08D
S32D0000EC10A7FA7869FDF760FD02460B464FF001010C46104619460CA3D3E90023FEF71AF80346002B02D14FF007
S32D0000EC3800031C46E3B2002B02D04FF0020301E04FF00103184607F11807BD46B0BD00BF333333333333F33F47
S32D0000EC60333353400000A040B0B584B000AFF860B9607A6043F28060C1F6FF7003F090FB43F29C60C1F6FF700A
S32D0000EC8803F08AFBF868FEF77DFB034643F24060C1F6FF70194602F05FFAF868FEF772FB034643F24460C1F690
S32D0000ECB0FF70194602F054FABB68002B08D143F26C60C1F6FF7002F0C7FE0346002B23D1BB68012B08D143F25E
S32D0000ECD87060C1F6FF7002F0BBFE0346002B17D1BB68022B08D143F27460C1F6FF7002F0AFFE0346002B0BD1CA
S32D0000ED00BB68032B2BD143F27860C1F6FF7002F0A3FE0346002B22D043F29C60C1F6FF7003F032FB034618464E
S32D0000ED28FEF716F9054678682449FEF765F903464FF00102144628461946FEF7FBFA0346002B02D14FF00003A9
S32D0000ED501C46E3B2002B02D04FF0010301E04FF00003002BA8D143F24060C1F6FF7002F0D9F943F24460C1F648
S32D0000ED78FF7002F0D3F943F29C60C1F6FF7003F0FFFA03461846FEF7E3F8054678680B49FEF732F903464FF05F
S32D0000EDA00102144628461946FEF7C8FA0346002B02D14FF000031C46E3B2184607F11007BD46B0BD0000A04027
S32D0000EDC880B586B002AFF860B960FA71BB71FA79BB7905490091F868B96800F007F807F11007BD4680BD00BFF5
S32D0000EDF0000080BFB0B588B002AFF860B960FA71BB7102F09FFC02460B4610461946FDF799FF03463B6193E0A1
S32D0000EE18FB79002B18D043F2B860C1F6FF7006F0A7FD03464FF001041846B968FEF782FA0346002B01D14FF036
S32D0000EE400004BB799C4214BF00230123FB7517E043F2B860C1F6FF7006F07EFD03464FF001041846B968FEF728
S32D0000EE6869FA0346002B01D14FF00004BB799C4214BF00230123FB75FB7D002B01D0714B00E0714B1846714910
S32D0000EE904FF000024FF00003FFF7D8FB43F20070C1F6FF7048F27811C0F2010104F04EFA43F2B860C1F6FF7017
S32D0000EEB806F04EFD034643F20070C1F6FF70194604F036FB43F20070C1F6FF7048F28011C0F2010104F036FAE5
S32D0000EEE043F2B860C1F6FF7006F046FD034643F20070C1F6FF70194604F01EFB4FF001031C46B86A5449FEF77F
S32D0000EF082DFA0346002B02D14FF000031C46E3B2002B0DD0B86AFEF735FA03464B4A00921846F9684FF0000276
S32D0000EF304FF0000300F09AFA4FF0960002F0E8FBFB79002B1FD043F2B860C1F6FF7006F013FD0346B868194674
S32D0000EF58FDF748FF03461846FFF766FB03464FF00102144618463B49FEF702FA0346002B02D14FF000031C46AF
S32D0000EF80E3B2002B4AD1FB7983F00103DBB2002B47D043F2B860C1F6FF7006F0DDFC0346B8681946FDF722FFAF
S32D0000EFA803461846FFF740FB03464FF00102144618462849FEF7DCF90346002B02D14FF000031C46E3B2002B3A
S32D0000EFD027D002F0B7FB04460D463869FDF77CFB02460B4620462946FDF716FA02460B464FF001010C461046DB
S32D0000EFF819464FF000024FF0804303F5A013FDF72DFE0346002B02D14FF000031C46E3B2002B02D04FF00103BF
S32D0000F02001E04FF00003002B7FF4F6AE43F24060C1F6FF7002F076F843F24460C1F6FF7002F070F807F1180792
S32D0000F048BD46B0BD0000DC420000DCC20000803E000000000000003FF0B587B000AFF860B960FA71BB7102F0EC
S32D0000F07069FB02460B4610461946FDF763FE03467B6145E0F868FEF781F9034643F24060C1F6FF70194602F0BD
S32D0000F09863F8F868FEF776F9034643F24460C1F6FF70194602F058F843F20070C1F6FF7048F27811C0F2010100
S32D0000F0C004F044F943F2B860C1F6FF7006F044FC034643F20070C1F6FF70194604F02CFA43F20070C1F6FF70F0
S32D0000F0E848F28011C0F2010104F02CF943F2B860C1F6FF7006F03CFC034643F20070C1F6FF70194604F014FA4C
S32D0000F110FB79002B36D0BB79002B16D043F2B860C1F6FF7006F028FC03464FF0010214461846B968FEF702F906
S32D0000F1380346002B02D14FF000031C46E3B2002B7FD1BB7983F00103DBB2002B16D043F2B860C1F6FF7006F0FC
S32D0000F1600BFC03464FF0010214461846B968FEF703F90346002B02D14FF000031C46E3B2002B62D1FB7983F060
S32D0000F1880103DBB2002B5FD0BB79002B16D043F2B860C1F6FF7006F0DBFB03464FF0010214461846B968FEF791
S32D0000F1B0C5F80346002B02D14FF000031C46E3B2002B1CD1BB7983F00103DBB2002B3FD043F2B860C1F6FF70F7
S32D0000F1D806F0BEFB03464FF0010214461846B968FEF7C6F80346002B02D14FF000031C46E3B2002B28D002F0AE
S32D0000F200A1FA04460D467869FDF766FA02460B4620462946FDF700F902460B4614461D46386BFDF759FA024690
S32D0000F2280B464FF001010E4620462946FDF716FD0346002B02D14FF000031E46F3B2002B02D04FF0010301E043
S32D0000F2504FF00003002B7FF415AF43F24060C1F6FF7001F05FFF43F24460C1F6FF7001F059FF02F067FA0446BD
S32D0000F2780D467869FDF72CFA02460B4620462946FDF7C6F802460B4614461D46386BFDF71FFA02460B464FF01C
S32D0000F2A001010E4620462946FDF7DCFC0346002B02D14FF000031E46F3B2184607F11C07BD46F0BDF0B585B0B4
S32D0000F2C800AFB9607A600246FA73BB73FB7B83F00103DBB2002B19D0B868FEF753F8034643F24460C1F6FF705D
S32D0000F2F0194601F035FFBB6883F000431846FEF745F8034643F24060C1F6FF70194601F027FF18E0BB6883F0BB
S32D0000F31800431846FEF736F8034643F24460C1F6FF70194601F018FFB868FEF72BF8034643F24060C1F6FF70D8
S32D0000F340194601F00DFF43F28060C1F6FF7003F027F843F29C60C1F6FF7003F021F839E043F20070C1F6FF70AF
S32D0000F36803F068FF43F20070C1F6FF7048F23011C0F2010103F0E6FF43F29C60C1F6FF7002F0FEFF034643F287
S32D0000F3900070C1F6FF70194604F0BAF843F20070C1F6FF7048F25411C0F2010103F0CEFF43F29C60C1F6FF707F
S32D0000F3B802F0E6FF034643F20070C1F6FF70194604F0A2F84FF0320002F09EF943F29C60C1F6FF7002F0D4FF39
S32D0000F3E003461846FDF766F904460D467868FDF7B3FD0246FB7B002B05D040F20443C1F6FF731B6804E040F2EB
S32D0000F4080043C1F6FF731B6810461946FDF7F4FD03461846FDF75CF902460B464FF001010E4620462946FDF766
S32D0000F43019FC0346002B02D14FF000031E46F3B2002B8DD143F24060C1F6FF704FF0000101F086FE43F24460F5
S32D0000F458C1F6FF704FF0000101F07EFE07F11407BD46F0BDB0B586B000AFF860B9607A60FB70F868FDF76CFD33
S32D0000F480054643F2B860C1F6FF7006F085FA03464FF00102144628461946FDF74FFF0346002B02D14FF00003AE
S32D0000F4A81C46E3B2002B14D0FB6803F1B4031846FDF74EFD044643F2B860C1F6FF7006F067FA03462046194663
S32D0000F4D0FDF78CFC03467B6110E0F868FDF73CFD044643F2B860C1F6FF7006F055FA034620461946FDF77AFC76
S32D0000F4F803467B61F868FDF72BFD054643F2B860C1F6FF7006F044FA03464FF00102144628461946FDF72CFF82
S32D0000F5200346002B02D14FF000031C46E3B2002B17D043F2B860C1F6FF7006F02DFA034618463949FDF754FC2E
S32D0000F54803461C46F868FDF703FD034620461946FDF748FC03463B6110E043F2B860C1F6FF7006F015FA0446B9
S32D0000F570F868FDF7F1FC034620461946FDF736FC03463B617B68012B33D0022B3CD0002B45D14FF001031C46E2
S32D0000F59878693969FDF7CEFE0346002B02D14FF000031C46E3B2002B0FD07869B96AFDF723FD03461846FDF7C5
S32D0000F5C0E5FE0246FB784FF00000B968FFF77AFE25E03869B96AFDF713FD03461846FDF7D5FE0246FB784FF07C
S32D0000F5E80100B968FFF76AFE15E07869FDF7CAFE0246FB784FF00000B968FFF75FFE0AE03869FDF7BFFE0246F1
S32D0000F610FB784FF00100B968FFF754FE00BF07F11807BD46B0BD00BF0000344380B582B000AF786039607868CD
S32D0000F6383968034A00F006F807F10807BD4680BD0000404080B584B000AFF860B9607A60F868B9687A68034BED
S32D0000F66000F006F807F11007BD4680BD0000803EF0B589B002AFF860B9607A603B6002F061F802460B461046D2
S32D0000F6881946FDF713FB03467B610DE03B680093F868B9684FF000024FF00003FFF7E2FE4FF0960002F030F8E2
S32D0000F6B0F868FDF751FC044643F2B860C1F6FF7006F06AF9034620461946FDF78FFB03461846FEF7ADFF034658
S32D0000F6D84FF00102144618461E49FDF749FE0346002B02D14FF000031C46E3B2002B28D002F024F804460D461A
S32D0000F7007869FCF7D7FF02460B4620462946FCF783FE02460B4614461D467868FCF7DCFF02460B464FF0010171
S32D0000F7280E4620462946FDF799FA0346002B02D14FF000031E46F3B2002B02D04FF0010301E04FF00003002BE3
S32D0000F750A0D107F11C07BD46F0BD00BF0000A040B0B584B000AFF8600B467A60FB7243F29C60C1F6FF7002F02F
S32D0000F77813FE43F28060C1F6FF7002F00DFEFB7A83F00103DBB2002B19D0F868FDF7FAFD034643F24460C1F669
S32D0000F7A0FF70194601F0DCFCFB6883F000431846FDF7ECFD034643F24060C1F6FF70194601F0CEFC53E0FB685C
S32D0000F7C883F000431846FDF7DDFD034643F24460C1F6FF70194601F0BFFCF868FDF7D2FD034643F24060C1F6E6
S32D0000F7F0FF70194601F0B4FC39E043F20070C1F6FF7003F01BFD43F20070C1F6FF7048F23011C0F2010103F0A0
S32D0000F81899FD43F29C60C1F6FF7002F0B1FD034643F20070C1F6FF70194603F06DFE43F20070C1F6FF7048F25F
S32D0000F8405411C0F2010103F081FD43F29C60C1F6FF7002F099FD034643F20070C1F6FF70194603F055FE4FF039
S32D0000F868320001F051FF43F2B860C1F6FF7006F01DF8034683F00103DBB2002B55D0FB7A002B24D043F29C601F
S32D0000F890C1F6FF7002F078FD03461846FDF75CFB054640F20043C1F6FF731B6818467968FDF7A6FB03464FF003
S32D0000F8B80102144628461946FDF73CFD0346002B02D14FF000031C46E3B2002B2AD1FB7A83F00103DBB2002B81
S32D0000F8E027D043F29C60C1F6FF7002F04DFD03461846FDF731FB054640F20443C1F6FF731B6818467968FDF706
S32D0000F9087BFB03464FF00102144628461946FDF711FD0346002B02D14FF000031C46E3B2002B02D04FF00103E7
S32D0000F93001E04FF00003002B7FF45FAF07F11007BD46B0BDB0B584B000AF7860396043F28060C1F6FF7002F075
S32D0000F95823FD43F29C60C1F6FF7002F01DFD7868FDF710FD034643F24060C1F6FF70194601F0F2FB7868FDF7C8
S32D0000F98005FD034643F24460C1F6FF70194601F0E7FB43F2B860C1F6FF7005F077FF0346FB6039E043F200709D
S32D0000F9A8C1F6FF7003F046FC43F20070C1F6FF7048F23011C0F2010103F0C4FC43F28060C1F6FF7002F0DCFC24
S32D0000F9D0034643F20070C1F6FF70194603F098FD43F20070C1F6FF7048F25411C0F2010103F0ACFC43F29C6024
S32D0000F9F8C1F6FF7002F0C4FC034643F20070C1F6FF70194603F080FD4FF0320001F07CFE43F2B860C1F6FF70D7
S32D0000FA2005F034FF0246FB689A4222D143F29C60C1F6FF7002F0A8FC03461846FDF78CFA054638682449FDF7BC
S32D0000FA48DBFA03464FF00102144628461946FDF771FC0346002B02D14FF000031C46E3B2002B02D04FF00103E8
S32D0000FA7001E04FF00003002B94D143F24060C1F6FF7001F04FFB43F24460C1F6FF7001F049FB43F29C60C1F663
S32D0000FA98FF7002F075FC03461846FDF759FA054638680B49FDF7A8FA03464FF00102144628461946FDF73EFCCB
S32D0000FAC00346002B02D14FF000031C46E3B2184607F11007BD46B0BD0000A04080B582B000AF786039607B6871
S32D0000FAE8012B40F0AA803A684FF6FF739A4240F0A48043F23860C1F6FF704FF0030102F059FC43F23C60C1F6DC
S32D0000FB10FF704FF0080102F043F843F24060C1F6FF704FF0000101F0E9FA43F24460C1F6FF704FF0010101F0A3
S32D0000FB38E1FA43F24860C1F6FF704FF0000102F031FE43F25460C1F6FF704FF0040102F029FE43F26060C1F648
S32D0000FB60FF704FF0040102F01BF843F26460C1F6FF704FF00C0102F013F843F26860C1F6FF704FF0140102F0EE
S32D0000FB880BF843F26C60C1F6FF704FF0100101F02FFE43F27060C1F6FF704FF00F0101F027FE43F27460C1F667
S32D0000FBB0FF704FF0070101F01FFE43F27860C1F6FF704FF0110101F017FE43F27C60C1F6FF704FF0170101F05A
S32D0000FBD80FFE43F28060C1F6FF704FF0000102F029FA42F2D113C0F2010343F28060C1F6FF70194643F28C72C7
S32D0000FC00C1F6FF7207F07EF843F29C60C1F6FF704FF0010102F012FA42F2D113C0F2010343F29C60C1F6FF7086
S32D0000FC28194643F28C72C1F6FF7207F067F843F2B860C1F6FF7005F0D3F807F10807BD4680BD00BF80B500AF81
S32D0000FC504FF001004FF6FF71FFF740FF80BD00BF90B587B002AF43F24860C1F6FF70754902F0BAFD744875494F
S32D0000FC784FF000024FF00003FEF7E4FC724B00934FF0000071494FF001024FF00003FFF7E9FB6B486E494FF0B6
S32D0000FCA000024FF00003FEF7D1FC694B00934FF05A0068494FF001024FF00003FFF7D6FB4FF0640001F024FD9F
S32D0000FCC84FF05A006149FFF7ADFC5D4861494FF000024FF00003FEF7B5FC4FF00003FB604FF00003BB6076E064
S32D0000FCF043F2B860C1F6FF7005F0C8FD03467B6043F2B860C1F6FF7005F0C0FD044643F2B860C1F6FF7005F0BE
S32D0000FD18A7FD034603F1FF339C4214BF00230123DBB2002B04D049484649FFF707FE03E043484449FFF702FE1A
S32D0000FD404FF0320001F0E4FC43F2B860C1F6FF7005F09CFD02467B689A4214BF00230123DBB2002B2CD03E48F7
S32D0000FD683E494FF000024FF00003FEF76BFC4FF0640001F0C9FCBB6803F10103BB60384B00934FF05A0031494F
S32D0000FD904FF000024FF00003FFF768FBBB68002B19D0BB6803F00103002B14D14FF0010028494FF003024FF0D4
S32D0000FDB80003FFF783FA0AE0274823494FF000024FF00003FEF73EFC4FF00003BB60FB6803F10103FB6043F2E8
S32D0000FDE0B860C1F6FF7005F051FD044643F2B860C1F6FF7005F038FD03469C4205DAFB68062B02DC4FF00103D2
S32D0000FE0801E04FF00003002B7FF46EAF124815494FF000024FF00003FEF714FC0A4B00934FF0000009494FF0F6
S32D0000FE3002024FF00003FFF719FB07F11407BD4690BD00BF000034420000DC420000A0400000803F0000C842F5
S32D0000FE5800000041000040400000DCC20000A03F0000003F00008040B0B582B000AF01F065FC02460B461046B8
S32D0000FE801946FCF75FFF03467B6021E043F20070C1F6FF7003F0D2F943F20070C1F6FF7048F23021C0F20101EC
S32D0000FEA803F050FA43F23C60C1F6FF7001F084FE034643F20070C1F6FF70194603F038FB4FF0C80001F020FCD8
S32D0000FED043F23C60C1F6FF7001F072FE03464FF00102144618461E49FDF746FA0346002B02D14FF000031C46E3
S32D0000FEF8E3B2002B27D001F021FC04460D467868FCF7E6FB02460B4620462946FCF780FA02460B464FF0010111
S32D0000FF200C46104619464FF000024FF0804303F57813FCF797FE0346002B02D14FF000031C46E3B2002B02D0E1
S32D0000FF484FF0010301E04FF00003002B9AD107F10807BD46B0BD00BF0000C03F80B500AF2BE043F20070C1F60F
S32D0000FF70FF7003F063F943F20070C1F6FF7048F2A051C0F2010103F0AFFA43F20070C1F6FF7048F2C831C0F2AF
S32D0000FF98010103F0D7F943F2B860C1F6FF7005F0D7FC034643F20070C1F6FF70194603F0BFFA4FF0140001F0D8
S32D0000FFC0A7FB43F23860C1F6FF7002F09DFA034683F00103DBB2002BC7D100BF43F23860C1F6FF7002F0A4FAA3
S32D0000FFE8034683F00103DBB2002BF3D143F2B860C1F6FF7005F0ACFC024640F20843C1F6FF731A602BE043F2F7
S32D000100100070C1F6FF7003F011F943F20070C1F6FF7048F2D851C0F2010103F05DFA43F20070C1F6FF7048F2FD
S32D00010038C831C0F2010103F085F943F2B860C1F6FF7005F085FC034643F20070C1F6FF70194603F06DFA4FF086
S32D00010060140001F055FB43F23860C1F6FF7002F04BFA034683F00103DBB2002BC7D100BF43F23860C1F6FF7030
S32D0001008802F052FA034683F00103DBB2002BF3D143F2B860C1F6FF7005F05AFC024640F20C43C1F6FF731A60A5
S32D000100B080BD00BF80B500AF40F20C43C1F6FF73164A1A6040F20843C1F6FF73144A1A6043F20070C1F6FF7074
S32D000100D848F23061C0F2010103F002FA00BF43F23860C1F6FF7002F00BFA034683F00103DBB2002BF3D100BFE7
S32D0001010043F23860C1F6FF7002F012FA034683F00103DBB2002BF3D180BD00BF000040400000D04080B500AF33
S32D0001012843F25460C1F6FF700B4902F059FB4FF0C80001F0E9FA094809494FF000024FF00003FEF77FFA43F25B
S32D000101505460C1F6FF70054902F046FB80BD00BF0000F0410000DC42000000400000E64280B582B002AF43F225
S32D000101784860C1F6FF70434902F032FB42484FF00101424AFEF76CFD414B00934FF05A0040494FF002024FF067
S32D000101A00003FFF763F94FF0FA0001F0B1FA4FF05A003A49FFF73AFA39483A494FF000024FF00003FEF742FA08
S32D000101C8374838494FF000024FF00103FEF7F8FD2F4B00934FF000002E494FF001024FF00003FFF73FF94FF4E2
S32D000101F0967001F08DFA4FF000002849FFF716FA27484FF000012A4AFEF72EFD4FF0960001F07EFA1E48274955
S32D000102184FF000024FF00003FEF714FA4FF0960001F072FA1C481A494FF000024FF00003FEF708FA164B0093CA
S32D000102404FF0870015494FF002024FF00003FFF70DF943F24860C1F6FF70174902F0C4FA0E484FF000010D4AEA
S32D00010268FFF77AFA4FF000000A49094AFFF7EAF943F24860C1F6FF70024902F0B1FABD4680BD00BF0000F04124
S32D000102900000DCC2000040410000803F0000C8420000DC42000000410000B4420000B0C0000060410000404071
S32D000102B800008C4290B587B002AF40F20843C1F6FF731B68CE4819464FF000024FF00103FEF776FDCB4B0093E9
S32D000102E04FF00000CA494FF001024FF00003FFF7BDF84FF0FA0001F00BFA4FF00000C249FFF794F9C3484FF028
S32D000103080101C34AFEF7ACFC034683F00103DBB2002B04D04FF00000BB49FFF783F943F24860C1F6FF70BB4912
S32D0001033002F05AFABA4B0093B548BA494FF000024FF00003FEF798F94FF0FA0001F0E0F94FF00000AC49FFF78A
S32D0001035869F9B14B0093AC48B1494FF000024FF00003FEF785F94FF0FA0001F0CDF94FF00000A549FFF756F93F
S32D0001038043F24860C1F6FF70A34902F02DFAA148A6494FF000024FF00003FEF757F94FF0320001F0B5F943F261
S32D000103A84860C1F6FF709B4902F01AFA4FF000009549FFF737F99C489C494FF000024FF00003FEF73FF94FF073
S32D000103D0640001F09DF94FF000008D49FFF726F943F24860C1F6FF708B4902F0FDF94FF00003FB6011E0904BC1
S32D000103F8009386488D494FF000024FF00003FEF737F94FF0C80001F07FF9FB6803F10103FB60FB68012BCCBFB7
S32D0001042000230123DBB2002BE5D14FF000007849FFF7FCF877484FF00101804AFEF714FC034683F00103DBB2F2
S32D00010448002B04D04FF000006F49FFF7EBF84FF0FA0001F059F9744872494FF000024FF00003FEF7EFF86948B3
S32D000104704FF00101684AFEF7F7FB6D4863494FF000024FF00003FEF7E1F8604B00934FF05A005F494FF0010210
S32D000104984FF00103FEF7E6FF4FF0FA0001F034F94FF05A0058495D4A634BFFF7DDF85E4857494FF000024FF0A1
S32D000104C00003FEF7C3F840F20C43C1F6FF731B68574819464FF000024FF00003FEF774FC4A4B00934FF00000E0
S32D000104E849494FF002024FF00103FEF7BBFF4FF0000045494FF00A024FF00103FEF7DEFE4FF0FA0001F000F9CF
S32D000105104FF000003E49FFF789F84FF00003BB6042E03C4847494FF000024FF00003FEF78DF84FF0FA0001F0C5
S32D00010538EBF843F2B860C1F6FF7005F019FA03464FF00102144618463849FCF7F3FE0346002B02D14FF0000305
S32D000105601C46E3B2002B15D0284B00934FF05A0027494FF001024FF00003FEF777FF234B00934FF000002249BC
S32D000105884FF001024FF00003FEF76CFF4FF000001D49244AFFF756F8BB6803F10103BB60BB68012BCCBF0023D6
S32D000105B00123DBB2002BB4D1164820494FF00002FEF712FA03467B6008E04FF0C80001F09FF84FF000000E4981
S32D000105D8FFF728F80B4B0093194816494FF001024FF00003FEF738FD034683F00103DBB2002BE6D17B68184617
S32D0001060007F11407BD4690BD0000B4420000803F0000C8420000DCC2000020410000FA423333933F0000804076
S32D0001062800008041000000400000DC420000A0409A99193F000070410000003E0000C0400000C8C280B586B035
S32D0001065002AF786050484FF00101504AFEF704FB43F24860C1F6FF704C4902F0BDF84C4B00934FF05A004B49F5
S32D000106784FF002024FF00003FEF7F4FE4FF05A004649FEF7CFFF42484FF00101444AFEF7E7FA4FF057004149AD
S32D000106A0FEF7C4FF7B68022B01D1404B00E0404BBB604FF00003FB601CE0B8683D49FCF753FD03463C4A00929D
S32D000106C83C4819464FF000024FF00003FDF7D0FF4FF0640001F018F84FF05A002F49314AFEF7B0FFFB6803F1AF
S32D000106F00103FB60FB68022BCCBF00230123DBB2002BDAD1FFF70EFD4FF05A002549FEF78DFF40F20C43C1F6F6
S32D00010718FF731B6818462849FCF764FB0346254819464FF000024FF00103FEF749FB1A4B00934FF087001949AA
S32D000107404FF001024FF00003FEF790FE43F25460C1F6FF70114902F047F8114B00934FF0000010494FF0010220
S32D000107684FF00003FEF77EFE4FF0FA0000F0CCFF4FF000000949FEF755FF43F25460C1F6FF700E4902F02CF865
S32D0001079007F11007BD4680BD0000DCC20000F0410000803F0000C8420000A041000000400000904100004040E1
S32D000107B83333933F0000B4420000C0400000E642B0B584B002AF7F487F494FF000024FF00003FDF737FF7D4B6E
S32D000107E000934FF05A007C494FF002024FF00003FEF73CFE4FF05A007749FEF717FF774873494FF000024FF0E6
S32D000108080003FDF71FFF40F20843C1F6FF731B68714819464FF000024FF00103FEF7D0FA4FF0C80000F070FFC2
S32D000108304FF05A006849FEF7F9FE644869494FF000024FF00003FDF701FF43F24860C1F6FF70654901F0C8FF25
S32D0001085800F074FF02460B4610461946FCF76EFA03467B6000BF00F069FF04460D467868FBF72EFF02460B46F5
S32D0001088020462946FBF7C8FD02460B464FF001010C46104619464FF000024FF07E5303F5C003FCF7DFF90346BC
S32D000108A8002B02D14FF000031C46E3B2002BDAD148484C494FF000024FF00003FDF7C2FE43F24860C1F6FF70B5
S32D000108D0474901F089FF00F035FF02460B4610461946FCF72FFA03467B6000BF00F02AFF04460D467868FBF7F7
S32D000108F8EFFE02460B4620462946FBF789FD02460B464FF001010C46104619464FF000024FF07E5303F5C00311
S32D00010920FCF7A0F90346002B02D14FF000031C46E3B2002BDAD143F24860C1F6FF702C4901F052FF00F0FEFE20
S32D0001094802460B4610461946FCF7F8F903467B6000BF00F0F3FE04460D467868FBF7B8FE02460B4620462946F7
S32D00010970FBF752FD02460B464FF001010C46104619464FF000024FF07E5303F5C003FCF769F90346002B02D18E
S32D000109984FF000031C46E3B2002BDAD1134811494FF000024FF00003FDF74CFE08480B494FF000024FF0000384
S32D000109C0FDF744FE07F10807BD46B0BD0000DCC20000A0400000803F0000C8420000DC420000B4420000804040
S32D000109E80000AA42000020400000F0410000C8C280B582B002AF4FF05A002549FEF712FE2AE024484FF00101FE
S32D00010A10234AFEF729F90346002B1BD0214B00934FF000001C494FF001024FF00003FEF71DFD1D484FF00101F8
S32D00010A38194AFEF715F9194B00934FF05A0014494FF002024FF00003FEF70CFD4FF05A000F49144AFEF7F6FD82
S32D00010A6043F23860C1F6FF7001F04EFD034683F00103DBB2002BC8D100BF43F23860C1F6FF7001F055FD0346E9
S32D00010A8883F00103DBB2002BF3D1BD4680BD00BF0000C8420000FEC2000020410000803F0000DCC20000004085
S32D00010AB080B584B002AF43F24860C1F6FF70254901F092FE4FF000037B6015E0224823494FF000024FF00003A0
S32D00010AD8FDF7B8FD4FF0640000F016FE4FF000001B491D4AFEF7AEFD7B6803F101037B607B68012BCCBF002382
S32D00010B000123DBB2002BE1D1164B0093164817494FF001024FF00103FEF7A2FA43F24860C1F6FF700F4901F024
S32D00010B285FFE114B00934FF05A000D494FF002024FF00003FEF796FC4FF05A000849FEF771FD07F10807BD4600
S32D00010B5080BD00BF0000FA420000DC420000A040000000400000F0410000C84200000C420000803F80B582B051
S32D00010B7802AF434B00934FF05A0042494FF002024FF00103FEF76EFC4FF0FA0000F0BCFD4FF05A003B49FEF77F
S32D00010BA045FD3B484FF001013A4AFEF75DF83A4B0093394839494FF000024FF00103FEF719F9314B00934FF05E
S32D00010BC8000030494FF001024FF00103FEF74AFC4FF001002B494FF00A024FF00103FEF76DFB4FF0FA0000F0FD
S32D00010BF08FFD254B00934FF0000024494FF000024FF00103FEF732FC4FF000002249FEF70DFD1F484FF00101A3
S32D00010C18214AFEF725F843F24860C1F6FF701F4901F0DEFD1E4B0093194818494FF000024FF00003FDF71CFDAB
S32D00010C4013481A494FF000024FF00003FDF7FEFC43F24860C1F6FF70154901F0C5FD154815494FF000024FF007
S32D00010C680003FDF7EFFC4FF0320000F04DFD4FF0000004490F4AFEF7E5FCBD4680BD00BF0000803F0000C8424D
S32D00010C900000DCC20000A0410000B4429A9949C1000020410000FA42CDCC8C3F0000E0400000E6420000DC421C
S32D00010CB8000040410000204080B500AF44F2E022C1F6FF7243F23863C1F6FF73D31A194643F23863C1F6FF73AA
S32D00010CE01A460B4610464FF000011A4604F081FF80BD00BF06F00CF800F0B0F9FFF7E0FF05F0BCFF05F058FF6A
S32D00010D0806F012F800F00CF84FF0000043F2C061C1F6FF71FDF796FB0346184604F040FF80B500AF4FF4E04363
S32D00010D30C4F204034FF4E042C4F2040202F5805202F13802126842F4785203F5805303F138031A6000F02EF9BB
S32D00010D5800F094F843F2CC63C1F6FF734FF058021A6043F2CC63C1F6FF731B684FF47A7202FB03F243F2C863BF
S32D00010D80C1F6FF731A6043F2C863C1F6FF731B681A464FF4E043C4F2040303F5825303F104031B6803F0706301
S32D00010DA84FEA136303F10103B2FBF3F31A4643F2D063C1F6FF731A604FF4E043C4F204034FF4E042C4F2040233
S32D00010DD002F5805202F13C02126842F0225203F5805303F13C031A604FF4E043C4F204034FF4E042C4F204021E
S32D00010DF802F5805202F13002126842F0006203F5805303F130031A604FF45043C4F203034FF480721A614FF0E3
S32D00010E20640000F009FB4FF45043C4F203034FF45042C4F20302526922F010025A614FF45043C4F203034FF0BE
S32D00010E4800021A604FF45043C4F203034FF010025A6101F003F801F0ABF843F2C460C1F6FF7000F069FB43F2D9
S32D00010E700070C1F6FF7002F09FF841F2883000F047FC80BD80B400AF4FF48043C4F206034FF000025A704FF4E3
S32D00010E988043C4F206034FF098021A704FF48043C4F206039B79DBB203F01003002B0CBF00230123DBB2002BE5
S32D00010EC0F0D14FF48043C4F206039B79DBB203F00C034FEA9303022B0CBF00230123DBB2002BEED14FF480434F
S32D00010EE8C4F206034FF018021A714FF48043C4F206034FF000025A714FF4E043C4F2040303F5825303F104037C
S32D00010F104FF00002C0F213121A604FF48043C4F206034FF054025A7100BF4FF48043C4F206039B79DBB203F0E3
S32D00010F382003002B14BF00230123DBB2002BF0D100BF4FF48043C4F206039B79DBB203F04003002B14BF00232D
S32D00010F600123DBB2002BF0D14FF48043C4F206034FF48042C4F206021278D2B202F03F02D2B21A704FF48043E8
S32D00010F88C4F206039B79DBB203F00C034FEA9303032B0CBF00230123DBB2002BEED14FF000031846BD4680BC73
S32D00010FB0704700BF80B400AF4FF44043C4F204034FF480725A634FF2C003C4F20F034FF2C002C4F20F025269F3
S32D00010FD842F400525A614FF2C003C4F20F034FF2C002C4F20F02126842F400521A604FF44043C4F2040340F2E0
S32D000110000312C0F20A021A634FF46143CEF200034FF46142CEF20002D2F8882142F08062C3F888214FF461434D
S32D00011028CEF200034FF46142CEF20002926842F080629A60BD4680BC704700BF80B483B000AF7860FEE700BFDF
S32D0001105080B400AF00BEBD4680BC704780B400AF4FF0E0224CF20003C0F20003C2F8083D4FF40053C4F205036D
S32D000110784CF22052DA814FF40053C4F205034DF62812DA814FF40053C4F205034FF0D2021A80BD4680BC70471B
S32D000110A080B400AF4FF44043C4F20403D3F8A03003F48053002B0CBF00230123DBB2002B19D04FF44043C4F2FC
S32D000110C804034FF44042C4F20402D2F8A02022F48052C3F8A0204FF2C003C4F20F034FF2C002C4F20F02126874
S32D000110F022F400521A60BD4680BC704780B483B000AF78600B46FB707B68FA781A707B684FF000025A707B689F
S32D00011118184607F10C07BD4680BC704780B582B000AF78607B685B78002B10D07B684FF000025A707B681B7836
S32D0001114043F2C460C1F6FF7019464FF000024FF01E0300F03FFA07F10807BD4680BD00BF80B584B000AF7860E2
S32D0001116839603B687F2B03DD4FF07F03FB7309E03B6813F1800F03DA4FF08003FB7301E03B68FB737B685B788F
S32D00011190FA7B9A420FD07B68FA7B5A707B681A78FB7B43F2C460C1F6FF7011461A464FF01E0300F00FFA07F16C
S32D000111B81007BD4680BD00BF90B486B000AFF860B9607A60FA684FF42043C4F206039A4214D14FF4E043C4F2DA
S32D000111E004034FF4E042C4F2040202F5805202F13402126842F4806203F5805303F134031A6083E0FA684FF4BC
S32D000112083043C4F206039A4214D14FF4E043C4F204034FF4E042C4F2040202F5805202F13402126842F400627C
S32D0001123003F5805303F134031A6067E0FA684FF44043C4F206039A4214D14FF4E043C4F204034FF4E042C4F2F2
S32D00011258040202F5805202F13402126842F4805203F5805303F134031A604BE0FA684FF45043C4F206039A427F
S32D0001128014D14FF4E043C4F204034FF4E042C4F2040202F5805202F13402126842F4005203F5805303F134032C
S32D000112A81A602FE0FA684FF42043C4F20E039A4214D14FF4E043C4F204034FF4E042C4F2040202F5805202F1FE
S32D000112D02802126842F4806203F5805303F128031A6013E04FF4E043C4F204034FF4E042C4F2040202F58052CF
S32D000112F802F12802126842F4006203F5805303F128031A60FB68DB78DBB223F00C03DAB2FB68DA70FB684FF0F4
S32D0001132000029A70BB684FF47A7202FB03F27B684FEA031392FBF3F39CB2FB681B78DBB223F01F03FB752346CA
S32D0001134803F4F8534FEA2323DBB203F01F03DAB2FB7D1343DAB2FB681A70E2B2FB685A70BB684FF4FA4202FBE0
S32D0001137003F27B684FEA031392FBF3F39AB2234619464FEAC121CB1A4FEA43139BB2D3189CB2FB689B7ADBB286
S32D0001139823F01F03FB75E3B203F01F03DAB2FB7D1343DAB2FB689A72FB68DB78DBB243F00C03DAB2FB68DA70C4
S32D000113C007F11807BD4690BC704700BF80B483B000AF786000BF7B681B79DBB203F02003002B14BF0023012316
S32D000113E8DBB2002BF3D17B68DB79DBB2184607F10C07BD4680BC704780B483B000AF78600B46FB7000BF7B68EB
S32D000114101B79DBB2DBB26FEA0303DBB24FEAD313DBB2002BF3D17B68FA78DA7107F10C07BD4680BC704700BF18
S32D0001143880B483B000AF78604FF4E043C4F204034FF4E042C4F2040202F5805202F13802126842F0010203F5B6
S32D00011460805303F138031A604FF00003C4F204037A689A604FF00003C4F204034FF005025A604FF00003C4F20F
S32D0001148804034FF00002C4F20402126842F001021A6000BF4FF00003C4F204031B6803F08003002B14BF002330
S32D000114B00123DBB2002BF1D14FF00003C4F204034FF00002C4F20402126822F001021A6007F10C07BD4680BC20
S32D000114D8704700BF80B582B000AF786039607B68012B0AD13A684FF6FF739A4205D143F2C460C1F6FF7000F084
S32D000115000FF807F10807BD4680BD00BF80B500AF4FF001004FF6FF71FFF7E0FF80BD00BF80B483B000AF786017
S32D000115287B684FF000021A707B68184607F10C07BD4680BC704700BF80B582B000AF78607B681B7883F001030A
S32D00011550DBB2002B36D04FF4E043C4F2040303F5805303F128034FF400621A604FF45043C4F204034FF44072FA
S32D000115781A624FF45043C4F204034FF440725A6243F2C863C1F6FF731B684FEAD372D3184FEA63034FF43040BD
S32D000115A0C4F20E0019464FF46142FFF709FE4FF0640000F0ADF87B684FF001021A704FF0010301E04FF00003C9
S32D000115C8184607F10807BD4680BD00BF80B582B000AF7860F970BA707B704FF43040C4F20E004FF07F01FFF7F8
S32D000115F007FF4FF43040C4F20E004FF00801FFF7FFFEFB784FF43040C4F20E001946FFF7F7FEBB784FF43040FA
S32D00011618C4F20E001946FFF7EFFE7B784FF43040C4F20E001946FFF7E7FE4FF43040C4F20E004FF0FF01FFF74D
S32D00011640DFFE07F10807BD4680BD00BF80B487B000AFF860B9607A60FA6844F6D353C1F26203A3FB02134FEA6D
S32D000116689312BB68D3187B61FA6844F6D353C1F26203A3FB02134FEA93134FF47A7101FB03F3D31AFB60FB688D
S32D000116904FEAC33244F6D353C1F26203A3FB02134FEA93127B68D3183B613B694FEAD3337A69D3187B613B6959
S32D000116B84FEA43434FEA53433B614FF45043C4F203031B681A467B699A4211D34FF45043C4F203031B681A464B
S32D000116E07B699A420BD14FF45043C4F203035B681A463B699A4202D24FF0010301E04FF00003002BDDD107F1FF
S32D000117081C07BD4680BC704780B584B000AF78604FF45043C4F203031B68FB604FF45043C4F203035B68BB60C9
S32D000117307B681846F968BA68FFF788FF07F11007BD4680BD80B584B000AF4FF45043C4F203031B68FB604FF42F
S32D000117585043C4F203035B68BB60F868FAF796FF02460B46C7E90023B868FAF78FFF02460B46104619464FF0B7
S32D0001178000024FF0804303F56003FBF723F902460B46D7E90001FAF741FE02460B46C7E90023D7E9002310469E
S32D000117A8194607F11007BD4680BD00BF80B483B000AF4FF45043C4F203031B684FF47A7202FB03F37B604FF43A
S32D000117D05043C4F203035B684FF47A7202FB03F34FEAD3337A68D3187B607B68184607F10C07BD4680BC70478D
S32D000117F880B582B000AF78600B46FB70FB787868194600F013F87B68184607F10807BD4680BD00BF80B483B0BD
S32D0001182000AF78607B68184607F10C07BD4680BC704700BF80B483B000AF78600B46FB707B68FA781A707B68A5
S32D000118481B781A4648F60C03C0F201039B5C042B00F2F98001A252F823F000BF79180100D7180100351901005A
S32D0001187093190100F11901004FF41043C4F204037A681278114648F65002C0F2010252F8212040F2031143F82A
S32D0001189822104FF47043C4F20F034FF47042C4F20F02526911467A681278104648F65002C0F2010252F82020D2
S32D000118C002F01F024FF0010000FA02F26FEA02020A405A61BBE04FF42043C4F204037A681278114648F6500205
S32D000118E8C0F2010252F8212040F2031143F822104FF24003C4F20F034FF24002C4F20F02526911467A681278CA
S32D00011910104648F65002C0F2010252F8202002F01F024FF0010000FA02F26FEA02020A405A618CE04FF43043BE
S32D00011938C4F204037A681278114648F65002C0F2010252F8212040F2031143F822104FF28003C4F20F034FF2B0
S32D000119608002C4F20F02526911467A681278104648F65002C0F2010252F8202002F01F024FF0010000FA02F22B
S32D000119886FEA02020A405A615DE04FF44043C4F204037A681278114648F65002C0F2010252F8212040F2031135
S32D000119B043F822104FF2C003C4F20F034FF2C002C4F20F02526911467A681278104648F65002C0F2010252F8A2
S32D000119D8202002F01F024FF0010000FA02F26FEA02020A405A612EE04FF45043C4F204037A681278114648F65B
S32D00011A005002C0F2010252F8212040F2031143F822104FF47143C4F20F034FF47142C4F20F02526911467A6802
S32D00011A281278104648F65002C0F2010252F8202002F01F024FF0010000FA02F26FEA02020A405A6100BF07F186
S32D00011A500C07BD4680BC704780B485B000AF78604FF00003FB607B681B781A4648F60C03C0F201039B5C042BD2
S32D00011A7800F2868001A252F823F000BF991A0100C91A0100F91A0100291B0100591B01004FF47043C4F20F0364
S32D00011AA01B691A467B681B78194648F65003C0F2010353F8213003F01F034FF0010101FA03F31340FB605FE047
S32D00011AC84FF24003C4F20F031B691A467B681B78194648F65003C0F2010353F8213003F01F034FF0010101FAB6
S32D00011AF003F31340FB6047E04FF28003C4F20F031B691A467B681B78194648F65003C0F2010353F8213003F0E1
S32D00011B181F034FF0010101FA03F31340FB602FE04FF2C003C4F20F031B691A467B681B78194648F65003C0F2C5
S32D00011B40010353F8213003F01F034FF0010101FA03F31340FB6017E04FF47143C4F20F031B691A467B681B78D1
S32D00011B68194648F65003C0F2010353F8213003F01F034FF0010101FA03F31340FB6000BFFB68002B0CBF0023DC
S32D00011B900123DBB2184607F11407BD4680BC704780B483B000AF78600B46FB707B68FA781A707B68184607F14C
S32D00011BB80C07BD4680BC704780B586B000AF78607B681B781A4648F6D003C0F2010353F822303B617B681B78B7
S32D00011BE01A4648F62C03C0F201039B5CFB733B69DBB203F01F03DAB243F2D463C1F6FF731A723B69DBB203F0D7
S32D00011C081F03DAB243F2D463C1F6FF735A724FF46143CEF200034FF46142CEF20002D2F8882042F01002C3F8DB
S32D00011C308820FB7B002B1ED14FF43040C4F2030043F2D461C1F6FF7100F04CFD4FF43043C4F203031B6803F02F
S32D00011C588003002B14BF00230123DBB2002BF1D14FF43043C4F203031B697B611DE04FF43040C4F20B0043F2A3
S32D00011C80D461C1F6FF7100F02DFD4FF43043C4F20B031B6803F08003002B14BF00230123DBB2002BF1D14FF44A
S32D00011CA83043C4F20B031B697B614FF46143CEF200034FF46142CEF20002D2F8882142F01002C3F888214FF4C6
S32D00011CD06143CEF200034FF46142CEF20002926842F010029A604FF46143CEF200034FF46142CEF20002D2F882
S32D00011CF8882142F08062C3F888214FF46143CEF200034FF46142CEF20002926842F080629A607B694FEA0343DF
S32D00011D204FEA13431846FAF7B5FC02460B46104619460FA3D3E90023FAF722FD02460B46104619460CA3D3E95D
S32D00011D480023FAF743FE02460B4610461946FAF7F5FF0346BB60BB68184607F11807BD4680BD00BFAFF30080C7
S32D00011D70A4703D0AD7A30A4000000000E0FFEF4080B586B000AF78607B681B781A4648F6D003C0F2010353F83D
S32D00011D9822303B617B681B781A4648F62C03C0F201039B5CFB733B69DBB203F01F03DAB243F2E463C1F6FF7359
S32D00011DC01A723B69DBB203F01F03DAB243F2E463C1F6FF735A72FB7B002B1ED14FF43040C4F2030043F2E461AF
S32D00011DE8C1F6FF7100F07AFC4FF43043C4F203031B6803F08003002B14BF00230123DBB2002BF1D14FF430435F
S32D00011E10C4F203031B697B611DE04FF43040C4F20B0043F2E461C1F6FF7100F05BFC4FF43043C4F20B031B6831
S32D00011E3803F08003002B14BF00230123DBB2002BF1D14FF43043C4F20B031B697B617B69184607F11807BD4610
S32D00011E6080BD00BF98B500AF43F2D463C1F6FF734FF05C021A7043F2D463C1F6FF734FF010025A7043F2D46383
S32D00011E88C1F6FF7341F234225A8043F2D463C1F6FF7345F278629A8043F2D463C1F6FF734FF010029A7143F2B9
S32D00011EB0D463C1F6FF734FF00702DA7143F2D463C1F6FF734FF4C022DA6043F2D463C1F6FF734FF01F021A729B
S32D00011ED843F2D463C1F6FF734FF01F025A724FF43040C4F2030043F2D461C1F6FF7100F0F5FB4FF43040C4F2D4
S32D00011F000B0043F2D461C1F6FF7100F0EBFB4FF43040C4F20B0000F03FFB4FF43040C4F2030000F039FB4FF4CF
S32D00011F283040C4F20B0043F2D461C1F6FF7100F0D5FB4FF43040C4F2030043F2D461C1F6FF7100F0CBFB43F220
S32D00011F50E462C1F6FF7243F2D463C1F6FF7314460FCB84E80F0043F2E463C1F6FF734FF05C021A7043F2E46368
S32D00011F78C1F6FF734FF00402DA7198BD80B500AF43F2F863C1F6FF731B6803F1010243F2F863C1F6FF731A60E2
S32D00011FA000F072F94FF4E043C4F203034FF00102C3F80C2180BD00BF80B500AF4FF4E043C4F203034FF0010227
S32D00011FC81A6048F2A060C0F2010000F023F84FF4E043C4F203034FF00302C3F808214FF46143CEF200034FF441
S32D00011FF06142CEF20002D2F8882142F01002C3F888214FF46143CEF200034FF46142CEF20002926842F01002B2
S32D000120189A6080BD80B483B000AF78604FF4E043C4F203037A68C3F8002107F10C07BD4680BC704780B584B02A
S32D0001204000AF78600B46FB707A68FB7810461946FFF7A6FD43F2F463C1F6FF731B68002B32D17B684FF0000201
S32D000120681A617B684FF000025A614FF0140004F067FE02467B689A617B689B697A689A607B689B694FF0010231
S32D000120905A607B689B69FA781A707B689B694FF00002DA607B689B694FF000021A617B689B694FF000025A708D
S32D000120B87B689A6943F2F463C1F6FF731A6071E043F2F463C1F6FF731B68FB6002E0FB68DB68FB60FB681B7827
S32D000120E0FA789A4206D0FB68DB68002B02D04FF0010301E04FF00003002BECD1FB681B78FA789A4224D17B68A0
S32D00012108FA689A617B689B699B68BB6002E0BB681B69BB60BB681B69002B0CBF00230123DBB2002BF3D1BB681F
S32D000121307A681A617B68BA685A617B684FF000021A617B689B695A6802F101025A602DE07B684FF000021A61BF
S32D000121587B684FF000025A614FF0140004F0F0FD02467B689A617B689B697A689A607B689B694FF001025A6079
S32D000121807B689B69FA781A707B689B694FF00002DA607B689B694FF000025A707B689B69FA681A617B689A694F
S32D000121A8FB68DA60786800F0F7F87B684FF48C429A607B684FF45242DA607B68184607F11007BD4680BD00BF7B
S32D000121D080B586B000AF78607B685B697B617B681B693B617B69002B31D13B69002B2ED17B689B691B69FB60C3
S32D000121F87B689B69DB68BB60FB68002B0AD1BB68002B07D143F2F463C1F6FF734FF000021A6012E0FB68002BF4
S32D0001222003D0FB68BA68DA6005E043F2F463C1F6FF73BA681A60BB68002B02D0BB68FA681A617B689B69184662
S32D0001224804F0A4FD16E07B69002B03D07B693A691A6103E07B689B693A699A603B69002B02D03B697A695A61AE
S32D000122707B689B695A6802F1FF325A607B68184607F11807BD4680BD80B584B000AF43F2F463C1F6FF731B68D0
S32D00012298FB6029E0FB685B78FB71FB689B68184600F02EF80346BB71BB79002B19D0FB685B68012B15DDFB68D3
S32D000122C09B681B69BB6008E0BB685B6803F10102BB685A60BB681B69BB60BB68002B0CBF00230123DBB2002BD1
S32D000122E8EED1FB68DB68FB60FB68002B0CBF00230123DBB2002BCDD107F11007BD4680BD80B584B000AF7860D2
S32D000123107868FFF735FD0346FB607B689B695B78FB72FB7A002B12D17B68DA68FB689A420DDA7B689B694FF0D7
S32D0001233801025A707B685B6803F101027B685A604FF0010317E0FB7A012B12D17B689A68FB689A420DDD7B68C0
S32D000123609B694FF000025A707B685B6803F101027B685A604FF0010301E04FF00003184607F11007BD4680BDF2
S32D0001238880B483B000AF78607B685B68184607F10C07BD4680BC704780B483B000AF78607B684FF000025A6067
S32D000123B007F10C07BD4680BC704700BF80B582B000AF78600B46FB707B681846FFF726FA7B6803F10103184604
S32D000123D8FFF720FA7B6803F102031846FFF71AFAFB78032B66D801A252F823F00524010033240100612401009B
S32D000124008F2401007B6818464FF00001FFF712FA7B6803F1010318464FF00101FFF70AFA7B6803F102031846C8
S32D000124284FF00201FFF702FA44E07B6818464FF00801FFF7FBF97B6803F1010318464FF00901FFF7F3F97B6873
S32D0001245003F1020318464FF00A01FFF7EBF92DE07B6818464FF01001FFF7E4F97B6803F1010318464FF01101E7
S32D00012478FFF7DCF97B6803F1020318464FF01201FFF7D4F916E07B6818464FF01801FFF7CDF97B6803F10103F5
S32D000124A018464FF01901FFF7C5F97B6803F1020318464FF01A01FFF7BDF900BF7B68184607F10807BD4680BD1B
S32D000124C880B582B000AF78607B681846FFF7C0FA034683F00103DBB2184607F10807BD4680BD00BF80B582B0EE
S32D000124F000AF78607B681846FFF7AEFA0346184607F10807BD4680BD80B582B000AF78607B6803F10103184642
S32D00012518FFF79EFA034683F00103DBB2184607F10807BD4680BD00BF80B582B000AF78607B6803F1010318462E
S32D00012540FFF78AFA0346184607F10807BD4680BD80B582B000AF78607B6803F102031846FFF77AFA034683F0B6
S32D000125680103DBB2184607F10807BD4680BD00BF80B582B000AF78607B6803F102031846FFF766FA034618462A
S32D0001259007F10807BD4680BD80B485B000AF78607B681B6A23F040027B681A627B685B6A23F00B027B685A6262
S32D000125B87B685B6A43F007027B685A627B685B6A43F080027B685A627B681B6803F08003002B14BF0023012354
S32D000125E0DBB2002BF4D17B685B6A03F04003002B0CBF00230123DBB2002B02D04FF0010369E04FF00003FB8160
S32D000126087B68DB6CFB817B689B6C9AB2FB89D318FB817B685B6C9AB2FB89D318FB817B681B6C9AB2FB89D318D6
S32D00012630FB817B68DB6B9AB2FB89D318FB817B689B6B9AB2FB89D318FB81FB894FEA5303FB81FB896FEA43438D
S32D000126586FEA5343FB81FA897B68DA624FF00003FB817B68DB6EFB817B689B6E9AB2FB89D318FB817B685B6E11
S32D000126809AB2FB89D318FB817B681B6E9AB2FB89D318FB817B68DB6D9AB2FB89D318FB817B689B6D9AB2FB8934
S32D000126A8D318FB81FB894FEA5303FB81FB896FEA43436FEA5343FB81FA897B681A637B685B6A23F080027B683C
S32D000126D05A624FF00003184607F11407BD4680BC704700BF80B483B000AF786039603B681B781A467B689A60BD
S32D000126F83B685B781A467B68DA603B685B881A467B689A613B689B881A467B68DA613B689B791A467B681A6242
S32D000127203B68DB791A467B685A623B68DA687B681A653B681B7A1A467B681A603B685B7A1A467B685A6007F1EB
S32D000127480C07BD4680BC704780B483B000AF78607B68184607F10C07BD4680BC704700BF80B582B000AF78607C
S32D0001277039607B68012B0AD13A684FF6FF739A4205D143F2FC60C1F6FF70FFF7E1FF07F10807BD4680BD00BF19
S32D0001279880B500AF4FF001004FF6FF71FFF7E0FF80BD00BF80B483B000AF78600B46FB707B68FA781A707B68FC
S32D000127C04FF4FA725A807B6840F6C4129A807B68044A9A607B68184607F10C07BD4680BC704700BF000080BFED
S32D000127E8F0B585B000AF786039604FF001031C4638684B49FAF79EFD0346002B02D14FF000031C46E3B2002BB8
S32D0001281001D0454B3B604FF001031C4638684349FAF7AAFD0346002B02D14FF000031C46E3B2002B01D03D4B30
S32D000128383B607B689B6818463968FAF771FD0346002B64D17B683A689A607B685E887B689B881A467B685B8875
S32D00012860D31A1846F9F726FF02460B46104619462BA3D3E90023FAF7ADF802460B4614461D463868F9F728FF4B
S32D0001288802460B4620462946F9F776FF02460B4610461946FAF732FA03469BB2F318FB81FB897B73FB894FEA97
S32D000128B023233B734FF43040C4F20E004FF07F01FEF79EFD4FF43040C4F20E004FF00501FEF796FD7B681B7885
S32D000128D84FF43040C4F20E001946FEF78DFD3B7B4FF43040C4F20E001946FEF785FD7B7B4FF43040C4F20E000C
S32D000129001946FEF77DFD4FF43040C4F20E004FF0FF01FEF775FD07F11407BD46F0BD00BF000000000080664015
S32D00012928000000000000344380B582B000AF78604FF43040C4F20E004FF07F01FEF75CFD4FF43040C4F20E0020
S32D000129504FF00901FEF754FD7B681B784FF43040C4F20E001946FEF74BFD4FF43040C4F20E004FF00101FEF793
S32D0001297843FD4FF43040C4F20E004FF0FF01FEF73BFD07F10807BD4680BD00BF80B582B000AF78604FF4304363
S32D000129A0C4F204034FF48072DA604FF42043C4F204034FF480729A644FF42043C4F204034FF480721A644FF4ED
S32D000129C82043C4F204034FF480725A644FF42043C4F204034FF48072DA604FF28003C4F20F034FF28002C4F2F6
S32D000129F00F02526942F008025A614FF24003C4F20F034FF24002C4F20F02526942F480225A614FF24003C4F2D7
S32D00012A180F034FF24002C4F20F02526942F480325A614FF24003C4F20F034FF24002C4F20F02526942F400321C
S32D00012A405A614FF24003C4F20F034FF24002C4F20F02126842F008021A604FF24003C4F20F034FF24002C4F261
S32D00012A680F02526942F008025A614FF28003C4F20F034FF28002C4F20F02126842F008021A604FF42043C4F2DA
S32D00012A9004034FF480725A624FF42043C4F204034FF480721A624FF43043C4F204034FF480721A614FF4304332
S32D00012AB8C4F204034FF480725A614FF43043C4F204034FF480729A614FF43043C4F204034FF48072DA614FF479
S32D00012AE03043C4F204034FF480721A634FF43043C4F204034FF480725A634FF43043C4F204034FF480729A63DB
S32D00012B084FF43043C4F204034FF48072DA634FF43043C4F204034FF480721A644FF43043C4F204034FF48072EB
S32D00012B305A644FF43043C4F204034FF480729A644FF43043C4F204034FF48072DA644FF44043C4F204034FF466
