S01600002E2E2F464548526F626F74436F64652E733139FF
S32D0000C000000000203D100100991301009913010099130100991301009913010000000000000000000000000043
S32D0000C0280000000099130100991301000000000099130100991301009913010099130100991301009913010082
S32D0000C0509913010099130100991301009913010099130100991301009913010099130100991301009913010000
S32D0000C07899130100991301009913010099130100991301009913010099130100991301009913010099130100D8
S32D0000C0A099130100991301009913010099130100991301009913010099130100991301009913010099130100B0
S32D0000C0C89913010099130100991301009913010099130100991301009913010099130100991301009913010088
S32D0000C0F099130100115001009913010099130100991301009913010099130100991301009913010099130100AB
S32D0000C1189913010099130100991301009913010099130100991301009913010099130100991301009913010037
S32D0000C14099130100991301009913010099130100CD2201009913010099130100991301009913010099130100CC
S32D0000C16899130100991301009913010099130100991301009913010099130100991301009913010099130100E7
S32D0000C190991301009913010099130100991301009913010099130100E91301009913010099130100991301006F
S32D0000C1B89913010099130100991301009913010099130100991301009913010099130100991301009913010097
S32D0000C41081F0004102E000BF83F0004330B54FEA41044FEA430594EA050F08BF90EA020F1FBF54EA000C55EAC6
S32D0000C438020C7FEA645C7FEA655C00F0E2804FEA5454D4EB5555B8BF6D420CDD2C4480EA020281EA030382EA0F
S32D0000C460000083EA010180EA020281EA0303362D88BF30BD11F0004F4FEA01314FF4801C4CEA113102D0404263
S32D0000C48861EB410113F0004F4FEA03334CEA133302D0524263EB430394EA050F00F0A780A4F10104D5F1200E8A
S32D0000C4B00DDB02FA0EFC22FA05F2801841F1000103FA0EF2801843FA05F359410EE0A5F120050EF1200E012A2D
S32D0000C4D803FA0EFC28BF4CF0020C43FA05F3C01851EBE37101F0004507D54FF0000EDCF1000C7EEB00006EEB67
S32D0000C5000101B1F5801F1BD3B1F5001F0CD349085FEA30004FEA3C0C04F101044FEA445212F5800F80F09A8000
S32D0000C528BCF1004F08BF5FEA500C50F1000041EB045141EA050130BD5FEA4C0C404141EB010111F4801FA4F114
S32D0000C5500104E9D191F0000F04BF01460020B1FA81F308BF2033A3F10B03B3F120020CDA0C3208DD02F1140C87
S32D0000C578C2F10C0201FA0CF021FA02F10CE002F11402D8BFC2F1200C01FA02F120FA0CFCDCBF41EA0C019040B1
S32D0000C5A0E41AA2BF01EB0451294330BD6FEA04041F3C1CDA0C340EDC04F11404C4F1200220FA04F001FA02F3B6
S32D0000C5C840EA030021FA04F345EA030130BDC4F10C04C4F1200220FA02F001FA04F340EA0300294630BD21FAA8
S32D0000C5F004F0294630BD94F0000F83F4801306BF81F480110134013D4EE77FEA645C18BF7FEA655C29D094EA1C
S32D0000C618050F08BF90EA020F05D054EA000C04BF1946104630BD91EA030F1EBF0021002030BD5FEA545C05D1A3
S32D0000C6404000494128BF41F0004130BD14F580043CBF01F5801130BD01F0004545F0FE4141F470014FF0000031
S32D0000C66830BD7FEA645C1ABF194610467FEA655C1CBF0B46024650EA013406BF52EA033591EA030F41F40021D7
S32D0000C69030BD00BF90F0000F04BF0021704730B54FF4806404F132044FF000054FF0000150E700BF90F0000F66
S32D0000C6B804BF0021704730B54FF4806404F1320410F0004548BF40424FF000013EE700BF42004FEAE2014FEAF9
S32D0000C6E031014FEA02701FBF12F07F4393F07F4F81F06051704792F0000F14BF93F07F4F704730B54FF460741B
S32D0000C70801F0004521F0004120E700BF50EA010208BF704730B54FF000050AE050EA010208BF704730B511F046
S32D0000C730004502D5404261EB41014FF4806404F132045FEA915C3FF4DCAE4FF003025FEADC0C18BF03325FEAA0
S32D0000C758DC0C18BF033202EBDC02C2F1200300FA03FC20FA02F001FA03FE40EA0E0021FA02F11444C1E600BF19
S32D0000C78070B54FF0FF0C4CF4E06C1CEA11541DBF1CEA135594EA0C0F95EA0C0F00F0DEF82C4481EA030621EAF3
S32D0000C7A84C5123EA4C5350EA013518BF52EA033541F4801143F4801338D0A0FB02CE4FF00005E1FB02E506F05F
S32D0000C7D00042E0FB03E54FF00006E1FB03569CF0000F18BF4EF0010EA4F1FF04B6F5007F64F5407404D25FEA0F
S32D0000C7F84E0E6D4146EB060642EAC62141EA55514FEAC52040EA5E504FEACE2EB4F1FD0C88BFBCF5E06F1ED8D2
S32D0000C820BEF1004F08BF5FEA500E50F1000041EB045170BD06F0004646EA010140EA020081EA0301B4EB5C0487
S32D0000C848C2BFD4EB0C0541EA045170BD41F480114FF0000E013C00F3AB8014F1360FDEBF002001F0004170BDF0
S32D0000C870C4F10004203C35DA0C341BDC04F11404C4F1200500FA05F320FA04F001FA05F240EA020001F0004207
S32D0000C89821F0004110EBD37021FA04F642EB06015EEA430E08BF20EAD37070BDC4F10C04C4F1200500FA04F32F
S32D0000C8C020FA05F001FA04F240EA020001F0004110EBD37041F100015EEA430E08BF20EAD37070BDC4F12005C7
S32D0000C8E800FA05F24EEA020E20FA04F301FA05F243EA020321FA04F001F0004121FA04F220EA020000EBD37028
S32D0000C9105EEA430E08BF20EAD37070BD94F0000F0FD101F00046400041EB010111F4801F08BF013CF7D041EA6D
S32D0000C938060195F0000F18BF704703F00046520043EB030313F4801F08BF013DF7D043EA0603704794EA0C0FF1
S32D0000C9600CEA135518BF95EA0C0F0CD050EA410618BF52EA4306D1D181EA030101F000414FF0000070BD50EA38
S32D0000C988410606BF1046194652EA430619D094EA0C0F02D150EA013613D195EA0C0F05D152EA03361CBF10467B
S32D0000C9B019460AD181EA030101F0004141F0FE4141F470014FF0000070BD41F0FE4141F4780170BD70B54FF04D
S32D0000C9D8FF0C4CF4E06C1CEA11541DBF1CEA135594EA0C0F95EA0C0F00F0A7F8A4EB050481EA030E52EA03359B
S32D0000CA004FEA013100F088804FEA03334FF0805545EA131343EA12634FEA022245EA111545EA10654FEA002676
S32D0000CA280EF000419D4208BF964244F1FD0404F5407402D25B084FEA3202B61A65EB03055B084FEA32024FF461
S32D0000CA5080104FF4002CB6EB020E75EB030E22BFB61A754640EA0C005B084FEA3202B6EB020E75EB030E22BF22
S32D0000CA78B61A754640EA5C005B084FEA3202B6EB020E75EB030E22BFB61A754640EA9C005B084FEA3202B6EBEA
S32D0000CAA0020E75EB030E22BFB61A754640EADC0055EA060E18D04FEA051545EA16754FEA06164FEAC30343EAAC
S32D0000CAC852734FEAC2025FEA1C1CC0D111F4801F0BD141EA00014FF000004FF0004CB6E711F4801F04BF0143AE
S32D0000CAF00020B4F1FD0C88BFBCF5E06F3FF6AFAEB5EB030C04BFB6EB020C5FEA500C50F1000041EB045170BDBC
S32D0000CB180EF0004E4EEA113114EB5C04C2BFD4EB0C0541EA045170BD41F480114FF0000E013C90E645EA060EC3
S32D0000CB408DE60CEA135594EA0C0F08BF95EA0C0F3FF43BAF94EA0C0F0AD150EA01347FF434AF95EA0C0F7FF499
S32D0000CB6825AF104619462CE795EA0C0F06D152EA03353FF4FDAE1046194622E750EA410618BF52EA43067FF432
S32D0000CB90C5AE50EA41047FF40DAF52EA43057FF4EBAE12E74FF0FF3C06E000BF4FF0010C02E000BF4FF0010C75
S32D0000CBB84DF804CD4FEA410C7FEA6C5C4FEA430C18BF7FEA6C5C1BD001B050EA410C0CBF52EA430C91EA030FEC
S32D0000CBE002BF90EA020F0020704710F1000F91EA030F58BF994208BF90422CBFD8176FEAE37040F0010070476E
S32D0000CC084FEA410C7FEA6C5C02D150EA013C07D14FEA430C7FEA6C5CD6D152EA033CD3D05DF8040B704700BFCD
S32D0000CC308446104662468C461946634600E000BF01B5FFF7B7FF002848BF10F1000F01BD4DF808EDFFF7F4FF13
S32D0000CC580CBF012000205DF808FB00BF4DF808EDFFF7EAFF34BF012000205DF808FB00BF4DF808EDFFF7E0FF18
S32D0000CC8094BF012000205DF808FB00BF4DF808EDFFF7CEFF94BF012000205DF808FB00BF4DF808EDFFF7C4FF40
S32D0000CCA834BF012000205DF808FB00BF4FEA410212F5001215D211D56FF47873B3EB625212D94FEAC12343F0D6
S32D0000CCD0004343EA505311F0004F23FA02F018BF404270474FF00000704750EA013005D111F0004008BF6FF016
S32D0000CCF8004070474FF00000704700BF4A0011D212F5001211D20DD56FF47873B3EB62520ED44FEAC12343F085
S32D0000CD20004343EA505323FA02F070474FF00000704750EA013002D14FF0FF3070474FF0000070474FEA410241
S32D0000CD48B2F1E04324BFB3F5001CDCF1FE5C0DD901F0004C4FEAC0024CEA5070B2F1004F40EB830008BF20F09E
S32D0000CD700100704711F0804F21D113F13872BCBF01F00040704741F480114FEA5252C2F11802C2F1200C10FAB1
S32D0000CD980CF320FA02F018BF40F001004FEAC1234FEAD32303FA0CFC40EA0C0023FA02F34FEA4303CCE77FEA26
S32D0000CDC0625307D150EA01331EBF4FF0FE4040F44000704701F0004040F0FE4040F40000704700BF80F00040CC
S32D0000CDE802E000BF81F0004142001FBF5FEA410392EA030F7FEA226C7FEA236C6AD04FEA1262D2EB1363C1BF06
S32D0000CE10D218414048404140B8BF5B42192B88BF704710F0004F40F4000020F07F4018BF404211F0004F41F4FA
S32D0000CE38000121F07F4118BF494292EA030F3FD0A2F1010241FA03FC10EB0C00C3F1200301FA03F100F000432B
S32D0000CE6002D5494260EB4000B0F5000F13D3B0F1807F06D340084FEA310102F10102FE2A51D2B1F1004F40EB94
S32D0000CE88C25008BF20F0010040EA03007047490040EB000010F4000FA2F10102EDD1B0FA80FCACF1080CB2EB5F
S32D0000CEB00C0200FA0CF0AABF00EBC25052421843BCBFD0401843704792F0000F81F4000106BF80F400000132EB
S32D0000CED8013BB5E74FEA41037FEA226C18BF7FEA236C21D092EA030F04D092F0000F08BF0846704790EA010FD7
S32D0000CF001CBF0020704712F07F4F04D1400028BF40F00040704712F100723CBF00F50000704700F0004343F0DC
S32D0000CF28FE4040F4000070477FEA226216BF08467FEA23630146420206BF5FEA412390EA010F40F480007047C1
S32D0000CF504FF0000304E000BF10F0004348BF40425FEA000C08BF704743F0964301464FF000001CE050EA010264
S32D0000CF7808BF70474FF000030AE000BF50EA010208BF704711F0004302D5404261EB41015FEA010C02BF84465B
S32D0000CFA00146002043F0B64308BFA3F18053A3F50003BCFA8CF2083AA3EBC25310DB01FA02FC634400FA02FC6B
S32D0000CFC8C2F12002BCF1004F20FA02F243EB020008BF20F00100704702F1200201FA02FCC2F1200250EA4C0034
S32D0000CFF021FA02F243EB020008BF20EADC7070474FF0FF0C1CEAD0521EBF1CEAD15392EA0C0F93EA0C0F6FD019
S32D0000D0181A4480EA010C400218BF5FEA41211ED04FF0006343EA501043EA5111A0FB01310CF00040B1F5000FE7
S32D0000D0403EBF490041EAD3715B0040EA010062F17F02FD2A1DD8B3F1004F40EBC25008BF20F00100704790F058
S32D0000D068000F0CF0004C08BF49024CEA502040EA51207F3AC2BFD2F1FF0340EAC250704740F400004FF0000388
S32D0000D090013A5DDC12F1190FDCBF00F000407047C2F10002410021FA02F1C2F1200200FA02FC5FEA310040F1D5
S32D0000D0B8000053EA4C0308BF20EADC70704792F0000F00F0004C02BF400010F4000F013AF9D040EA0C0093F04C
S32D0000D0E0000F01F0004C02BF490011F4000F013BF9D041EA0C018FE70CEAD15392EA0C0F18BF93EA0C0F0AD00B
S32D0000D10830F0004C18BF31F0004CD8D180EA010000F00040704790F0000F17BF90F0004F084691F0000F91F0BB
S32D0000D130004F14D092EA0C0F01D142020FD193EA0C0F03D14B0218BF084608D180EA010000F0004040F0FE4051
S32D0000D15840F40000704740F0FE4040F4400070474FF0FF0C1CEAD0521EBF1CEAD15392EA0C0F93EA0C0F69D044
S32D0000D180A2EB030280EA010C49024FEA402037D04FF0805343EA111143EA10130CF000408B4238BF5B0042F14E
S32D0000D1A87D024FF4000C8B4224BF5B1A40EA0C00B3EB510F24BFA3EB510340EA5C00B3EB910F24BFA3EB9103A4
S32D0000D1D040EA9C00B3EBD10F24BFA3EBD10340EADC001B0118BF5FEA1C1CE0D1FD2A3FF650AF8B4240EBC25018
S32D0000D1F808BF20F0010070470CF0004C4CEA50207F32C2BFD2F1FF0340EAC250704740F400004FF00003013AF1
S32D0000D22037E792F0000F00F0004C02BF400010F4000F013AF9D040EA0C0093F0000F01F0004C02BF490011F4C9
S32D0000D248000F013BF9D041EA0C0195E70CEAD15392EA0C0F08D142027FF47DAF93EA0C0F7FF470AF084676E7AE
S32D0000D27093EA0C0F04D14B023FF44CAF08466EE730F0004C18BF31F0004CCAD130F000427FF45CAF31F0004376
S32D0000D2987FF43CAF5FE700BF4FF0FF3C06E000BF4FF0010C02E000BF4FF0010C4DF804CD4FEA40024FEA41039F
S32D0000D2C07FEA226C18BF7FEA236C11D001B052EA530C18BF90EA010F58BFB2EB030088BFC81738BF6FEAE1706E
S32D0000D2E818BF40F0010070477FEA226C02D15FEA402C05D17FEA236CE4D15FEA412CE1D05DF8040B704700BF16
S32D0000D310844608466146FFE70FB5FFF7C9FF002848BF10F1000F0FBD4DF808EDFFF7F4FF0CBF012000205DF839
S32D0000D33808FB00BF4DF808EDFFF7EAFF34BF012000205DF808FB00BF4DF808EDFFF7E0FF94BF012000205DF8A9
S32D0000D36008FB00BF4DF808EDFFF7D2FF94BF012000205DF808FB00BF4DF808EDFFF7C8FF34BF012000205DF8B1
S32D0000D38808FB00BF4FEA4002B2F1FE4F0FD34FF09E03B3EB12620DD94FEA002343F0004310F0004F23FA02F060
S32D0000D3B018BF404270474FF00000704712F1610F01D1420205D110F0004008BF6FF0004070474FF00000704797
S32D0000D3D8036803B11B181846704700BF03685A004CBF43F0004323F00043C018704700BF2DE9F84F0446914699
S32D0000D40041B301F1FF3BDA46002707EB0A0101EBD1756D1004EBC5063046FFF7E3FF8046681CAB4504EBC000FA
S32D0000D4280DD0FFF7DBFF0138C84504D9BD4209D005F1FF3AE5E7484505D26F1CE1E74FF0FF30F1E7002630469A
S32D0000D450BDE8F88F0E463046BDE8F88F30B52B4B83B004468D1E002B49D0284601A9AFF300800346002822D028
S32D0000D4782A4618460199FFF7BBFF054600281DD0FFF7ACFF6B68A064012B10D0281D002B22DBFFF7A3FF002164
S32D0000D4A0E06421650368002B0FDBFFF79BFF2061002003B030BD002323610520F9E720610920F6E72061092066
S32D0000D4C8F3E7C3F3036058B101280CD002280ED0002020610920E8E70122E0642265DDE7094B2361E1E7094AEF
S32D0000D4F000202261DDE7084900202161D9E7074B0749C81AC2100192B6E700BF0000000029DA000025DA0000AD
S32D0000D51821DA00006492010054940100036810B50446D80706D4990704F1480009D500F00DFD23685A0709D558
S32D0000D54018070ED5D90613D510BD00F0FBFC23685A07F5D404F1D00000F004FD23681807F0D404F5D87000F036
S32D0000D56805FD2368D906EBD404F50C70BDE8104000F040BD2DE9F0470F1D054691460FCFADF5916D02AC261D09
S32D0000D5900FC60FCF0FC60FCF0FC697E80F00D5F80C80D5F818A0002786E80F00216C27602846FFF753FF06460C
S32D0000D5B8B94514BF4FF00A094FF00909FEB1A16B49F01009616401208DE8100449462A462B46C04700282BD1BA
S32D0000D5E0002E2AD1204692A94FF4107208F0C6FC082F28D1216C2846FFF730FF06464FF00909002EDFD1206C7D
S32D0000D60821464FF41072686192A808F0B3FC2F69294692AA4846B847A09B0746636401208DE8100449462A4656
S32D0000D6302B46C0470028D3D00926304622B00DF5806DBDE8F087072FF6D1201D00F06EFC38B504460D46296C54
S32D0000D6582046FFF7FFFE50B92A6C23696261012021462A4698470828F1D0072801D00AF0D1FD281D00F056FC46
S32D0000D68011B933B10220704704298CBF0220012070470F2A01D90220704700EB820118464A68009B1A6070474D
S32D0000D6A810B50A4684B000210B4603AC0094FFF7E3FF039804B010BD11B933B10220704704298CBF0220012020
S32D0000D6D070470F2A01D902207047009900EB8202096818465160704710B584B004AB0C4643F8042D0021009330
S32D0000D6F822460B46FFF7E0FF04B010BD2DE9F04FCD6C8BB00C4655F8041B174600F008021E46039200F0030823
S32D0000D7200795002B40F0CF8009020691216D8DF821300323B8F1020F8DF8203008BFA56B11F0010340F0D3807B
S32D0000D748019304F158030293D5F80090B9F1000F00F0CB80022E00F0AE80B5F80090B5F802A00435A26C0F2198
S32D0000D7702AF0010B38469344FFF796FF834518D829F0010CE3440AF0010A09F00103584543EA4A092CBF002056
S32D0000D7980120B9F1010F12D032D2B8F1000F02D0002840F01D810435CEE70AF0010A09F0010343EA4A09002092
S32D0000D7C0B9F1010FECD1B8F1000F40F0B680C8B16B68D5F800909A1C19D0029A013309920DD0281DFFF7F8FDE6
S32D0000D7E84FEAD972014609AB204609F07DFD002800F0F280099A002A40F0BA800835A3E7B9F1020F03D009207C
S32D0000D8100BB0BDE8F08F2B6823F000420092B8F1000F71D1002843D00398002840F0A1800098002800F0A08078
S32D0000D838009BDDF80C90DB0705F1040A40F1B480CDF810800596A846029E12E000998D4200F0D9800996FFF7B5
S32D0000D860BBFD5A46014609AB204609F041FDA946B0B90AF1040A05F1010950460996FFF7ABFD09AB0146002259
S32D0000D888204609F031FD0AF1040A834609F101055046BBF1000FD9D04546059EDDF81080009A4A4564D02B6896
S32D0000D8B0002B7BDB0099481C05EB800548E7D5F804A0083552E70B04C1F30740216D06930222B8F1020F05EB42
S32D0000D8D8800508BFA56B8DF8210011F001038DF820203FF42DAF00200190384606A900F019FC002887D1019A49
S32D0000D900002A43D1082083E70D213846D4F82090FFF7CAFE8145CAD1A26A9542C7D10098291D00220423A0623E
S32D0000D928E26223636163286800286EDB01220192BCE70D213846D4F82090FFF7B1FE81457FF45CAFA16A8D42FE
S32D0000D9507FF458AF2846FFF745FD0F2102463846FFF7C2FE384600212246FFF7BDFE07204EE7009900299BD19B
S32D0000D97838460D21FFF794FE099B20626362A562062041E70F213846FFF78AFE0E2102463846FFF7A5FE3846D5
S32D0000D9A00F211E4AFFF7A0FE072031E7043581E7029950460991FFF70FFD039A014609AB204609F095FC0028D0
S32D0000D9C87FF46EAFCDF8108005960AF1040A4FF00109A846029E4CE7CDF824800835B3E62846FFF7FBFC0435CB
S32D0000D9F00646A563204609F0F1FC00283FF407AF38460F213246FFF76FFE072000E74546B2E7009B591C05EB9D
S32D0000DA1881009CE74575010002236FE601236DE600236BE62DE9F0470446E8B004290CD8DFE801F03803919365
S32D0000DA400F00150C012B96B200F07881052B00F0C780022068B0BDE8F087002BF9D1102AF7D82368D90600F115
S32D0000DA68738164A8019200F0CFFA019AA36BD00744BF53F8040B6490910744BF53F8041B6591500744BF53F8D3
S32D0000DA90041B6691110748BF53F8042B64A8A36348BF679200F0AAFA0020D3E7002BD0D1A36BD00791B244BF42
S32D0000DAB853F8042B62608A0744BF53F8042BA260480744BF53F8042BE2600A0744BF53F8042B2261C80644BF04
S32D0000DAE053F8042B62618A0644BF53F8042BA261480644BF53F8042BE2610A0644BF53F8042B2262C80544BFDC
S32D0000DB0853F8042B62628A0544BF53F8042BA262480544BF53F8042BE2620A0544BF53F8042B2263C80444BFB3
S32D0000DB3053F8042B626311F400501CBF53F8042BA2634A0444BF53F8042BE2630A0444BF53F8042B2264002890
S32D0000DB5840D1A3637AE7012078E7032B7FF475AF160C95B2AA19102A3FF66FAF2368180700F10B8144A800F026
S32D0000DB801BFAA76B4FEA450E3B460DB344A90EF1FF3C01EBC60653F8040B62460CF0010146F8040B92B129B13A
S32D0000DBA853F8041B013A46F8041B0BD01846314650F8045B41F8045B5D68031D75600E1D023AF3D107EB8E03F6
S32D0000DBD044A8A36300F0CEF900203BE7002039E777192022BA42FFF434AF012B00F0A9800F2D40F2A9803746FF
S32D0000DBF8F6B1052B7FF429AF0F2D11D82268D0070ED522F00101052B2160204600F0DA8022F0030240F8482B3D
S32D0000DC20019300F093F9019B1FB12268510700F1B880012B00F0BF800F2D75D9002F40F0A080D4F83890002E29
S32D0000DC48C8462EDD49460DF1080A4FEA46080AEBC50251F8046B08F1FF3000F0010A42F8046BA8F1020CD0B107
S32D0000DC70BAF1000F08D051F8040B0CF1FF3CBCF1FF3F42F8040B0ED00E46104656F804AB40F804AB4968ACF176
S32D0000DC98020C5160311D021DBCF1FF3FF0D109EB8808A7B3102D2CBF2E4610260DF5D079414609EBC60CACF59D
S32D0000DCC0C8724FEA470951F8046B09F1FF3000F0010A42F8046BA9F1020CD0B1BAF1000F08D051F8040B0CF1DE
S32D0000DCE8FF3CBCF1FF3F42F8040B0ED00E46104656F804AB40F804AB4968ACF1020C5160311D021DBCF1FF3FCE
S32D0000DD10F0D108EB8908012B2BD00F2DC4F8388008D9FFB9384695E602A8019300F016F9019B83E702A800F05A
S32D0000DD380DF9F2E77719102250E70F2D3FF685AE102F10D9103F54E723F01003236004F50C70019200F058F99D
S32D0000DD60019A82E624A800F0FDF8002072E6002746E708F1040302A8A36300F0E3F8002068E624A80193C5F116
S32D0000DD88100600F0EFF8019B57E723F0080704F5D870276000F00CF9ECE6204622F0040140F8D01B019300F0D1
S32D0000DDB0DDF8019B3DE702A8019300F0C7F8019B002F3FF43EAFC5F110063AE741F0020140F8481B019300F098
S32D0000DDD8C1F8019B24E700BF406C7047F0B50D460F1DC96B296404460FCFADF5117D01AE0FC60FCF0FC60FCF49
S32D0000DE000FC697E80F0086E80F004FF0FF33009310992046FFF722FB58B9266921466A46B04708280646F3D001
S32D0000DE286846FFF77BFB062E03D009200DF5117DF0BD20462946FFF707FC00BF10B4DC6BC16082611946002228
S32D0000DE501C6410BCFFF792BB38B54269C3680A6404460D4623B10122FFF788FB0AF0D6F90369214602202A46A9
S32D0000DE789847072803D0082804D00AF0CBF9281D00F050F820462946FFF7DEFBC36823B1CA6B0A640022FFF7FE
S32D0000DEA06DBB9FE7704700BF08B5836801460BB10120984708BD00BFF0B5D46B171D146405460C460FCFADF554
S32D0000DEC8277D01AE0FC60FCF0FC60FCF0FC697E80F0086E80F004FF0FF330093109990A8FFF7B8FA034690AA83
S32D0000DEF068460C21BBB9FFF7F7FB21466846A847064690A908206A466EB9949B98470528064601D00928E5D106
S32D0000DF186846FFF703FB30460DF5277DF0BD0926F6E700BF00F1340191E838009C46A6464CF8045D90E8FF0FD5
S32D0000DF40E54600BD90EC210B704700BF80EC210B704700BF90EC200B704700BF80EC200B704700BFD0EC200B8E
S32D0000DF68704700BFC0EC200B704700BFF0EC0201F0EC0211F0EC0221F0EC0231F0EC0241F0EC0251F0EC02615F
S32D0000DF90F0EC0271F0EC0281F0EC0291F0EC02A1F0EC02B1F0EC02C1F0EC02D1F0EC02E1F0EC02F1704700BFE6
S32D0000DFB8E0EC0201E0EC0211E0EC0221E0EC0231E0EC0241E0EC0251E0EC0261E0EC0271E0EC0281E0EC029155
S32D0000DFE0E0EC02A1E0EC02B1E0EC02C1E0EC02D1E0EC02E1E0EC02F1704700BFB0FC0181B0FC0191B0FC01A159
S32D0000E008B0FC01B1704700BFA0FC0181A0FC0191A0FC01A1A0FC01B1704700BFEC4600B52DE900502DE9FF1F47
S32D0000E0304FF000032DE90C0001A9FFF7D3FEDDF840E012B0704700BFEC4600B52DE900502DE9FF1F4FF00003FD
S32D0000E0582DE90C0001A9FFF7FBFEDDF840E012B0704700BFEC4600B52DE900502DE9FF1F4FF000032DE90C00CD
S32D0000E08001A9FFF707FFDDF840E012B0704700BFEC4600B52DE900502DE9FF1F4FF000032DE90C0001ABFFF718
S32D0000E0A8CDFEDDF840E012B0704700BFEC4600B52DE900502DE9FF1F4FF000032DE90C0001AAFFF7F5FEDDF804
S32D0000E0D040E012B0704700BF027A03461AB9427A42B9B02070470068013A01021A72000E196070474168501E6D
S32D0000E0F8587251F8040B0322596001021A72000E1960704710B5002184B00C220DEB02040B460094FFF7B0FA62
S32D0000E120039804B010BD00BFF0E700BF2DE9F043064685B00D464FF000094FF47F672846FFF7CAFFB028044683
S32D0000E14800F0B08010F0800120D000F0F003802B74D0902B37D0A02B45D0B02B56D0C02B00F0858000F0F800DB
S32D0000E170D0280BD104F00702511C41F40022304601210523FFF752FC0028D8D0092005B0BDE8F0834FEA800267
S32D0000E19803A85FFA82F800900D220B463046FFF76BFA039B600608F104084CBFC8EB0303434403AC03930094CD
S32D0000E1C0002130460D220B46FFF77AFAB7E700F00F020D2ADAD00F2AD8D0002103AC009430460B4603ACFFF77F
S32D0000E1E84BFA0094E8E7C24302F0070C47FA0CF0210700F47F6248BF42F48042002130460B46FFF70FFC00280D
S32D0000E210BCD194E7B1285DD0B2286ED0B32800F0958000F0FC02B42A46D000F00702531C43F40022012130469F
S32D0000E2380B46FFF7F7FB0028A4D17CE72846FFF747FF210240EA0104B4F5004F9AD0230500211A0C30460B46EB
S32D0000E2602401FFF7E3FB002890D114F4004F18BF4FF0010963E7C62873D0C72800F0848000F0F802C02A00F075
S32D0000E2889280C82800F0A680C9287FF47BAF2846FFF71EFF00F00F0300F0F0015A1C42EA013268E7B9F1000F81
S32D0000E2B000F0838000206AE700F00301481C022140F480220B463046FFF7B0FB00287FF45DAF34E72846FFF7FD
S32D0000E2D8FFFE024600283FF455AF10F0F0017FF451AF30460B46FFF79DFB00287FF44AAF21E700210D220B467E
S32D0000E30003AC30460094FFF7BBF92846FFF7E4FE022402060DD5039B00F07F0000FA04FE03EB0E01284603912E
S32D0000E328FFF7D6FE07340306F1D4039B00F07F0103AA03F5017C01FA04F400920CEB0402039239E72846FFF729
S32D0000E350C3FE00F00F03591C00F0F00041EA003268E72846FFF7B8FE00F00F03591C00F0F00041EA00320321E9
S32D0000E37830460B46FFF756FB00287FF403AFDAE62846FFF7A5FE024600283FF4FBAE10F0F0037FF4F7AE304688
S32D0000E3A00421FFF743FB00287FF4F0AEC7E600F00F01481C40F42022DDE703AC49460E224B4630460094FFF773
S32D0000E3C85BF9304649460F224B460094FFF774F94846D8E62846FFF77BFE00F0F00200F00F001032431C43EA3D
S32D0000E3F00232C4E610B5C26C84B0032054688DF80C00D37924020832084601A9019402928DF80D30FFF78AFE7D
S32D0000E41804B010BD08B5FFF783FE806C08BD00BF08B5FFF77DFEC16CC87901EB800303F1080008BD08B509F02F
S32D0000E440EDFE00BF08B509F0E9FE00BF80B582B000AF43F20070C1F6FF704FF0050105F067F843F20070C1F6D2
S32D0000E468FF704FF0060105F0BDF843F2B860C1F6FF7006F0C7FE43F2B860C1F6FF7007F07BFB43F20070C1F6BD
S32D0000E490FF7005F077F843F20070C1F6FF7048F2DC31C0F2010105F0D7F900BF43F23860C1F6FF7004F0ACF9B5
S32D0000E4B8034683F00103DBB2002B1AD043F23860C1F6FF7004F0C0F9034683F00103DBB2002B0ED043F2386011
S32D0000E4E0C1F6FF7004F0D8F9034683F00103DBB2002B02D04FF0010301E04FF00003002BD4D143F23860C1F61F
S32D0000E508FF7004F0A1F90346002B0DD000BF43F23860C1F6FF7004F0ABF9034683F00103DBB2002BF3D128E009
S32D0000E53043F23860C1F6FF7004F06AF90346002B0FD000BF43F23860C1F6FF7004F072F9034683F00103DBB2C2
S32D0000E558002BF3D102F05EF85DE000BF43F23860C1F6FF7004F0A8F9034683F00103DBB2002BF3D101F0AEFC03
S32D0000E5804DE001F06BFC43F20070C1F6FF7004F0F9FF43F24860C1F6FF70214904F0C8FA43F25460C1F6FF70FF
S32D0000E5A81E4904F0C1FA01F095FB02F0F5F802F093F903467B60786802F0BEFB02F0C0FC02F06AFC43F20070F7
S32D0000E5D0C1F6FF7048F24C41C0F2010105F03CF900BF43F23860C1F6FF7004F031F9034683F00103DBB2002B0A
S32D0000E5F8F3D100BF43F23860C1F6FF7004F038F9034683F00103DBB2002BF3D14FF4FA7003F01EFA35E734E72F
S32D0000E6200000F0410000E64280B483B000AF78607B6823F00043184607F10C07BD4680BC704700BF80B586B0C3
S32D0000E64802AFF860B960FA71BB71FA79BB7905490091F868B96800F007F807F11007BD4680BD00BF0000803F28
S32D0000E670B0B584B000AFF860B960FA71BB71BB79002B00F0B68043F28060C1F6FF7004F02BF843F29C60C1F66D
S32D0000E698FF7004F025F843F20070C1F6FF7048F27041C0F2010105F0D3F843F27C60C1F6FF7003F071FB0346CB
S32D0000E6C0002BF6D100BF43F27C60C1F6FF7003F067FB034683F00103DBB2002BF3D1F868FDF7FAFF02460B46CD
S32D0000E6E81046194672A3D3E90023FEF745F802460B4610461946FEF7D9FA034643F24060C1F6FF70194602F07E
S32D0000E710CBFEF868FEF73AFE034643F24460C1F6FF70194602F0C0FE43F27C60C1F6FF7003F036FB0346002B5F
S32D0000E738F6D100BF43F27C60C1F6FF7003F02CFB034683F00103DBB2002BF3D143F24060C1F6FF7002F086FE2F
S32D0000E76043F24460C1F6FF7002F080FE43F20070C1F6FF7004F006FF43F20070C1F6FF7048F29441C0F20101CA
S32D0000E78804F084FF43F29C60C1F6FF7003F09CFF024613464FEA83039B1843F20070C1F6FF70194605F068F875
S32D0000E7B043F20070C1F6FF7048F2B041C0F2010105F04AF843F27C60C1F6FF7003F0E8FA0346002BF6D100BF54
S32D0000E7D843F27C60C1F6FF7003F0DEFA034683F00103DBB2002BF3D10FE1F868FDF770FF02460B4610461946D4
S32D0000E8002DA3D3E90023FDF7BBFF02460B4614461D46386AFDF760FF02460B4620462946FDF7AEFF02460B469A
S32D0000E82810461946FEF742FA034643F24060C1F6FF70194602F034FEF868FEF7A3FD034643F24460C1F6FF70D8
S32D0000E850194602F029FE43F28060C1F6FF7003F043FF43F29C60C1F6FF7003F03DFF9FE043F29C60C1F6FF7056
S32D0000E87803F02AFF014646F26763C6F2666383FB01234FEAA3024FEAE173D21A13464FEA83039B184FEA430349
S32D0000E8A0CA1A002A0CD1FB79002B09D04FF0010308E000BFAFF300809A9999999999F13F4FF00003002B39D09E
S32D0000E8C843F29C60C1F6FF7003F0FEFE0346002B0CBF00230123DBB2002B2BD043F29C60C1F6FF7003F0F0FE6B
S32D0000E8F003461846FEF730FB03461846F968FEF77FFB03461C4643F29C60C1F6FF7003F0DFFE03461846FEF74E
S32D0000E9181FFB034620461946FEF722FC03461846FEF730FD034643F24060C1F6FF70194602F0B6FD43F20070E0
S32D0000E940C1F6FF7004F01EFE43F20070C1F6FF7048F2CC41C0F2010104F09CFE43F29C60C1F6FF7003F0B4FE23
S32D0000E968034643F20070C1F6FF70194604F084FF43F20070C1F6FF7048F2F041C0F2010104F084FE43F29C6006
S32D0000E990C1F6FF7003F09CFE034643F20070C1F6FF70194604F06CFF4FF0320003F054F843F29C60C1F6FF70CD
S32D0000E9B803F08AFE03461846FEF7CAFA0546B8681449FEF719FB03464FF00102144628461946FEF7AFFC0346EA
S32D0000E9E0002B02D14FF000031C46E3B2002B7FF43FAF43F24060C1F6FF704FF0000102F053FD43F24460C1F639
S32D0000EA08FF704FF0000102F04BFD07F11007BD46B0BD00BF0000A040B0B586B000AFF860B9601346FB71944B7A
S32D0000EA307B61F868FDF750FE02460B46104619468DA3D3E90023FDF79BFE02460B4610461946FEF72FF903469C
S32D0000EA5843F24060C1F6FF70194602F021FDF868FEF790FC034643F24460C1F6FF70194602F016FD43F2806084
S32D0000EA80C1F6FF7003F030FE43F29C60C1F6FF7003F02AFEB7E043F29C60C1F6FF7003F017FE014646F2676370
S32D0000EAA8C6F2666383FB01234FEAA3024FEAE173D21A13464FEA83039B184FEA4303CA1A002A05D1FB79002BF9
S32D0000EAD002D04FF0010301E04FF00003002B39D043F29C60C1F6FF7003F0F2FD0346002B0CBF00230123DBB260
S32D0000EAF8002B2BD043F29C60C1F6FF7003F0E4FD03461846FEF724FA03461846F968FEF773FA03461C4643F29B
S32D0000EB209C60C1F6FF7003F0D3FD03461846FEF713FA034620461946FEF716FB03461846FEF724FC034643F2EB
S32D0000EB484060C1F6FF70194602F0AAFC43F20070C1F6FF7004F012FD43F20070C1F6FF7048F2CC41C0F201014E
S32D0000EB7004F090FD43F29C60C1F6FF7003F0A8FD034643F20070C1F6FF70194604F078FE43F20070C1F6FF705F
S32D0000EB9848F2F041C0F2010104F078FD43F29C60C1F6FF7003F090FD034643F20070C1F6FF70194604F060FE2B
S32D0000EBC043F23C60C1F6FF7003F09EF903464FF00102144618467969FEF7B0FB0346002B02D14FF000031C46F6
S32D0000EBE8E3B2002B07D043F23C60C1F6FF7003F087F903467B614FF0320002F029FF43F29C60C1F6FF7003F004
S32D0000EC105FFD03461846FEF79FF90546B8681949FEF7EEF903464FF00102144628461946FEF784FB0346002B03
S32D0000EC3802D14FF000031C46E3B2002B7FF427AF43F24060C1F6FF704FF0000102F028FC43F24460C1F6FF70DE
S32D0000EC604FF0000102F020FC7B69184607F11807BD46B0BDAFF300809A9999999999F13F333353400000A040AD
S32D0000EC88B0B584B000AFF860B9607A6043F28060C1F6FF7003F024FD43F29C60C1F6FF7003F01EFDF868FDF7C3
S32D0000ECB013FD02460B461046194653A3D3E90023FDF75EFD02460B4610461946FDF7F2FF034643F24060C1F6AC
S32D0000ECD8FF70194602F0E4FBF868FEF753FB034643F24460C1F6FF70194602F0D9FBBB68002B08D143F26C6037
S32D0000ED00C1F6FF7003F04CF80346002B23D1BB68012B08D143F27060C1F6FF7003F040F80346002B17D1BB6823
S32D0000ED28022B08D143F27460C1F6FF7003F034F80346002B0BD1BB68032B2BD143F27860C1F6FF7003F028F886
S32D0000ED500346002B22D043F29C60C1F6FF7003F0B7FC03461846FEF7F7F8054678682849FEF746F903464FF04F
S32D0000ED780102144628461946FEF7DCFA0346002B02D14FF000031C46E3B2002B02D04FF0010301E04FF0000395
S32D0000EDA0002BA8D143F24060C1F6FF7002F05EFB43F24460C1F6FF7002F058FB43F29C60C1F6FF7003F084FC4D
S32D0000EDC803461846FEF7C4F8054678680E49FEF713F903464FF00102144628461946FEF7A9FA0346002B02D1B1
S32D0000EDF04FF000031C46E3B2184607F11007BD46B0BD00BFAFF300809A9999999999F13F0000A040AFF3008035
S32D0000EE18B0B586B000AFF860B960FA71BB7102F031FE02460B4610461946FDF787FF03463B6175E0FB79002BB8
S32D0000EE4018D043F2B860C1F6FF7006F063FF03464FF001041846B968FEF770FA0346002B01D14FF00004BB79C9
S32D0000EE689C4214BF00230123FB7517E043F2B860C1F6FF7006F03AFF03464FF001041846B968FEF757FA0346E0
S32D0000EE90002B01D14FF00004BB799C4214BF00230123FB75FB7D002B01D0624B00E0624B184662494FF0000280
S32D0000EEB84FF00003FFF7C2FB43F20070C1F6FF7048F21451C0F2010104F0E0FB43F2B860C1F6FF7006F00AFFD8
S32D0000EEE0034643F20070C1F6FF70194604F0DCFC43F20070C1F6FF7048F21C51C0F2010104F0C8FB43F2B8609B
S32D0000EF08C1F6FF7006F002FF034643F20070C1F6FF70194604F0C4FC4FF0960002F098FDFB79002B1FD043F278
S32D0000EF30B860C1F6FF7006F0EDFE0346B8681946FDF754FF03461846FFF76EFB03464FF00102144618463A49B9
S32D0000EF58FEF70EFA0346002B02D14FF000031C46E3B2002B4AD1FB7983F00103DBB2002B47D043F2B860C1F60A
S32D0000EF80FF7006F0B7FE0346B8681946FDF72EFF03461846FFF748FB03464FF00102144618462749FEF7E8F9F7
S32D0000EFA80346002B02D14FF000031C46E3B2002B27D002F067FD04460D463869FDF788FB02460B462046294620
S32D0000EFD0FDF722FA02460B464FF001010C46104619464FF000024FF0804303F5A013FDF739FE0346002B02D1C2
S32D0000EFF84FF000031C46E3B2002B02D04FF0010301E04FF00003002B7FF414AF43F24060C1F6FF7002F026FAE1
S32D0000F02043F24460C1F6FF7002F020FA07F11807BD46B0BD0000C8420000C8C20000803E0000003FF0B587B0C3
S32D0000F04800AFF860B960FA71BB7102F01BFD02460B4610461946FDF771FE03467B6145E0F868FEF78FF90346B8
S32D0000F07043F24060C1F6FF70194602F015FAF868FEF784F9034643F24460C1F6FF70194602F00AFA43F2007003
S32D0000F098C1F6FF7048F21451C0F2010104F0F6FA43F2B860C1F6FF7006F020FE034643F20070C1F6FF701946F3
S32D0000F0C004F0F2FB43F20070C1F6FF7048F21C51C0F2010104F0DEFA43F2B860C1F6FF7006F018FE034643F252
S32D0000F0E80070C1F6FF70194604F0DAFBFB79002B36D0BB79002B16D043F2B860C1F6FF7006F004FE03464FF05F
S32D0000F110010214461846B968FEF710F90346002B02D14FF000031C46E3B2002B7FD1BB7983F00103DBB2002B99
S32D0000F13816D043F2B860C1F6FF7006F0E7FD03464FF0010214461846B968FEF711F90346002B02D14FF000038A
S32D0000F1601C46E3B2002B62D1FB7983F00103DBB2002B5FD0BB79002B16D043F2B860C1F6FF7006F0B7FD0346AF
S32D0000F1884FF0010214461846B968FEF7D3F80346002B02D14FF000031C46E3B2002B1CD1BB7983F00103DBB2AE
S32D0000F1B0002B3FD043F2B860C1F6FF7006F09AFD03464FF0010214461846B968FEF7D4F80346002B02D14FF04C
S32D0000F1D800031C46E3B2002B28D002F053FC04460D467869FDF774FA02460B4620462946FDF70EF902460B46C9
S32D0000F20014461D46386BFDF767FA02460B464FF001010E4620462946FDF724FD0346002B02D14FF000031E4626
S32D0000F228F3B2002B02D04FF0010301E04FF00003002B7FF415AF43F24060C1F6FF7002F011F943F24460C1F6C7
S32D0000F250FF7002F00BF902F019FC04460D467869FDF73AFA02460B4620462946FDF7D4F802460B4614461D46FA
S32D0000F278386BFDF72DFA02460B464FF001010E4620462946FDF7EAFC0346002B02D14FF000031E46F3B21846DD
S32D0000F2A007F11C07BD46F0BDF0B585B000AFB9607A600246FA73BB73FB7B83F00103DBB2002B28D0B868FEF764
S32D0000F2C861F8034643F24460C1F6FF70194602F0E7F8BB6883F000431846FDF7F9F902460B461046194668A3D1
S32D0000F2F0D3E90023FDF744FA02460B4610461946FDF7D8FC034643F24060C1F6FF70194602F0CAF827E0BB6848
S32D0000F31883F000431846FEF735F8034643F24460C1F6FF70194602F0BBF8B868FDF7D0F902460B46104619461A
S32D0000F34053A3D3E90023FDF71BFA02460B4610461946FDF7AFFC034643F24060C1F6FF70194602F0A1F843F271
S32D0000F3688060C1F6FF7003F0BBF943F29C60C1F6FF7003F0B5F939E043F20070C1F6FF7004F0FCF843F2007061
S32D0000F390C1F6FF7048F2CC41C0F2010104F07AF943F29C60C1F6FF7003F092F9034643F20070C1F6FF7019467F
S32D0000F3B804F062FA43F20070C1F6FF7048F2F041C0F2010104F062F943F29C60C1F6FF7003F07AF9034643F263
S32D0000F3E00070C1F6FF70194604F04AFA4FF0320002F032FB43F29C60C1F6FF7003F068F903461846FDF756F9AD
S32D0000F40804460D467868FDF7A3FD0246FB7B002B05D040F20443C1F6FF731B6804E040F20043C1F6FF731B68DD
S32D0000F43010461946FDF7E4FD03461846FDF74CF902460B464FF001010E4620462946FDF709FC0346002B02D101
S32D0000F4584FF000031E46F3B2002B8DD143F24060C1F6FF704FF0000102F01AF843F24460C1F6FF704FF0000134
S32D0000F48002F012F807F11407BD46F0BDAFF300809A9999999999F13FB0B586B000AFF860B9607A60FB70F86856
S32D0000F4A8FDF756FD054643F2B860C1F6FF7006F03DFC03464FF00102144628461946FDF739FF0346002B02D1DD
S32D0000F4D04FF000031C46E3B2002B14D0FB6803F1B4031846FDF738FD044643F2B860C1F6FF7006F01FFC03461A
S32D0000F4F820461946FDF776FC03467B6110E0F868FDF726FD044643F2B860C1F6FF7006F00DFC03462046194665
S32D0000F520FDF764FC03467B61F868FDF715FD054643F2B860C1F6FF7006F0FCFB03464FF0010214462846194681
S32D0000F548FDF716FF0346002B02D14FF000031C46E3B2002B17D043F2B860C1F6FF7006F0E5FB03461846394988
S32D0000F570FDF73EFC03461C46F868FDF7EDFC034620461946FDF732FC03463B6110E043F2B860C1F6FF7006F0E9
S32D0000F598CDFB0446F868FDF7DBFC034620461946FDF720FC03463B617B68012B33D0022B3CD0002B45D14FF03A
S32D0000F5C001031C4678693969FDF7B8FE0346002B02D14FF000031C46E3B2002B0FD07869B96AFDF70DFD0346B5
S32D0000F5E81846FDF7CFFE0246FB784FF00000B968FFF756FE25E03869B96AFDF7FDFC03461846FDF7BFFE02461B
S32D0000F610FB784FF00100B968FFF746FE15E07869FDF7B4FE0246FB784FF00000B968FFF73BFE0AE03869FDF779
S32D0000F638A9FE0246FB784FF00100B968FFF730FE00BF07F11807BD46B0BD00BF0000344380B582B000AF786053
S32D0000F660396078683968034A00F006F807F10807BD4680BD00004040F0B589B002AFF860B9607A6002F002FA98
S32D0000F68802460B4610461946FDF710FB03467B610DE0314B0093F868B9684FF000024FF00003FFF7F5FE4FF0BA
S32D0000F6B0960002F0D1F9F868FDF74EFC044643F2B860C1F6FF7006F035FB034620461946FDF78CFB0346184629
S32D0000F6D8FEF7A6FF03464FF00102144618461F49FDF746FE0346002B02D14FF000031C46E3B2002B28D002F0F2
S32D0000F700C5F904460D467869FCF7D4FF02460B4620462946FCF780FE02460B4614461D467868FCF7D9FF0246B1
S32D0000F7280B464FF001010E4620462946FDF796FA0346002B02D14FF000031E46F3B2002B02D04FF0010301E0C1
S32D0000F7504FF00003002BA0D107F11C07BD46F0BD0000803E0000A040B0B584B000AFF8600B467A60FB7243F2D7
S32D0000F7789C60C1F6FF7002F0B3FF43F28060C1F6FF7002F0ADFFFB7A83F00103DBB2002B28D0F868FDF7F6FDE1
S32D0000F7A0034643F24460C1F6FF70194601F07CFEFB6883F000431846FCF78EFF02460B461046194670A3D3E915
S32D0000F7C80023FCF7D9FF02460B4610461946FDF76DFA034643F24060C1F6FF70194601F05FFE62E0FB6883F073
S32D0000F7F000431846FDF7CAFD034643F24460C1F6FF70194601F050FEF868FCF765FF02460B46104619465CA3A5
S32D0000F818D3E90023FCF7B0FF02460B4610461946FDF744FA034643F24060C1F6FF70194601F036FE39E043F2AB
S32D0000F8400070C1F6FF7003F09DFE43F20070C1F6FF7048F2CC41C0F2010103F01BFF43F29C60C1F6FF7002F05A
S32D0000F86833FF034643F20070C1F6FF70194604F003F843F20070C1F6FF7048F2F041C0F2010103F003FF43F2CA
S32D0000F8909C60C1F6FF7002F01BFF034643F20070C1F6FF70194603F0EBFF4FF0320002F0D3F843F2B860C1F69A
S32D0000F8B8FF7006F0C9F9034683F00103DBB2002B55D0FB7A002B24D043F29C60C1F6FF7002F0FAFE03461846E2
S32D0000F8E0FDF73AFB054640F20043C1F6FF731B6818467968FDF784FB03464FF00102144628461946FDF71AFDF6
S32D0000F9080346002B02D14FF000031C46E3B2002B2AD1FB7A83F00103DBB2002B27D043F29C60C1F6FF7002F047
S32D0000F930CFFE03461846FDF70FFB054640F20443C1F6FF731B6818467968FDF759FB03464FF0010214462846ED
S32D0000F9581946FDF7EFFC0346002B02D14FF000031C46E3B2002B02D04FF0010301E04FF00003002B7FF45FAFB4
S32D0000F98007F11007BD46B0BD9A9999999999F13FB0B584B000AF7860396043F28060C1F6FF7002F0A1FE43F259
S32D0000F9A89C60C1F6FF7002F09BFE7868FCF790FE02460B461046194661A3D3E90023FCF7DBFE02460B46104637
S32D0000F9D01946FDF76FF9034643F24060C1F6FF70194601F061FD7868FDF7D0FC034643F24460C1F6FF70194615
S32D0000F9F801F056FD43F2B860C1F6FF7006F010F90346FB6039E043F20070C1F6FF7003F0B5FD43F20070C1F6A2
S32D0000FA20FF7048F2CC41C0F2010103F033FE43F28060C1F6FF7002F04BFE034643F20070C1F6FF70194603F04E
S32D0000FA481BFF43F20070C1F6FF7048F2F041C0F2010103F01BFE43F29C60C1F6FF7002F033FE034643F2007018
S32D0000FA70C1F6FF70194603F003FF4FF0320001F0EBFF43F2B860C1F6FF7006F0CDF80246FB689A4222D143F2C5
S32D0000FA989C60C1F6FF7002F017FE03461846FDF757FA054638682849FDF7A6FA03464FF0010214462846194689
S32D0000FAC0FDF73CFC0346002B02D14FF000031C46E3B2002B02D04FF0010301E04FF00003002B94D143F24060A4
S32D0000FAE8C1F6FF7001F0BEFC43F24460C1F6FF7001F0B8FC43F29C60C1F6FF7002F0E4FD03461846FDF724FA98
S32D0000FB10054638680E49FDF773FA03464FF00102144628461946FDF709FC0346002B02D14FF000031C46E3B2F9
S32D0000FB38184607F11007BD46B0BD00BFAFF300809A9999999999F13F0000A040AFF3008080B582B000AF78602A
S32D0000FB6039607B68012B40F0AA803A684FF6FF739A4240F0A48043F23860C1F6FF704FF0030102F0BFFD43F2D3
S32D0000FB883C60C1F6FF704FF0080102F0A9F943F24060C1F6FF704FF0000101F04FFC43F24460C1F6FF704FF0FC
S32D0000FBB0010101F047FC43F24860C1F6FF704FF0000102F097FF43F25460C1F6FF704FF0040102F08FFF43F21E
S32D0000FBD86060C1F6FF704FF0040102F081F943F26460C1F6FF704FF00C0102F079F943F26860C1F6FF704FF038
S32D0000FC00140102F071F943F26C60C1F6FF704FF0100101F095FF43F27060C1F6FF704FF00F0101F08DFF43F23D
S32D0000FC287460C1F6FF704FF0070101F085FF43F27860C1F6FF704FF0110101F07DFF43F27C60C1F6FF704FF091
S32D0000FC50170101F075FF43F28060C1F6FF704FF0000102F08FFB42F21953C0F2010343F28060C1F6FF70194622
S32D0000FC7843F28C72C1F6FF7207F00EFA43F29C60C1F6FF704FF0010102F078FB42F21953C0F2010343F29C6080
S32D0000FCA0C1F6FF70194643F28C72C1F6FF7207F0F7F943F2B860C1F6FF7005F063FA07F10807BD4680BD00BFA4
S32D0000FCC880B500AF4FF001004FF6FF71FFF740FF80BD00BF90B585B002AF43F24860C1F6FF70524902F020FF2A
S32D0000FCF0514852494FF000024FF00003FEF7A2FC4F4B00934FF000004B494FF001024FF00003FFF7C1FB4848D6
S32D0000FD184A494FF000024FF00003FEF78FFC464B00934FF05A0042494FF001024FF00003FFF7AEFB3E484249AB
S32D0000FD404FF000024FF00003FEF77CFC4FF000037B603EE043F2B860C1F6FF7005F064FF03463B6034483549C1
S32D0000FD68FFF712FE43F2B860C1F6FF7005F058FF02463B689A4214BF00230123DBB2002B17D0304830494FF0F8
S32D0000FD9000024FF00003FEF755FC4FF0640001F05BFE2C4B00934FF05A0023494FF000024FF00003FFF770FBDB
S32D0000FDB807E0244820494FF000024FF00003FEF73DFC7B6803F101037B6043F2B860C1F6FF7005F025FF044624
S32D0000FDE043F2B860C1F6FF7005F00CFF03469C4205DA7B68062B02DC4FF0010301E04FF00003002BA6D1114829
S32D0000FE0813494FF000024FF00003FEF717FC0A4B00934FF0000006494FF002024FF00003FFF736FB07F10C07B8
S32D0000FE30BD4690BD000034420000C8420000A0400000803F000010410000C0400000C8C20000C03F0000003F1C
S32D0000FE580000804098B500AF21E043F20070C1F6FF7003F08BFB43F20070C1F6FF7048F2CC51C0F2010103F0B2
S32D0000FE8009FC43F23C60C1F6FF7002F03DF8034643F20070C1F6FF70194603F005FD4FF0C80001F0D9FD43F2C6
S32D0000FEA83C60C1F6FF7002F02BF803464FF00102144618460649FDF75BFA0346002B02D14FF000031C46E3B2FA
S32D0000FED0002BC6D198BD00BF0000E03F80B500AF43F20070C1F6FF7048F28471C0F2010103F0B2FC00BF43F2E8
S32D0000FEF83860C1F6FF7002F087FC034683F00103DBB2002B1AD043F23860C1F6FF7002F0BFFC034683F00103E7
S32D0000FF20DBB2002B0ED043F23860C1F6FF7002F08FFC034683F00103DBB2002B02D04FF0010301E04FF00003FD
S32D0000FF48002BD4D143F23860C1F6FF7002F05CFC0346002B00F01B8100BF43F23860C1F6FF7002F063FC034632
S32D0000FF7083F00103DBB2002BF3D143F20070C1F6FF7003F0FFFA43F20070C1F6FF7048F60801C0F2010103F000
S32D0000FF985FFC43F20070C1F6FF7048F63001C0F2010103F055FC00BF43F23860C1F6FF7002F04AFC034683F008
S32D0000FFC00103DBB2002BF3D100BF43F23860C1F6FF7002F051FC034683F00103DBB2002BF3D143F24060C1F6DA
S32D0000FFE8FF706FF0630101F05BFA43F24460C1F6FF704FF0640101F053FA43F28060C1F6FF7002F06DFB43F2C8
S32D000100109C60C1F6FF7002F067FB43F27C60C1F6FF7001F0BDFE0346002BF6D143F20070C1F6FF7003F0A6FACF
S32D0001003843F24060C1F6FF7001F014FA43F24460C1F6FF7001F00EFA43F20070C1F6FF7048F65401C0F2010195
S32D0001006003F018FB43F28060C1F6FF7002F030FB034643F20070C1F6FF70194603F000FC43F20070C1F6FF70E6
S32D0001008848F67001C0F2010103F000FB43F29C60C1F6FF7002F018FB034643F20070C1F6FF70194603F0E8FB53
S32D000100B043F20070C1F6FF7048F69001C0F2010103F0E8FA43F28060C1F6FF7002F000FB03461846FCF7EEFA54
S32D000100D802460B46104619464FF000024FF08243A3F5D303FCF772FC02460B4643F20070C1F6FF7003F0E8FB5D
S32D0001010043F20070C1F6FF7048F6B001C0F2010103F0C0FA43F29C60C1F6FF7002F0D8FA03461846FCF7C6FA40
S32D0001012802460B46104619464FF000024FF08243A3F5D303FCF74AFC02460B4643F20070C1F6FF7003F0C0FB5C
S32D0001015043F28060C1F6FF7002F0BAFA03461846FCF7A8FA02460B46104619464FF000024FF08243A3F5D30362
S32D00010178FCF72CFC02460B4610461946FCF7DEFD024640F20043C1F6FF731A601CE243F23860C1F6FF7002F0DE
S32D000101A07BFB0346002B00F01B8100BF43F23860C1F6FF7002F084FB034683F00103DBB2002BF3D143F20070B6
S32D000101C8C1F6FF7003F0DAF943F20070C1F6FF7048F60801C0F2010103F03AFB43F20070C1F6FF7048F63001F4
S32D000101F0C0F2010103F030FB00BF43F23860C1F6FF7002F025FB034683F00103DBB2002BF3D100BF43F2386082
S32D00010218C1F6FF7002F02CFB034683F00103DBB2002BF3D143F24060C1F6FF704FF0640101F036F943F24460A4
S32D00010240C1F6FF706FF0630101F02EF943F28060C1F6FF7002F048FA43F29C60C1F6FF7002F042FA43F27C6089
S32D00010268C1F6FF7001F098FD0346002BF6D143F20070C1F6FF7003F081F943F24060C1F6FF7001F0EFF843F240
S32D000102904460C1F6FF7001F0E9F843F20070C1F6FF7048F65401C0F2010103F0F3F943F28060C1F6FF7002F085
S32D000102B80BFA034643F20070C1F6FF70194603F0DBFA43F20070C1F6FF7048F67001C0F2010103F0DBF943F2AD
S32D000102E09C60C1F6FF7002F0F3F9034643F20070C1F6FF70194603F0C3FA43F20070C1F6FF7048F69001C0F280
S32D00010308010103F0C3F943F28060C1F6FF7002F0DBF903461846FCF7C9F902460B46104619464FF000024FF0EA
S32D000103308243A3F5D303FCF74DFB02460B4643F20070C1F6FF7003F0C3FA43F20070C1F6FF7048F6B001C0F2B0
S32D00010358010103F09BF943F29C60C1F6FF7002F0B3F903461846FCF7A1F902460B46104619464FF000024FF0F6
S32D000103808243A3F5D303FCF725FB02460B4643F20070C1F6FF7003F09BFA43F28060C1F6FF7002F095F9034618
S32D000103A81846FCF783F902460B46104619464FF000024FF08243A3F5D303FCF707FB02460B4610461946FCF722
S32D000103D0B9FC024640F20443C1F6FF731A60F7E000BF43F23860C1F6FF7002F045FA034683F00103DBB2002BB3
S32D000103F8F3D143F20070C1F6FF7003F0BFF843F20070C1F6FF7048F6D401C0F2010103F01FFA43F20070C1F6A3
S32D00010420FF7048F63001C0F2010103F015FA00BF43F23860C1F6FF7002F00AFA034683F00103DBB2002BF3D135
S32D0001044800BF43F23860C1F6FF7002F011FA034683F00103DBB2002BF3D143F24060C1F6FF704FF0640101F00A
S32D000104701BF843F24460C1F6FF704FF0640101F013F843F28060C1F6FF7002F02DF943F29C60C1F6FF7002F00F
S32D0001049827F943F27C60C1F6FF7001F07DFC0346002BF6D143F20070C1F6FF7003F066F843F24060C1F6FF7022
S32D000104C000F0D4FF43F24460C1F6FF7000F0CEFF43F20070C1F6FF7048F65401C0F2010103F0D8F843F28060A4
S32D000104E8C1F6FF7002F0F0F8034643F20070C1F6FF70194603F0C0F943F20070C1F6FF7048F67001C0F2010198
S32D0001051003F0C0F843F29C60C1F6FF7002F0D8F8034643F20070C1F6FF70194603F0A8F943F20070C1F6FF7026
S32D0001053848F6F401C0F2010103F0A8F843F28060C1F6FF7002F0C0F803461846FCF7AEF802460B4610461946A7
S32D000105604FF000024FF0804303F58403FCF732FA02460B4643F20070C1F6FF7003F0A8F943F20070C1F6FF70C8
S32D0001058848F6B001C0F2010103F080F843F29C60C1F6FF7002F098F803461846FCF786F802460B4610461946F7
S32D000105B04FF000024FF0804303F58403FCF70AFA02460B4643F20070C1F6FF7003F080F943F20070C1F6FF70C8
S32D000105D848F61411C0F2010103F03AF900BF43F23860C1F6FF7002F02FF9034683F00103DBB2002BF3D100BFF0
S32D0001060043F23860C1F6FF7002F036F9034683F00103DBB2002BF3D180BD00BF80B500AF2BE043F20070C1F634
S32D00010628FF7002F0ABFF43F20070C1F6FF7048F63C11C0F2010103F00BF943F20070C1F6FF7048F26471C0F20B
S32D00010650010103F01FF843F2B860C1F6FF7005F049FB034643F20070C1F6FF70194603F01BF94FF0140001F005
S32D00010678EFF943F23860C1F6FF7002F0E5F8034683F00103DBB2002BC7D100BF43F23860C1F6FF7002F0ECF811
S32D000106A0034683F00103DBB2002BF3D143F2B860C1F6FF7005F01EFB024640F20843C1F6FF731A602BE043F2C6
S32D000106C80070C1F6FF7002F059FF43F20070C1F6FF7048F67411C0F2010103F0B9F843F20070C1F6FF7048F238
S32D000106F06471C0F2010102F0CDFF43F2B860C1F6FF7005F0F7FA034643F20070C1F6FF70194603F0C9F84FF0D5
S32D00010718140001F09DF943F23860C1F6FF7002F093F8034683F00103DBB2002BC7D100BF43F23860C1F6FF70E5
S32D0001074002F09AF8034683F00103DBB2002BF3D143F2B860C1F6FF7005F0CCFA024640F20C43C1F6FF731A6030
S32D0001076880BD00BF80B500AF43F25460C1F6FF70074902F0D9F94FF4FA6001F069F943F25460C1F6FF70034914
S32D0001079002F0CEF980BD00BF0000F0410000E64280B582B002AF43F24860C1F6FF70414902F0BEF940484FF017
S32D000107B801013E4AFEF764FA3E4B00934FF05A003D494FF002024FF00003FEF761FE4FF0FA0001F03DF94FF082
S32D000107E05A003749FEF738FF354836494FF000024FF00003FDF726FF334834494FF000024FF00103FEF708FBD8
S32D000108082C4B00934FF000002B494FF001024FF00003FEF73DFE4FF0960001F019F94FF000002549FEF714FFC3
S32D0001083023484FF00001264AFEF726FA1E4825494FF000024FF00003FDF7FCFE4FF0320001F002F91A482049FC
S32D000108584FF000024FF00003FDF7F0FE154B00934FF0870014494FF002024FF00003FEF70FFE43F24860C1F6DB
S32D00010880FF70164902F054F90D484FF000010C4AFEF76AFF4FF000000949084AFEF7ECFE43F24860C1F6FF702E
S32D000108A8024902F041F9BD4680BD00BF0000F0410000C8C20000803F0000C842000000410000AA420000B0C08A
S32D000108D000004041000040400000E03F00008C42B0B586B002AFDFF80404DFF804144FF000024FF00003FDF77A
S32D000108F8A5FEFE4B00934FF05A00FD494FF002024FF00003FEF7C4FD4FF05A00F849FEF79FFEF748F7494FF00E
S32D0001092000024FF00003FDF78DFE40F20843C1F6FF731B68F24819464FF000024FF00103FEF76AFAEB4B00937D
S32D000109484FF00000EA494FF001024FF00003FEF79FFD4FF0FA0001F07BF84FF00000E649FEF776FEDF484FF01F
S32D000109700101E44AFEF788F943F24860C1F6FF70E14902F0D5F843F25460C1F6FF70DF4902F0CEF8D848DE4990
S32D000109984FF000024FF00003FDF750FE4FF00000D549FEF755FE43F25460C1F6FF70D74902F0BAF801F066F8A4
S32D000109C002460B4610461946FCF7BCF90346BB6000BF01F05BF804460D46B868FBF77CFE02460B462046294614
S32D000109E8FBF716FD02460B464FF001010C46104619464FF000024FF07E5303F5D003FCF72DF90346002B02D17E
S32D00010A104FF000031C46E3B2002BDAD1B648BE494FF000024FF00003FDF70CFE43F25460C1F6FF70B74902F021
S32D00010A387BF801F027F802460B4610461946FCF77DF90346BB6000BF01F01CF804460D46B868FBF73DFE0246FB
S32D00010A600B4620462946FBF7D7FC02460B464FF001010C46104619464FF000024FF07E5303F5D003FCF7EEF8A6
S32D00010A880346002B02D14FF000031C46E3B2002BDAD14FF000009849FEF7DAFD94489D494FF000024FF00003B8
S32D00010AB0FDF7C8FD4FF0FA0000F0CEFF4FF0AF008D49FEF7C9FD43F24860C1F6FF708D4902F02EF885484FF0EC
S32D00010AD80101914AFEF7D4F84FF0FA0000F0B8FF83488E494FF000024FF00003FDF7A6FD7C484FF00101884ADE
S32D00010B00FEF7C2F87C487B494FF000024FF00003FDF798FD774B00934FF05A0076494FF001024FF00103FEF75C
S32D00010B28B7FC4FF0FA0000F093FF4FF05A007049FEF78EFD40F20C43C1F6FF731B686C4819464FF000024FF09E
S32D00010B500003FEF761F9674B00934FF0000066494FF002024FF00103FEF796FC4FF0FA0000F072FF4FF000000B
S32D00010B785F49FEF76DFD4FF00003FB6014E0594867494FF000024FF00003FDF757FD4FF0FA0000F05DFF4FF0D6
S32D00010BA000005549FEF758FDFB6803F10103FB60FB68012BCCBF00230123DBB2002BE2D14A4850494FF0000250
S32D00010BC8FDF72AFF03461846FCF7DCFB03467B6044484FF00101504AFEF752F808E04FF0C80000F035FF4FF054
S32D00010BF000004149FEF730FD3E4B00933B484B494FF001024FF00003FEF71CFA034683F00103DBB2002BE6D139
S32D00010C18364B00934FF05A0035494FF002024FF00103FEF735FC2F484FF001013E4AFEF727F831483D494FF044
S32D00010C4000024FF00103FEF7E7F82A4B00934FF0000029494FF001024FF00103FEF71CFC4FF0FA0000F0F8FE02
S32D00010C68224B00934FF0000021494FF000024FF00103FEF70DFC4FF000001F49FEF7E8FC18484FF00101284A9F
S32D00010C90FDF7FAFF43F24860C1F6FF701A4901F047FF154822494FF000024FF00003FDF7C9FC0E4820494FF0A9
S32D00010CB800024FF00003FDF7C1FC43F24860C1F6FF70124901F030FF09481A494FF000024FF00003FDF7B2FCC1
S32D00010CE07B68184607F11007BD46B0BD0000C8C20000A0400000803F0000C842000010410000AA420000204154
S32D00010D080000FA4200009642000080400000E6420000003F000080410000F041000000400000E040000070417E
S32D00010D300000A0419A9959C1000000410000604180B586B002AF786048484FF00101484AFDF79AFF43F24860C3
S32D00010D58C1F6FF70444901F0E7FE444B00934FF05A0043494FF002024FF00003FEF790FB4FF05A003E49FEF782
S32D00010D806BFC3A484FF001013C4AFDF77DFF4FF057003949FEF760FC7B68022B01D1384B00E0384BBB604FF099
S32D00010DA80003FB601AE0B8683549FCF7D9F903462F4819464FF000024FF00003FDF73EFC4FF0640000F044FEBC
S32D00010DD04FF05A0028492D4AFEF74EFCFB6803F10103FB60FB68022BCCBF00230123DBB2002BDCD1FFF7BAFC0B
S32D00010DF81C484FF00101244AFDF742FF4FF05A001B49FEF725FC1A4820494FF000024FF00003FDF713FC40F2EE
S32D00010E200C43C1F6FF731B6818461B49FBF7DEFF03461A4819464FF000024FF00003FDF7EBFF0C4B00934FF083
S32D00010E4800000B494FF001024FF00003FEF720FB4FF000000649FEF7FBFB07F11007BD4680BD00BF0000C8C282
S32D00010E700000F0410000803F0000C8420000A04100008040000090410000404000000040000020420000604124
S32D00010E980000C0400000AA4280B582B002AF4FF05A002249FEF7D4FB24E021484FF00101204AFDF7E5FE034627
S32D00010EC0002B1BD01E4B00934FF0000019494FF001024FF00003FEF7DFFA17484FF00101184AFDF7D1FE164BD8
S32D00010EE800934FF05A0011494FF002024FF00003FEF7CEFA43F23860C1F6FF7001F0A4FC034683F00103DBB242
S32D00010F10002BCED100BF43F23860C1F6FF7001F0ABFC034683F00103DBB2002BF3D1BD4680BD00BF0000C84259
S32D00010F380000C8C200007A440000803F0000204180B584B002AF43F24860C1F6FF70254901F0EAFD4FF000037D
S32D00010F607B6015E0224823494FF000024FF00003FDF768FB4FF0640000F06EFD4FF000001B491D4AFEF778FB72
S32D00010F887B6803F101037B607B68002BCCBF00230123DBB2002BE1D1164B0093124816494FF001024FF0010308
S32D00010FB0FEF748F843F24860C1F6FF700F4901F0B7FD104B00934FF05A0009494FF002024FF00003FEF760FA30
S32D00010FD84FF05A000449FEF73BFB07F10807BD4680BD00BF0000FA420000C8420000A040000040400000F041FC
S32D00011000000018420000803F80B500AF44F2E022C1F6FF7243F23863C1F6FF73D31A194643F23863C1F6FF7326
S32D000110281A460B4610464FF000011A4604F0ABFF80BD00BF06F036F800F0B0F9FFF7E0FF05F0E6FF05F082FF76
S32D0001105006F03CF800F00CF84FF0000043F2C061C1F6FF71FDF7F2F90346184604F06AFF80B500AF4FF4E0436A
S32D00011078C4F204034FF4E042C4F2040202F5805202F13802126842F4785203F5805303F138031A6000F02EF970
S32D000110A000F094F843F2CC63C1F6FF734FF058021A6043F2CC63C1F6FF731B684FF47A7202FB03F243F2C86374
S32D000110C8C1F6FF731A6043F2C863C1F6FF731B681A464FF4E043C4F2040303F5825303F104031B6803F07063B6
S32D000110F04FEA136303F10103B2FBF3F31A4643F2D063C1F6FF731A604FF4E043C4F204034FF4E042C4F20402E8
S32D0001111802F5805202F13C02126842F0225203F5805303F13C031A604FF4E043C4F204034FF4E042C4F20402D2
S32D0001114002F5805202F13002126842F0006203F5805303F130031A604FF45043C4F203034FF480721A614FF097
S32D00011168640000F009FB4FF45043C4F203034FF45042C4F20302526922F010025A614FF45043C4F203034FF073
S32D0001119000021A604FF45043C4F203034FF010025A6101F003F801F0ABF843F2C460C1F6FF7000F069FB43F28E
S32D000111B80070C1F6FF7002F09FF841F2883000F047FC80BD80B400AF4FF48043C4F206034FF000025A704FF498
S32D000111E08043C4F206034FF098021A704FF48043C4F206039B79DBB203F01003002B0CBF00230123DBB2002B9A
S32D00011208F0D14FF48043C4F206039B79DBB203F00C034FEA9303022B0CBF00230123DBB2002BEED14FF4804303
S32D00011230C4F206034FF018021A714FF48043C4F206034FF000025A714FF4E043C4F2040303F5825303F1040330
S32D000112584FF00002C0F213121A604FF48043C4F206034FF054025A7100BF4FF48043C4F206039B79DBB203F098
S32D000112802003002B14BF00230123DBB2002BF0D100BF4FF48043C4F206039B79DBB203F04003002B14BF0023E2
S32D000112A80123DBB2002BF0D14FF48043C4F206034FF48042C4F206021278D2B202F03F02D2B21A704FF480439D
S32D000112D0C4F206039B79DBB203F00C034FEA9303032B0CBF00230123DBB2002BEED14FF000031846BD4680BC28
S32D000112F8704700BF80B400AF4FF44043C4F204034FF480725A634FF2C003C4F20F034FF2C002C4F20F025269A8
S32D0001132042F400525A614FF2C003C4F20F034FF2C002C4F20F02126842F400521A604FF44043C4F2040340F294
S32D000113480312C0F20A021A634FF46143CEF200034FF46142CEF20002D2F8882142F08062C3F888214FF4614302
S32D00011370CEF200034FF46142CEF20002926842F080629A60BD4680BC704700BF80B483B000AF7860FEE700BF94
S32D0001139880B400AF00BEBD4680BC704780B400AF4FF0E0224CF20003C0F20003C2F8083D4FF40053C4F2050322
S32D000113C04CF22052DA814FF40053C4F205034DF62812DA814FF40053C4F205034FF0D2021A80BD4680BC7047D0
S32D000113E880B400AF4FF44043C4F20403D3F8A03003F48053002B0CBF00230123DBB2002B19D04FF44043C4F2B1
S32D0001141004034FF44042C4F20402D2F8A02022F48052C3F8A0204FF2C003C4F20F034FF2C002C4F20F02126828
S32D0001143822F400521A60BD4680BC704780B483B000AF78600B46FB707B68FA781A707B684FF000025A707B6853
S32D00011460184607F10C07BD4680BC704780B582B000AF78607B685B78002B10D07B684FF000025A707B681B78EB
S32D0001148843F2C460C1F6FF7019464FF000024FF01E0300F03FFA07F10807BD4680BD00BF80B584B000AF786097
S32D000114B039603B687F2B03DD4FF07F03FB7309E03B6813F1800F03DA4FF08003FB7301E03B68FB737B685B7844
S32D000114D8FA7B9A420FD07B68FA7B5A707B681A78FB7B43F2C460C1F6FF7011461A464FF01E0300F00FFA07F121
S32D000115001007BD4680BD00BF90B486B000AFF860B9607A60FA684FF42043C4F206039A4214D14FF4E043C4F28E
S32D0001152804034FF4E042C4F2040202F5805202F13402126842F4806203F5805303F134031A6083E0FA684FF470
S32D000115503043C4F206039A4214D14FF4E043C4F204034FF4E042C4F2040202F5805202F13402126842F4006231
S32D0001157803F5805303F134031A6067E0FA684FF44043C4F206039A4214D14FF4E043C4F204034FF4E042C4F2A7
S32D000115A0040202F5805202F13402126842F4805203F5805303F134031A604BE0FA684FF45043C4F206039A4234
S32D000115C814D14FF4E043C4F204034FF4E042C4F2040202F5805202F13402126842F4005203F5805303F13403E1
S32D000115F01A602FE0FA684FF42043C4F20E039A4214D14FF4E043C4F204034FF4E042C4F2040202F5805202F1B3
S32D000116182802126842F4806203F5805303F128031A6013E04FF4E043C4F204034FF4E042C4F2040202F5805283
S32D0001164002F12802126842F4006203F5805303F128031A60FB68DB78DBB223F00C03DAB2FB68DA70FB684FF0A8
S32D0001166800029A70BB684FF47A7202FB03F27B684FEA031392FBF3F39CB2FB681B78DBB223F01F03FB7523467F
S32D0001169003F4F8534FEA2323DBB203F01F03DAB2FB7D1343DAB2FB681A70E2B2FB685A70BB684FF4FA4202FB95
S32D000116B803F27B684FEA031392FBF3F39AB2234619464FEAC121CB1A4FEA43139BB2D3189CB2FB689B7ADBB23B
S32D000116E023F01F03FB75E3B203F01F03DAB2FB7D1343DAB2FB689A72FB68DB78DBB243F00C03DAB2FB68DA7079
S32D0001170807F11807BD4690BC704700BF80B483B000AF786000BF7B681B79DBB203F02003002B14BF00230123CA
S32D00011730DBB2002BF3D17B68DB79DBB2184607F10C07BD4680BC704780B483B000AF78600B46FB7000BF7B689F
S32D000117581B79DBB2DBB26FEA0303DBB24FEAD313DBB2002BF3D17B68FA78DA7107F10C07BD4680BC704700BFCD
S32D0001178080B483B000AF78604FF4E043C4F204034FF4E042C4F2040202F5805202F13802126842F0010203F56B
S32D000117A8805303F138031A604FF00003C4F204037A689A604FF00003C4F204034FF005025A604FF00003C4F2C4
S32D000117D004034FF00002C4F20402126842F001021A6000BF4FF00003C4F204031B6803F08003002B14BF0023E5
S32D000117F80123DBB2002BF1D14FF00003C4F204034FF00002C4F20402126822F001021A6007F10C07BD4680BCD5
S32D00011820704700BF80B582B000AF786039607B68012B0AD13A684FF6FF739A4205D143F2C460C1F6FF7000F038
S32D000118480FF807F10807BD4680BD00BF80B500AF4FF001004FF6FF71FFF7E0FF80BD00BF80B483B000AF7860CC
S32D000118707B684FF000021A707B68184607F10C07BD4680BC704700BF80B582B000AF78607B681B7883F00103BF
S32D00011898DBB2002B36D04FF4E043C4F2040303F5805303F128034FF400621A604FF45043C4F204034FF44072AF
S32D000118C01A624FF45043C4F204034FF440725A6243F2C863C1F6FF731B684FEAD372D3184FEA63034FF4304072
S32D000118E8C4F20E0019464FF46142FFF709FE4FF0640000F0ADF87B684FF001021A704FF0010301E04FF000037E
S32D00011910184607F10807BD4680BD00BF80B582B000AF7860F970BA707B704FF43040C4F20E004FF07F01FFF7AC
S32D0001193807FF4FF43040C4F20E004FF00801FFF7FFFEFB784FF43040C4F20E001946FFF7F7FEBB784FF43040AE
S32D00011960C4F20E001946FFF7EFFE7B784FF43040C4F20E001946FFF7E7FE4FF43040C4F20E004FF0FF01FFF702
S32D00011988DFFE07F10807BD4680BD00BF80B487B000AFF860B9607A60FA6844F6D353C1F26203A3FB02134FEA22
S32D000119B09312BB68D3187B61FA6844F6D353C1F26203A3FB02134FEA93134FF47A7101FB03F3D31AFB60FB6842
S32D000119D84FEAC33244F6D353C1F26203A3FB02134FEA93127B68D3183B613B694FEAD3337A69D3187B613B690E
S32D00011A004FEA43434FEA53433B614FF45043C4F203031B681A467B699A4211D34FF45043C4F203031B681A46FF
S32D00011A287B699A420BD14FF45043C4F203035B681A463B699A4202D24FF0010301E04FF00003002BDDD107F1B3
S32D00011A501C07BD4680BC704780B584B000AF78604FF45043C4F203031B68FB604FF45043C4F203035B68BB607E
S32D00011A787B681846F968BA68FFF788FF07F11007BD4680BD80B584B000AF4FF45043C4F203031B68FB604FF4E4
S32D00011AA05043C4F203035B68BB60F868FAF7F2FD02460B46C7E90023B868FAF7EBFD02460B46104619464FF0B8
S32D00011AC800024FF0804303F56003FAF77FFF02460B46D7E90001FAF79DFC02460B46C7E90023D7E90023104698
S32D00011AF0194607F11007BD4680BD00BF80B483B000AF4FF45043C4F203031B684FF47A7202FB03F37B604FF4EF
S32D00011B185043C4F203035B684FF47A7202FB03F34FEAD3337A68D3187B607B68184607F10C07BD4680BC704741
S32D00011B4080B582B000AF78600B46FB70FB787868194600F013F87B68184607F10807BD4680BD00BF80B483B071
S32D00011B6800AF78607B68184607F10C07BD4680BC704700BF80B483B000AF78600B46FB707B68FA781A707B685A
S32D00011B901B781A4648F66C33C0F201039B5C042B00F2F98001A252F823F000BFC11B01001F1C01007D1C01009D
S32D00011BB8DB1C0100391D01004FF41043C4F204037A681278114648F6B032C0F2010252F8212040F2031143F8B8
S32D00011BE022104FF47043C4F20F034FF47042C4F20F02526911467A681278104648F6B032C0F2010252F82020F7
S32D00011C0802F01F024FF0010000FA02F26FEA02020A405A61BBE04FF42043C4F204037A681278114648F6B03229
S32D00011C30C0F2010252F8212040F2031143F822104FF24003C4F20F034FF24002C4F20F02526911467A6812787E
S32D00011C58104648F6B032C0F2010252F8202002F01F024FF0010000FA02F26FEA02020A405A618CE04FF43043E3
S32D00011C80C4F204037A681278114648F6B032C0F2010252F8212040F2031143F822104FF28003C4F20F034FF2D5
S32D00011CA88002C4F20F02526911467A681278104648F6B032C0F2010252F8202002F01F024FF0010000FA02F250
S32D00011CD06FEA02020A405A615DE04FF44043C4F204037A681278114648F6B032C0F2010252F8212040F203115A
S32D00011CF843F822104FF2C003C4F20F034FF2C002C4F20F02526911467A681278104648F6B032C0F2010252F8C7
S32D00011D20202002F01F024FF0010000FA02F26FEA02020A405A612EE04FF45043C4F204037A681278114648F60F
S32D00011D48B032C0F2010252F8212040F2031143F822104FF47143C4F20F034FF47142C4F20F02526911467A6827
S32D00011D701278104648F6B032C0F2010252F8202002F01F024FF0010000FA02F26FEA02020A405A6100BF07F1AB
S32D00011D980C07BD4680BC704780B485B000AF78604FF00003FB607B681B781A4648F66C33C0F201039B5C042BF7
S32D00011DC000F2868001A252F823F000BFE11D0100111E0100411E0100711E0100A11E01004FF47043C4F20F03A0
S32D00011DE81B691A467B681B78194648F6B033C0F2010353F8213003F01F034FF0010101FA03F31340FB605FE06C
S32D00011E104FF24003C4F20F031B691A467B681B78194648F6B033C0F2010353F8213003F01F034FF0010101FADA
S32D00011E3803F31340FB6047E04FF28003C4F20F031B691A467B681B78194648F6B033C0F2010353F8213003F005
S32D00011E601F034FF0010101FA03F31340FB602FE04FF2C003C4F20F031B691A467B681B78194648F6B033C0F2EA
S32D00011E88010353F8213003F01F034FF0010101FA03F31340FB6017E04FF47143C4F20F031B691A467B681B7886
S32D00011EB0194648F6B033C0F2010353F8213003F01F034FF0010101FA03F31340FB6000BFFB68002B0CBF002301
S32D00011ED80123DBB2184607F11407BD4680BC704780B483B000AF78600B46FB707B68FA781A707B68184607F101
S32D00011F000C07BD4680BC704780B586B000AF78607B681B781A4648F63043C0F2010353F822303B617B681B78CB
S32D00011F281A4648F68C33C0F201039B5CFB733B69DBB203F01F03DAB243F2D463C1F6FF731A723B69DBB203F0FB
S32D00011F501F03DAB243F2D463C1F6FF735A724FF46143CEF200034FF46142CEF20002D2F8882042F01002C3F890
S32D00011F788820FB7B002B1ED14FF43040C4F2030043F2D461C1F6FF7100F04CFD4FF43043C4F203031B6803F0E4
S32D00011FA08003002B14BF00230123DBB2002BF1D14FF43043C4F203031B697B611DE04FF43040C4F20B0043F258
S32D00011FC8D461C1F6FF7100F02DFD4FF43043C4F20B031B6803F08003002B14BF00230123DBB2002BF1D14FF4FF
S32D00011FF03043C4F20B031B697B614FF46143CEF200034FF46142CEF20002D2F8882142F01002C3F888214FF47B
S32D000120186143CEF200034FF46142CEF20002926842F010029A604FF46143CEF200034FF46142CEF20002D2F836
S32D00012040882142F08062C3F888214FF46143CEF200034FF46142CEF20002926842F080629A607B694FEA034393
S32D000120684FEA13431846FAF711FB02460B46104619460FA3D3E90023FAF77EFB02460B46104619460CA3D3E95D
S32D000120900023FAF79FFC02460B4610461946FAF751FE0346BB60BB68184607F11807BD4680BD00BFAFF30080C7
S32D000120B8A4703D0AD7A30A4000000000E0FFEF4080B586B000AF78607B681B781A4648F63043C0F2010353F852
S32D000120E022303B617B681B781A4648F68C33C0F201039B5CFB733B69DBB203F01F03DAB243F2E463C1F6FF737E
S32D000121081A723B69DBB203F01F03DAB243F2E463C1F6FF735A72FB7B002B1ED14FF43040C4F2030043F2E46163
S32D00012130C1F6FF7100F07AFC4FF43043C4F203031B6803F08003002B14BF00230123DBB2002BF1D14FF4304313
S32D00012158C4F203031B697B611DE04FF43040C4F20B0043F2E461C1F6FF7100F05BFC4FF43043C4F20B031B68E6
S32D0001218003F08003002B14BF00230123DBB2002BF1D14FF43043C4F20B031B697B617B69184607F11807BD46C5
S32D000121A880BD00BF98B500AF43F2D463C1F6FF734FF05C021A7043F2D463C1F6FF734FF010025A7043F2D46338
S32D000121D0C1F6FF7341F234225A8043F2D463C1F6FF7345F278629A8043F2D463C1F6FF734FF010029A7143F26E
S32D000121F8D463C1F6FF734FF00702DA7143F2D463C1F6FF734FF4C022DA6043F2D463C1F6FF734FF01F021A7250
S32D0001222043F2D463C1F6FF734FF01F025A724FF43040C4F2030043F2D461C1F6FF7100F0F5FB4FF43040C4F288
S32D000122480B0043F2D461C1F6FF7100F0EBFB4FF43040C4F20B0000F03FFB4FF43040C4F2030000F039FB4FF484
S32D000122703040C4F20B0043F2D461C1F6FF7100F0D5FB4FF43040C4F2030043F2D461C1F6FF7100F0CBFB43F2D5
S32D00012298E462C1F6FF7243F2D463C1F6FF7314460FCB84E80F0043F2E463C1F6FF734FF05C021A7043F2E4631D
S32D000122C0C1F6FF734FF00402DA7198BD80B500AF43F2F863C1F6FF731B6803F1010243F2F863C1F6FF731A6097
S32D000122E800F072F94FF4E043C4F203034FF00102C3F80C2180BD00BF80B500AF4FF4E043C4F203034FF00102DC
S32D000123101A6048F2A060C0F2010000F023F84FF4E043C4F203034FF00302C3F808214FF46143CEF200034FF4F5
S32D000123386142CEF20002D2F8882142F01002C3F888214FF46143CEF200034FF46142CEF20002926842F0100266
S32D000123609A6080BD80B483B000AF78604FF4E043C4F203037A68C3F8002107F10C07BD4680BC704780B584B0DF
S32D0001238800AF78600B46FB707A68FB7810461946FFF7A6FD43F2F463C1F6FF731B68002B32D17B684FF00002B6
S32D000123B01A617B684FF000025A614FF0140004F091FE02467B689A617B689B697A689A607B689B694FF00102BC
S32D000123D85A607B689B69FA781A707B689B694FF00002DA607B689B694FF000021A617B689B694FF000025A7042
S32D000124007B689A6943F2F463C1F6FF731A6071E043F2F463C1F6FF731B68FB6002E0FB68DB68FB60FB681B78DB
S32D00012428FA789A4206D0FB68DB68002B02D04FF0010301E04FF00003002BECD1FB681B78FA789A4224D17B6854
S32D00012450FA689A617B689B699B68BB6002E0BB681B69BB60BB681B69002B0CBF00230123DBB2002BF3D1BB68D4
S32D000124787A681A617B68BA685A617B684FF000021A617B689B695A6802F101025A602DE07B684FF000021A6174
S32D000124A07B684FF000025A614FF0140004F01AFE02467B689A617B689B697A689A607B689B694FF001025A6003
S32D000124C87B689B69FA781A707B689B694FF00002DA607B689B694FF000025A707B689B69FA681A617B689A6904
S32D000124F0FB68DA60786800F0F7F87B684FF48C429A607B684FF45242DA607B68184607F11007BD4680BD00BF30
S32D0001251880B586B000AF78607B685B697B617B681B693B617B69002B31D13B69002B2ED17B689B691B69FB6077
S32D000125407B689B69DB68BB60FB68002B0AD1BB68002B07D143F2F463C1F6FF734FF000021A6012E0FB68002BA8
S32D0001256803D0FB68BA68DA6005E043F2F463C1F6FF73BA681A60BB68002B02D0BB68FA681A617B689B69184617
S32D0001259004F0CEFD16E07B69002B03D07B693A691A6103E07B689B693A699A603B69002B02D03B697A695A6139
S32D000125B87B689B695A6802F1FF325A607B68184607F11807BD4680BD80B584B000AF43F2F463C1F6FF731B6885
S32D000125E0FB6029E0FB685B78FB71FB689B68184600F02EF80346BB71BB79002B19D0FB685B68012B15DDFB6888
S32D000126089B681B69BB6008E0BB685B6803F10102BB685A60BB681B69BB60BB68002B0CBF00230123DBB2002B85
S32D00012630EED1FB68DB68FB60FB68002B0CBF00230123DBB2002BCDD107F11007BD4680BD80B584B000AF786086
S32D000126587868FFF735FD0346FB607B689B695B78FB72FB7A002B12D17B68DA68FB689A420DDA7B689B694FF08C
S32D0001268001025A707B685B6803F101027B685A604FF0010317E0FB7A012B12D17B689A68FB689A420DDD7B6875
S32D000126A89B694FF000025A707B685B6803F101027B685A604FF0010301E04FF00003184607F11007BD4680BDA7
S32D000126D080B483B000AF78607B685B68184607F10C07BD4680BC704780B483B000AF78607B684FF000025A601C
S32D000126F807F10C07BD4680BC704700BF80B582B000AF78600B46FB707B681846FFF726FA7B6803F101031846B9
S32D00012720FFF720FA7B6803F102031846FFF71AFAFB78032B66D801A252F823F04D2701007B270100A92701006E
S32D00012748D72701007B6818464FF00001FFF712FA7B6803F1010318464FF00101FFF70AFA7B6803F10203184632
S32D000127704FF00201FFF702FA44E07B6818464FF00801FFF7FBF97B6803F1010318464FF00901FFF7F3F97B6828
S32D0001279803F1020318464FF00A01FFF7EBF92DE07B6818464FF01001FFF7E4F97B6803F1010318464FF011019C
S32D000127C0FFF7DCF97B6803F1020318464FF01201FFF7D4F916E07B6818464FF01801FFF7CDF97B6803F10103AA
S32D000127E818464FF01901FFF7C5F97B6803F1020318464FF01A01FFF7BDF900BF7B68184607F10807BD4680BDD0
S32D0001281080B582B000AF78607B681846FFF7C0FA034683F00103DBB2184607F10807BD4680BD00BF80B582B0A2
S32D0001283800AF78607B681846FFF7AEFA0346184607F10807BD4680BD80B582B000AF78607B6803F101031846F6
S32D00012860FFF79EFA034683F00103DBB2184607F10807BD4680BD00BF80B582B000AF78607B6803F101031846E3
S32D00012888FFF78AFA0346184607F10807BD4680BD80B582B000AF78607B6803F102031846FFF77AFA034683F06B
S32D000128B00103DBB2184607F10807BD4680BD00BF80B582B000AF78607B6803F102031846FFF766FA03461846DF
S32D000128D807F10807BD4680BD80B485B000AF78607B681B6A23F040027B681A627B685B6A23F00B027B685A6217
S32D000129007B685B6A43F007027B685A627B685B6A43F080027B685A627B681B6803F08003002B14BF0023012308
S32D00012928DBB2002BF4D17B685B6A03F04003002B0CBF00230123DBB2002B02D04FF0010369E04FF00003FB8114
S32D000129507B68DB6CFB817B689B6C9AB2FB89D318FB817B685B6C9AB2FB89D318FB817B681B6C9AB2FB89D3188B
S32D00012978FB817B68DB6B9AB2FB89D318FB817B689B6B9AB2FB89D318FB81FB894FEA5303FB81FB896FEA434342
S32D000129A06FEA5343FB81FA897B68DA624FF00003FB817B68DB6EFB817B689B6E9AB2FB89D318FB817B685B6EC6
S32D000129C89AB2FB89D318FB817B681B6E9AB2FB89D318FB817B68DB6D9AB2FB89D318FB817B689B6D9AB2FB89E9
S32D000129F0D318FB81FB894FEA5303FB81FB896FEA43436FEA5343FB81FA897B681A637B685B6A23F080027B68F1
S32D00012A185A624FF00003184607F11407BD4680BC704700BF80B483B000AF786039603B681B781A467B689A6071
S32D00012A403B685B781A467B68DA603B685B881A467B689A613B689B881A467B68DA613B689B791A467B681A62F6
S32D00012A683B68DB791A467B685A623B68DA687B681A653B681B7A1A467B681A603B685B7A1A467B685A6007F1A0
S32D00012A900C07BD4680BC704780B483B000AF78607B68184607F10C07BD4680BC704700BF80B582B000AF786031
S32D00012AB839607B68012B0AD13A684FF6FF739A4205D143F2FC60C1F6FF70FFF7E1FF07F10807BD4680BD00BFCE
S32D00012AE080B500AF4FF001004FF6FF71FFF7E0FF80BD00BF80B483B000AF78600B46FB707B68FA781A707B68B1
S32D00012B084FF4FA725A807B6840F6C4129A807B68044A9A607B68184607F10C07BD4680BC704700BF000080BFA1
S32D00012B30F0B585B000AF786039604FF001031C4638684B49FAF7FAFB0346002B02D14FF000031C46E3B2002B12
