S01600002E2E2F464548526F626F74436F64652E733139FF
S32D0000C00000000020D10B01002D0F01002D0F01002D0F01002D0F01002D0F0100000000000000000000000000E4
S32D0000C028000000002D0F01002D0F0100000000002D0F01002D0F01002D0F01002D0F01002D0F01002D0F010002
S32D0000C0502D0F01002D0F01002D0F01002D0F01002D0F01002D0F01002D0F01002D0F01002D0F01002D0F010060
S32D0000C0782D0F01002D0F01002D0F01002D0F01002D0F01002D0F01002D0F01002D0F01002D0F01002D0F010038
S32D0000C0A02D0F01002D0F01002D0F01002D0F01002D0F01002D0F01002D0F01002D0F01002D0F01002D0F010010
S32D0000C0C82D0F01002D0F01002D0F01002D0F01002D0F01002D0F01002D0F01002D0F01002D0F01002D0F0100E8
S32D0000C0F02D0F0100A94B01002D0F01002D0F01002D0F01002D0F01002D0F01002D0F01002D0F01002D0F010008
S32D0000C1182D0F01002D0F01002D0F01002D0F01002D0F01002D0F01002D0F01002D0F01002D0F01002D0F010097
S32D0000C1402D0F01002D0F01002D0F01002D0F0100651E01002D0F01002D0F01002D0F01002D0F01002D0F010028
S32D0000C1682D0F01002D0F01002D0F01002D0F01002D0F01002D0F01002D0F01002D0F01002D0F01002D0F010047
S32D0000C1902D0F01002D0F01002D0F01002D0F01002D0F01002D0F01007D0F01002D0F01002D0F01002D0F0100CF
S32D0000C1B82D0F01002D0F01002D0F01002D0F01002D0F01002D0F01002D0F01002D0F01002D0F01002D0F0100F7
S32D0000C41081F0004102E000BF83F0004330B54FEA41044FEA430594EA050F08BF90EA020F1FBF54EA000C55EAC6
S32D0000C438020C7FEA645C7FEA655C00F0E2804FEA5454D4EB5555B8BF6D420CDD2C4480EA020281EA030382EA0F
S32D0000C460000083EA010180EA020281EA0303362D88BF30BD11F0004F4FEA01314FF4801C4CEA113102D0404263
S32D0000C48861EB410113F0004F4FEA03334CEA133302D0524263EB430394EA050F00F0A780A4F10104D5F1200E8A
S32D0000C4B00DDB02FA0EFC22FA05F2801841F1000103FA0EF2801843FA05F359410EE0A5F120050EF1200E012A2D
S32D0000C4D803FA0EFC28BF4CF0020C43FA05F3C01851EBE37101F0004507D54FF0000EDCF1000C7EEB00006EEB67
S32D0000C5000101B1F5801F1BD3B1F5001F0CD349085FEA30004FEA3C0C04F101044FEA445212F5800F80F09A8000
S32D0000C528BCF1004F08BF5FEA500C50F1000041EB045141EA050130BD5FEA4C0C404141EB010111F4801FA4F114
S32D0000C5500104E9D191F0000F04BF01460020B1FA81F308BF2033A3F10B03B3F120020CDA0C3208DD02F1140C87
S32D0000C578C2F10C0201FA0CF021FA02F10CE002F11402D8BFC2F1200C01FA02F120FA0CFCDCBF41EA0C019040B1
S32D0000C5A0E41AA2BF01EB0451294330BD6FEA04041F3C1CDA0C340EDC04F11404C4F1200220FA04F001FA02F3B6
S32D0000C5C840EA030021FA04F345EA030130BDC4F10C04C4F1200220FA02F001FA04F340EA0300294630BD21FAA8
S32D0000C5F004F0294630BD94F0000F83F4801306BF81F480110134013D4EE77FEA645C18BF7FEA655C29D094EA1C
S32D0000C618050F08BF90EA020F05D054EA000C04BF1946104630BD91EA030F1EBF0021002030BD5FEA545C05D1A3
S32D0000C6404000494128BF41F0004130BD14F580043CBF01F5801130BD01F0004545F0FE4141F470014FF0000031
S32D0000C66830BD7FEA645C1ABF194610467FEA655C1CBF0B46024650EA013406BF52EA033591EA030F41F40021D7
S32D0000C69030BD00BF90F0000F04BF0021704730B54FF4806404F132044FF000054FF0000150E700BF90F0000F66
S32D0000C6B804BF0021704730B54FF4806404F1320410F0004548BF40424FF000013EE700BF42004FEAE2014FEAF9
S32D0000C6E031014FEA02701FBF12F07F4393F07F4F81F06051704792F0000F14BF93F07F4F704730B54FF460741B
S32D0000C70801F0004521F0004120E700BF50EA010208BF704730B54FF000050AE050EA010208BF704730B511F046
S32D0000C730004502D5404261EB41014FF4806404F132045FEA915C3FF4DCAE4FF003025FEADC0C18BF03325FEAA0
S32D0000C758DC0C18BF033202EBDC02C2F1200300FA03FC20FA02F001FA03FE40EA0E0021FA02F11444C1E600BF19
S32D0000C78070B54FF0FF0C4CF4E06C1CEA11541DBF1CEA135594EA0C0F95EA0C0F00F0DEF82C4481EA030621EAF3
S32D0000C7A84C5123EA4C5350EA013518BF52EA033541F4801143F4801338D0A0FB02CE4FF00005E1FB02E506F05F
S32D0000C7D00042E0FB03E54FF00006E1FB03569CF0000F18BF4EF0010EA4F1FF04B6F5007F64F5407404D25FEA0F
S32D0000C7F84E0E6D4146EB060642EAC62141EA55514FEAC52040EA5E504FEACE2EB4F1FD0C88BFBCF5E06F1ED8D2
S32D0000C820BEF1004F08BF5FEA500E50F1000041EB045170BD06F0004646EA010140EA020081EA0301B4EB5C0487
S32D0000C848C2BFD4EB0C0541EA045170BD41F480114FF0000E013C00F3AB8014F1360FDEBF002001F0004170BDF0
S32D0000C870C4F10004203C35DA0C341BDC04F11404C4F1200500FA05F320FA04F001FA05F240EA020001F0004207
S32D0000C89821F0004110EBD37021FA04F642EB06015EEA430E08BF20EAD37070BDC4F10C04C4F1200500FA04F32F
S32D0000C8C020FA05F001FA04F240EA020001F0004110EBD37041F100015EEA430E08BF20EAD37070BDC4F12005C7
S32D0000C8E800FA05F24EEA020E20FA04F301FA05F243EA020321FA04F001F0004121FA04F220EA020000EBD37028
S32D0000C9105EEA430E08BF20EAD37070BD94F0000F0FD101F00046400041EB010111F4801F08BF013CF7D041EA6D
S32D0000C938060195F0000F18BF704703F00046520043EB030313F4801F08BF013DF7D043EA0603704794EA0C0FF1
S32D0000C9600CEA135518BF95EA0C0F0CD050EA410618BF52EA4306D1D181EA030101F000414FF0000070BD50EA38
S32D0000C988410606BF1046194652EA430619D094EA0C0F02D150EA013613D195EA0C0F05D152EA03361CBF10467B
S32D0000C9B019460AD181EA030101F0004141F0FE4141F470014FF0000070BD41F0FE4141F4780170BD70B54FF04D
S32D0000C9D8FF0C4CF4E06C1CEA11541DBF1CEA135594EA0C0F95EA0C0F00F0A7F8A4EB050481EA030E52EA03359B
S32D0000CA004FEA013100F088804FEA03334FF0805545EA131343EA12634FEA022245EA111545EA10654FEA002676
S32D0000CA280EF000419D4208BF964244F1FD0404F5407402D25B084FEA3202B61A65EB03055B084FEA32024FF461
S32D0000CA5080104FF4002CB6EB020E75EB030E22BFB61A754640EA0C005B084FEA3202B6EB020E75EB030E22BF22
S32D0000CA78B61A754640EA5C005B084FEA3202B6EB020E75EB030E22BFB61A754640EA9C005B084FEA3202B6EBEA
S32D0000CAA0020E75EB030E22BFB61A754640EADC0055EA060E18D04FEA051545EA16754FEA06164FEAC30343EAAC
S32D0000CAC852734FEAC2025FEA1C1CC0D111F4801F0BD141EA00014FF000004FF0004CB6E711F4801F04BF0143AE
S32D0000CAF00020B4F1FD0C88BFBCF5E06F3FF6AFAEB5EB030C04BFB6EB020C5FEA500C50F1000041EB045170BDBC
S32D0000CB180EF0004E4EEA113114EB5C04C2BFD4EB0C0541EA045170BD41F480114FF0000E013C90E645EA060EC3
S32D0000CB408DE60CEA135594EA0C0F08BF95EA0C0F3FF43BAF94EA0C0F0AD150EA01347FF434AF95EA0C0F7FF499
S32D0000CB6825AF104619462CE795EA0C0F06D152EA03353FF4FDAE1046194622E750EA410618BF52EA43067FF432
S32D0000CB90C5AE50EA41047FF40DAF52EA43057FF4EBAE12E74FF0FF3C06E000BF4FF0010C02E000BF4FF0010C75
S32D0000CBB84DF804CD4FEA410C7FEA6C5C4FEA430C18BF7FEA6C5C1BD001B050EA410C0CBF52EA430C91EA030FEC
S32D0000CBE002BF90EA020F0020704710F1000F91EA030F58BF994208BF90422CBFD8176FEAE37040F0010070476E
S32D0000CC084FEA410C7FEA6C5C02D150EA013C07D14FEA430C7FEA6C5CD6D152EA033CD3D05DF8040B704700BFCD
S32D0000CC308446104662468C461946634600E000BF01B5FFF7B7FF002848BF10F1000F01BD4DF808EDFFF7F4FF13
S32D0000CC580CBF012000205DF808FB00BF4DF808EDFFF7EAFF34BF012000205DF808FB00BF4DF808EDFFF7E0FF18
S32D0000CC8094BF012000205DF808FB00BF4DF808EDFFF7CEFF94BF012000205DF808FB00BF4DF808EDFFF7C4FF40
S32D0000CCA834BF012000205DF808FB00BF4FEA410212F5001215D211D56FF47873B3EB625212D94FEAC12343F0D6
S32D0000CCD0004343EA505311F0004F23FA02F018BF404270474FF00000704750EA013005D111F0004008BF6FF016
S32D0000CCF8004070474FF00000704700BF4A0011D212F5001211D20DD56FF47873B3EB62520ED44FEAC12343F085
S32D0000CD20004343EA505323FA02F070474FF00000704750EA013002D14FF0FF3070474FF0000070474FEA410241
S32D0000CD48B2F1E04324BFB3F5001CDCF1FE5C0DD901F0004C4FEAC0024CEA5070B2F1004F40EB830008BF20F09E
S32D0000CD700100704711F0804F21D113F13872BCBF01F00040704741F480114FEA5252C2F11802C2F1200C10FAB1
S32D0000CD980CF320FA02F018BF40F001004FEAC1234FEAD32303FA0CFC40EA0C0023FA02F34FEA4303CCE77FEA26
S32D0000CDC0625307D150EA01331EBF4FF0FE4040F44000704701F0004040F0FE4040F40000704700BF80F00040CC
S32D0000CDE802E000BF81F0004142001FBF5FEA410392EA030F7FEA226C7FEA236C6AD04FEA1262D2EB1363C1BF06
S32D0000CE10D218414048404140B8BF5B42192B88BF704710F0004F40F4000020F07F4018BF404211F0004F41F4FA
S32D0000CE38000121F07F4118BF494292EA030F3FD0A2F1010241FA03FC10EB0C00C3F1200301FA03F100F000432B
S32D0000CE6002D5494260EB4000B0F5000F13D3B0F1807F06D340084FEA310102F10102FE2A51D2B1F1004F40EB94
S32D0000CE88C25008BF20F0010040EA03007047490040EB000010F4000FA2F10102EDD1B0FA80FCACF1080CB2EB5F
S32D0000CEB00C0200FA0CF0AABF00EBC25052421843BCBFD0401843704792F0000F81F4000106BF80F400000132EB
S32D0000CED8013BB5E74FEA41037FEA226C18BF7FEA236C21D092EA030F04D092F0000F08BF0846704790EA010FD7
S32D0000CF001CBF0020704712F07F4F04D1400028BF40F00040704712F100723CBF00F50000704700F0004343F0DC
S32D0000CF28FE4040F4000070477FEA226216BF08467FEA23630146420206BF5FEA412390EA010F40F480007047C1
S32D0000CF504FF0000304E000BF10F0004348BF40425FEA000C08BF704743F0964301464FF000001CE050EA010264
S32D0000CF7808BF70474FF000030AE000BF50EA010208BF704711F0004302D5404261EB41015FEA010C02BF84465B
S32D0000CFA00146002043F0B64308BFA3F18053A3F50003BCFA8CF2083AA3EBC25310DB01FA02FC634400FA02FC6B
S32D0000CFC8C2F12002BCF1004F20FA02F243EB020008BF20F00100704702F1200201FA02FCC2F1200250EA4C0034
S32D0000CFF021FA02F243EB020008BF20EADC7070474FF0FF0C1CEAD0521EBF1CEAD15392EA0C0F93EA0C0F6FD019
S32D0000D0181A4480EA010C400218BF5FEA41211ED04FF0006343EA501043EA5111A0FB01310CF00040B1F5000FE7
S32D0000D0403EBF490041EAD3715B0040EA010062F17F02FD2A1DD8B3F1004F40EBC25008BF20F00100704790F058
S32D0000D068000F0CF0004C08BF49024CEA502040EA51207F3AC2BFD2F1FF0340EAC250704740F400004FF0000388
S32D0000D090013A5DDC12F1190FDCBF00F000407047C2F10002410021FA02F1C2F1200200FA02FC5FEA310040F1D5
S32D0000D0B8000053EA4C0308BF20EADC70704792F0000F00F0004C02BF400010F4000F013AF9D040EA0C0093F04C
S32D0000D0E0000F01F0004C02BF490011F4000F013BF9D041EA0C018FE70CEAD15392EA0C0F18BF93EA0C0F0AD00B
S32D0000D10830F0004C18BF31F0004CD8D180EA010000F00040704790F0000F17BF90F0004F084691F0000F91F0BB
S32D0000D130004F14D092EA0C0F01D142020FD193EA0C0F03D14B0218BF084608D180EA010000F0004040F0FE4051
S32D0000D15840F40000704740F0FE4040F4400070474FF0FF0C1CEAD0521EBF1CEAD15392EA0C0F93EA0C0F69D044
S32D0000D180A2EB030280EA010C49024FEA402037D04FF0805343EA111143EA10130CF000408B4238BF5B0042F14E
S32D0000D1A87D024FF4000C8B4224BF5B1A40EA0C00B3EB510F24BFA3EB510340EA5C00B3EB910F24BFA3EB9103A4
S32D0000D1D040EA9C00B3EBD10F24BFA3EBD10340EADC001B0118BF5FEA1C1CE0D1FD2A3FF650AF8B4240EBC25018
S32D0000D1F808BF20F0010070470CF0004C4CEA50207F32C2BFD2F1FF0340EAC250704740F400004FF00003013AF1
S32D0000D22037E792F0000F00F0004C02BF400010F4000F013AF9D040EA0C0093F0000F01F0004C02BF490011F4C9
S32D0000D248000F013BF9D041EA0C0195E70CEAD15392EA0C0F08D142027FF47DAF93EA0C0F7FF470AF084676E7AE
S32D0000D27093EA0C0F04D14B023FF44CAF08466EE730F0004C18BF31F0004CCAD130F000427FF45CAF31F0004376
S32D0000D2987FF43CAF5FE700BF4FF0FF3C06E000BF4FF0010C02E000BF4FF0010C4DF804CD4FEA40024FEA41039F
S32D0000D2C07FEA226C18BF7FEA236C11D001B052EA530C18BF90EA010F58BFB2EB030088BFC81738BF6FEAE1706E
S32D0000D2E818BF40F0010070477FEA226C02D15FEA402C05D17FEA236CE4D15FEA412CE1D05DF8040B704700BF16
S32D0000D310844608466146FFE70FB5FFF7C9FF002848BF10F1000F0FBD4DF808EDFFF7F4FF0CBF012000205DF839
S32D0000D33808FB00BF4DF808EDFFF7EAFF34BF012000205DF808FB00BF4DF808EDFFF7E0FF94BF012000205DF8A9
S32D0000D36008FB00BF4DF808EDFFF7D2FF94BF012000205DF808FB00BF4DF808EDFFF7C8FF34BF012000205DF8B1
S32D0000D38808FB00BF4FEA4002B2F1FE4F0FD34FF09E03B3EB12620DD94FEA002343F0004310F0004F23FA02F060
S32D0000D3B018BF404270474FF00000704712F1610F01D1420205D110F0004008BF6FF0004070474FF00000704797
S32D0000D3D8036803B11B181846704700BF03685A004CBF43F0004323F00043C018704700BF2DE9F84F0446914699
S32D0000D40041B301F1FF3BDA46002707EB0A0101EBD1756D1004EBC5063046FFF7E3FF8046681CAB4504EBC000FA
S32D0000D4280DD0FFF7DBFF0138C84504D9BD4209D005F1FF3AE5E7484505D26F1CE1E74FF0FF30F1E7002630469A
S32D0000D450BDE8F88F0E463046BDE8F88F30B52B4B83B004468D1E002B49D0284601A9AFF300800346002822D028
S32D0000D4782A4618460199FFF7BBFF054600281DD0FFF7ACFF6B68A064012B10D0281D002B22DBFFF7A3FF002164
S32D0000D4A0E06421650368002B0FDBFFF79BFF2061002003B030BD002323610520F9E720610920F6E72061092066
S32D0000D4C8F3E7C3F3036058B101280CD002280ED0002020610920E8E70122E0642265DDE7094B2361E1E7094AEF
S32D0000D4F000202261DDE7084900202161D9E7074B0749C81AC2100192B6E700BF0000000029DA000025DA0000AD
S32D0000D51821DA0000FC8D0100EC8F0100036810B50446D80706D4990704F1480009D500F00DFD23685A0709D532
S32D0000D54018070ED5D90613D510BD00F0FBFC23685A07F5D404F1D00000F004FD23681807F0D404F5D87000F036
S32D0000D56805FD2368D906EBD404F50C70BDE8104000F040BD2DE9F0470F1D054691460FCFADF5916D02AC261D09
S32D0000D5900FC60FCF0FC60FCF0FC697E80F00D5F80C80D5F818A0002786E80F00216C27602846FFF753FF06460C
S32D0000D5B8B94514BF4FF00A094FF00909FEB1A16B49F01009616401208DE8100449462A462B46C04700282BD1BA
S32D0000D5E0002E2AD1204692A94FF4107208F092FA082F28D1216C2846FFF730FF06464FF00909002EDFD1206CB3
S32D0000D60821464FF41072686192A808F07FFA2F69294692AA4846B847A09B0746636401208DE8100449462A468C
S32D0000D6302B46C0470028D3D00926304622B00DF5806DBDE8F087072FF6D1201D00F06EFC38B504460D46296C54
S32D0000D6582046FFF7FFFE50B92A6C23696261012021462A4698470828F1D0072801D00AF09DFB281D00F056FC7C
S32D0000D68011B933B10220704704298CBF0220012070470F2A01D90220704700EB820118464A68009B1A6070474D
S32D0000D6A810B50A4684B000210B4603AC0094FFF7E3FF039804B010BD11B933B10220704704298CBF0220012020
S32D0000D6D070470F2A01D902207047009900EB8202096818465160704710B584B004AB0C4643F8042D0021009330
S32D0000D6F822460B46FFF7E0FF04B010BD2DE9F04FCD6C8BB00C4655F8041B174600F008021E46039200F0030823
S32D0000D7200795002B40F0CF8009020691216D8DF821300323B8F1020F8DF8203008BFA56B11F0010340F0D3807B
S32D0000D748019304F158030293D5F80090B9F1000F00F0CB80022E00F0AE80B5F80090B5F802A00435A26C0F2198
S32D0000D7702AF0010B38469344FFF796FF834518D829F0010CE3440AF0010A09F00103584543EA4A092CBF002056
S32D0000D7980120B9F1010F12D032D2B8F1000F02D0002840F01D810435CEE70AF0010A09F0010343EA4A09002092
S32D0000D7C0B9F1010FECD1B8F1000F40F0B680C8B16B68D5F800909A1C19D0029A013309920DD0281DFFF7F8FDE6
S32D0000D7E84FEAD972014609AB204609F049FB002800F0F280099A002A40F0BA800835A3E7B9F1020F03D00920B2
S32D0000D8100BB0BDE8F08F2B6823F000420092B8F1000F71D1002843D00398002840F0A1800098002800F0A08078
S32D0000D838009BDDF80C90DB0705F1040A40F1B480CDF810800596A846029E12E000998D4200F0D9800996FFF7B5
S32D0000D860BBFD5A46014609AB204609F00DFBA946B0B90AF1040A05F1010950460996FFF7ABFD09AB014600228F
S32D0000D888204609F0FDFA0AF1040A834609F101055046BBF1000FD9D04546059EDDF81080009A4A4564D02B68CD
S32D0000D8B0002B7BDB0099481C05EB800548E7D5F804A0083552E70B04C1F30740216D06930222B8F1020F05EB42
S32D0000D8D8800508BFA56B8DF8210011F001038DF820203FF42DAF00200190384606A900F019FC002887D1019A49
S32D0000D900002A43D1082083E70D213846D4F82090FFF7CAFE8145CAD1A26A9542C7D10098291D00220423A0623E
S32D0000D928E26223636163286800286EDB01220192BCE70D213846D4F82090FFF7B1FE81457FF45CAFA16A8D42FE
S32D0000D9507FF458AF2846FFF745FD0F2102463846FFF7C2FE384600212246FFF7BDFE07204EE7009900299BD19B
S32D0000D97838460D21FFF794FE099B20626362A562062041E70F213846FFF78AFE0E2102463846FFF7A5FE3846D5
S32D0000D9A00F211E4AFFF7A0FE072031E7043581E7029950460991FFF70FFD039A014609AB204609F061FA002806
S32D0000D9C87FF46EAFCDF8108005960AF1040A4FF00109A846029E4CE7CDF824800835B3E62846FFF7FBFC0435CB
S32D0000D9F00646A563204609F0BDFA00283FF407AF38460F213246FFF76FFE072000E74546B2E7009B591C05EBD3
S32D0000DA1881009CE7DD70010002236FE601236DE600236BE62DE9F0470446E8B004290CD8DFE801F038039193D2
S32D0000DA400F00150C012B96B200F07881052B00F0C780022068B0BDE8F087002BF9D1102AF7D82368D90600F115
S32D0000DA68738164A8019200F0CFFA019AA36BD00744BF53F8040B6490910744BF53F8041B6591500744BF53F8D3
S32D0000DA90041B6691110748BF53F8042B64A8A36348BF679200F0AAFA0020D3E7002BD0D1A36BD00791B244BF42
S32D0000DAB853F8042B62608A0744BF53F8042BA260480744BF53F8042BE2600A0744BF53F8042B2261C80644BF04
S32D0000DAE053F8042B62618A0644BF53F8042BA261480644BF53F8042BE2610A0644BF53F8042B2262C80544BFDC
S32D0000DB0853F8042B62628A0544BF53F8042BA262480544BF53F8042BE2620A0544BF53F8042B2263C80444BFB3
S32D0000DB3053F8042B626311F400501CBF53F8042BA2634A0444BF53F8042BE2630A0444BF53F8042B2264002890
S32D0000DB5840D1A3637AE7012078E7032B7FF475AF160C95B2AA19102A3FF66FAF2368180700F10B8144A800F026
S32D0000DB801BFAA76B4FEA450E3B460DB344A90EF1FF3C01EBC60653F8040B62460CF0010146F8040B92B129B13A
S32D0000DBA853F8041B013A46F8041B0BD01846314650F8045B41F8045B5D68031D75600E1D023AF3D107EB8E03F6
S32D0000DBD044A8A36300F0CEF900203BE7002039E777192022BA42FFF434AF012B00F0A9800F2D40F2A9803746FF
S32D0000DBF8F6B1052B7FF429AF0F2D11D82268D0070ED522F00101052B2160204600F0DA8022F0030240F8482B3D
S32D0000DC20019300F093F9019B1FB12268510700F1B880012B00F0BF800F2D75D9002F40F0A080D4F83890002E29
S32D0000DC48C8462EDD49460DF1080A4FEA46080AEBC50251F8046B08F1FF3000F0010A42F8046BA8F1020CD0B107
S32D0000DC70BAF1000F08D051F8040B0CF1FF3CBCF1FF3F42F8040B0ED00E46104656F804AB40F804AB4968ACF176
S32D0000DC98020C5160311D021DBCF1FF3FF0D109EB8808A7B3102D2CBF2E4610260DF5D079414609EBC60CACF59D
S32D0000DCC0C8724FEA470951F8046B09F1FF3000F0010A42F8046BA9F1020CD0B1BAF1000F08D051F8040B0CF1DE
S32D0000DCE8FF3CBCF1FF3F42F8040B0ED00E46104656F804AB40F804AB4968ACF1020C5160311D021DBCF1FF3FCE
S32D0000DD10F0D108EB8908012B2BD00F2DC4F8388008D9FFB9384695E602A8019300F016F9019B83E702A800F05A
S32D0000DD380DF9F2E77719102250E70F2D3FF685AE102F10D9103F54E723F01003236004F50C70019200F058F99D
S32D0000DD60019A82E624A800F0FDF8002072E6002746E708F1040302A8A36300F0E3F8002068E624A80193C5F116
S32D0000DD88100600F0EFF8019B57E723F0080704F5D870276000F00CF9ECE6204622F0040140F8D01B019300F0D1
S32D0000DDB0DDF8019B3DE702A8019300F0C7F8019B002F3FF43EAFC5F110063AE741F0020140F8481B019300F098
S32D0000DDD8C1F8019B24E700BF406C7047F0B50D460F1DC96B296404460FCFADF5117D01AE0FC60FCF0FC60FCF49
S32D0000DE000FC697E80F0086E80F004FF0FF33009310992046FFF722FB58B9266921466A46B04708280646F3D001
S32D0000DE286846FFF77BFB062E03D009200DF5117DF0BD20462946FFF707FC00BF10B4DC6BC16082611946002228
S32D0000DE501C6410BCFFF792BB38B54269C3680A6404460D4623B10122FFF788FB09F0A2FF0369214602202A46D8
S32D0000DE789847072803D0082804D009F097FF281D00F050F820462946FFF7DEFBC36823B1CA6B0A640022FFF72D
S32D0000DEA06DBB9FE7704700BF08B5836801460BB10120984708BD00BFF0B5D46B171D146405460C460FCFADF554
S32D0000DEC8277D01AE0FC60FCF0FC60FCF0FC697E80F0086E80F004FF0FF330093109990A8FFF7B8FA034690AA83
S32D0000DEF068460C21BBB9FFF7F7FB21466846A847064690A908206A466EB9949B98470528064601D00928E5D106
S32D0000DF186846FFF703FB30460DF5277DF0BD0926F6E700BF00F1340191E838009C46A6464CF8045D90E8FF0FD5
S32D0000DF40E54600BD90EC210B704700BF80EC210B704700BF90EC200B704700BF80EC200B704700BFD0EC200B8E
S32D0000DF68704700BFC0EC200B704700BFF0EC0201F0EC0211F0EC0221F0EC0231F0EC0241F0EC0251F0EC02615F
S32D0000DF90F0EC0271F0EC0281F0EC0291F0EC02A1F0EC02B1F0EC02C1F0EC02D1F0EC02E1F0EC02F1704700BFE6
S32D0000DFB8E0EC0201E0EC0211E0EC0221E0EC0231E0EC0241E0EC0251E0EC0261E0EC0271E0EC0281E0EC029155
S32D0000DFE0E0EC02A1E0EC02B1E0EC02C1E0EC02D1E0EC02E1E0EC02F1704700BFB0FC0181B0FC0191B0FC01A159
S32D0000E008B0FC01B1704700BFA0FC0181A0FC0191A0FC01A1A0FC01B1704700BFEC4600B52DE900502DE9FF1F47
S32D0000E0304FF000032DE90C0001A9FFF7D3FEDDF840E012B0704700BFEC4600B52DE900502DE9FF1F4FF00003FD
S32D0000E0582DE90C0001A9FFF7FBFEDDF840E012B0704700BFEC4600B52DE900502DE9FF1F4FF000032DE90C00CD
S32D0000E08001A9FFF707FFDDF840E012B0704700BFEC4600B52DE900502DE9FF1F4FF000032DE90C0001ABFFF718
S32D0000E0A8CDFEDDF840E012B0704700BFEC4600B52DE900502DE9FF1F4FF000032DE90C0001AAFFF7F5FEDDF804
S32D0000E0D040E012B0704700BF027A03461AB9427A42B9B02070470068013A01021A72000E196070474168501E6D
S32D0000E0F8587251F8040B0322596001021A72000E1960704710B5002184B00C220DEB02040B460094FFF7B0FA62
S32D0000E120039804B010BD00BFF0E700BF2DE9F043064685B00D464FF000094FF47F672846FFF7CAFFB028044683
S32D0000E14800F0B08010F0800120D000F0F003802B74D0902B37D0A02B45D0B02B56D0C02B00F0858000F0F800DB
S32D0000E170D0280BD104F00702511C41F40022304601210523FFF752FC0028D8D0092005B0BDE8F0834FEA800267
S32D0000E19803A85FFA82F800900D220B463046FFF76BFA039B600608F104084CBFC8EB0303434403AC03930094CD
S32D0000E1C0002130460D220B46FFF77AFAB7E700F00F020D2ADAD00F2AD8D0002103AC009430460B4603ACFFF77F
S32D0000E1E84BFA0094E8E7C24302F0070C47FA0CF0210700F47F6248BF42F48042002130460B46FFF70FFC00280D
S32D0000E210BCD194E7B1285DD0B2286ED0B32800F0958000F0FC02B42A46D000F00702531C43F40022012130469F
S32D0000E2380B46FFF7F7FB0028A4D17CE72846FFF747FF210240EA0104B4F5004F9AD0230500211A0C30460B46EB
S32D0000E2602401FFF7E3FB002890D114F4004F18BF4FF0010963E7C62873D0C72800F0848000F0F802C02A00F075
S32D0000E2889280C82800F0A680C9287FF47BAF2846FFF71EFF00F00F0300F0F0015A1C42EA013268E7B9F1000F81
S32D0000E2B000F0838000206AE700F00301481C022140F480220B463046FFF7B0FB00287FF45DAF34E72846FFF7FD
S32D0000E2D8FFFE024600283FF455AF10F0F0017FF451AF30460B46FFF79DFB00287FF44AAF21E700210D220B467E
S32D0000E30003AC30460094FFF7BBF92846FFF7E4FE022402060DD5039B00F07F0000FA04FE03EB0E01284603912E
S32D0000E328FFF7D6FE07340306F1D4039B00F07F0103AA03F5017C01FA04F400920CEB0402039239E72846FFF729
S32D0000E350C3FE00F00F03591C00F0F00041EA003268E72846FFF7B8FE00F00F03591C00F0F00041EA00320321E9
S32D0000E37830460B46FFF756FB00287FF403AFDAE62846FFF7A5FE024600283FF4FBAE10F0F0037FF4F7AE304688
S32D0000E3A00421FFF743FB00287FF4F0AEC7E600F00F01481C40F42022DDE703AC49460E224B4630460094FFF773
S32D0000E3C85BF9304649460F224B460094FFF774F94846D8E62846FFF77BFE00F0F00200F00F001032431C43EA3D
S32D0000E3F00232C4E610B5C26C84B0032054688DF80C00D37924020832084601A9019402928DF80D30FFF78AFE7D
S32D0000E41804B010BD08B5FFF783FE806C08BD00BF08B5FFF77DFEC16CC87901EB800303F1080008BD08B509F02F
S32D0000E440B9FC00BF08B509F0B5FC00BF80B582B000AF43F20070C1F6FF704FF0050104F033FE43F20070C1F66D
S32D0000E468FF704FF0060104F089FE43F2B860C1F6FF7006F093FC43F2B860C1F6FF7007F047F943F20070C1F658
S32D0000E490FF7004F043FE43F20070C1F6FF7047F67471C0F2010104F0A3FF00BF43F23860C1F6FF7003F078FF67
S32D0000E4B8034683F00103DBB2002B1AD043F23860C1F6FF7003F08CFF034683F00103DBB2002B0ED043F2386040
S32D0000E4E0C1F6FF7003F0A4FF034683F00103DBB2002B02D04FF0010301E04FF00003002BD4D143F23860C1F64E
S32D0000E508FF7003F06DFF0346002B0DD000BF43F23860C1F6FF7003F077FF034683F00103DBB2002BF3D128E067
S32D0000E53043F23860C1F6FF7003F036FF0346002B0FD000BF43F23860C1F6FF7003F03EFF034683F00103DBB220
S32D0000E558002BF3D101F0CCFE56E000BF43F23860C1F6FF7003F074FF034683F00103DBB2002BF3D101F01CFB59
S32D0000E58046E001F0CDFA43F20070C1F6FF7004F0C5FD43F24860C1F6FF701E4904F094F801F000FA01F06AFFDF
S32D0000E5A801F0F4FF03467B60786802F063F902F00BFA02F0A9FA43F20070C1F6FF7047F6E471C0F2010104F07E
S32D0000E5D00FFF00BF43F23860C1F6FF7003F004FF034683F00103DBB2002BF3D100BF43F23860C1F6FF7003F086
S32D0000E5F80BFF034683F00103DBB2002BF3D14FF4FA7002F0EFFF3CE73BE700BF0000F04180B483B000AF7860FF
S32D0000E6207B6823F00043184607F10C07BD4680BC704700BF00000000B0B584B000AFF860B960FA71BB71BB79F1
S32D0000E648002B00F0B68043F28060C1F6FF7003F013FE43F29C60C1F6FF7003F00DFE43F20070C1F6FF7048F2BA
S32D0000E6700801C0F2010104F0BBFE43F27C60C1F6FF7003F057F90346002BF6D100BF43F27C60C1F6FF7003F074
S32D0000E6984DF9034683F00103DBB2002BF3D1F868FEF716F802460B4610461946C2A3D3E90023FEF761F8024647
S32D0000E6C00B4610461946FEF7F5FA034643F24060C1F6FF70194602F0B1FCF868FEF756FE034643F24460C1F67E
S32D0000E6E8FF70194602F0A6FC43F27C60C1F6FF7003F01CF90346002BF6D100BF43F27C60C1F6FF7003F012F934
S32D0000E710034683F00103DBB2002BF3D143F24060C1F6FF7002F06CFC43F24460C1F6FF7002F066FC43F2007052
S32D0000E738C1F6FF7004F0EEFC43F20070C1F6FF7048F22C01C0F2010104F06CFD43F29C60C1F6FF7003F084FDA1
S32D0000E760024613464FEA83039B1843F20070C1F6FF70194604F050FE43F20070C1F6FF7048F24801C0F201010A
S32D0000E78804F032FE43F27C60C1F6FF7003F0CEF80346002BF6D100BF43F27C60C1F6FF7003F0C4F8034683F0B3
S32D0000E7B00103DBB2002BF3D1FBE0F868FDF78CFF02460B46104619467DA3D3E90023FDF7D7FF02460B461046FB
S32D0000E7D81946FEF76BFA034643F24060C1F6FF70194602F027FCF868FEF7CCFD034643F24460C1F6FF701946DD
S32D0000E80002F01CFC43F28060C1F6FF7003F038FD43F29C60C1F6FF7003F032FD98E043F29C60C1F6FF7003F042
S32D0000E8281FFD014646F26763C6F2666383FB01234FEAA3024FEAE173D21A13464FEA83039B184FEA4303CA1AB5
S32D0000E850002A05D1FB79002B02D04FF0010301E04FF00003002B39D043F29C60C1F6FF7003F0FAFC0346002BDB
S32D0000E8780CBF00230123DBB2002B2BD043F29C60C1F6FF7003F0ECFC03461846FEF760FB03461846F968FEF787
S32D0000E8A0AFFB03461C4643F29C60C1F6FF7003F0DBFC03461846FEF74FFB034620461946FEF752FC03461846F6
S32D0000E8C8FEF760FD034643F24060C1F6FF70194602F0B0FB43F20070C1F6FF7004F01AFC43F20070C1F6FF70F0
S32D0000E8F048F26401C0F2010104F098FC43F29C60C1F6FF7003F0B0FC034643F20070C1F6FF70194604F080FD45
S32D0000E91843F20070C1F6FF7048F28801C0F2010104F080FC43F29C60C1F6FF7003F098FC034643F20070C1F69C
S32D0000E940FF70194604F068FD4FF0320002F04EFE43F29C60C1F6FF7003F086FC03461846FEF7FAFA0546B8680C
S32D0000E9681749FEF749FB03464FF00102144628461946FEF7DFFC0346002B02D14FF000031C46E3B2002B7FF448
S32D0000E99046AF43F24060C1F6FF704FF0000102F04DFB43F24460C1F6FF704FF0000102F045FB07F11007BD466C
S32D0000E9B8B0BD00BFAFF30080666666666666F23F0000A040AFF30080B0B586B000AFF860B9601346FB71944BED
S32D0000E9E07B61F868FDF778FE02460B46104619468DA3D3E90023FDF7C3FE02460B4610461946FEF757F9034675
S32D0000EA0843F24060C1F6FF70194602F013FBF868FEF7B8FC034643F24460C1F6FF70194602F008FB43F28060CC
S32D0000EA30C1F6FF7003F024FC43F29C60C1F6FF7003F01EFCB7E043F29C60C1F6FF7003F00BFC014646F26763EA
S32D0000EA58C6F2666383FB01234FEAA3024FEAE173D21A13464FEA83039B184FEA4303CA1A002A05D1FB79002B49
S32D0000EA8002D04FF0010301E04FF00003002B39D043F29C60C1F6FF7003F0E6FB0346002B0CBF00230123DBB2BE
S32D0000EAA8002B2BD043F29C60C1F6FF7003F0D8FB03461846FEF74CFA03461846F968FEF79BFA03461C4643F2A9
S32D0000EAD09C60C1F6FF7003F0C7FB03461846FEF73BFA034620461946FEF73EFB03461846FEF74CFC034643F2D2
S32D0000EAF84060C1F6FF70194602F09CFA43F20070C1F6FF7004F006FB43F20070C1F6FF7048F26401C0F2010165
S32D0000EB2004F084FB43F29C60C1F6FF7003F09CFB034643F20070C1F6FF70194604F06CFC43F20070C1F6FF70D9
S32D0000EB4848F28801C0F2010104F06CFB43F29C60C1F6FF7003F084FB034643F20070C1F6FF70194604F054FC4D
S32D0000EB7043F23C60C1F6FF7002F092FF03464FF00102144618467969FEF7D8FB0346002B02D14FF000031C4625
S32D0000EB98E3B2002B07D043F23C60C1F6FF7002F07BFF03467B614FF0320002F01BFD43F29C60C1F6FF7003F06B
S32D0000EBC053FB03461846FEF7C7F90546B8681949FEF716FA03464FF00102144628461946FEF7ACFB0346002BE9
S32D0000EBE802D14FF000031C46E3B2002B7FF427AF43F24060C1F6FF704FF0000102F01AFA43F24460C1F6FF703F
S32D0000EC104FF0000102F012FA7B69184607F11807BD46B0BDAFF30080666666666666F23F333353400000A0403F
S32D0000EC38B0B584B000AFF860B9607A6043F28060C1F6FF7003F018FB43F29C60C1F6FF7003F012FBF868FDF72F
S32D0000EC603BFD02460B461046194653A3D3E90023FDF786FD02460B4610461946FEF71AF8034643F24060C1F68A
S32D0000EC88FF70194602F0D6F9F868FEF77BFB034643F24460C1F6FF70194602F0CBF9BB68002B08D143F26C607F
S32D0000ECB0C1F6FF7002F03EFE0346002B23D1BB68012B08D143F27060C1F6FF7002F032FE0346002B17D1BB6886
S32D0000ECD8022B08D143F27460C1F6FF7002F026FE0346002B0BD1BB68032B2BD143F27860C1F6FF7002F01AFEE9
S32D0000ED000346002B22D043F29C60C1F6FF7003F0ABFA03461846FEF71FF9054678682849FEF76EF903464FF05C
S32D0000ED280102144628461946FEF704FB0346002B02D14FF000031C46E3B2002B02D04FF0010301E04FF00003BC
S32D0000ED50002BA8D143F24060C1F6FF7002F050F943F24460C1F6FF7002F04AF943F29C60C1F6FF7003F078FACB
S32D0000ED7803461846FEF7ECF8054678680E49FEF73BF903464FF00102144628461946FEF7D1FA0346002B02D189
S32D0000EDA04FF000031C46E3B2184607F11007BD46B0BD00BFAFF30080666666666666F23F0000A040AFF30080B7
S32D0000EDC890B587B000AFF860B960FA71BB7175E0FB79002B18D043F2B860C1F6FF7006F061FD03464FF00104BA
S32D0000EDF01846B968FEF7A2FA0346002B01D14FF00004BB799C4214BF00230123FB7517E043F2B860C1F6FF7056
S32D0000EE1806F038FD03464FF001041846B968FEF789FA0346002B01D14FF00004BB799C4214BF00230123FB75F8
S32D0000EE40FB7D002B01D0504B00E0504B184650494FF000024FF00003FFF7EEFB43F20070C1F6FF7048F2AC010F
S32D0000EE68C0F2010104F0DEF943F2B860C1F6FF7006F008FD034643F20070C1F6FF70194604F0DAFA43F20070AF
S32D0000EE90C1F6FF7048F2B401C0F2010104F0C6F943F2B860C1F6FF7006F000FD034643F20070C1F6FF701946FF
S32D0000EEB804F0C2FA4FF0C80002F094FBFB79002B1FD043F2B860C1F6FF7006F0EBFC0346B8681946FDF786FFD5
S32D0000EEE003461846FFF798FB03464FF00102144618462849FEF740FA0346002B02D14FF000031C46E3B2002B46
S32D0000EF0825D1FB7983F00103DBB2002B22D043F2B860C1F6FF7006F0B5FC0346B8681946FDF760FF0346184674
S32D0000EF30FFF772FB03464FF00102144618461549FEF71AFA0346002B02D14FF000031C46E3B2002B02D04FF0EA
S32D0000EF58010301E04FF00003002B7FF439AF43F24060C1F6FF7002F047F843F24460C1F6FF7002F041F807F190
S32D0000EF801C07BD4690BD00BF0000DC420000DCC20000803E0000003F90B585B000AFF860B960FA71BB7145E022
S32D0000EFA8F868FEF7EFF9034643F24060C1F6FF70194602F03FF8F868FEF7E4F9034643F24460C1F6FF70194659
S32D0000EFD002F034F843F20070C1F6FF7048F2AC01C0F2010104F022F943F2B860C1F6FF7006F04CFC034643F251
S32D0000EFF80070C1F6FF70194604F01EFA43F20070C1F6FF7048F2B401C0F2010104F00AF943F2B860C1F6FF7012
S32D0000F02006F044FC034643F20070C1F6FF70194604F006FAFB79002B36D0BB79002B16D043F2B860C1F6FF70C8
S32D0000F04806F030FC03464FF0010214461846B968FEF770F90346002B02D14FF000031C46E3B2002B59D1BB79AD
S32D0000F07083F00103DBB2002B16D043F2B860C1F6FF7006F013FC03464FF0010214461846B968FEF771F90346D9
S32D0000F098002B02D14FF000031C46E3B2002B3CD1FB7983F00103DBB2002B39D0BB79002B16D043F2B860C1F6E6
S32D0000F0C0FF7006F0E3FB03464FF0010214461846B968FEF733F90346002B02D14FF000031C46E3B2002B1CD1C2
S32D0000F0E8BB7983F00103DBB2002B19D043F2B860C1F6FF7006F0C6FB03464FF0010214461846B968FEF734F9FE
S32D0000F1100346002B02D14FF000031C46E3B2002B02D04FF0010301E04FF00003002B7FF43BAF43F24060C1F6DA
S32D0000F138FF7001F061FF43F24460C1F6FF7001F05BFF07F11407BD4690BD00BF00000000F0B585B000AFB960DB
S32D0000F1607A600246FA73BB73FB7B83F00103DBB2002B28D0B868FEF709F9034643F24460C1F6FF70194601F078
S32D0000F18859FFBB6883F000431846FDF7A1FA02460B461046194668A3D3E90023FDF7ECFA02460B4610461946DB
S32D0000F1B0FDF780FD034643F24060C1F6FF70194601F03CFF27E0BB6883F000431846FEF7DDF8034643F24460C7
S32D0000F1D8C1F6FF70194601F02DFFB868FDF778FA02460B461046194653A3D3E90023FDF7C3FA02460B4610461E
S32D0000F2001946FDF757FD034643F24060C1F6FF70194601F013FF43F28060C1F6FF7003F02FF843F29C60C1F656
S32D0000F228FF7003F029F839E043F20070C1F6FF7003F070FF43F20070C1F6FF7048F26401C0F2010103F0EEFFF1
S32D0000F25043F29C60C1F6FF7003F006F8034643F20070C1F6FF70194604F0D6F843F20070C1F6FF7048F2880185
S32D0000F278C0F2010103F0D6FF43F29C60C1F6FF7002F0EEFF034643F20070C1F6FF70194604F0BEF84FF0320028
S32D0000F2A002F0A4F943F29C60C1F6FF7002F0DCFF03461846FDF7FEF904460D467868FDF74BFE0246FB7B002B58
S32D0000F2C805D040F20443C1F6FF731B6804E040F20043C1F6FF731B6810461946FDF78CFE03461846FDF7F4F95E
S32D0000F2F002460B464FF001010E4620462946FDF7B1FC0346002B02D14FF000031E46F3B2002B8DD143F240605C
S32D0000F318C1F6FF704FF0000101F08CFE43F24460C1F6FF704FF0000101F084FE07F11407BD46F0BDAFF300804F
S32D0000F340666666666666F23FB0B586B000AFF860B9607A60FB70F868FDF7FEFD054643F2B860C1F6FF7006F007
S32D0000F368B1FA03464FF00102144628461946FDF7E1FF0346002B02D14FF000031C46E3B2002B14D0FB6803F160
S32D0000F390B4031846FDF7E0FD044643F2B860C1F6FF7006F093FA034620461946FDF71EFD03467B6110E0F86897
S32D0000F3B8FDF7CEFD044643F2B860C1F6FF7006F081FA034620461946FDF70CFD03467B61F868FDF7BDFD0546B1
S32D0000F3E043F2B860C1F6FF7006F070FA03464FF00102144628461946FDF7BEFF0346002B02D14FF000031C46DE
S32D0000F408E3B2002B17D043F2B860C1F6FF7006F059FA034618463949FDF7E6FC03461C46F868FDF795FD03469A
S32D0000F43020461946FDF7DAFC03463B6110E043F2B860C1F6FF7006F041FA0446F868FDF783FD0346204619467A
S32D0000F458FDF7C8FC03463B617B68012B33D0022B3CD0002B45D14FF001031C4678693969FDF760FF0346002B6E
S32D0000F48002D14FF000031C46E3B2002B0FD07869B96AFDF7B5FD03461846FDF777FF0246FB784FF00000B96872
S32D0000F4A8FFF756FE25E03869B96AFDF7A5FD03461846FDF767FF0246FB784FF00100B968FFF746FE15E0786960
S32D0000F4D0FDF75CFF0246FB784FF00000B968FFF73BFE0AE03869FDF751FF0246FB784FF00100B968FFF730FE66
S32D0000F4F800BF07F11807BD46B0BD00BF00003443B0B586B002AF7860396002F085F802460B4610461946FDF7FC
S32D0000F520C9FB0346FB600DE0304B0093786839684FF000024FF00003FFF706FF4FF0C80002F054F87868FDF742
S32D0000F54807FD044643F2B860C1F6FF7006F0BAF9034620461946FDF745FC03461846FFF757F803464FF0010271
S32D0000F570144618461E49FDF7FFFE0346002B02D14FF000031C46E3B2002B27D002F048F804460D46F868FDF798
S32D0000F5988DF802460B4620462946FCF739FF02460B464FF001010C46104619464FF000024FF0804303F50023E8
S32D0000F5C0FDF750FB0346002B02D14FF000031C46E3B2002B02D04FF0010301E04FF00003002BA1D107F110074F
S32D0000F5E8BD46B0BD0000803E0000A04000000000B0B584B000AFF8600B467A60FB7243F29C60C1F6FF7002F066
S32D0000F61037FE43F28060C1F6FF7002F031FEFB7A83F00103DBB2002B28D0F868FDF7AEFE034643F24460C1F6C6
S32D0000F638FF70194601F0FEFCFB6883F000431846FDF746F802460B461046194670A3D3E90023FDF791F802463D
S32D0000F6600B4610461946FDF725FB034643F24060C1F6FF70194601F0E1FC62E0FB6883F000431846FDF782FEC4
S32D0000F688034643F24460C1F6FF70194601F0D2FCF868FDF71DF802460B46104619465CA3D3E90023FDF768F805
S32D0000F6B002460B4610461946FDF7FCFA034643F24060C1F6FF70194601F0B8FC39E043F20070C1F6FF7003F0D5
S32D0000F6D821FD43F20070C1F6FF7048F26401C0F2010103F09FFD43F29C60C1F6FF7002F0B7FD034643F200704E
S32D0000F700C1F6FF70194603F087FE43F20070C1F6FF7048F28801C0F2010103F087FD43F29C60C1F6FF7002F0DC
S32D0000F7289FFD034643F20070C1F6FF70194603F06FFE4FF0320001F055FF43F2B860C1F6FF7006F04DF8034697
S32D0000F75083F00103DBB2002B55D0FB7A002B24D043F29C60C1F6FF7002F07EFD03461846FDF7F2FB054640F2DA
S32D0000F7780043C1F6FF731B6818467968FDF73CFC03464FF00102144628461946FDF7D2FD0346002B02D14FF00E
S32D0000F7A000031C46E3B2002B2AD1FB7A83F00103DBB2002B27D043F29C60C1F6FF7002F053FD03461846FDF74C
S32D0000F7C8C7FB054640F20443C1F6FF731B6818467968FDF711FC03464FF00102144628461946FDF7A7FD03460E
S32D0000F7F0002B02D14FF000031C46E3B2002B02D04FF0010301E04FF00003002B7FF45FAF07F11007BD46B0BD26
S32D0000F818666666666666F23F80B582B000AF786039607B68012B40F0AA803A684FF6FF739A4240F0A48043F27F
S32D0000F8403860C1F6FF704FF0030102F027FD43F23C60C1F6FF704FF0080102F00FF943F24060C1F6FF704FF010
S32D0000F868000101F0B5FB43F24460C1F6FF704FF0010101F0ADFB43F24860C1F6FF704FF0000102F0FFFE43F290
S32D0000F8905460C1F6FF704FF0040102F0F7FE43F26060C1F6FF704FF0040102F0E7F843F26460C1F6FF704FF0B7
S32D0000F8B80C0102F0DFF843F26860C1F6FF704FF0140102F0D7F843F26C60C1F6FF704FF0100101F0FBFE43F27E
S32D0000F8E07060C1F6FF704FF00F0101F0F3FE43F27460C1F6FF704FF0070101F0EBFE43F27860C1F6FF704FF011
S32D0000F908110101F0E3FE43F27C60C1F6FF704FF0170101F0DBFE43F28060C1F6FF704FF0000102F0F7FA42F203
S32D0000F930B103C0F2010343F28060C1F6FF70194643F28C72C1F6FF7207F076F943F29C60C1F6FF704FF001014C
S32D0000F95802F0E0FA42F2B103C0F2010343F29C60C1F6FF70194643F28C72C1F6FF7207F05FF943F2B860C1F6B3
S32D0000F980FF7005F0CBF907F10807BD4680BD00BF80B500AF4FF001004FF6FF71FFF740FF80BD00BF90B587B0A5
S32D0000F9A802AF43F24860C1F6FF70524902F088FE514852494FF000024FF00003FEF738FE4F4B00934FF000001C
S32D0000F9D04B494FF001024FF00003FFF7B5FC48484A494FF000024FF00003FEF725FE464B00934FF05A00424944
S32D0000F9F84FF001024FF00003FFF7A2FC4FF00003FB6046E043F2B860C1F6FF7005F0D4FE0346BB6038484FF0A9
S32D0000FA200001384AFFF708F90346FB71344838494FF000024FF00003FEF7FEFD354836494FF000024FF000039A
S32D0000FA48FEF7F6FD43F2B860C1F6FF7005F0B4FE0246BB689A4214BF00230123DBB2002B13D0274B00934FF04E
S32D0000FA705A0023494FF000024FF00003FFF764FC4FF001001E494FF005024FF00003FFF763FBFB6803F10103EB
S32D0000FA98FB6043F2B860C1F6FF7005F08DFE044643F2B860C1F6FF7005F074FE03469C4205DAFB68062B02DC56
S32D0000FAC04FF0010301E04FF00003002B9ED1114812494FF000024FF00003FEF7ADFD0A4B00934FF000000649CC
S32D0000FAE84FF002024FF00003FFF72AFC07F11407BD4690BD000034420000DC420000A0400000803F0000104168
S32D0000FB100000003F0000DCC20000C03F0000804098B500AF21E043F20070C1F6FF7003F0F5FA43F20070C1F625
S32D0000FB38FF7048F26411C0F2010103F073FB43F23C60C1F6FF7001F0A7FF034643F20070C1F6FF70194603F078
S32D0000FB606FFC4FF0C80001F041FD43F23C60C1F6FF7001F095FF03461846FCF7ADFD02460B464FF001010C46EA
S32D0000FB881046194608A3D3E90023FDF785F80346002B02D14FF000031C46E3B2002BBED198BD00BFAFF300802F
S32D0000FBB0CDCCCCCCCCCCFC3F80B500AF43F20070C1F6FF7048F21C31C0F2010103F010FC00BF43F23860C1F6F7
S32D0000FBD8FF7002F0E5FB034683F00103DBB2002B1AD043F23860C1F6FF7002F01DFC034683F00103DBB2002BE6
S32D0000FC000ED043F23860C1F6FF7002F0EDFB034683F00103DBB2002B02D04FF0010301E04FF00003002BD4D1AB
S32D0000FC2843F23860C1F6FF7002F0BAFB0346002B00F01B8100BF43F23860C1F6FF7002F0C1FB034683F00103F4
S32D0000FC50DBB2002BF3D143F20070C1F6FF7003F05DFA43F20070C1F6FF7048F2A031C0F2010103F0BDFB43F28B
S32D0000FC780070C1F6FF7048F2C831C0F2010103F0B3FB00BF43F23860C1F6FF7002F0A8FB034683F00103DBB2AC
S32D0000FCA0002BF3D100BF43F23860C1F6FF7002F0AFFB034683F00103DBB2002BF3D143F24060C1F6FF706FF063
S32D0000FCC86D0101F0B7F943F24460C1F6FF704FF06E0101F0AFF943F28060C1F6FF7002F0CBFA43F29C60C1F6DF
S32D0000FCF0FF7002F0C5FA43F27C60C1F6FF7001F019FE0346002BF6D143F20070C1F6FF7003F004FA43F24060BB
S32D0000FD18C1F6FF7001F070F943F24460C1F6FF7001F06AF943F20070C1F6FF7048F2EC31C0F2010103F076FAB1
S32D0000FD4043F28060C1F6FF7002F08EFA034643F20070C1F6FF70194603F05EFB43F20070C1F6FF7048F20841D3
S32D0000FD68C0F2010103F05EFA43F29C60C1F6FF7002F076FA034643F20070C1F6FF70194603F046FB43F2007069
S32D0000FD90C1F6FF7048F22841C0F2010103F046FA43F28060C1F6FF7002F05EFA03461846FCF780FC02460B4661
S32D0000FDB8104619464FF000024FF08243A3F5D303FCF704FE02460B4643F20070C1F6FF7003F046FB43F2007083
S32D0000FDE0C1F6FF7048F24841C0F2010103F01EFA43F29C60C1F6FF7002F036FA03461846FCF758FC02460B464D
S32D0000FE08104619464FF000024FF08243A3F5D303FCF7DCFD02460B4643F20070C1F6FF7003F01EFB43F2806013
S32D0000FE30C1F6FF7002F018FA03461846FCF73AFC02460B46104619464FF000024FF08243A3F5D303FCF7BEFDFB
S32D0000FE5802460B4610461946FCF770FF024640F20043C1F6FF731A601CE243F23860C1F6FF7002F0D9FA03466D
S32D0000FE80002B00F01B8100BF43F23860C1F6FF7002F0E2FA034683F00103DBB2002BF3D143F20070C1F6FF7016
S32D0000FEA803F038F943F20070C1F6FF7048F2A031C0F2010103F098FA43F20070C1F6FF7048F2C831C0F2010147
S32D0000FED003F08EFA00BF43F23860C1F6FF7002F083FA034683F00103DBB2002BF3D100BF43F23860C1F6FF707A
S32D0000FEF802F08AFA034683F00103DBB2002BF3D143F24060C1F6FF704FF06E0101F092F843F24460C1F6FF7007
S32D0000FF206FF06D0101F08AF843F28060C1F6FF7002F0A6F943F29C60C1F6FF7002F0A0F943F27C60C1F6FF708E
S32D0000FF4801F0F4FC0346002BF6D143F20070C1F6FF7003F0DFF843F24060C1F6FF7001F04BF843F24460C1F61B
S32D0000FF70FF7001F045F843F20070C1F6FF7048F2EC31C0F2010103F051F943F28060C1F6FF7002F069F90346DB
S32D0000FF9843F20070C1F6FF70194603F039FA43F20070C1F6FF7048F20841C0F2010103F039F943F29C60C1F6DC
S32D0000FFC0FF7002F051F9034643F20070C1F6FF70194603F021FA43F20070C1F6FF7048F22841C0F2010103F0D2
S32D0000FFE821F943F28060C1F6FF7002F039F903461846FCF75BFB02460B46104619464FF000024FF08243A3F557
S32D00010010D303FCF7DFFC02460B4643F20070C1F6FF7003F021FA43F20070C1F6FF7048F24841C0F2010103F076
S32D00010038F9F843F29C60C1F6FF7002F011F903461846FCF733FB02460B46104619464FF000024FF08243A3F562
S32D00010060D303FCF7B7FC02460B4643F20070C1F6FF7003F0F9F943F28060C1F6FF7002F0F3F803461846FCF7FA
S32D0001008815FB02460B46104619464FF000024FF08243A3F5D303FCF799FC02460B4610461946FCF74BFE0246DE
S32D000100B040F20443C1F6FF731A60F7E000BF43F23860C1F6FF7002F0A3F9034683F00103DBB2002BF3D143F27D
S32D000100D80070C1F6FF7003F01DF843F20070C1F6FF7048F26C41C0F2010103F07DF943F20070C1F6FF7048F287
S32D00010100C831C0F2010103F073F900BF43F23860C1F6FF7002F068F9034683F00103DBB2002BF3D100BF43F28F
S32D000101283860C1F6FF7002F06FF9034683F00103DBB2002BF3D143F24060C1F6FF704FF06E0100F077FF43F210
S32D000101504460C1F6FF704FF06E0100F06FFF43F28060C1F6FF7002F08BF843F29C60C1F6FF7002F085F843F2FF
S32D000101787C60C1F6FF7001F0D9FB0346002BF6D143F20070C1F6FF7002F0C4FF43F24060C1F6FF7000F030FFBC
S32D000101A043F24460C1F6FF7000F02AFF43F20070C1F6FF7048F2EC31C0F2010103F036F843F28060C1F6FF70E6
S32D000101C802F04EF8034643F20070C1F6FF70194603F01EF943F20070C1F6FF7048F20841C0F2010103F01EF848
S32D000101F043F29C60C1F6FF7002F036F8034643F20070C1F6FF70194603F006F943F20070C1F6FF7048F28C4132
S32D00010218C0F2010103F006F843F28060C1F6FF7002F01EF803461846FCF740FA02460B46104619464FF000026C
S32D000102404FF0804303F58403FCF7C4FB02460B4643F20070C1F6FF7003F006F943F20070C1F6FF7048F2484178
S32D00010268C0F2010102F0DEFF43F29C60C1F6FF7001F0F6FF03461846FCF718FA02460B46104619464FF000026C
S32D000102904FF0804303F58403FCF79CFB02460B4643F20070C1F6FF7003F0DEF843F20070C1F6FF7048F2AC4115
S32D000102B8C0F2010103F098F800BF43F23860C1F6FF7002F08DF8034683F00103DBB2002BF3D100BF43F23860EF
S32D000102E0C1F6FF7002F094F8034683F00103DBB2002BF3D180BD00BF80B500AF2BE043F20070C1F6FF7002F067
S32D0001030809FF43F20070C1F6FF7048F2D441C0F2010103F069F843F20070C1F6FF7048F2FC21C0F2010102F0D4
S32D000103307DFF43F2B860C1F6FF7005F0A7FA034643F20070C1F6FF70194603F079F84FF0140001F04BF943F285
S32D000103583860C1F6FF7002F043F8034683F00103DBB2002BC7D100BF43F23860C1F6FF7002F04AF8034683F0D9
S32D000103800103DBB2002BF3D143F2B860C1F6FF7005F07CFA024640F20843C1F6FF731A602BE043F20070C1F621
S32D000103A8FF7002F0B7FE43F20070C1F6FF7048F20C51C0F2010103F017F843F20070C1F6FF7048F2FC21C0F224
S32D000103D0010102F02BFF43F2B860C1F6FF7005F055FA034643F20070C1F6FF70194603F027F84FF0140001F060
S32D000103F8F9F843F23860C1F6FF7001F0F1FF034683F00103DBB2002BC7D100BF43F23860C1F6FF7001F0F8FF67
S32D00010420034683F00103DBB2002BF3D143F2B860C1F6FF7005F02AFA024640F20C43C1F6FF731A6080BD00BF7D
S32D0001044880B500AF43F25460C1F6FF70074902F037F94FF4FA6001F0C5F843F25460C1F6FF70034902F02CF963
S32D0001047080BD00BF0000F0410000E64280B582B002AF43F24860C1F6FF70384902F01CF937484FF00101354A26
S32D00010498FEF7CEFB354B00934FF05A0034494FF002024FF00003FEF74BFF4FF0FA0001F099F84FF05A002E49BF
S32D000104C0FFF722F82C482D494FF000024FF00003FEF7B2F82A482B494FF000024FF00103FEF772FC234B009323
S32D000104E84FF0000022494FF001024FF00003FEF727FF4FF000001E49FFF702F81C484FF000011F4AFEF794FB75
S32D0001051017481E494FF000024FF00003FEF78CF8144B00934FF0870013494FF002024FF00003FEF709FF43F22F
S32D000105384860C1F6FF70144902F0C2F80C484FF000010D4AFFF754F84FF000000849FEF7D7FF43F24860C1F6A1
S32D00010560FF70024902F0B0F8BD4680BD0000F0410000DCC20000803F0000DC42000000410000C8420000B0C071
S32D00010588000040410000403F00008C4280B586B002AFA948A9494FF000024FF00003FEF747F8A74B00934FF0FC
S32D000105B05A00A6494FF002024FF00003FEF7C4FE4FF05A00A149FEF79FFFA048A0494FF000024FF00003FEF738
S32D000105D82FF840F20843C1F6FF731B689B4819464FF000024FF00103FEF7EAFB944B00934FF0000093494FF038
S32D0001060001024FF00003FEF79FFE4FF0FA0000F0EDFF4FF000008F49FEF776FF88484FF001018D4AFEF708FB7E
S32D000106280346FB7343F24860C1F6FF70894902F047F8844886494FF000024FF00003FDF7F7FF4FF000008149D5
S32D00010650FEF75AFF7D4880494FF000024FF00003FDF7EAFF4FF0FA0000F0C0FF4FF0AF007649FEF749FF43F238
S32D000106784860C1F6FF70764902F022F86E484FF00101754AFEF7D4FA4FF0FA0000F0AAFF6C4872494FF00002BF
S32D000106A04FF00003FDF7C8FF65484FF001016C4AFEF7C2FA654864494FF000024FF00003FDF7BAFF604B009311
S32D000106C84FF05A005F494FF001024FF00103FEF737FE4FF0FA0000F085FF4FF05A005949FEF70EFF40F20C43A8
S32D000106F0C1F6FF731B68554819464FF000024FF00003FEF761FB504B00934FF000004F494FF002024FF00103D4
S32D00010718FEF716FE4FF000004A49FEF7F1FE43F2B860C1F6FF7005F0BDF80346BB6042484B494FF000024FF0D4
S32D000107400003FDF779FF3E4848494FF00002FEF73FF903461846FCF719FE03467B6038484FF001013E4AFEF783
S32D0001076867FA374B00934FF05A0036494FF002024FF00103FEF7E4FD2F484FF001013A4AFEF756FA31483949FC
S32D000107904FF000024FF00103FEF716FB2A4B00934FF0000029494FF001024FF00103FEF7CBFD4FF0FA0000F08C
S32D000107B819FF234B00934FF0000022494FF000024FF00103FEF7BCFD4FF000001F49FEF797FE19484FF001014A
S32D000107E0234AFEF729FA43F24860C1F6FF701B4901F06AFF15481A494FF000024FF00003FDF71AFF0E4818499D
S32D000108084FF000024FF00003FDF712FF43F24860C1F6FF700B4901F053FF0A4814494FF000024FF00003FDF779
S32D0001083003FF7B68184607F11007BD4680BD00BF0000DCC20000C0400000803F0000DC42000010410000C84272
S32D00010858000020410000FA420000F0410000004000000041000000420000A0419A9959C10000404180B584B0C8
S32D0001088002AF786048484FF00101484AFEF7D4F943F24860C1F6FF70444901F015FF444B00934FF05A004349BF
S32D000108A84FF002024FF00003FEF74AFD4FF05A003E49FEF725FE3A484FF001013C4AFEF7B7F94FF00100394978
S32D000108D04FF00A024FF00003FEF73EFC7B68022B08D1344835494FF000024FF00003FDF7A3FE34E02F4832493C
S32D000108F84FF000024FF00003FDF79AFE2A4B00934FF0000029494FF001024FF00003FEF717FD23484FF00101D0
S32D00010920284AFEF789F9284B00934FF05A0021494FF002024FF00003FEF706FD4FF001001C494FF00A024FF00A
S32D000109480003FEF705FC19481A494FF000024FF00003FDF76DFEFFF773FD11484FF00101184AFEF765F91148D3
S32D0001097013494FF000024FF00003FDF75DFE0C4B00934FF000000B494FF001024FF00003FEF7DAFC4FF000001F
S32D000109980649FEF7B5FD07F10807BD4680BD00BF0000DCC20000F0410000803F0000DC420000A0410000E04087
S32D000109C0000050410000A040000000000000204280B582B002AF43F24860C1F6FF70404901F072FE3F48404920
S32D000109E84FF001024FF00103FEF7D2FA43F24860C1F6FF703B4901F063FE3B4B00934FF05A003A494FF001024A
S32D00010A104FF00003FEF798FC364837494FF000024FF00003FEF7D0F9314B00934FF0000030494FF002024FF064
S32D00010A380003FEF785FC4FF000002C49FEF760FD2C484FF001012A4AFEF7F2F827482A494FF001024FF00103A1
S32D00010A60FEF7B2F9224B00934FF05A0021494FF002024FF00003FEF767FC4FF05A001D49FEF742FD43F24860D7
S32D00010A88C1F6FF70174901F01BFE18484FF003011A4AFEF7CDF8174819494FF000024FF00003FDF7C5FD43F2BF
S32D00010AB04860C1F6FF700A4901F006FE0D4813494FF000024FF00003FDF7B6FD43F24860C1F6FF70054901F0E4
S32D00010AD8F7FDBD4680BD00BF0000FA420000C842000018420000F0410000803F0000DC42000020410000DCC24F
S32D00010B0000002642000000410000C0400000E04080B582B002AF4FF05A001A49FEF7F4FC19481A494FF00002FF
S32D00010B284FF00003FDF784FD174B00934FF0000012494FF001024FF00003FEF701FC10484FF00101114AFEF7F9
S32D00010B5073F80F4B00934FF05A000A494FF002024FF00003FEF7F0FB4FF05A000549FEF7CBFC05484FF001019C
S32D00010B78074AFEF75DF8BD4680BD00BF0000DC420000DCC20000F0410000803F0000204100007A4480B500AF05
S32D00010BA044F2E022C1F6FF7243F23863C1F6FF73D31A194643F23863C1F6FF731A460B4610464FF000011A46E1
S32D00010BC804F0ADFF80BD00BF06F038F800F0B0F9FFF7E0FF05F0E8FF05F084FF06F03EF800F00CF84FF000001B
S32D00010BF043F2C061C1F6FF71FDF728FC0346184604F06CFF80B500AF4FF4E043C4F204034FF4E042C4F2040213
S32D00010C1802F5805202F13802126842F4785203F5805303F138031A6000F02EF900F094F843F2CC63C1F6FF73A9
S32D00010C404FF058021A6043F2CC63C1F6FF731B684FF47A7202FB03F243F2C863C1F6FF731A6043F2C863C1F627
S32D00010C68FF731B681A464FF4E043C4F2040303F5825303F104031B6803F070634FEA136303F10103B2FBF3F39A
S32D00010C901A4643F2D063C1F6FF731A604FF4E043C4F204034FF4E042C4F2040202F5805202F13C02126842F0E0
S32D00010CB8225203F5805303F13C031A604FF4E043C4F204034FF4E042C4F2040202F5805202F13002126842F043
S32D00010CE0006203F5805303F130031A604FF45043C4F203034FF480721A614FF0640000F009FB4FF45043C4F2B2
S32D00010D0803034FF45042C4F20302526922F010025A614FF45043C4F203034FF000021A604FF45043C4F20303AD
S32D00010D304FF010025A6101F005F801F0ADF843F2C460C1F6FF7000F069FB43F20070C1F6FF7002F0A1F841F2A8
S32D00010D58883000F047FC80BD80B400AF4FF48043C4F206034FF000025A704FF48043C4F206034FF098021A7069
S32D00010D804FF48043C4F206039B79DBB203F01003002B0CBF00230123DBB2002BF0D14FF48043C4F206039B7949
S32D00010DA8DBB203F00C034FEA9303022B0CBF00230123DBB2002BEED14FF48043C4F206034FF018021A714FF41C
S32D00010DD08043C4F206034FF000025A714FF4E043C4F2040303F5825303F104034FF00002C0F213121A604FF4A6
S32D00010DF88043C4F206034FF054025A7100BF4FF48043C4F206039B79DBB203F02003002B14BF00230123DBB2DD
S32D00010E20002BF0D100BF4FF48043C4F206039B79DBB203F04003002B14BF00230123DBB2002BF0D14FF4804398
S32D00010E48C4F206034FF48042C4F206021278D2B202F03F02D2B21A704FF48043C4F206039B79DBB203F00C0342
S32D00010E704FEA9303032B0CBF00230123DBB2002BEED14FF000031846BD4680BC704700BF80B400AF4FF44043CF
S32D00010E98C4F204034FF480725A634FF2C003C4F20F034FF2C002C4F20F02526942F400525A614FF2C003C4F22E
S32D00010EC00F034FF2C002C4F20F02126842F400521A604FF44043C4F2040340F20312C0F20A021A634FF46143BF
S32D00010EE8CEF200034FF46142CEF20002D2F8882142F08062C3F888214FF46143CEF200034FF46142CEF2000233
S32D00010F10926842F080629A60BD4680BC704700BF80B483B000AF7860FEE700BF80B400AF00BEBD4680BC7047CC
S32D00010F3880B400AF4FF0E0224CF20003C0F20003C2F8083D4FF40053C4F205034CF22052DA814FF40053C4F2C6
S32D00010F6005034DF62812DA814FF40053C4F205034FF0D2021A80BD4680BC704780B400AF4FF44043C4F2040325
S32D00010F88D3F8A03003F48053002B0CBF00230123DBB2002B19D04FF44043C4F204034FF44042C4F20402D2F829
S32D00010FB0A02022F48052C3F8A0204FF2C003C4F20F034FF2C002C4F20F02126822F400521A60BD4680BC704707
S32D00010FD880B483B000AF78600B46FB707B68FA781A707B684FF000025A707B68184607F10C07BD4680BC704731
S32D0001100080B582B000AF78607B685B78002B10D07B684FF000025A707B681B7843F2C460C1F6FF7019464FF091
S32D0001102800024FF01E0300F03FFA07F10807BD4680BD00BF80B584B000AF786039603B687F2B03DD4FF07F0391
S32D00011050FB7309E03B6813F1800F03DA4FF08003FB7301E03B68FB737B685B78FA7B9A420FD07B68FA7B5A70DD
S32D000110787B681A78FB7B43F2C460C1F6FF7011461A464FF01E0300F00FFA07F11007BD4680BD00BF90B486B047
S32D000110A000AFF860B9607A60FA684FF42043C4F206039A4214D14FF4E043C4F204034FF4E042C4F2040202F564
S32D000110C8805202F13402126842F4806203F5805303F134031A6083E0FA684FF43043C4F206039A4214D14FF4BE
S32D000110F0E043C4F204034FF4E042C4F2040202F5805202F13402126842F4006203F5805303F134031A6067E015
S32D00011118FA684FF44043C4F206039A4214D14FF4E043C4F204034FF4E042C4F2040202F5805202F13402126850
S32D0001114042F4805203F5805303F134031A604BE0FA684FF45043C4F206039A4214D14FF4E043C4F204034FF4BF
S32D00011168E042C4F2040202F5805202F13402126842F4005203F5805303F134031A602FE0FA684FF42043C4F249
S32D000111900E039A4214D14FF4E043C4F204034FF4E042C4F2040202F5805202F12802126842F4806203F58053D7
S32D000111B803F128031A6013E04FF4E043C4F204034FF4E042C4F2040202F5805202F12802126842F4006203F548
S32D000111E0805303F128031A60FB68DB78DBB223F00C03DAB2FB68DA70FB684FF000029A70BB684FF47A7202FBD9
S32D0001120803F27B684FEA031392FBF3F39CB2FB681B78DBB223F01F03FB75234603F4F8534FEA2323DBB203F0FD
S32D000112301F03DAB2FB7D1343DAB2FB681A70E2B2FB685A70BB684FF4FA4202FB03F27B684FEA031392FBF3F3A0
S32D000112589AB2234619464FEAC121CB1A4FEA43139BB2D3189CB2FB689B7ADBB223F01F03FB75E3B203F01F03EA
S32D00011280DAB2FB7D1343DAB2FB689A72FB68DB78DBB243F00C03DAB2FB68DA7007F11807BD4690BC704700BF50
S32D000112A880B483B000AF786000BF7B681B79DBB203F02003002B14BF00230123DBB2002BF3D17B68DB79DBB2CB
S32D000112D0184607F10C07BD4680BC704780B483B000AF78600B46FB7000BF7B681B79DBB2DBB26FEA0303DBB2AA
S32D000112F84FEAD313DBB2002BF3D17B68FA78DA7107F10C07BD4680BC704700BF80B483B000AF78604FF4E04378
S32D00011320C4F204034FF4E042C4F2040202F5805202F13802126842F0010203F5805303F138031A604FF0000365
S32D00011348C4F204037A689A604FF00003C4F204034FF005025A604FF00003C4F204034FF00002C4F20402126868
S32D0001137042F001021A6000BF4FF00003C4F204031B6803F08003002B14BF00230123DBB2002BF1D14FF00003E7
S32D00011398C4F204034FF00002C4F20402126822F001021A6007F10C07BD4680BC704700BF80B582B000AF7860B5
S32D000113C039607B68012B0AD13A684FF6FF739A4205D143F2C460C1F6FF7000F00FF807F10807BD4680BD00BFF4
S32D000113E880B500AF4FF001004FF6FF71FFF7E0FF80BD00BF80B483B000AF78607B684FF000021A707B6818464F
S32D0001141007F10C07BD4680BC704700BF80B582B000AF78607B681B7883F00103DBB2002B36D04FF4E043C4F238
S32D00011438040303F5805303F128034FF400621A604FF45043C4F204034FF440721A624FF45043C4F204034FF49B
S32D0001146040725A6243F2C863C1F6FF731B684FEAD372D3184FEA63034FF43040C4F20E0019464FF46142FFF729
S32D0001148809FE4FF0640000F0ADF87B684FF001021A704FF0010301E04FF00003184607F10807BD4680BD00BF7D
S32D000114B080B582B000AF7860F970BA707B704FF43040C4F20E004FF07F01FFF707FF4FF43040C4F20E004FF0B9
S32D000114D80801FFF7FFFEFB784FF43040C4F20E001946FFF7F7FEBB784FF43040C4F20E001946FFF7EFFE7B78D6
S32D000115004FF43040C4F20E001946FFF7E7FE4FF43040C4F20E004FF0FF01FFF7DFFE07F10807BD4680BD00BF7C
S32D0001152880B487B000AFF860B9607A60FA6844F6D353C1F26203A3FB02134FEA9312BB68D3187B61FA6844F63E
S32D00011550D353C1F26203A3FB02134FEA93134FF47A7101FB03F3D31AFB60FB684FEAC33244F6D353C1F262032B
S32D00011578A3FB02134FEA93127B68D3183B613B694FEAD3337A69D3187B613B694FEA43434FEA53433B614FF4AB
S32D000115A05043C4F203031B681A467B699A4211D34FF45043C4F203031B681A467B699A420BD14FF45043C4F2A9
S32D000115C803035B681A463B699A4202D24FF0010301E04FF00003002BDDD107F11C07BD4680BC704780B584B0BE
S32D000115F000AF78604FF45043C4F203031B68FB604FF45043C4F203035B68BB607B681846F968BA68FFF788FF24
S32D0001161807F11007BD4680BD80B584B000AF4FF45043C4F203031B68FB604FF45043C4F203035B68BB60F868FC
S32D00011640FBF728F802460B46C7E90023B868FBF721F802460B46104619464FF000024FF0804303F56003FBF7F4
S32D00011668B5F902460B46D7E90001FAF7D3FE02460B46C7E90023D7E900231046194607F11007BD4680BD00BF77
S32D0001169080B483B000AF4FF45043C4F203031B684FF47A7202FB03F37B604FF45043C4F203035B684FF47A727F
S32D000116B802FB03F34FEAD3337A68D3187B607B68184607F10C07BD4680BC704780B582B000AF78600B46FB703D
S32D000116E0FB787868194600F013F87B68184607F10807BD4680BD00BF80B483B000AF78607B68184607F10C07AD
S32D00011708BD4680BC704700BF80B483B000AF78600B46FB707B68FA781A707B681B781A4648F20473C0F2010337
S32D000117309B5C042B00F2F98001A252F823F000BF55170100B3170100111801006F180100CD1801004FF41043D4
S32D00011758C4F204037A681278114648F24872C0F2010252F8212040F2031143F822104FF47043C4F20F034FF4FA
S32D000117807042C4F20F02526911467A681278104648F24872C0F2010252F8202002F01F024FF0010000FA02F279
S32D000117A86FEA02020A405A61BBE04FF42043C4F204037A681278114648F24872C0F2010252F8212040F2031175
S32D000117D043F822104FF24003C4F20F034FF24002C4F20F02526911467A681278104648F24872C0F2010252F820
S32D000117F8202002F01F024FF0010000FA02F26FEA02020A405A618CE04FF43043C4F204037A681278114648F203
S32D000118204872C0F2010252F8212040F2031143F822104FF28003C4F20F034FF28002C4F20F02526911467A68E2
S32D000118481278104648F24872C0F2010252F8202002F01F024FF0010000FA02F26FEA02020A405A615DE04FF43B
S32D000118704043C4F204037A681278114648F24872C0F2010252F8212040F2031143F822104FF2C003C4F20F0393
S32D000118984FF2C002C4F20F02526911467A681278104648F24872C0F2010252F8202002F01F024FF0010000FA03
S32D000118C002F26FEA02020A405A612EE04FF45043C4F204037A681278114648F24872C0F2010252F8212040F2D9
S32D000118E8031143F822104FF47143C4F20F034FF47142C4F20F02526911467A681278104648F24872C0F2010257
S32D0001191052F8202002F01F024FF0010000FA02F26FEA02020A405A6100BF07F10C07BD4680BC704780B485B052
S32D0001193800AF78604FF00003FB607B681B781A4648F20473C0F201039B5C042B00F2868001A252F823F000BF42
S32D0001196075190100A5190100D5190100051A0100351A01004FF47043C4F20F031B691A467B681B78194648F2FA
S32D000119884873C0F2010353F8213003F01F034FF0010101FA03F31340FB605FE04FF24003C4F20F031B691A46BF
S32D000119B07B681B78194648F24873C0F2010353F8213003F01F034FF0010101FA03F31340FB6047E04FF280030C
S32D000119D8C4F20F031B691A467B681B78194648F24873C0F2010353F8213003F01F034FF0010101FA03F313407E
S32D00011A00FB602FE04FF2C003C4F20F031B691A467B681B78194648F24873C0F2010353F8213003F01F034FF02D
S32D00011A28010101FA03F31340FB6017E04FF47143C4F20F031B691A467B681B78194648F24873C0F2010353F889
S32D00011A50213003F01F034FF0010101FA03F31340FB6000BFFB68002B0CBF00230123DBB2184607F11407BD46C1
S32D00011A7880BC704780B483B000AF78600B46FB707B68FA781A707B68184607F10C07BD4680BC70470000000081
S32D00011AA080B586B000AF78607B681B781A4648F2C873C0F2010353F822303B617B681B781A4648F22473C0F292
S32D00011AC801039B5CFB733B69DBB203F01F03DAB243F2D463C1F6FF731A723B69DBB203F01F03DAB243F2D46355
S32D00011AF0C1F6FF735A724FF46143CEF200034FF46142CEF20002D2F8882042F01002C3F88820FB7B002B1ED1D7
S32D00011B184FF43040C4F2030043F2D461C1F6FF7100F04CFD4FF43043C4F203031B6803F08003002B14BF0023DC
S32D00011B400123DBB2002BF1D14FF43043C4F203031B697B611DE04FF43040C4F20B0043F2D461C1F6FF7100F014
S32D00011B682DFD4FF43043C4F20B031B6803F08003002B14BF00230123DBB2002BF1D14FF43043C4F20B031B69F4
S32D00011B907B614FF46143CEF200034FF46142CEF20002D2F8882142F01002C3F888214FF46143CEF200034FF4F0
S32D00011BB86142CEF20002926842F010029A604FF46143CEF200034FF46142CEF20002D2F8882142F08062C3F8CD
S32D00011BE088214FF46143CEF200034FF46142CEF20002926842F080629A607B694FEA03434FEA13431846FAF792
S32D00011C0845FD02460B46104619460FA3D3E90023FAF7B2FD02460B46104619460CA3D3E90023FAF7D3FE024606
S32D00011C300B4610461946FBF785F80346BB60BB68184607F11807BD4680BD00BFAFF30080A4703D0AD7A30A40D4
S32D00011C5800000000E0FFEF4080B586B000AF78607B681B781A4648F2C873C0F2010353F822303B617B681B78AD
S32D00011C801A4648F22473C0F201039B5CFB733B69DBB203F01F03DAB243F2E463C1F6FF731A723B69DBB203F0C2
S32D00011CA81F03DAB243F2E463C1F6FF735A72FB7B002B1ED14FF43040C4F2030043F2E461C1F6FF7100F07AFCEB
S32D00011CD04FF43043C4F203031B6803F08003002B14BF00230123DBB2002BF1D14FF43043C4F203031B697B61E9
S32D00011CF81DE04FF43040C4F20B0043F2E461C1F6FF7100F05BFC4FF43043C4F20B031B6803F08003002B14BFF3
S32D00011D2000230123DBB2002BF1D14FF43043C4F20B031B697B617B69184607F11807BD4680BD00BF98B500AFA5
S32D00011D4843F2D463C1F6FF734FF05C021A7043F2D463C1F6FF734FF010025A7043F2D463C1F6FF7341F23422E2
S32D00011D705A8043F2D463C1F6FF7345F278629A8043F2D463C1F6FF734FF010029A7143F2D463C1F6FF734FF0E5
S32D00011D980702DA7143F2D463C1F6FF734FF4C022DA6043F2D463C1F6FF734FF01F021A7243F2D463C1F6FF73BE
S32D00011DC04FF01F025A724FF43040C4F2030043F2D461C1F6FF7100F0F5FB4FF43040C4F20B0043F2D461C1F656
S32D00011DE8FF7100F0EBFB4FF43040C4F20B0000F03FFB4FF43040C4F2030000F039FB4FF43040C4F20B0043F2AF
S32D00011E10D461C1F6FF7100F0D5FB4FF43040C4F2030043F2D461C1F6FF7100F0CBFB43F2E462C1F6FF7243F2FC
S32D00011E38D463C1F6FF7314460FCB84E80F0043F2E463C1F6FF734FF05C021A7043F2E463C1F6FF734FF00402B6
S32D00011E60DA7198BD80B500AF43F2F863C1F6FF731B6803F1010243F2F863C1F6FF731A6000F072F94FF4E043A8
S32D00011E88C4F203034FF00102C3F80C2180BD00BF80B500AF4FF4E043C4F203034FF001021A6048F2A060C0F29B
S32D00011EB0010000F023F84FF4E043C4F203034FF00302C3F808214FF46143CEF200034FF46142CEF20002D2F891
S32D00011ED8882142F01002C3F888214FF46143CEF200034FF46142CEF20002926842F010029A6080BD80B483B05C
S32D00011F0000AF78604FF4E043C4F203037A68C3F8002107F10C07BD4680BC704780B584B000AF78600B46FB709E
S32D00011F287A68FB7810461946FFF7A4FD43F2F463C1F6FF731B68002B32D17B684FF000021A617B684FF00002C0
S32D00011F505A614FF0140004F091FE02467B689A617B689B697A689A607B689B694FF001025A607B689B69FA78AC
S32D00011F781A707B689B694FF00002DA607B689B694FF000021A617B689B694FF000025A707B689A6943F2F46347
S32D00011FA0C1F6FF731A6071E043F2F463C1F6FF731B68FB6002E0FB68DB68FB60FB681B78FA789A4206D0FB682B
S32D00011FC8DB68002B02D04FF0010301E04FF00003002BECD1FB681B78FA789A4224D17B68FA689A617B689B69FC
S32D00011FF09B68BB6002E0BB681B69BB60BB681B69002B0CBF00230123DBB2002BF3D1BB687A681A617B68BA681B
S32D000120185A617B684FF000021A617B689B695A6802F101025A602DE07B684FF000021A617B684FF000025A615B
S32D000120404FF0140004F01AFE02467B689A617B689B697A689A607B689B694FF001025A607B689B69FA781A7063
S32D000120687B689B694FF00002DA607B689B694FF000025A707B689B69FA681A617B689A69FB68DA60786800F0DE
S32D00012090F7F87B684FF48C429A607B684FF45242DA607B68184607F11007BD4680BD00BF80B586B000AF78600F
S32D000120B87B685B697B617B681B693B617B69002B31D13B69002B2ED17B689B691B69FB607B689B69DB68BB6089
S32D000120E0FB68002B0AD1BB68002B07D143F2F463C1F6FF734FF000021A6012E0FB68002B03D0FB68BA68DA60C0
S32D0001210805E043F2F463C1F6FF73BA681A60BB68002B02D0BB68FA681A617B689B69184604F0CEFD16E07B6974
S32D00012130002B03D07B693A691A6103E07B689B693A699A603B69002B02D03B697A695A617B689B695A6802F19A
S32D00012158FF325A607B68184607F11807BD4680BD80B584B000AF43F2F463C1F6FF731B68FB6029E0FB685B78EB
S32D00012180FB71FB689B68184600F02EF80346BB71BB79002B19D0FB685B68012B15DDFB689B681B69BB6008E0FC
S32D000121A8BB685B6803F10102BB685A60BB681B69BB60BB68002B0CBF00230123DBB2002BEED1FB68DB68FB60B4
S32D000121D0FB68002B0CBF00230123DBB2002BCDD107F11007BD4680BD80B584B000AF78607868FFF735FD03465A
S32D000121F8FB607B689B695B78FB72FB7A002B12D17B68DA68FB689A420DDA7B689B694FF001025A707B685B68CF
S32D0001222003F101027B685A604FF0010317E0FB7A012B12D17B689A68FB689A420DDD7B689B694FF000025A703D
S32D000122487B685B6803F101027B685A604FF0010301E04FF00003184607F11007BD4680BD80B483B000AF78602C
S32D000122707B685B68184607F10C07BD4680BC704780B483B000AF78607B684FF000025A6007F10C07BD4680BC24
S32D00012298704700BF80B582B000AF78600B46FB707B681846FFF724FA7B6803F101031846FFF71EFA7B6803F184
S32D000122C002031846FFF718FAFB78032B66D801A252F823F0E522010013230100412301006F2301007B6818462D
S32D000122E84FF00001FFF710FA7B6803F1010318464FF00101FFF708FA7B6803F1020318464FF00201FFF700FAA9
S32D0001231044E07B6818464FF00801FFF7F9F97B6803F1010318464FF00901FFF7F1F97B6803F1020318464FF02E
S32D000123380A01FFF7E9F92DE07B6818464FF01001FFF7E2F97B6803F1010318464FF01101FFF7DAF97B6803F1FA
S32D00012360020318464FF01201FFF7D2F916E07B6818464FF01801FFF7CBF97B6803F1010318464FF01901FFF707
S32D00012388C3F97B6803F1020318464FF01A01FFF7BBF900BF7B68184607F10807BD4680BD80B582B000AF7860F7
S32D000123B07B681846FFF7BEFA034683F00103DBB2184607F10807BD4680BD00BF80B582B000AF78607B6818462F
S32D000123D8FFF7ACFA0346184607F10807BD4680BD80B582B000AF78607B6803F101031846FFF79CFA034683F0DD
S32D000124000103DBB2184607F10807BD4680BD00BF80B582B000AF78607B6803F101031846FFF788FA0346184672
S32D0001242807F10807BD4680BD80B582B000AF78607B6803F102031846FFF778FA034683F00103DBB2184607F10B
S32D000124500807BD4680BD00BF80B582B000AF78607B6803F102031846FFF764FA0346184607F10807BD4680BDE5
S32D0001247880B485B000AF78607B681B6A23F040027B681A627B685B6A23F00B027B685A627B685B6A43F00702DE
S32D000124A07B685A627B685B6A43F080027B685A627B681B6803F08003002B14BF00230123DBB2002BF4D17B68F1
S32D000124C85B6A03F04003002B0CBF00230123DBB2002B02D04FF0010369E04FF00003FB817B68DB6CFB817B6850
S32D000124F09B6C9AB2FB89D318FB817B685B6C9AB2FB89D318FB817B681B6C9AB2FB89D318FB817B68DB6B9AB288
S32D00012518FB89D318FB817B689B6B9AB2FB89D318FB81FB894FEA5303FB81FB896FEA43436FEA5343FB81FA89A9
S32D000125407B68DA624FF00003FB817B68DB6EFB817B689B6E9AB2FB89D318FB817B685B6E9AB2FB89D318FB81E1
S32D000125687B681B6E9AB2FB89D318FB817B68DB6D9AB2FB89D318FB817B689B6D9AB2FB89D318FB81FB894FEA60
S32D000125905303FB81FB896FEA43436FEA5343FB81FA897B681A637B685B6A23F080027B685A624FF0000318461D
S32D000125B807F11407BD4680BC704700BF80B483B000AF786039603B681B781A467B689A603B685B781A467B6879
S32D000125E0DA603B685B881A467B689A613B689B881A467B68DA613B689B791A467B681A623B68DB791A467B68DA
S32D000126085A623B68DA687B681A653B681B7A1A467B681A603B685B7A1A467B685A6007F10C07BD4680BC704735
S32D0001263080B483B000AF78607B68184607F10C07BD4680BC704700BF80B582B000AF786039607B68012B0AD11B
S32D000126583A684FF6FF739A4205D143F2FC60C1F6FF70FFF7E1FF07F10807BD4680BD00BF80B500AF4FF0010091
S32D000126804FF6FF71FFF7E0FF80BD00BF80B483B000AF78600B46FB707B68FA781A707B684FF4FA725A807B68CD
S32D000126A840F6C4129A807B68044A9A607B68184607F10C07BD4680BC704700BF000080BFF0B585B000AF786011
S32D000126D039604FF001031C4638684B49FAF72EFE0346002B02D14FF000031C46E3B2002B01D0454B3B604FF066
S32D000126F801031C4638684349FAF73AFE0346002B02D14FF000031C46E3B2002B01D03D4B3B607B689B68184615
S32D000127203968FAF701FE0346002B64D17B683A689A607B685E887B689B881A467B685B88D31A1846F9F7B6FFEC
S32D0001274802460B46104619462BA3D3E90023FAF73DF902460B4614461D463868F9F7B8FF02460B462046294635
S32D00012770FAF706F802460B4610461946FAF7C2FA03469BB2F318FB81FB897B73FB894FEA23233B734FF430405D
S32D00012798C4F20E004FF07F01FEF79CFD4FF43040C4F20E004FF00501FEF794FD7B681B784FF43040C4F20E00D2
S32D000127C01946FEF78BFD3B7B4FF43040C4F20E001946FEF783FD7B7B4FF43040C4F20E001946FEF77BFD4FF491
S32D000127E83040C4F20E004FF0FF01FEF773FD07F11407BD46F0BD00BF00000000008066400000000000003443CB
S32D0001281080B582B000AF78604FF43040C4F20E004FF07F01FEF75AFD4FF43040C4F20E004FF00901FEF752FD25
S32D000128387B681B784FF43040C4F20E001946FEF749FD4FF43040C4F20E004FF00101FEF741FD4FF43040C4F296
S32D000128600E004FF0FF01FEF739FD07F10807BD4680BD00BF80B582B000AF78604FF43043C4F204034FF4807235
S32D00012888DA604FF42043C4F204034FF480729A644FF42043C4F204034FF480721A644FF42043C4F204034FF495
S32D000128B080725A644FF42043C4F204034FF48072DA604FF28003C4F20F034FF28002C4F20F02526942F008026A
S32D000128D85A614FF24003C4F20F034FF24002C4F20F02526942F480225A614FF24003C4F20F034FF24002C4F2AD
S32D000129000F02526942F480325A614FF24003C4F20F034FF24002C4F20F02526942F400325A614FF24003C4F28B
S32D000129280F034FF24002C4F20F02126842F008021A604FF24003C4F20F034FF24002C4F20F02526942F0080267
S32D000129505A614FF28003C4F20F034FF28002C4F20F02126842F008021A604FF42043C4F204034FF480725A6203
S32D000129784FF42043C4F204034FF480721A624FF43043C4F204034FF480721A614FF43043C4F204034FF4807251
S32D000129A05A614FF43043C4F204034FF480729A614FF43043C4F204034FF48072DA614FF43043C4F204034FF411
S32D000129C880721A634FF43043C4F204034FF480725A634FF43043C4F204034FF480729A634FF43043C4F20403F4
S32D000129F04FF48072DA634FF43043C4F204034FF480721A644FF43043C4F204034FF480725A644FF43043C4F24E
S32D00012A1804034FF480729A644FF43043C4F204034FF48072DA644FF44043C4F204034FF480721A604FF4404377
S32D00012A40C4F204034FF480729A604FF44043C4F204034FF48072DA604FF44043C4F204034FF480721A614FF215
S32D00012A684003C4F20F034FF24002C4F20F02526942F440725A614FF28002C4F20F024FF28003C4F20F035B69B2
S32D00012A9019464FF2F003C0F20F030B4353614FF2C003C4F20F034FF2C002C4F20F02526942F01D025A61786881
S32D00012AB84FF0E20100F000FD78684FF01D0100F03FFE78684FF0020100F03AFE78684FF0040100F035FE786805
S32D00012AE04FF0E00100F0ECFC78684FF0010100F02BFE4FF06400FEF779FD78684FF0E00100F0DEFC78684FF09E
S32D00012B08030100F01DFE78684FF0010100F0D4FC4FF00100FEF766FD78684FF0E60100F0CBFC78684FF0010138
S32D00012B3000F00AFE78684FF0A00100F005FE78684FF0FF0100F000FE78684FF0B00100F0B7FC78684FF01C010F
